:020000040800F2
:1000000000040020575D0008450100084701000872
:100010004B0100084F0100085301000800000000D8
:10002000000000000000000000000000590100086E
:1000300057010008000000005B0100085D01000896
:10004000775D0008775D0008775D0008770100089C
:10005000775D0008775D0008775D0008CB01000838
:10006000775D0008775D0008775D0008A70100084C
:10007000775D0008775D0008775D0008775D000810
:10008000775D0008775D0008775D0008775D000800
:10009000775D0008775D0008775D0008775D0008F0
:1000A000775D0008775D0008775D0008775D0008E0
:1000B000775D0008775D0008775D0008775D0008D0
:1000C000775D0008775D0008775D0008775D0008C0
:1000D000775D0008775D0008775D0008775D0008B0
:1000E000775D0008775D0008775D0008775D0008A0
:1000F000775D0008775D0008775D0008775D000890
:10010000775D00086F010008775D0008775D0008E3
:10011000775D0008775D0008775D0008775D00086F
:10012000775D0008775D0008775D0008B901000879
:10013000DFF80CD007F0C4FD004800477D3500080B
:1001400058190020704700BFFEE700BFFEE700BF60
:10015000FEE700BFFEE7704770477047224800681F
:1001600020B121480068401E1F490860704710B543
:1001700002F009F810BD10B5012005F075FA88B13C
:10018000012005F081FA01201849086005F040FAC5
:1001900005F002FA1649884204D1002005F005FA5C
:1001A00005F036FA10BD10B5022005F0B0F910B117
:1001B000012005F0BFF910BD10B50E4805F0A7F9F4
:1001C00010B10D4805F0B6F910BD10B5022005F0CC
:1001D000A7FD38B14FF48071084804F0B0FB02204D
:1001E0000749086010BD0000840100209401002030
:1001F00080510100000002100000011000140140B5
:100200001404014070B52A25FE48446B01E0FD4806
:10021000446B14F0450FFAD014F0040F05D00325F9
:10022000042005F059F8284670BD14F0010F05D0E0
:100230000125012005F050F82846F5E740F2FF506F
:1002400005F04AF82846EFE72DE9F04106460F464B
:100250004FF02A08EB48456B01E0EA48456B15F082
:10026000450FFAD015F0040F07D04FF00308042013
:1002700005F032F84046BDE8F08115F0010F06D0D8
:100280004FF00108012005F027F84046F3E704F09D
:10029000C7FFB04203D04FF010084046EBE740F2F2
:1002A000FF5005F019F8002004F0BEFF044614F4D6
:1002B000604F03D1200C38804046DCE714F4005F27
:1002C00001D01320D7E714F4804F01D01020D2E7DB
:1002D00014F4004F01D00F20CDE74046CBE738B5EE
:1002E0002A240120009004F06CFF10B92524204638
:1002F00038BDC5480068042829D00020C3490860DB
:1003000002204860C02088600020C8604FF48060F0
:100310000861084604F06AFFFFF774FF04462A2CC0
:1003200001D02046E4E7002004F07EFFB8490860D1
:10033000042004F079FFB6494860082004F074FFF7
:10034000B34988600C2004F06FFFB149C860AE4823
:10035000006858B1AC480068012807D0AA48006876
:10036000062803D0A8480068022817D10020A74912
:10037000086003204860402088600020C8604FF477
:1003800080600861084604F031FF69460320FFF7EA
:100390005BFF04462A2C01D02046A9E79A48006852
:1003A00004282FD0BDF800009A490860BDF800006D
:1003B00000049649086009204860C0208860002039
:1003C000C8604FF480600861084604F00FFFFFF733
:1003D00019FF04462A2C01D0204689E7002004F0AA
:1003E00023FF8D490860042004F01EFF8A494860FD
:1003F000082004F019FF884988600C2004F014FFDD
:100400008549C8602A24204672E770B52A257D48B0
:10041000446B01E07B48446B14F0450FFAD014F0B4
:10042000040F05D00325042004F056FF284670BDB4
:1004300040F2FF5004F050FF2846F8E72DE9F04164
:1004400006462A276F48456B01E06E48456B15F05C
:10045000450FFAD015F0040F06D00327042004F04E
:100460003BFF3846BDE8F08115F0010F05D00127AC
:10047000012004F031FF3846F4E704F0D1FEB04229
:1004800002D010273846EDE740F2FF5004F024FF79
:10049000002004F0C9FE04466048044201D13846F9
:1004A000E0E714F0004F01D01C20DBE714F0804F90
:1004B00001D00920D6E714F0005F01D00A20D1E76F
:1004C00014F0805F01D00B20CCE714F0006F01D056
:1004D0000C20C7E714F0806F01D00D20C2E714F0A4
:1004E000807F01D00E20BDE714F4000F01D00F2053
:1004F000B8E714F4800F01D01020B3E714F4001F04
:1005000001D01120AEE714F4801F01D01220A9E71A
:1005100014F4002F01D01320A4E714F4802F01D08D
:1005200014209FE714F4003F01D015209AE714F43B
:10053000803F01D0162095E714F4004F01D017201A
:1005400090E714F4804F01D018208BE714F4005F7B
:1005500001D0192086E714F0080F01D01A2081E796
:1005600038467FE770B52A2642F210752548446B5D
:1005700002E06D1E2348446B14F0450F01D1002D9D
:10058000F7D115B114F0040F05D00326042004F0B0
:10059000A3FE304670BD14F0400F05D02A2640203F
:1005A00004F09AFE3046F5E73046F3E770B52A25A9
:1005B00042F2107400E0641E24B1802004F082FE38
:1005C0000028F8D014B90325284670BD40F2FF502A
:1005D00004F082FE2846F8E72DE9F0412A2400269F
:1005E000002500274FF00008B2200D4908700020B8
:1005F00048608860C86008614861084604F0B6FD3C
:1006000003200FE00080014000000020FC010020DA
:10061000D401002004000020C401002008E0FFFDF8
:10062000E401002004F0C2FD012004F0BCFD002024
:10063000FE49086048608860C8604FF480600861C7
:10064000084604F0D3FDFFF7B1FF04462A2C02D080
:100650002046BDE8F0814FF4D570F44908600820C9
:100660004860402088600020C8604FF480600861C6
:10067000084604F0BBFDFFF775FF04462A2C05D1A0
:100680000120EB4908604FF0804812E00020E74964
:10069000086037204860402088600020C8604FF420
:1006A00080600861084604F0A1FD3720FFF7C6FE10
:1006B00004460020DD4908603720486040208860FB
:1006C0000020C8604FF480600861084604F08EFD89
:1006D0003720FFF7B3FE04462A2C4CD138E0002027
:1006E000D249086037204860402088600020C860F8
:1006F0004FF480600861084604F078FD3720FFF76A
:100700009DFE04462A2C01D02046A2E7C94848EAAB
:100710000000C64908602920486040208860002009
:10072000C8604FF480600861084604F05FFDFFF781
:100730006CFE04462A2C01D020468AE7002004F0F3
:1007400073FD0646012080EAD67080F001076D1C1B
:100750001FB94FF6FF708542C1D34FF6FF70854237
:1007600002D31B24204674E706F08040060002D026
:100770000220AF49086020466BE708B50121302010
:1007800004F0C6FA4FF4F850ADF8000003208DF8DD
:10079000020018208DF803006946A74804F022F8EB
:1007A0000420ADF800006946A44804F01BF808BD19
:1007B00038B52A240121082004F0AAFA2020ADF837
:1007C000000010208DF8030003208DF80200694618
:1007D0009B4804F007F82021994804F0B0F8FFF78F
:1007E000CCFF0121880204F086FA0121022004F0E6
:1007F00082FA04F0ADFCFFF7EFFE04462A2C01D08C
:10080000204638BDFFF76BFD04462A2C01D0204658
:10081000F7E701208B490870002048608860C860B5
:1008200008614861084604F0A1FC2046E9E710B5DC
:100830002A24002004F0BAFC204610BD30B5014641
:100840002A2000227A4B1B7881F84E307E4B1B8881
:10085000A1F84C307D4B1B681A0E93090B70C2F344
:1008600083034B7002F003038B70784B1B68C3F358
:100870000742CA70754B1B88C3F307220A71734B7A
:100880001A784A715B681A0E1301CB806F4B5B6854
:10089000C3F30742CB8843EA1213CB8002F00F0365
:1008A0000B726A4B9B88C3F30722D3094B72C2F3C6
:1008B00080138B72C2F34013CB72C2F300130B731D
:1008C00000234B735A4B1B681BB1594B1B68012B00
:1008D0003CD193071B0D0B615C4B1A790B6943EA02
:1008E00082030B61594B9B681A0E0B6943EA921302
:1008F0000B61C2F3C2030B7502F007034B75534B38
:100900009B68C3F3074253098B75C2F38203CB750F
:1009100093075B0F0B764D4B1B89C3F307220B7EAE
:1009200043EAD2130B760B695B1C4B640C7E4B6C59
:10093000A41C0125A5406B434B640C7A0123A34002
:100940008B64D1E9113463434B6421E0384B1B685D
:10095000022B1DD13D4B1A7993069B0A0B613B4B31
:100960009B681A0E0B6943EA02230B61374B9B68A5
:10097000C3F307420B6913430B61344B1B89C3F369
:1009800007220B695B1CDB044B644FF400738B6420
:10099000C2F3801301F8193F93065B0E4B702B4B8B
:1009A0001A7A4B7843EAD2134B7002F07F038B70B4
:1009B000264BDB681A0ED309CB70C2F341130B71BF
:1009C000C2F382034B7193071B0F8B711F4BDB68C4
:1009D000C3F307428B7943EA92138B71C2F340133E
:1009E000CB7100230B7202F001034B72174B9B89F2
:1009F000C3F30722D3098B72C2F38013CB72C2F305
:100A000040130B73C2F300134B73C2F381038B7358
:100A100002F00303CB730D4B1A7B53080B740123B5
:100A20004B740B4B1B681A0ECA7413E0FC010020B8
:100A30000000002000001080001001400014014060
:100A4000000C0140E401002004000020C40100204B
:100A5000D4010020A1F11901FD4B1B68C3F307422B
:100A60004FEA0224CC85FA4B1B88C3F30722CB8DB7
:100A700043EA0203CB85F64B1A784FEA02640C6313
:100A80005B684FEA13620B6B43EA02440C63F04B62
:100A90005B68C3F307420B6B43EA02240C63EC4B25
:100AA0009B88C3F307220B6B43EA02030B63E84BFB
:100AB0001A794FF034035A54E54B9B684FEA13629E
:100AC0004FF035035A54E24B9B68C3F307424FEA99
:100AD00002648C63DE4B1B89C3F307228B6B43EAF2
:100AE00002448C63DA4B1A7A8B6B43EA02248C63E0
:100AF000D74BDB684FEA13628B6B43EA02038B63CD
:100B0000D34BDB68C3F307424FF03C035B5C43EA23
:100B100012144FF03C035C544FEA02734FEA135433
:100B2000CC87CB4B9B89C3F30722CB8F43EA0203CD
:100B3000CB87C74B1A7B4FEA52044FF040035C54FB
:100B40004FF001044FF041035C5430BD2DE9FC41EE
:100B500007460D4600262A24002000900190082018
:100B6000BC49086010204860402088600020C860B0
:100B70004FF480600861084604F038FB1020FFF74E
:100B80005DFC04462A2C02D02046BDE8FC81B24818
:100B900000880004AF490860372048604020886022
:100BA0000020C8604FF480600861084604F01EFB16
:100BB0003720FFF743FC04462A2C01D02046E4E707
:100BC000A648A749086008204860302088600220B5
:100BD000C8600020086101204861084604F029FB34
:100BE00000209C4908603320486040208860002035
:100BF000C8604FF480600861084604F0F7FA3320BB
:100C0000FFF71CFC04462A2C01D02046BDE709E072
:100C10004FF4001004F056FB20B104F02CFB4DF80B
:100C20002600761C8F48406B40F22A610842EFD0C4
:100C3000082004F047FB28B1082004F04DFB0424F1
:100C40002046A2E7022004F03DFB28B1022004F078
:100C500043FB0224204698E7202004F033FB28B110
:100C6000202004F039FB062420468EE74FF4007064
:100C700004F028FB30B14FF4007004F02DFB072482
:100C8000204682E740F2FF5004F026FB0098000661
:100C9000009901F47F4140EA0120009901F47F01AD
:100CA00040EA1120009940EA11606860019800064E
:100CB000019901F47F4140EA0120019901F47F018B
:100CC00040EA1120019940EA1160286020465CE763
:100CD0007CB505462A2400200090019004F0A4FA77
:100CE00010F0007F02D00E2420467CBD5A490988AE
:100CF00088B26946FFF72AFF04462A2C01D0204615
:100D0000F3E7012D37D1019810F4802F30D05248ED
:100D1000008800044F490860372048604020886000
:100D20000020C860A8020861084604F05FFA372076
:100D3000FFF784FB04462A2C01D02046D5E7022089
:100D40004449086006204860402088600020C86050
:100D50004FF480600861084604F048FA0620FFF767
:100D60006DFB04462A2C01D02046BEE72046BCE796
:100D700025242046B9E7019810F4803F31D0364849
:100D800000880004334908603720486040208860AC
:100D90000020C8604FF480600861084604F026FA1D
:100DA0003720FFF74BFB04462A2C01D020469CE756
:100DB0000020284908600620486040208860002004
:100DC000C8604FF480600861084604F00FFA0620FE
:100DD000FFF734FB04462A2C01D0204685E7204645
:100DE00083E72524204680E770B504462A251E485F
:100DF0000068032802D12725284670BD1A480068DC
:100E000038B119480068012803D017480068022843
:100E100040D1B4F5805F02D127252846EDE7B4F52F
:100E2000006F25D10120FFF753FF05462A2D31D150
:100E300001200E490870002048608860C8604FF4A7
:100E40000060086100204861084604F08FF921E045
:100E5000D4010020FC01002004000020FFFF0F004F
:100E6000100200200080014000000020E40100206A
:100E70000020FFF72DFF05462A2D0BD10120F74951
:100E80000870002048608860C860086148610846B2
:100E900004F06CF92846B0E701462A2019B101296F
:100EA00001D0022902D1EE4A116000E026207047ED
:100EB00070B504462A25EB4804600720E9494860DC
:100EC000402088600020C8604FF4806008610846B8
:100ED00004F08CF90720FFF7B1FA0546284670BDEB
:100EE00030B58BB005460C46DF4804F006FB002108
:100EF000DE4804F0D7FADE48009001950020029009
:100F0000A0080390002004908020059080000690A7
:100F100080000790002008904FF4005009900020B6
:100F20000A906946D14804F092FA0121CF4804F0B2
:100F3000B9FA0BB030BD0146002002E04910421C56
:100F4000D0B20129FAD170472DE9F04707460D4686
:100F500014464FF02A084FF000092E464FF0000AC1
:100F600025B94FF026084046BDE8F0872A20C14940
:100F700008700020C0490860C0490860C048C149E5
:100F80000860002048608860C860086148610846C1
:100F900004F04FF9002004F026F9002004F044F991
:100FA00010F0007F03D04FF00E084046DCE7B64853
:100FB0000068022801D104027F0A002C21DDB4F56B
:100FC000006F1EDC601E20421BD12046FFF7B3FFDE
:100FD0008246A44804601020A249486040208860EE
:100FE0000020C8604FF480600861084604F0FEF8F5
:100FF0001020FFF723FA8046B8F12A0F05D04046AB
:10100000B2E74FF026084046AEE79D489D4908608C
:10101000084644604FEA0A1088600220C860002039
:10102000086101204861084604F003F99348046010
:10103000002096490860964805608A48076011209C
:1010400088494860402088600020C8604FF4806074
:101050000861084604F0CAF81120FFF7EFF980464E
:10106000B8F12A0F01D040467EE77D48006802288B
:1010700057D111E04FF4004004F024F960B14FF073
:10108000000905E004F0F7F846F8290009F1010924
:10109000B9F1080FF6D3203675488038406B40F21E
:1010A0002A610842E6D0082004F00CF930B108208B
:1010B00004F012F94FF00408404655E7022004F00E
:1010C00001F930B1022004F007F94FF00208404660
:1010D0004AE7202004F0F6F830B1202004F0FCF8B4
:1010E0004FF0060840463FE74FF4007004F0EAF87E
:1010F00038B14FF4007004F0EFF84FF007084046A5
:1011000032E703E004F0B7F83060361D4FF400100A
:1011100004F0D8F80028F5D140F2FF5004F0DCF8D4
:101120002CE04F480068012813D1012148F22A30F1
:1011300004F04CF800BF5048006818B94D480078DA
:101140002A28F8D04B4800782A2817D04948007838
:101150000AE74348006888B9012140F22A3004F0C8
:1011600035F8012004F03FF821462846FFF7B8FE85
:1011700000BF484804F0AEF90028FAD04046F3E634
:101180002DE9F05F81460E4614461D464FF02A08B1
:101190004FF0000A37464FF0000B26B94FF02608F3
:1011A0004046BDE8F09F2A203249087000203249AD
:1011B00008603249086032483249086000204860BF
:1011C0008860C86008614861084604F032F8002071
:1011D00004F009F8002004F027F810F0007F03D095
:1011E0004FF00E084046DCE727480068022802D18D
:1011F00004024FEA5929002C21DDB4F5006F1EDCF2
:10120000601E20421BD12046FFF795FE83461548FD
:101210000460102013494860402088600020C860A6
:101220004FF480600861084603F0E0FF1020FFF7EC
:1012300005F98046B8F12A0F05D04046B1E74FF0D6
:1012400026084046ADE7012D7DD905FB04F0B0F13D
:10125000007F21D34FF026084046A2E7E40100209A
:1012600008000020FC01002000F0001044040240AF
:101270008080014014000020180000200C00002095
:10128000FFFF0F00100200200000002010000020CF
:10129000240000200020001005FB04F0FE49086037
:1012A0000120FE490860FE480660FE48FE490860CD
:1012B00005FB04F048604FEA0B1088600220C8600C
:1012C0000020086101204861084603F0B2FFF7489A
:1012D000C0F800901220F549486040208860002046
:1012E000C8604FF480600861084603F07FFF122059
:1012F000FFF7A4F88046B8F12A0F01D0404650E726
:10130000EB48006802287BD111E04FF4004003F065
:10131000D9FF60B14FF0000A05E003F0ACFF47F8D9
:101320002A000AF1010ABAF1080FF6D32037E14882
:10133000406B40F22A310842E7D0082003F0C2FF98
:1013400040B1082000E09EE003F0C6FF4FF0040823
:10135000404626E7022003F0B5FF30B1022003F03B
:10136000BBFF4FF0020840461BE7202003F0AAFF16
:1013700030B1202003F0B0FF4FF00608404610E7E0
:101380004FF4007003F09EFF38B14FF4007003F08B
:10139000A3FF4FF00708404603E703E003F06BFFAD
:1013A00038603F1D4FF4001003F08CFF0028F5D18A
:1013B0004FF4807003F086FF18B3BF48006838B15F
:1013C000BD480068022803D0BB480068012818D136
:1013D0000020B64908600C2048604020886000204A
:1013E000C8604FF480600861084603F0FFFE0C20DF
:1013F000FFF724F88046B8F12A0F02D04046D0E625
:1014000004E040F2FF5003F067FF3CE0A8480068AA
:10141000012813D1012148F22A3003F0D7FE00BF82
:10142000A648006818B9A64800782A28F8D0A44829
:1014300000782A2827D0A2480078B2E69C480068A5
:1014400008BB012140F22A3003F0C0FE012003F066
:10145000CAFE05FB04F13046FFF742FD00BF994884
:1014600004F038F80028FAD000BF9448006818B992
:10147000934800782A28F8D0914800782A2802D08A
:101480008F4800788DE640468BE67CB504462A25D9
:101490000020019000908C48008800048349086077
:1014A0000D204860402088600020C8604FF48060B4
:1014B0000861084603F09AFE7E48406B009002E007
:1014C0007C48406B0090009810F0450FF8D00098D1
:1014D00010F0040F05D00325042003F0FDFE28467C
:1014E0007CBD009810F0010F05D00125012003F00C
:1014F000F3FE2846F4E703F093FE009000980D28D1
:1015000002D010252846EBE740F2FF5003F0E4FE3E
:10151000002003F089FE01900198C0F34320207061
:101520006A490198084201D12846D9E7019810F08C
:10153000004F01D01C20D3E7019810F0804F01D05C
:101540000920CDE7019810F0005F01D00A20C7E71D
:10155000019810F0805F01D00B20C1E7019810F0D6
:10156000006F01D00C20BBE7019810F0806F01D014
:101570000D20B5E7019810F0807F01D00E20AFE775
:10158000019810F4000F01D00F20A9E7019810F482
:10159000800F01D01020A3E7019810F4001F01D0A4
:1015A00011209DE7019810F4801F01D0122097E7C9
:1015B000019810F4002F01D0132091E7019810F446
:1015C000802F01D014208BE7019810F4003F01D048
:1015D000152085E7019810F4803F01D016207FE7A1
:1015E000019810F4004F01D0172079E7019810F40A
:1015F000804F01D0182073E7019810F4005F01D0EC
:1016000019206DE7019810F0080F01D01A2067E744
:10161000284665E730B58BB005460C462C4803F0EC
:101620006CFF00212B4803F03DFF224880300090E2
:10163000019510200290A0080390002004908020C3
:1016400005908000069080000790002008904FF4DD
:101650000050099000200A9069461E4803F0F7FEEA
:1016600001211C4803F01EFF0BB030BD2DE9FF5FC8
:1016700082460F4614462A25002003900290834696
:101680000026019080460090B94627B926252846B5
:1016900004B0BDE8F09F1FE00C0000201000002007
:1016A00024000020FFFF0F0010020020FC0100209A
:1016B00008000020008001400000002018000020E9
:1016C00014000020002000100400002008E0FFFDAE
:1016D00000F00010440402402A20F849087000205D
:1016E000F7490860F7490860F748F84908600020A2
:1016F00048608860C86008614861084603F099FD49
:10170000002003F070FD002003F08EFD10F0007F3C
:1017100004D00E25284604B0BDE8F09FEC480068D0
:10172000022802D104024FEA5A2A002C20DDB4F527
:10173000006F1DDC601E20421AD12046FFF7FBFB24
:101740000390E44804601020E2494860402088602B
:101750000020C8604FF480600861084603F046FD31
:101760001020FEF76BFE05462A2D04D02846D2E74E
:1017700026252846CFE7D84800880004D5490860C8
:101780000D204860402088600020C8604FF48060D1
:101790000861084603F02AFD0D20FEF74FFE0546BE
:1017A0002A2D01D02846B6E7002003F03DFD019028
:1017B000DFF814B31EE0ABF1010BC748008800044A
:1017C000C44908600D204860402088600020C8603F
:1017D0004FF480600861084603F008FD0D20FEF715
:1017E0002DFE05462A2D01D0284694E7002003F05F
:1017F0001BFD0190019810F4807F02D1BBF1000F16
:10180000D9D1BBF1000F01D1292084E7B148C0F83C
:1018100000A01820AF494860402088600020C860C0
:101820004FF480600861084603F0E0FC1820FEF7E2
:1018300005FE05462A2D01D028466CE7A148046024
:101840000020A6490860A64807609F489F49086095
:10185000084644600398000188600020C860086161
:1018600001204861084603F0E4FC9E480068022815
:101870006AD139E04FF4804003F024FDA0B39148D1
:101880000068801B202820D28E480078801B10F032
:10189000030F04D18B480068801B800804E089484E
:1018A0000068801B8008401C00904FF0000808E092
:1018B000D9F8000003F0E2FC08F1010809F104097D
:1018C000361D009880450FD2F2E74FF0000805E082
:1018D00059F8280003F0D2FC08F10108B8F1080F0C
:1018E000F6D309F1200920367F48406B40F21A6197
:1018F0000842BFD0082003F0E5FC28B1082003F01F
:10190000EBFC0425284606E7022003F0DBFC28B1A7
:10191000022003F0E1FC02252846FCE6102003F03B
:10192000D1FC28B1102003F0D7FC05252846F2E6AB
:101930004FF4007003F0C6FCF0B34FF4007003F0F6
:10194000CBFC07252846E6E666480068012813D147
:10195000012144F21A3003F039FC00BF58480068F6
:1019600018B9564800782A28F8D0544800782A2810
:1019700028D052480078CEE65A480068E0B90121E4
:1019800040F21A3003F022FC21463846FFF742FEAF
:10199000012003F028FC00BF544803F09BFD002801
:1019A000FAD000BF4648006818B9444800782A2891
:1019B000F8D04248007800E004E02A2802D03F48EE
:1019C0000078A8E640F2FF5003F086FC02A8FFF77B
:1019D0005CFD054603E002A8FFF757FD05462A2DEA
:1019E00007D19DF808000728F5D09DF808000628C3
:1019F000F1D028468FE62DE9FE4F834688461446EF
:101A00001E462A2500200290019000278146009062
:101A1000C246B8F1000F03D126252846BDE8FE8F47
:101A20002A202649087000202549086025490860B9
:101A3000254826490860002048608860C860086121
:101A40004861084603F0F5FB002003F0CCFB0020C2
:101A500003F0EAFB10F0007F02D00E252846DDE7F8
:101A60001B480068022802D104024FEA5B2B002CBD
:101A700020DDB4F5006F1DDC601E20421AD1204627
:101A8000FFF759FA0290134804601020114948608A
:101A9000402088600020C8604FF4806008610846DC
:101AA00003F0A4FB1020FEF7C9FC05462A2D1FD029
:101AB0002846B3E726252846B0E70000140000209A
:101AC000180000200C000020FFFF0F001002002073
:101AD00000000020FC010020040000201000002075
:101AE000200000200800002000800140002000109D
:101AF000FE4800880004FE4908600D204860402030
:101B000088600020C8604FF480600861084603F0D8
:101B10006DFB0D20FEF792FC05462A2D01D02846CC
:101B20007CE7012E7AD906FB04F0B0F1007F02D3E6
:101B30002625284672E7EF48006838B1ED4800686E
:101B4000012803D0EB48006802282FD1E74800881D
:101B50000004E74908603720486040208860002082
:101B6000C8604FF480600861084603F03FFB3720EF
:101B7000FEF764FC05462A2D01D028464EE7DC48D6
:101B800006601720DA494860402088600020C8605D
:101B90004FF480600861084603F028FB1720FEF729
:101BA0004DFC05462A2D01D0284637E7D048C0F81D
:101BB00000B01920CE494860402088600020C860ED
:101BC0004FF480600861084603F010FB1920FEF70F
:101BD00035FC05462A2D01D028461FE706FB04F0F8
:101BE000C54908600120C5490860C548C0F80080A3
:101BF000C448C549086006FB04F04860029800012B
:101C000088600020C860086101204861084603F030
:101C100010FBBE48006802287ED13AE0D0E04FF4C5
:101C2000804003F04FFBA0B3B3480068C01B2028DE
:101C30000FD34FF0000905E05AF8290003F01EFB0E
:101C400009F10109B9F1080FF6D30AF1200A20378A
:101C50001FE0A9480078C01B10F0030F04D1A6486C
:101C60000068C01B800804E0A3480068C01B80080F
:101C7000401C00904FF0000908E0DAF8000003F083
:101C8000FDFA09F101090AF1040A3F1D0098814596
:101C9000F3D39F48406B40F21A310842BFD008206E
:101CA00003F010FB28B1082003F016FB042528469A
:101CB000B4E6022003F006FB28B1022003F00CFB7F
:101CC00002252846AAE6102003F0FCFA28B11020CD
:101CD00003F002FB05252846A0E64FF4007003F050
:101CE000F1FA30B14FF4007003F0F6FA07252846F8
:101CF00094E64FF4807003F0E5FA002860D07D4848
:101D0000006838B17B480068012803D07948006832
:101D1000022855D1002000E015E0754908600C202C
:101D20004860402088600020C8604FF480600861EF
:101D3000084603F05BFA0C20FEF780FB05462A2DCF
:101D40003ED028466AE671480068012813D1012177
:101D500044F21A3003F03AFA00BF6E48006818B92E
:101D60006D4800782A28F8D06B4800782A2827D0B8
:101D70006948007852E66548006808BB012140F2D6
:101D80001A3003F023FA012003F02DFA06FB04F1C8
:101D90004046FFF73FFC00BF604803F09BFB002874
:101DA000FAD000BF5B48006818B95B4800782A2861
:101DB000F8D0594800782A2802D0574800782DE6F4
:101DC00040F2FF5003F088FA01A8FFF75EFB0546DA
:101DD00003E001A8FFF759FB05462A2D07D19DF81E
:101DE00004000728F5D09DF804000628F1D0284605
:101DF00014E64748406B10F4405F01D00120704763
:101E00000020FCE710B52A240020394908600C2086
:101E10004860402088600020C8604FF480600861FE
:101E2000084603F0E3F90C20FEF708FB04462046C1
:101E300010BD2DE9FC4105460E462A24002700204E
:101E40000190009036484068202111EA105F03D1CC
:101E500025242046BDE8FC812D484068C0B2801C86
:101E60003049B1FBF0F00190002003F0DDF910F0F3
:101E7000007F02D00E242046ECE71E4800680228AE
:101E800001D16D0A760A1B48006838B1194800680C
:101E9000012803D01748006802284CD11448056077
:101EA000202013494860402088600020C8604FF41B
:101EB00080600861084603F099F92020FEF7BEFA19
:101EC00004462A2C01D02046C4E709480660212098
:101ED00007494860402088600020C8604FF4806057
:101EE0000861084603F082F921201DE0040000206B
:101EF000FC010020000000200C0000201000002049
:101F000020000020FFFF0F0010020020080000202A
:101F10000080014018000020140000200020001064
:101F2000C401002040190100FEF788FA04462A2C5B
:101F300001D020468EE70020FE4908602620486038
:101F4000402088600020C8604FF480600861084627
:101F500003F04CF92620FEF771FA04462A2C01D032
:101F6000204677E7002700E07F1C01988742FBD3DB
:101F70006846FFF78AFA044603E06846FFF785FAE9
:101F800004462A2C07D19DF800000728F5D09DF8BB
:101F900000000628F1D020465CE770B504462A25EB
:101FA00014B92625284670BDE34800880004E1499D
:101FB00008600D204860402088600020C8604FF411
:101FC00080600861084603F011F90D20FEF736FA2B
:101FD00005462A2D01D02846E5E7002003F024F924
:101FE00020602846DFE770B504462A260025002039
:101FF00003F01AF910F0007F02D00E26304670BDB3
:102000004020CC49086010204860402088600020B3
:10201000C8604FF480600861084603F0E7F81020BC
:10202000FEF70CFA06462A2E01D03046E7E7C248F2
:1020300000880004BF49086037204860402088605D
:102040000020C8604FF480600861084603F0CEF8B5
:102050003720FEF7F3F906462A2E01D03046CEE7A8
:10206000B648B74908604020486060208860022078
:10207000C8600020086101204861084603F0D9F8D3
:102080000020AC4908600D20486040208860002096
:10209000C8604FF480600861084603F0A7F80D207F
:1020A000FEF7CCF906462A2E01D03046A7E70EE00F
:1020B0004FF4004003F006F948B1002504E003F0B6
:1020C000DAF844F825006D1C082DF8D320349D481B
:1020D000406B40F22A610842EAD0082003F0F2F88F
:1020E00028B1082003F0F8F80426304687E70220DC
:1020F00003F0E8F828B1022003F0EEF8022630469B
:102100007DE7202003F0DEF828B1202003F0E4F87A
:102110000626304673E74FF4007003F0D3F830B171
:102120004FF4007003F0D8F80726304667E703E065
:1021300003F0A1F82060241D4FF4001003F0C2F852
:102140000028F5D140F2FF5003F0C6F8403C0025CE
:1021500015E014F82500000634F8251001F47F413D
:1021600040EA012054F8251001F47F0140EA1120D3
:1021700054F8251040EA116044F825006D1C102D1C
:10218000E7D330463BE770B5002400256E48006871
:10219000012867D1C00303F0A2F8A8B100BF06E090
:1021A00003F069F86949096841F82400641C082CA7
:1021B000F6D36648006820306449086064480068C7
:1021C0002030634908604DE04FF4804003F087F809
:1021D000002847D05F4800685D490968401A2028F8
:1021E0002BD25C4800785A490968401A10F0030F56
:1021F00006D15848006856490968401A800806E028
:102200005448006852490968401A8008401C054635
:1022100000240FE050490968086803F02FF8641C97
:102220004D480068001D4C49086049480068001D81
:1022300047490860AC42EDD314E0002406E046496B
:10224000096851F8240003F019F8641C082CF6D32F
:10225000414800682030404908603D48006820300F
:102260003B4908604FF4807003F039F8D8B3364822
:102270000068D0B10EE002F0FEFF34490968086042
:1022800032480068001D3149086031480068001D6F
:102290002F4908604FF4001003F014F828B12C48BF
:1022A00000682C4909688842E5D32C480068012859
:1022B00004D1FFF7A7FD2A49087002E02A20284927
:1022C00008704FF4807003F014F800214CF23A309B
:1022D00002F07CFF01202349086000201C490860AF
:1022E0001F48007870BDFFE7022002F0F8FF70B1D0
:1022F000022002F0FEFF00214CF23A3002F066FFAD
:10230000002013490860022015490870EAE70820F8
:1023100002F0E5FF40B3082002F0EBFF00214CF291
:102320003A3002F053FF00200949086004200C49AC
:102330000870D7E7FC01002004000020FFFF0F0019
:10234000100200200080014008000020240000202E
:102350001C0000200C0000202000002010000020A5
:102360001400002018000020FFE7202002F0B7FF33
:1023700070B1202002F0BDFF00214CF23A3002F093
:1023800025FF002017490860062017490870A9E7B3
:10239000102002F0A4FF70B1102002F0AAFF00216B
:1023A0004CF23A3002F012FF00200E49086005207E
:1023B0000D49087096E74FF4007002F090FF78B175
:1023C0004FF4007002F095FF00214CF23A3002F019
:1023D000FDFE00200349086007200349087081E7DB
:1023E0002A207FE71C0000201400002001B5FE49D0
:1023F0000098086000BFFC4800680028FBD108BDB9
:10240000F948006820B1F8480068401EF6490860A5
:10241000704710B503F027FD10BD2DE9F0438DB0D6
:1024200004462146684605F082F806002ED1204673
:1024300005F01FFCC5B21EE09DF8240010F0100F3F
:1024400013D009F101001FFA80F92F20605561199E
:10245000481C0DF1250105F013FC2046FFF7DDFFB8
:1024600006460020605536B10FE008F101001FFA62
:1024700080F80798074407A9684605F08CF806001D
:1024800003D19DF825000028D6D100BF30460DB0FD
:10249000BDE8F08310B58021D44802F050FA202125
:1024A000D24802F04CFA0121D14803F042FA0A2046
:1024B000FFF79CFF0021CE4803F03BFACD48808B0C
:1024C000CC49498F0844CB49B1F858100844C94950
:1024D000B1F876100844C749B1F894100844C549CA
:1024E000B1F8B2100844C349B1F8D0100844C1494A
:1024F000B1F8EE100844BF49B1F80C110844BD49C9
:10250000B1F82A1108440A2190FBF1F0BA49088475
:102510000121BA4803F00DFA0A20FFF767FF0021F6
:10252000B64803F006FAB6488088B5494989084498
:10253000B349098A0844B249C98A0844B049898B19
:102540000844AF49498C0844AD49098D0844AC4959
:10255000C98D0844AA49898E0844A949498F08446D
:102560000A2190FBF1F0A449488480219F4802F0A1
:10257000E6F920219D4802F0E0F901219C4803F092
:10258000D8F90A20FFF732FF0021994803F0D1F96A
:102590009848808B9749498F08449649B1F858105C
:1025A00008449449B1F8761008449249B1F894105F
:1025B00008449049B1F8B21008448E49B1F8D010DF
:1025C00008448C49B1F8EE1008448A49B1F80C115E
:1025D00008448849B1F82A1108440A2190FBF1F017
:1025E000854988840121854803F0A3F90A20FFF773
:1025F000FDFE0021814803F09CF9814880888049D4
:10260000498908447E49098A08447D49C98A0844A1
:102610007B49898B08447A49498C08447849098D5B
:1026200008447749C98D08447549898E084474491E
:10263000498F08440A2190FBF1F06F49C88480213A
:102640006A4802F07AF92021684802F078F90121FD
:10265000674803F06EF90A20FFF7C8FE00216448BE
:1026600003F067F96348808B6249498F08446149E8
:10267000B1F8581008445F49B1F8761008445D4934
:10268000B1F8941008445B49B1F8B21008445949B4
:10269000B1F8D01008445749B1F8EE100844554934
:1026A000B1F80C1108445349B1F82A1108440A2121
:1026B00090FBF1F0504908850121504803F039F9A9
:1026C0000A20FFF793FE00214C4803F032F94C48F2
:1026D00080884B49498908444949098A084448493E
:1026E000C98A08444649898B08444549498C0844AD
:1026F0004349098D08444249C98D08444049898E9F
:1027000008443F49498F08440A2190FBF1F03A49B7
:1027100048858021354802F010F92021334802F025
:102720000CF90121324803F004F90A20FFF75EFE9C
:1027300000212F4803F0FDF82E4800882D49C98B51
:1027400008442C49898F08442A49B1F85A10084492
:102750002849B1F8781008442649B1F89610084481
:102760002449B1F8B41008442249B1F8D210084401
:102770002049B1F8F01008441E49B1F80E11084480
:102780000A2190FBF1F01C4908801A484088194939
:10279000098C08441749C98F08441649B1F85C10E0
:1027A00008441449B1F87A1008441249B1F8981055
:1027B00008441049B1F8B61008440E49B1F8D410D5
:1027C00008440C49B1F8F21008440A49B1F8101154
:1027D00008440A2190FBF1F00749488005488088A9
:1027E0000449498C08440DE084010020000C01409C
:1027F00000240140F0150020A8020020003C014008
:102800001C170020FE49B1F840100844FC49B1F8FB
:102810005E100844FA49B1F87C100844F849B1F850
:102820009A100844F649B1F8B8100844F449B1F8D0
:10283000D6100844F249B1F8F4100844F049B1F850
:10284000121108440A2190FBF1F0EE498880EC480F
:10285000C088EB49898C0844E949B1F84210084422
:10286000E749B1F860100844E549B1F87E10084422
:10287000E349B1F89C100844E149B1F8BA100844A2
:10288000DF49B1F8D8100844DD49B1F8F610084422
:10289000DB49B1F8141108440A2190FBF1F0D94941
:1028A000C880D7480089D649C98C0844D449B1F8B2
:1028B00044100844D249B1F862100844D049B1F834
:1028C00080100844CE49B1F89E100844CC49B1F8B4
:1028D000BC100844CA49B1F8DA100844C849B1F834
:1028E000F8100844C649B1F8161108440A2190FBB3
:1028F000F1F0C4490881C2484089C149098D0844A2
:10290000BF49B1F846100844BD49B1F86410084405
:10291000BB49B1F882100844B949B1F8A010084485
:10292000B749B1F8BE100844B549B1F8DC10084405
:10293000B349B1F8FA100844B149B1F81811084484
:102940000A2190FBF1F0AF494881AD488089AC493C
:10295000498D0844AA49B1F848100844A849B1F87B
:1029600066100844A649B1F884100844A449B1F897
:10297000A2100844A249B1F8C0100844A049B1F817
:10298000DE1008449E49B1F8FC1008449C49B1F897
:102990001A1108440A2190FBF1F09A49888198485D
:1029A000C0899749898D08449549B1F84A1008446F
:1029B0009349B1F8681008449149B1F88610084469
:1029C0008F49B1F8A41008448D49B1F8C2100844E9
:1029D0008B49B1F8E01008448949B1F8FE10084469
:1029E0008749B1F81C1108440A2190FBF1F0854990
:1029F000C8818348008A8249C98D08448049B1F85A
:102A00004C1008447E49B1F86A1008447C49B1F87A
:102A1000881008447A49B1F8A61008447849B1F8FA
:102A2000C41008447649B1F8E21008447449B1F87A
:102A3000001108447249B1F81E1108440A2190FBA4
:102A4000F1F0704988826E48408A6D49098E0844C9
:102A50006B49B1F84E1008446949B1F86C1008444C
:102A60006749B1F88A1008446549B1F8A8100844CC
:102A70006349B1F8C61008446149B1F8E41008444C
:102A80005F49B1F8021108445D49B1F820110844CA
:102A90000A2190FBF1F05B49C8825948808A584965
:102AA000498E08445649B1F8501008445449B1F8C9
:102AB0006E1008445249B1F88C1008445049B1F8DE
:102AC000AA1008444E49B1F8C81008444C49B1F85E
:102AD000E61008444A49B1F8041108444849B1F8DD
:102AE000221108440A2190FBF1F04649088344482A
:102AF000C08A4349898E08444149B1F852100844BC
:102B00003F49B1F8701008443D49B1F88E100844AF
:102B10003B49B1F8AC1008443949B1F8CA1008442F
:102B20003749B1F8E81008443549B1F806110844AE
:102B30003349B1F8241108440A2190FBF1F03149DE
:102B400048832F48008B2E49C98E08442C49B1F880
:102B5000541008442A49B1F8721008442849B1F8C1
:102B6000901008442649B1F8AE1008442449B1F841
:102B7000CC1008442249B1F8EA1008442049B1F8C1
:102B8000081108441E49B1F8261108440A2190FB97
:102B9000F1F01C4988831A48408B1949098F084471
:102BA0001749B1F8561008441549B1F87410084493
:102BB0001349B1F8921008441149B1F8B010084413
:102BC0000F49B1F8CE1008440D49B1F8EC10084493
:102BD0000B49B1F80A1108440949B1F82811084411
:102BE0000A2190FBF1F00749C8830548808B04490E
:102BF000498F08440249B1F858100844004903E0DD
:102C0000F0150020A8020020B1F876100844FE4913
:102C1000B1F894100844FC49B1F8B2100844FA49DC
:102C2000B1F8D0100844F849B1F8EE100844F6495C
:102C3000B1F80C110844F449B1F82A1108440A21EA
:102C400090FBF1F0F14988850121F14802F071FE15
:102C50000A20FFF7CBFB0021ED4802F06AFEED48A9
:102C60000088EC49C9880844EA4909880844E949C8
:102C7000498A0844E749098B0844E649C98B084456
:102C8000E449898C0844E349498D0844E149098EA7
:102C90000844E049C98E08440A2190FBF1F0DB4961
:102CA0000882DC484088DB4909890844D9490989F8
:102CB0000844D849898A0844D649498B0844D549EB
:102CC000098C0844D349C98C0844D249898D0844E9
:102CD000D049498E0844CF49098F08440A2190FB06
:102CE000F1F0CA494882CB488088CA4949890844DA
:102CF000C849098A0844C749C98A0844C549898B13
:102D00000844C449498C0844C249098D0844C14952
:102D1000C98D0844BF49898E0844BE49498F08447B
:102D20000A2190FBF1F0B949C88510BD00202FE0C1
:102D300000EB4001B84A52F8211000EB4002B64BBC
:102D400003EB820252681144B04A32F810204FF46B
:102D5000A5735A43514300EB4002AF4B03EB820291
:102D600052681203B1FBF2F1A84A22F81010114682
:102D700031F810106422514300EB400203EB820251
:102D80009268B1FBF2F1A14A22F81010411CC8B2BE
:102D90001828CDDB70479D48008800B29B49088603
:102DA000084640880988401A01B2984841868088C0
:102DB00096494988401A01B294488186C08893494F
:102DC0008988401A01B29148C18600898F49C98813
:102DD000401A01B28D48018740898C490989401AFF
:102DE00001B28A484187808988494989401A01B2DD
:102DF00086488187C08985498989401A01B28348FC
:102E0000C187008A8149C989401A01B27F48A0F868
:102E10004010408A7D49098A401A01B27B48A0F8D7
:102E20004210808A7949498A401A01B27748A0F84D
:102E30004410C08A7549898A401A01B27348A0F8C3
:102E40004610008B7149C98A401A01B26F48A0F838
:102E50004810408B6D49098B401A01B26B48A0F8AD
:102E60004A10808B6949498B401A01B26748A0F823
:102E70004C10C08B6549898B401A01B26348A0F899
:102E80004E10008C6149C98B401A01B25F48A0F80E
:102E90005010408C5D49098C401A01B25B48A0F883
:102EA0005210808C5949498C401A01B25748A0F8F9
:102EB0005410C08C5549898C401A01B25348A0F86F
:102EC0005610008D5149C98C401A01B24F48A0F8E4
:102ED0005810408D4D49098D401A01B24B48A0F859
:102EE0005A10808D4949498D401A01B24748A0F8CF
:102EF0005C10C08D4549898D401A01B24348A0F845
:102F00005E10704710B504464048303030F9140068
:102F1000424931F91410884209DA4FF4807140486F
:102F200001F00BFD01203F4901F8140003E00020EF
:102F30003C4901F8140010BD10B50446394810F89A
:102F4000140018B1204601F030FA02E0204601F0EA
:102F5000C9FA10BD70B5B4B004460D4616462046F9
:102F600000F09CFEE878E17888421FD002222EA172
:102F70002F4803F0DBFEC8B901202E4908602E4916
:102F800001A804F0EDFE2A48C16804F0F0F92B49CD
:102F90000870284BC92201A9254804F07BF827496D
:102FA0000870234804F0D8F924490870A6B1E079E4
:102FB000E97988420ED060796871A079A871E079CA
:102FC000E87120882880A078A870E078E870012057
:102FD00034B070BD0020FBE70020F9E710B5CEB09B
:102FE000002004F0F9FD1649002003F08CFE0B20B0
:102FF00000F082FC3B2000F07FFC122000F07CFC03
:10300000122000F079FC1DE0F0150020A80200203D
:10301000003C01401C1700205C000020FC800008E0
:1030200000140140280200206C6F672E7478740031
:103030008C110020900100202C81000889010020C3
:103040005C0F0020072000F057FC0622AFF2280199
:10305000FD4803F06BFE002868D10120FB490860A1
:103060004BA800F01BFEFAA137A804F079FEF74B3D
:10307000282237A9F44804F00DF80446F24804F079
:1030800010F90446FDA137A804F06AFEEE48C168B5
:1030900004F06DF90446ED4B282237A9EA4803F005
:1030A000F9FF0446E84804F0FCF804469DF83301B3
:1030B0009DF832119DF831219DF82F31CDE9003274
:1030C000CDE902109DF82E31BDF82C21F6A141A8C2
:1030D00004F046FEDC48C16804F049F90446DB4BC5
:1030E000252241A9D84803F0D5FF0446D64804F06C
:1030F000D8F80446F84904A804F032FED248C16862
:1031000004F035F90446D14BC92204A9CE4803F096
:10311000C1FF0446CC4804F0C4F80446CA4804F091
:103120001BF90446EDA004F00BFE02E0F0A004F051
:1031300007FE0B2000F0D4FB3B2000F0D1FB122057
:1031400000F0CEFB122000F0CBFB072000F0C8FB04
:103150004EB010BD30B591B0002004F03DFDE949FE
:10316000002003F0D0FD0B2000F0C6FB3B2000F058
:10317000C3FB122000F0C0FB122000F0BDFB0720B3
:1031800000F0BAFB0222AFF26011AF4803F0CEFDAF
:10319000002852D10120AD4908600EA800F07EFD44
:1031A0009DF83F009DF83E109DF83D209DF83B3076
:1031B000CDE90032CDE902109DF83A30BDF8382053
:1031C000D1A107A804F0CCFD9F48C16804F0CFF856
:1031D00005469E4B1B2207A99B4803F05BFF054653
:1031E000994804F05EF80546002421E09648C1683D
:1031F00004F0BDF80546CE4810F8140020B1CDA16A
:1032000005A804F0ADFD06E0CC4830F91420CCA1AF
:1032100005A804F0A5FD8D4B072205A98A4803F0F7
:1032200039FF0546884804F03CF80546601CC4B2E6
:10323000182CDBDB844804F08FF80B2000F050FBE7
:103240003B2000F04DFB122000F04AFB122000F062
:1032500047FB072000F044FB11B030BD30B59BB0F8
:10326000342101A804F0FAFC002004F0B5FCA549C3
:10327000002003F048FDAFF250210DF15D0004F095
:10328000FFFC01A90EA804F052F9002840D138E053
:103290009DF85C0010F0200F33D09DF85D0000B960
:1032A00035E00DF15D01A8A004F04AFD01220DF109
:1032B0005D01654803F03AFD054601206349086059
:1032C000002400BF002403E00020A6490855641C28
:1032D000B4F5007FF8D3A44B4FF40072A1495A48CB
:1032E00003F0E8FD05469F49A0A004F029FD1DB9A3
:1032F0009D4800680028E5D100BF00BF524804F097
:103300002BF815A90EA804F046F90028C0D000BF7C
:103310001BB030BD00B585B0012144F2040001F0BE
:10332000F7FC00214FF4804001F00CFD4FF40070D9
:10333000ADF8100003208DF8120018208DF813004E
:1033400004A98C4801F04EFA4FF48060ADF81000EB
:1033500004208DF8130004A9864801F043FA4FF4C5
:10336000E13000900020ADF80400ADF80600ADF8A3
:103370000800ADF80C000C20ADF80A0069467E4844
:1033800001F077FD012240F227717B4801F0EBFD4F
:10339000012240F22551784801F0E5FD01217648EF
:1033A00001F0D5FD05B000BD08B54FF4C06001F0D7
:1033B00043F931208DF8000000208DF801008DF8D0
:1033C000020001208DF80300684601F03AF903205D
:1033D0008DF8000000208DF8010001208DF802001A
:1033E0008DF80300684601F02CF90B208DF80000E1
:1033F00001208DF8010000208DF8020001208DF8D9
:103400000300684601F01DF93B208DF80000012003
:103410008DF8010000208DF8020001208DF80300D6
:10342000684601F00EF907208DF8000002208DF8A3
:10343000010000208DF8020001208DF8030068468D
:1034400001F0FFF808BD00008C1100209001002061
:103450003D3D3D3D202042415454455259204D4F61
:103460004E49544F52494E47204C4F472046494CF5
:1034700045203D3D3D3D0D0A000000003D3D3D3DE8
:1034800020204D4144452042593A2042414F20538B
:103490004F4E204C452020202020202020203D3D44
:1034A0003D3D0D0A00000000435245415445442073
:1034B00054494D453A202534642D2532642D25325A
:1034C000642025302E32643A25302E32643A25307D
:1034D0002E3264200A0D0000F88100080A0D4669AA
:1034E0006C65206372656174656420210A0D0000BB
:1034F0000A0D46696C6520657869737465642021DE
:103500000A0D00005C0F00200D0A54696D653A2019
:103510002534642D2532642D2532642025302E3249
:10352000643A25302E32643A25302E326420000071
:103530002802002020205741524E2100D8020020AE
:1035400020202535640000000A0D2066696C652086
:103550006E616D652069733A0D0A0D202020257378
:103560000D0A0000B01300208C01002025730D0A05
:103570000D00000000080140003801400EB5002495
:103580000026FEF746FFE14800684FF47A72B0FB70
:10359000F2F1B1F1807F00D31FE021F07F40401EA7
:1035A0004FF0E022506150170F22002809DA13076C
:1035B0004FEA136CD64B00F00F073F1F03F807C00C
:1035C00003E013071F0ED34B1F5400BF00204FF022
:1035D000E02290610720106100BFFFF7E5FEFFF7D2
:1035E00099FE00F059FE00F0BDFC00F0C9FDFDF7AA
:1035F000DFF8C9490870084600782A2804D1C7486E
:10360000FDF71CF9C4490870C34800782A2807D17F
:10361000C249B1F84C100804FDF74AFCBE490870D5
:10362000BD4800782A2807D10120FDF735FCBA49AA
:103630000870BBA004F084FB042002F05CF8A0F545
:103640002541A53913D0BAA004F07AFB00F0A5FB00
:10365000BFA004F075FBC44800F0CBFBC24800F0EB
:103660003AFB4AF2A551042002F041F81DE07B200C
:1036700001F028FA18B1BDA004F062FB06E07A2040
:1036800001F020FA10B1C1A004F05AFBC7A004F069
:1036900057FB01F0C5FF0121084601F05DFF01F075
:1036A000B7FFAFF2441004F04BFB01F06FFBFFF7E4
:1036B00095FC0121C54801F0F5FE0121C44801F047
:1036C000F1FEA94800F0EAFAC24800F0E7FAC2A009
:1036D00004F036FB40F2E730FEF788FE0A250FE0E3
:1036E0002946C4A004F02CFBFEF7D4FEFFF71EFB16
:1036F000FFF751FB40F2E730FEF778FE681EC5B2D7
:10370000002DEDDCAFF2A81004F01AFB9648C37848
:1037100082780188B9A004F013FBBD4804F010FBC7
:1037200069E03246AB499048FFF714FCC8B1B9488C
:103730000078401CB7490870FEF7ACFEFFF7F6FAB8
:10374000FFF729FB002407E02046FFF7DBFB2046BC
:10375000FFF7F2FB601CC4B2182CF5DB81A004F06B
:10376000EFFAAC4800780A2844D1FFF7F3FC7E4812
:10377000C0797D4989797C4A5279CDE9002102904E
:103780007948C37882780188AFF2842004F0D8FAAF
:10379000002408E0A04830F81410AFF25C2004F0D8
:1037A000CFFA601CC4B2182CF4DB6F48C179807961
:1037B0006D4A5279CDE9002002916B48C378827836
:1037C0000188AFF2BC2004F0BBFA00240DE093485E
:1037D00010F8140020B1AFF2A42004F0B1FA02E016
:1037E0008FA004F0ADFA601CC4B2182CEFDB0020EF
:1037F00088490870012694E710B50446E1B28A486A
:1038000001F00DFC00BF8848008810F0800FFAD04E
:10381000204610BD10B500BF8348008810F0200F6F
:10382000FAD0814801F0FFFB10BD70B505460024B9
:103830000CE000BF20217C4801F048FC0028F9D0B2
:10384000794801F0F0FB2855601C84B2042CF0D3B9
:1038500070BD70B504460D46E1B2734801F0DFFB60
:1038600000BF4021704801F031FC0028F9D020460B
:1038700070BD7CB5054600240020009001901BE03F
:1038800000BF2021684801F021FC0028F9D06648DB
:1038900001F0C9FB2146641C4DF82100601E5DF853
:1038A0002000302804D3601E5DF82000392803D999
:1038B0005EA004F045FA641E022CE1D30198303872
:1038C0000099303901EB810100EB4104AC4205D98C
:1038D000294662A004F034FAFF207CBDE0B2FCE788
:1038E00000F01F020121914042094FF0E02303EB59
:1038F0008202C2F80011704700F01F0201219140BE
:10390000624A430942F8231070470000DC83000834
:1039100018ED00E000E400E07F0100200C0300202F
:103920000D0A0D54455354204F4B210D0A0D000034
:103930000D0A0A20525443206E6F7420796574205A
:10394000636F6E666967757265642E2E2E2E000099
:103950000D0A2052544320636F6E66696775726565
:10396000642E2E2E2E000000580200200D0A0A2080
:10397000506F776572204F6E205265736574206FAB
:10398000636375727265642E2E2E2E000D0A0A2056
:1039900045787465726E616C205265736574206F32
:1039A000636375727265642E2E2E2E000D0A204EF2
:1039B0006F206E65656420746F20636F6E66696743
:1039C000757265205254432E2E2E2E0008000240A0
:1039D0005804024062020020496E697469616C6992
:1039E0007A652C20506C6561736520776169743A43
:1039F0002000000025642E2E2000000025303264B7
:103A00002D253032642D253032640A0D000000006F
:103A1000C082000880010020A802002028020020A7
:103A20002020202020202000003801400A0D0D50C9
:103A30006C6561736520656E7465722076616C6972
:103A400064206E756D626572206265747765656E5F
:103A5000203020616E642039000000000A0D0D50F6
:103A60006C6561736520656E7465722076616C6942
:103A700064206E756D626572206265747765656E2F
:103A8000203020616E6420256400000080E100E0A9
:103A900001468A78032A01DB0A2A01DD00207047EB
:103AA0000B79C878C01A192807DB13B9487902289E
:103AB00003DB0A2A05D10020F1E7032A01D1002007
:103AC000EDE70120EBE72DE9F041044694F805808D
:103AD000E5782679A7782046FFF7DAFF08B30120BA
:103AE000207208F1010000F0FF08B8F1180F10D1A2
:103AF0004FF00008701CC6B2072E00D10026781EB9
:103B0000F049085CA84202D10025781CC7B2681CA5
:103B1000C5B2A77084F80580E57026710120BDE864
:103B2000F0810020207200BFF9E72DE9F041024644
:103B30003C27B2FBF7FC07FB1C27CF713C27B2FBED
:103B4000F7F2B2FBF7FC07FB1C278F713C27B2FB97
:103B5000F7F21827B2FBF7FC07FB1C274F71182759
:103B6000B2FBF7F7B8B2871D4FF0070C97FBFCF8D4
:103B70000CFB18770F710023012600BF40F26D1572
:103B800013F0030F0BD16D1C1BB1642B01D0C82B9C
:103B900005D1771EFFB23E0001D040F26D15A8425C
:103BA00000DA04E0471BB8B25F1CFBB2E6E700BFD7
:103BB00003F5FA670F8015F0010F03D03A2801DDF5
:103BC000471CB8B2012408E0671EDFF8F8C21CF8F1
:103BD0000770C71BB8B2671CFCB2671EDFF8E4C2EF
:103BE0001CF807708742EFDD8C70471CCF70BDE872
:103BF000F081F0B5024600BF118840F26D1401FB60
:103C000004F01488012C0FDBCC1CE61704EB96762D
:103C100000EBA6004C1E642694FBF6F4001B4C1E21
:103C2000B60094FBF6F42044A74C001B9478641E65
:103C3000A5B2002304E0A34CE45C20445C1CE3B286
:103C4000AB42F8DB4FF4C87691FBF6F706FB17168C
:103C500086B1CE1701EB9676B610B1EB860605D18C
:103C6000642691FBF6F706FB17161EB99478022C12
:103C700000DD401ED4782044441E944E744356798F
:103C8000C6EB4617C7EB062604EB06149679C6EB7F
:103C9000061604EB8604D679A019F0BD70B504466B
:103CA00000BF01F079FC054601F076FC8542F8D1B1
:103CB00021462846FFF739FF2046FFF704FF012081
:103CC00070BD10B5044601F0A3FC204601F06DFC68
:103CD00001F09EFC10BD3EB505462846FFF789FF62
:103CE000044669462046FFF720FF6846FFF7D0FEEE
:103CF00008B1A4F561642046FFF7E3FF01203EBD53
:103D000008B501214FF0C05001F00FF800200090DD
:103D100004E0BDF80000401C80B20090BDF8000037
:103D200041F288318842F4DB042001F0E4FCA0F584
:103D30002541A5392DD0012001F00DFD01F0AEFC8B
:103D4000012000F055FF00BF412000F0BBFE00281D
:103D5000FAD04FF4807000F064FF012000F067FF9C
:103D600001F05EFC01F054FC47F6FF7001F02AFC04
:103D700001F04EFC4AF2947001F017FC01F048FC8F
:103D80004AF2A551042001F0B2FC002001F0E3FC4E
:103D900001E001F045FC002008BD10B501214FF005
:103DA000C05000F0C2FF012001F0D5FC01F076FC0C
:103DB000012000F01DFF00BF412000F083FE00281D
:103DC000FAD04FF4807000F02CFF012000F02FFF9C
:103DD00001F026FC01F01CFC0121084601F0BCFBAF
:103DE00001F016FC47F6FF7001F0ECFB01F010FC4F
:103DF00010BD10B50446FF206071A071E071E07045
:103E0000A0702080324803F09BFF32A003F098FF9F
:103E100003E01720FFF72DFD60716079FF28F8D0CF
:103E2000617932A003F08CFF32A003F089FF03E038
:103E30003B20FFF71EFDA071A079FF28F8D0A179E3
:103E40002AA003F07DFF31A003F07AFF03E03B20BE
:103E5000FFF70FFDE071E079FF28F8D0E17923A0AA
:103E600003F06EFF2FA003F06BFF03E01F20FFF7AE
:103E700000FDE070E078FF28F8D0E1781BA003F0A7
:103E80005FFF2DA003F05CFF03E00C20FFF7F1FCC7
:103E9000A070A078FF28F8D0A17814A003F050FFFC
:103EA0002BA003F04DFF05E06320FFF7E2FC00F5D7
:103EB000FA6020802088FF28F6D021880BA003F02C
:103EC0003FFF10BD8883000875250B00805101005D
:103ED000948300080D0A2020506C6561736520539F
:103EE000657420486F757273000000003A20202529
:103EF000640000000D0A2020506C6561736520533A
:103F00006574204D696E7574657300000D0A20207C
:103F1000506C6561736520536574205365636F6EE3
:103F2000647300000D0A2020506C65617365205396
:103F300065742044617900000D0A2020506C656191
:103F4000736520536574204D6F6E74680000000027
:103F50000D0A2020506C65617365205365742059EB
:103F60006561720070B50F240325012148F29C2081
:103F700000F0CEFEBB4800F0BEFCFF20B94908802F
:103F80000020C870B84800F02DFCB64800F0B3FC23
:103F90000320B44908800020C870B44800F022FC17
:103FA000B04800F0A8FC3F20AE4908800020C8704F
:103FB000AF4800F017FCAB4800F09DFC4FF4F860F0
:103FC000A84908800020C870AA4800F00BFCAA4845
:103FD00001F016FCA94801F063FC0020A749086025
:103FE000012C01DD012000E00020A449087101201E
:103FF00048714FF4602088600020C860084604744F
:104000009D4801F02AFC0723062200219A4801F06E
:10401000BCFC07230D220121974801F0B6FC0723C1
:1040200005220221944801F0B0FC07230C22032151
:10403000914801F0AAFC0723042211468E4801F0A2
:10404000A4FC07230B2205218B4801F09EFC0723CB
:1040500003220621884801F098FC07230A2219460A
:10406000854801F092FC072301220821824801F0D3
:104070008CFC072308220A217F4801F086FC0723D5
:104080000F220B217C4801F080FC07231A460C21EB
:10409000794801F07AFC07230E220D21764801F0C1
:1040A00074FC072302220E21734801F06EFC0723E3
:1040B00009220F21704801F068FC01216E4801F0CF
:1040C000F8FB01216C4801F0FFFB6B4801F013FC89
:1040D00000BF694801F014FC0028FAD1664801F0DD
:1040E00019FC00BF644801F01AFC0028FAD16448AA
:1040F00001F086FB614801F0D3FB00205F490860B6
:10410000012D01DD012000E000205C490871012043
:1041100048714FF4602088600020C860084605742C
:10412000574801F09AFB072302220521544801F069
:104130002CFC072301221946514801F026FC0723D5
:10414000032208214E4801F020FC01214C4801F0D7
:10415000B0FB01214A4801F0B7FB494801F0CBFB15
:1041600000BF474801F0CCFB0028FAD1444801F0D9
:10417000D1FB00BF424801F0D2FB0028FAD170BD4C
:1041800010B50121084600F0B6FD3E4801F0C6F822
:1041900000203D49886220200862000248624011E8
:1041A00088618000C86180204861002008618860C3
:1041B0009620C86030484C30086034484860314828
:1041C00001F045F9012202212E4801F076F9012182
:1041D0002C4801F067F90121022000F08CFD2C48E9
:1041E00001F09CF800202849886220200862000223
:1041F0004862401188618000C861802048610020C9
:10420000086188601E20C8601D484C300860214845
:1042100048601F4801F01BF9012202211C4801F0EF
:104220004CF901211A4801F03DF910BD70B5044662
:104230000D4640F6FF76072301222946204601F06D
:10424000A4FBA06840F48000A06004E03000A6F168
:10425000010600D170BD206810F0020FF6D0E06CAE
:1042600080B2F7E79E01002000080140000C0140E9
:1042700000100140001C014000240140B015002046
:10428000003C014008000240C4150020F015002049
:10429000580402401C1700200EB501214FF4FE7097
:1042A00000F036FD02A800F026FB4FF4AA40ADF85E
:1042B000080003208DF80A0010208DF80B0002A9D9
:1042C000D74800F08FFA02A800F015FB4CF2A820A6
:1042D000ADF8080003208DF80A0010208DF80B00BF
:1042E00002A9D04800F07EFA02A800F004FB4FF4C7
:1042F000AA50ADF8080003208DF80A0010208DF8B0
:104300000B0002A9C84800F06DFA02A800F0F3FA09
:104310004AF6AA30ADF8080003208DF80A001020F4
:104320008DF80B0002A9C14800F05CFA02A800F069
:10433000E2FA0220ADF8080003208DF80A004820B8
:104340008DF80B0002A9BA4800F04CFA02A800F060
:10435000D2FA45F2A840ADF8080003208DF80A0013
:1043600010208DF80B0002A9B24800F03BFA4FF480
:104370008041AC4800F0E1FA4FF40071A94800F028
:10438000DEFA4FF48071A94800F0D9FA02200090BB
:1043900000208DF804000C208DF8050001208DF818
:1043A0000600684601F052FC0EBD10B50446182CFC
:1043B00073D2DFE804F00C12181E23282E343A3F83
:1043C000444A50565C61666C73797F84898F4FF4E0
:1043D0000041944800F0B1FA82E04FF40061934844
:1043E00000F0ABFA7CE04FF40041904800F0A5FAF1
:1043F00076E020218F4800F0A0FA71E040218A4841
:1044000000F09BFA6CE04FF48071854800F095FA5B
:1044100066E04FF48051824800F08FFA60E04FF47C
:104420008061814800F089FA5AE002217F4800F05B
:1044300084FA55E020217D4800F07FFA50E04FF4E7
:1044400080617C4800F079FA4AE04FF48041794875
:1044500000F073FA44E04FF40071744800F06DFA14
:104460003EE04FF40051714800F067FA38E008214F
:10447000704800F062FA33E080216E4800F05DFA87
:104480002EE04FF48071684800F057FA28E04FF4AE
:104490008061634800F051FA22E020E04FF480414F
:1044A0005F4800F04AFA1BE04FF480515E4800F08C
:1044B00044FA15E008215D4800F03FFA10E0802141
:1044C0005A4800F03AFA0BE04FF48051594800F096
:1044D00034FA05E00821534800F02FFA00E000BF4D
:1044E00000BF10BD10B50446182C73D2DFE804F0ED
:1044F0000C12181E23282E343A3F444A50565C6151
:10450000666C73797F84898F4FF40041454800F0D1
:1045100016FA82E04FF40061444800F010FA7CE0A3
:104520004FF40041414800F00AFA76E0202141486A
:1045300000F005FA71E040213B4800F000FA6CE021
:104540004FF48071364800F0FAF966E04FF480517C
:10455000334800F0F4F960E04FF48061324800F035
:10456000EEF95AE00221314800F0E9F955E0202146
:104570002E4800F0E4F950E04FF480612D4800F03F
:10458000DEF94AE04FF480412A4800F0D8F944E0CF
:104590004FF40071254800F0D2F93EE04FF400518D
:1045A000224800F0CCF938E00821224800F0C7F991
:1045B00033E080211F4800F0C2F92EE04FF48071F3
:1045C000194800F0BCF928E04FF48061144800F06D
:1045D000B6F922E020E04FF48041114800F0AFF935
:1045E0001BE04FF48051104800F0A9F915E00821B4
:1045F0000E4800F0A4F910E080210C4800F09FF96B
:104600000BE04FF480510B4800F099F905E00821C8
:10461000044800F094F900E000BF00BF10BD0000A6
:1046200000080140000C014000100140001401404E
:10463000001801400020014031490143314A116016
:10464000704770B5002100230F22C4780CB32D4CA5
:10465000246804F4E064C4F5E064210AC1F10403B1
:10466000CA40447804FA03F18478144021430901D4
:10467000254C0678A155047804F01F050124AC40B0
:1046800005786D114FF0E02606EB8505C5F8004171
:1046900009E0047804F01F050124AC401B4D0678A6
:1046A000761145F8264070BD194A0A400243154B61
:1046B0001B1F1A60704739B1124A121D126802435B
:1046C000104B1B1D1A6006E00E4A121D1268824331
:1046D0000C4B1B1D1A607047042808D14FF0E021D5
:1046E000096941F004014FF0E022116107E04FF049
:1046F000E021096921F004014FF0E02211617047C7
:104700000000FA050CED00E000E400E080E100E0CC
:1047100080FFFF1F10B50446C549601A8C422FD098
:1047200009DCC448201810D0B0F5806F16D0B0F561
:10473000006F4AD11BE0B0F5806F2AD0B0F5006F52
:1047400030D0B0F5406F40D135E00121042000F0B9
:10475000F9FA0021042000F0F5FA37E001210820E1
:1047600000F0F0FA0021082000F0ECFA2EE0012120
:10477000102000F0E7FA0021102000F0E3FA25E015
:104780000121202000F0DEFA0021202000F0DAFADA
:104790001CE00121402000F0D5FA0021402000F06B
:1047A000D1FA13E00121802000F0CCFA0021802012
:1047B00000F0C8FA0AE00121080200F0C3FA002163
:1047C0004FF4807000F0BEFA00E000BF00BF10BDE3
:1047D00010B50121084600F0B5FA0021012000F0D3
:1047E000B1FA10BD2DE9F041024600250026002057
:1047F00000230024002791F803C00CF00F0591F866
:1048000003C01CF0100F03D091F802C04CEA05055C
:1048100091F800C0BCF1000F31D0146800202BE0EB
:104820004FF0010C0CFA00F3B1F800C00CEA0306DB
:104830009E4220D183004FF00F0C0CFA03F7BC43CB
:1048400005FA03FC4CEA040491F803C0BCF1280FFC
:1048500006D14FF0010C0CFA00FCC2F814C00AE0BB
:1048600091F803C0BCF1480F05D14FF0010C0CFAD0
:1048700000FCC2F810C0401C0828D1D31460B1F865
:1048800000C0BCF1FF0F34DD546800202EE000F1C1
:10489000080C4FF0010808FA0CF3B1F800C00CEA5C
:1048A00003069E4221D183004FF00F0C0CFA03F750
:1048B000BC4305FA03FC4CEA040491F803C0BCF1C4
:1048C000280F05D100F1080C08FA0CF8C2F8148082
:1048D00091F803C0BCF1480F07D100F1080C4FF06C
:1048E000010808FA0CF8C2F81080401C0828CED342
:1048F0005460BDE8F0814FF6FF71018002218170A4
:104900000421C17070470246002093680B4201D019
:10491000012000E0002070470146886880B270479F
:1049200002460020D3680B4201D0012000E00020A5
:1049300070470146C86880B27047016170474161A5
:1049400070470AB1016100E041617047C160704782
:104950004FF480320A438261816182618269826997
:10496000704702460020344B18684FF68073184099
:1049700040EA02100843304B186070472F49C86165
:104980007047F0B50A4600230024002100252A4E76
:104990007168C0F3034583B200F44016B6F5401FBA
:1049A00008D121F07061244E766826F07066224F9F
:1049B0007E6012E000F48016B6F5801F06D1032653
:1049C00006FA05F4A14341F0706106E0460D360198
:1049D00003FA06F6B14341F0706122B1460D36018B
:1049E00003FA06F63143144E7160F0BD30B5002273
:1049F0008B071C0F0F2303FA04F20F4B08338C10A4
:104A000053F8243093430C4C08348D1044F825306F
:104A100023468C1053F824308C07240F00FA04F43A
:104A20002343054C08348D1044F8253030BD000078
:104A30000014014000F8FEBF0000014000002042C9
:104A4000DC48006840F00100DA4908600846406828
:104A5000D9490840D749486008460068D749084006
:104A6000D44908600846006820F4802008600846A1
:104A7000406820F4FE004860002088607047CD49FF
:104A8000096821F48031CB4A11601146096821F48C
:104A900080211160B0F5803F03D0B0F5802F0ED19A
:104AA00006E0C449096841F48031C24A116007E058
:104AB000C049096841F4A021BE4A116000E000BF6E
:104AC00000BF704710B501460022002300204A11A4
:104AD000012A02D1B74C236806E0022A02D1B54C64
:104AE000236A01E0B34C636A01F01F020124944081
:104AF0001C4201D0012000E0002010BD38B500208C
:104B000000900024002500BF3120FFF7DBFF0546A1
:104B10000098401C00901DB90098B0F5A06FF3D12B
:104B20003120FFF7CFFF08B1012400E00024204628
:104B300038BD014600209F4A106820F0F80040EA86
:104B4000C100106070479E4908607047024600200F
:104B5000984B586820F47C1042EA01031843954BA7
:104B60005860704796490866704701460020914A90
:104B7000506820F003000843506070478D4840683B
:104B800000F00C007047014600208A4A506820F06F
:104B9000F00008435060704701460020854A506885
:104BA00020F4E06008435060704701460020814ACD
:104BB000506820F4605040EAC1005060704729B14D
:104BC0007C4A527A02437B4B5A7204E0794A527A09
:104BD0008243784B5A7270477A49086070470146A1
:104BE0000020744A506820F44040084350607047E9
:104BF0000021754A11706F4A82F82010012802D0F6
:104C0000042808D103E001216F4A117004E0052156
:104C10006D4A117000E000BF00BF70476B4908602B
:104C200070476449096A0143624A116270476749E3
:104C300044390860704730B5002100220024002369
:104C40005C4D6D6805F00C0121B1042905D00829DF
:104C500023D105E05E4D056022E05D4D05601FE05B
:104C6000544D6D6805F47012022505EB9242514DCA
:104C70006D6805F480341CB9564D554305600BE052
:104C80004C4D6D6815F4003F03D0524D55430560FF
:104C900002E04F4D5543056002E04D4D056000BFF9
:104CA00000BF444D6D6805F0F00109094A4D6B5C89
:104CB0000568DD4045603F4D6D6805F4E061090A17
:104CC000454D6B5C4568DD4085603A4D6D6805F487
:104CD0006051C90A404D6B5C4568DD40C560354D8B
:104CE0006D6805F44041890B3C4D6B5CC568B5FBB4
:104CF000F3F5056130BD29B12E4A526902432D4BAF
:104D00005A6104E02B4A526982432A4B5A61704728
:104D100029B1284A92690243264B9A6104E0254A48
:104D200092698243234B9A61704729B1214AD26923
:104D30000243204BDA6104E01E4AD26982431D4BD4
:104D4000DA61704729B11B4AD2680243194BDA6015
:104D500004E0184AD2688243164BDA60704729B1E2
:104D6000144A12690243134B1A6104E0114A126992
:104D70008243104B1A6170471449403908607047EC
:104D80000F49C86470470B49C87170470948406AA9
:104D900040F0807007494862704701460020054A8C
:104DA00092680A4201D0012000E0002070470149CA
:104DB00088727047001002400000FFF8FFFFF6FE07
:104DC00000004242D8004242201002408004424289
:104DD00000127A0000093D00A2010020B20100206B
:104DE00010B50446D749601A8C422BD006DCD64851
:104DF000201813D0B0F5806F38D119E0B0F5806F6E
:104E00002AD0B0F56C4F31D101218803FFF79AFF0A
:104E100000214FF48040FFF795FF28E0012148046E
:104E2000FFF79DFF00214FF40030FFF798FF1EE0D1
:104E300001218804FFF793FF00214FF48020FFF742
:104E40008EFF14E00121C804FFF789FF00214FF411
:104E50000020FFF784FF0AE001210805FFF77FFF2C
:104E600000214FF48010FFF77AFF00E000BF00BF81
:104E700010BD2DE9F04786B005460E460024A24637
:104E800000BF00BF00272F462C8A4CF6FF7004405D
:104E9000F08804432C82AC894EF6F3100440B088AD
:104EA00031890843718908430443AC81AC8A4FF6C9
:104EB000FF400440B0890443AC8201A8FFF7BBFE69
:104EC000A248874202D1DDF810A001E0DDF80CA075
:104ED0000AEBCA0000EB0A1031688900B0FBF1F858
:104EE0006420B8FBF0F004012009642101FB108963
:104EF000322000EB0910B0FBF1F000F00F0004438A
:104F00002C8106B0BDE8F0874FF4165101600021F6
:104F10008180C18001810C21418100218181704704
:104F200010B502460020108A4FF2FF0318400B888C
:104F30004C8823438C882343CC8823431843108216
:104F400010BD0021018041808180C180704721B166
:104F5000828942F40052828104E082894DF6FF7317
:104F60001A4082817047F0B50346002400260025D0
:104F700000201846C1F3421401F01F06012707FA6A
:104F800006F5012C01D10C3004E0022C01D11030C7
:104F900000E014301AB107682F43076002E0076889
:104FA000AF430760F0BD1AB1838A0B43838202E0EE
:104FB000838A8B4383827047028A4FF6F0731A40CC
:104FC0000282028A0A430282704782894FF2FF738B
:104FD0001A40828182890A438281704721B1828985
:104FE00042F00202828104E082894FF6FD731A408A
:104FF00082817047028A4FF6DF731A400282028A6A
:105000000A430282704721B1028A42F4804202823E
:1050100004E0028A4BF6FF731A4002827047C1F324
:1050200008028280704701468888C0F308007047F4
:10503000818941F0010181817047028BD2B20283E4
:10504000028B42EA012202837047028B02F47F4204
:105050000283028B0A430283704721B1828A42F0A5
:105060002002828204E0828A4FF6DF731A40828235
:10507000704721B1828A42F01002828204E0828A63
:105080004FF6EF731A408282704721B1828A42F054
:105090000802828204E0828A4FF6F7731A40828205
:1050A0007047828A4FF6FB731A408282828A0A43D3
:1050B0008282704721B1828A42F00202828204E039
:1050C000828A4FF6FD731A408282704702460020A2
:1050D00013880B4201D0012000E000207047CA4332
:1050E0000280704770B502460B460024002100255F
:1050F0000020C3F3421503F01F01012606FA01F157
:10510000012D02D19689314006E0022D02D1168A86
:10511000314001E0968A31401C12012606FA04F45F
:105120001688344011B10CB1012000E0002070BDA0
:1051300010B5002200230A1201249440A3B2DC43DC
:10514000048010BD004C004000BCFFBF003801408F
:1051500000206949086048608860C86048628862C9
:10516000C862664888630020C86370470021624AAD
:10517000516847F6FF6291430278C3681A43836817
:105180001A4303691A4343681A4343691A43114394
:10519000594A516070470021017041608160C160CF
:1051A000016141617047564908607047524909687A
:1051B00021F00301504A1160114609680143116052
:1051C00070474D48006800F00300704729B14A4A13
:1051D000D26B0243484BDA6304E0474AD26B824306
:1051E000454BDA6370474749086070470021424BDE
:1051F00002689A601A46D1686FF30A01D0E9012368
:105200001A43C3681A4303691A4311433A4AD160E7
:1052100070470021016041608160C1600161704799
:1052200035480069C0B270470146334808444069B8
:1052300070470021304B02685A6242689A621A46EF
:10524000D16A21F0F701D0E902231A4303691A4316
:1052500043691A431143284AD16270474FF0FF3126
:105260000160002141608160C1600161416170475E
:105270002148006B70472448006870472249086045
:1052800070471D48806C70471E4914310860704794
:105290001C491831086070471A491C310860704772
:1052A000184920310860704718490860704718494C
:1052B0000860704701218143164A11607047164902
:1052C00008607047014600200B4A526B0A4201D029
:1052D000012000E0002070470749886370470146BD
:1052E0000020054A526B0A4201D0012000E0002054
:1052F000704701498863704700800140FF07C00084
:10530000A00030428C05304280800140AC01304228
:10531000B0013042B4013042B8013042016821F09E
:10532000010101600021016041608160C160864A25
:10533000811A90425BD012DC844AA0EB02019042B9
:105340003AD007DC824941181BD0142922D02829E1
:105350007AD128E0142938D0282975D13EE0B1F55A
:105360006C7F5BD006DCB1F5627F49D0B1F5677F19
:105370006AD14CE0B1F5717F57D0B1F5767F63D13A
:105380005BE072494439496841F00F016F4A443A81
:1053900051605AE06D494439496841F0F0016B4A67
:1053A000443A516051E069494439496841F47061B7
:1053B000664A443A516048E064494439496841F4D6
:1053C0007041624A443A51603FE06049443949685B
:1053D00041F470215D4A443A516036E05B494439FA
:1053E000496841F47001594A443A51602DE05749E7
:1053F0004439496841F07061544A443A516024E0AC
:105400005449096841F00F01524A11601DE05149A9
:10541000096841F0F0014F4A116016E04D490968F2
:1054200041F470614B4A11600FE04A49096841F448
:105430007041484A116008E006E04649096841F4B5
:105440007021444A116000E000BF00BF704710B5F2
:105450000022026847F6F0739A430C6A8B68234374
:105460000C6923434C6923438C692343CC69234350
:105470004C6A23438C6A23431A430260CB6843601F
:105480000B6883604B68C36010BD00210160416000
:105490008160C160016141618161C16101624162FC
:1054A0008162704721B1026842F00102026003E0AC
:1054B000026822F00102026070471AB103680B43D0
:1054C000036002E003688B4303607047014648684D
:1054D00080B2704701460020002211F0805F03D0A7
:1054E0001C4B1B1F1A6802E0184B443B1A680A4207
:1054F00001D0012000E00020704710F0805F02D052
:105500001449086002E01149443948607047014677
:105510000020002211F0805F03D00E4B1B1F1A6881
:1055200002E00A4B443B1A680A4201D0012000E025
:105530000020704710F0805F02D00649086002E04A
:1055400002494439486070478000024044000240EC
:10555000F8FFFDBF0404024029B14F4A12880243FC
:105560004D4B1A8004E04C4A128882434A4B1A8001
:1055700070474948001D008840F010004649091D49
:10558000088070474448001D00884FF6EF710840BE
:105590004149091D0880704700213F481C3001889F
:1055A000001F008841EA0040704700B50246FFF73F
:1055B000E0FF100C384918310880091D0A80FFF7F8
:1055C000E1FF00BD00B50246FFF7D3FFC2F3034081
:1055D000314908310880091D0A80FFF7D3FF00BD5B
:1055E00000B50246FFF7C5FF100C2B49203108809B
:1055F000091D0A80FFF7C6FF00BD002026491031B3
:1056000009880907080B24491431098808437047A1
:1056100000BF2148001D008810F0200FF9D070470E
:105620001D48001D00884FF6F77108401A49091DF2
:10563000088000BF1848001D008810F0080FF9D03E
:10564000704701460020144A121D12880A4201D0F8
:10565000012000E0002070470F49091D098881439F
:105660000D4A121D11807047014600200A4A121D82
:1056700012880A40D0B2084A12880A4202D008B101
:10568000012000E0002070470349091D098881437B
:10569000014A121D118070470028004010B50120FA
:1056A000FFF76AFB0020FFF767FB10BD2249086087
:1056B00070472149091F086070471F4984310860FD
:1056C0007047014600201D4A10884FF67F42104067
:1056D00008431A4A1080704701460020174A108874
:1056E0004FF6807210400843144A10807047134AE6
:1056F0002C3A81527047014610482C38085A70479E
:105700000D489C300068C0B270470C4808300088D3
:1057100040F0010009490831088070470648A03070
:105720000068C0B2704705480830008840F00200A9
:10573000024908310880704704860D422C6C0040F5
:1057400010B501210807FFF70AFB00214FF0805038
:10575000FFF705FB10BD2649086270472449086120
:10576000704701460020234A106820F0E0000843FB
:105770001060704720490860704710B5024600204D
:105780001C4B186820F00300104318601B4B1B686B
:1057900043F00403194C2360012901D130BF00E01C
:1057A00020BF10BD1348006840F004001149086094
:1057B0000846006840F0020008601048006840F0A9
:1057C00004000E49086000BF00BF30BF70470146AB
:1057D0000020084A52680A4201D0012000E000205F
:1057E00070470449096841EA8001024A1160704724
:1057F00000000E4200700040A0000E4210ED00E0DC
:1058000010B50446F748201806D0B0F5806F0DD0CB
:10581000B0F5C05F1ED113E001214802FFF792FAF4
:1058200000214FF40070FFF78DFA14E00121880287
:10583000FFF788FA00214FF48060FFF783FA0AE04F
:105840000121C803FFF77EFA00214FF40040FFF763
:1058500079FA00E000BF00BF10BD30B5024600205D
:1058600000235068E04C20400D790C6844EA052480
:10587000204350609068DD4C2040D1E902542C4315
:105880004D7944EA450420439060D06A20F47000CA
:105890000C7C641E1C43E3B240EA0350D06230BD6E
:1058A00000210160017141718160C16001210174B9
:1058B000704721B1826842F00102826003E0826891
:1058C00022F001028260704721B1826842F4807246
:1058D000826003E0826822F480728260704710B5B3
:1058E0000023CBB21AB144681C43446002E0446810
:1058F0009C43446010BD816841F00801816070479D
:10590000014600208A6812F0080F01D0012000E053
:1059100000207047816841F00401816070470146B2
:1059200000208A6812F0040F01D0012000E000205E
:10593000704721B1826842F4A002826003E082686D
:1059400022F4A00282607047014600208A6812F4A7
:10595000800F01D0012000E00020704710B50A46FA
:1059600000210023416821F46041531E41EA433184
:10597000416010BD21B1426842F40062426003E020
:10598000426822F4006242607047F0B504460D465A
:1059900000200021092D11DDE068A5F10A0606EBC3
:1059A0004607072606FA07F18843A5F10A0606EB23
:1059B000460603FA06F10843E0600CE0206905EBB7
:1059C0004507072606FA07F1884305EB450603FA63
:1059D00006F108432061072A0FDA606B561E06EBBA
:1059E00086071F2606FA07F18843561E06EB860631
:1059F00005FA06F10843606322E00D2A0FDA206BF6
:105A0000D61F06EB86071F2606FA07F18843D61F26
:105A100006EB860605FA06F10843206310E0E06A0B
:105A2000A2F10D0606EB86071F2606FA07F188434A
:105A3000A2F10D0606EB860605FA06F10843E062C0
:105A4000F0BD21B1826842F48012826003E0826876
:105A500022F48012826070470146C86C80B27047A1
:105A600063480068704721B1426842F48062426036
:105A700003E0426822F480624260704721B14268CC
:105A800042F48052426003E0426822F48052426055
:105A900070470A460021816821F4E041114381608A
:105AA000704721B1826842F40042826003E082685C
:105AB00022F400428260704721B1826842F40212EF
:105AC000826003E0826822F402128260704701461D
:105AD00000208A6812F4001F01D0012000E000209D
