:020000040800F2
:1000000000040020074A00084501000847010008D5
:100010004B0100084F0100085301000800000000D8
:10002000000000000000000000000000590100086E
:1000300057010008000000005B0100085D01000896
:10004000274A0008274A0008274A000877010008C5
:10005000274A0008274A0008274A0008274A0008BC
:10006000274A0008274A0008274A0008A701000875
:10007000274A0008274A0008274A0008274A00089C
:10008000274A0008274A0008274A0008274A00088C
:10009000274A0008274A0008274A0008274A00087C
:1000A000274A0008274A0008274A0008274A00086C
:1000B000274A0008274A0008274A0008274A00085C
:1000C000274A0008274A0008274A0008274A00084C
:1000D000274A0008274A0008274A0008274A00083C
:1000E000274A0008274A0008274A0008274A00082C
:1000F000274A0008274A0008274A0008274A00081C
:10010000274A00086F010008274A0008274A00080C
:10011000274A0008274A0008274A0008274A0008FB
:10012000274A0008274A0008274A0008B9010008A2
:10013000DFF80CD006F01CFC00480047312900080D
:10014000F8160020704700BFFEE700BFFEE700BFC3
:10015000FEE700BFFEE77047704770471B48006826
:1001600020B11A480068401E18490860704710B551
:1001700001F0F7FF10BD10B5012004F05FF988B160
:10018000012004F06BF901201149086004F02AF9FC
:1001900004F0ECF80F49884204D1002004F0EFF895
:1001A00004F020F910BD10B5022004F09AF810B147
:1001B000012004F0A9F810BD10B5074804F091F82B
:1001C00010B1064804F0A0F810BD00006000002047
:1001D000700000208051010000000210000001109A
:1001E00070B52A25FE48446B01E0FD48446B14F0CD
:1001F000450FFAD014F0040F05D00325042003F0B6
:1002000055FF284670BD14F0010F05D001250120CF
:1002100003F04CFF2846F5E740F2FF5003F046FF9D
:100220002846EFE72DE9F04106460F464FF02A0831
:10023000EB48456B01E0EA48456B15F0450FFAD0F5
:1002400015F0040F07D04FF00308042003F02EFF31
:100250004046BDE8F08115F0010F06D04FF00108CF
:10026000012003F023FF4046F3E703F0C3FEB04252
:1002700003D04FF010084046EBE740F2FF5003F088
:1002800015FF002003F0BAFE044614F4604F03D1BA
:10029000200C38804046DCE714F4005F01D01320C6
:1002A000D7E714F4804F01D01020D2E714F4004FA8
:1002B00001D00F20CDE74046CBE738B52A240120F6
:1002C000009003F068FE10B92524204638BDC548CB
:1002D0000068042829D00020C34908600220486033
:1002E000C02088600020C8604FF480600861084624
:1002F00003F066FEFFF774FF04462A2C01D0204667
:10030000E4E7002003F07AFEB8490860042003F017
:1003100075FEB6494860082003F070FEB349886056
:100320000C2003F06BFEB149C860AE48006858B1BC
:10033000AC480068012807D0AA480068062803D006
:10034000A8480068022817D10020A74908600320A8
:100350004860402088600020C8604FF480600861D9
:10036000084603F02DFE69460320FFF75BFF0446B5
:100370002A2C01D02046A9E79A48006804282FD0EB
:10038000BDF800009A490860BDF8000000049649D5
:10039000086009204860C02088600020C8604FF4D1
:1003A00080600861084603F00BFEFFF719FF044662
:1003B0002A2C01D0204689E7002003F01FFE8D493A
:1003C0000860042003F01AFE8A494860082003F000
:1003D00015FE884988600C2003F010FE8549C8602E
:1003E0002A24204672E770B52A257D48446B01E037
:1003F0007B48446B14F0450FFAD014F0040F05D07D
:100400000325042003F052FE284670BD40F2FF5041
:1004100003F04CFE2846F8E72DE9F04106462A276E
:100420006F48456B01E06E48456B15F0450FFAD0FB
:1004300015F0040F06D00327042003F037FE3846DA
:10044000BDE8F08115F0010F05D00127012003F070
:100450002DFE3846F4E703F0CDFDB04202D0102760
:100460003846EDE740F2FF5003F020FE002003F095
:10047000C5FD04466048044201D13846E0E714F067
:10048000004F01D01C20DBE714F0804F01D0092081
:10049000D6E714F0005F01D00A20D1E714F0805FA6
:1004A00001D00B20CCE714F0006F01D00C20C7E77F
:1004B00014F0806F01D00D20C2E714F0807F01D0CE
:1004C0000E20BDE714F4000F01D00F20B8E714F49C
:1004D000800F01D01020B3E714F4001F01D01120C9
:1004E000AEE714F4801F01D01220A9E714F4002F06
:1004F00001D01320A4E714F4802F01D014209FE72B
:1005000014F4003F01D015209AE714F4803F01D085
:10051000162095E714F4004F01D0172090E714F44B
:10052000804F01D018208BE714F4005F01D0192010
:1005300086E714F0080F01D01A2081E738467FE7DC
:1005400070B52A2642F210752548446B02E06D1EF4
:100550002348446B14F0450F01D1002DF7D115B19C
:1005600014F0040F05D00326042003F09FFD30464D
:1005700070BD14F0400F05D02A26402003F096FDF0
:100580003046F5E73046F3E770B52A2542F210749D
:1005900000E0641E24B1802003F07EFD0028F8D026
:1005A00014B90325284670BD40F2FF5003F07EFDCC
:1005B0002846F8E72DE9F0412A24002600250027E7
:1005C0004FF00008B2200D49087000204860886094
:1005D000C86008614861084603F0B2FC03200FE0E0
:1005E0000080014000000020E4000020BC0000204A
:1005F00004000020AC00002008E0FFFDCC0000203B
:1006000003F0BEFC012003F0B8FC0020FE490860A6
:1006100048608860C8604FF480600861084603F055
:10062000CFFCFFF7B1FF04462A2C02D02046BDE8DC
:10063000F0814FF4D570F4490860082048604020EC
:1006400088600020C8604FF480600861084603F0AD
:10065000B7FCFFF775FF04462A2C05D10120EB49B2
:1006600008604FF0804812E00020E749086037201A
:100670004860402088600020C8604FF480600861B6
:10068000084603F09DFC3720FFF7C6FE0446002015
:10069000DD49086037204860402088600020C8603D
:1006A0004FF480600861084603F08AFC3720FFF7AA
:1006B000B3FE04462A2C4CD138E00020D249086011
:1006C00037204860402088600020C8604FF4806078
:1006D0000861084603F074FC3720FFF79DFE0446CE
:1006E0002A2C01D02046A2E7C94848EA0000C649A2
:1006F000086029204860402088600020C8604FF4CE
:1007000080600861084603F05BFCFFF76CFE04465E
:100710002A2C01D020468AE7002003F06FFC064611
:10072000012080EAD67080F001076D1C1FB94FF6DA
:10073000FF708542C1D34FF6FF70854202D31B2460
:10074000204674E706F08040060002D00220AF4940
:10075000086020466BE708B50121302003F0C2F99C
:100760004FF4F850ADF8000003208DF80200182077
:100770008DF803006946A74802F01EFF0420ADF87B
:1007800000006946A44802F017FF08BD38B52A24C6
:100790000121082003F0A6F92020ADF80000102068
:1007A0008DF8030003208DF8020069469B4802F093
:1007B00003FF2021994802F0ACFFFFF7CCFF012195
:1007C000880203F082F90121022003F07EF903F090
:1007D000A9FBFFF7EFFE04462A2C01D0204638BDC6
:1007E000FFF76BFD04462A2C01D02046F7E70120D5
:1007F0008B490870002048608860C86008614861C3
:10080000084603F09DFB2046E9E710B52A240020A6
:1008100003F0B6FB204610BD30B501462A20002269
:100820007A4B1B7881F84E307E4B1B88A1F84C30F8
:100830007D4B1B681A0E93090B70C2F383034B7038
:1008400002F003038B70784B1B68C3F30742CA7036
:10085000754B1B88C3F307220A71734B1A784A71D0
:100860005B681A0E1301CB806F4B5B68C3F30742C2
:10087000CB8843EA1213CB8002F00F030B726A4B52
:100880009B88C3F30722D3094B72C2F380138B7288
:10089000C2F34013CB72C2F300130B7300234B73EC
:1008A0005A4B1B681BB1594B1B68012B3CD193075A
:1008B0001B0D0B615C4B1A790B6943EA82030B61D8
:1008C000594B9B681A0E0B6943EA92130B61C2F3F2
:1008D000C2030B7502F007034B75534B9B68C3F3C0
:1008E000074253098B75C2F38203CB7593075B0FE5
:1008F0000B764D4B1B89C3F307220B7E43EAD213C1
:100900000B760B695B1C4B640C7E4B6CA41C0125A5
:10091000A5406B434B640C7A0123A3408B64D1E95F
:10092000113463434B6421E0384B1B68022B1DD10B
:100930003D4B1A7993069B0A0B613B4B9B681A0E41
:100940000B6943EA02230B61374B9B68C3F30742F1
:100950000B6913430B61344B1B89C3F307220B69EB
:100960005B1CDB044B644FF400738B64C2F3801395
:1009700001F8193F93065B0E4B702B4B1A7A4B789C
:1009800043EAD2134B7002F07F038B70264BDB6877
:100990001A0ED309CB70C2F341130B71C2F3820359
:1009A0004B7193071B0F8B711F4BDB68C3F307421F
:1009B0008B7943EA92138B71C2F34013CB710023FE
:1009C0000B7202F001034B72174B9B89C3F3072292
:1009D000D3098B72C2F38013CB72C2F340130B7333
:1009E000C2F300134B73C2F381038B7302F0030352
:1009F000CB730D4B1A7B53080B7401234B740B4BB9
:100A00001B681A0ECA7413E0E400002000000020E6
:100A1000000010800010014000140140000C014053
:100A2000CC00002004000020AC000020BC0000200E
:100A3000A1F11901FD4B1B68C3F307424FEA0224E1
:100A4000CC85FA4B1B88C3F30722CB8D43EA020304
:100A5000CB85F64B1A784FEA02640C635B684FEA69
:100A600013620B6B43EA02440C63F04B5B68C3F305
:100A700007420B6B43EA02240C63EC4B9B88C3F3E5
:100A800007220B6B43EA02030B63E84B1A794FF022
:100A900034035A54E54B9B684FEA13624FF0350319
:100AA0005A54E24B9B68C3F307424FEA02648C63DB
:100AB000DE4B1B89C3F307228B6B43EA02448C6332
:100AC000DA4B1A7A8B6B43EA02248C63D74BDB68D0
:100AD0004FEA13628B6B43EA02038B63D34BDB68F1
:100AE000C3F307424FF03C035B5C43EA12144FF040
:100AF0003C035C544FEA02734FEA1354CC87CB4B50
:100B00009B89C3F30722CB8F43EA0203CB87C74BF2
:100B10001A7B4FEA52044FF040035C544FF001043B
:100B20004FF041035C5430BD2DE9FC4107460D46B2
:100B300000262A240020009001900820BC4908606B
:100B400010204860402088600020C8604FF480601A
:100B50000861084603F034FA1020FFF75DFC0446F4
:100B60002A2C02D02046BDE8FC81B248008800044F
:100B7000AF49086037204860402088600020C86086
:100B80004FF480600861084603F01AFA3720FFF737
:100B900043FC04462A2C01D02046E4E7A648A74996
:100BA000086008204860302088600220C86000206B
:100BB000086101204861084603F025FA00209C499D
:100BC000086033204860402088600020C8604FF4EF
:100BD00080600861084603F0F3F93320FFF71CFC3E
:100BE00004462A2C01D02046BDE709E04FF400104E
:100BF00003F052FA20B103F028FA4DF82600761CD3
:100C00008F48406B40F22A610842EFD0082003F081
:100C100043FA28B1082003F049FA04242046A2E749
:100C2000022003F039FA28B1022003F03FFA02242F
:100C3000204698E7202003F02FFA28B1202003F067
:100C400035FA062420468EE74FF4007003F024FAAC
:100C500030B14FF4007003F029FA0724204682E7F0
:100C600040F2FF5003F022FA00980006009901F4C8
:100C70007F4140EA0120009901F47F0140EA112000
:100C8000009940EA1160686001980006019901F43A
:100C90007F4140EA0120019901F47F0140EA1120DF
:100CA000019940EA1160286020465CE77CB5054662
:100CB0002A2400200090019003F0A0F910F0007F9A
:100CC00002D00E2420467CBD5A49098888B2694664
:100CD000FFF72AFF04462A2C01D02046F3E7012D16
:100CE00037D1019810F4802F30D05248008800048A
:100CF0004F49086037204860402088600020C86065
:100D0000A8020861084603F05BF93720FFF784FB6F
:100D100004462A2C01D02046D5E702204449086029
:100D200006204860402088600020C8604FF4806042
:100D30000861084603F044F90620FFF76DFB0446FE
:100D40002A2C01D02046BEE72046BCE725242046B9
:100D5000B9E7019810F4803F31D03648008800048C
:100D60003349086037204860402088600020C86010
:100D70004FF480600861084603F022F93720FFF73E
:100D80004BFB04462A2C01D020469CE70020284932
:100D9000086006204860402088600020C8604FF44A
:100DA00080600861084603F00BF90620FFF734FB6A
:100DB00004462A2C01D0204685E7204683E72524D7
:100DC000204680E770B504462A251E48006803289F
:100DD00002D12725284670BD1A48006838B1194845
:100DE0000068012803D017480068022840D1B4F5F4
:100DF000805F02D127252846EDE7B4F5006F25D1A5
:100E00000120FFF753FF05462A2D31D101200E495D
:100E10000870002048608860C8604FF40060086176
:100E200000204861084603F08BF821E0BC00002058
:100E3000E400002004000020FFFF0F00F800002065
:100E40000080014000000020CC0000200020FFF7BF
:100E50002DFF05462A2D0BD10120F74908700020EF
:100E600048608860C86008614861084603F068F817
:100E70002846B0E701462A2019B1012901D00229EC
:100E800002D1EE4A116000E02620704770B504469A
:100E90002A25EB4804600720E94948604020886023
:100EA0000020C8604FF480600861084603F088F8AD
:100EB0000720FFF7B1FA0546284670BD30B58BB064
:100EC00005460C46DF4803F002FA0021DE4803F035
:100ED000D3F9DE480090019500200290A00803900D
:100EE00000200490802005908000069080000790EC
:100EF000002008904FF40050099000200A906946A5
:100F0000D14803F08EF90121CF4803F0B5F90BB0B9
:100F100030BD0146002002E04910421CD0B2012938
:100F2000FAD170472DE9F04707460D4614464FF0B9
:100F30002A084FF000092E464FF0000A25B94FF05D
:100F400026084046BDE8F0872A20C14908700020E5
:100F5000C0490860C0490860C048C1490860002015
:100F600048608860C86008614861084603F04BF833
:100F7000002003F022F8002003F040F810F0007F7A
:100F800003D04FF00E084046DCE7B6480068022860
:100F900001D104027F0A002C21DDB4F5006F1EDCB4
:100FA000601E20421BD12046FFF7B3FF8246A448B3
:100FB00004601020A2494860402088600020C8607A
:100FC0004FF480600861084602F0FAFF1020FFF736
:100FD00023FA8046B8F12A0F05D04046B2E74FF019
:100FE00026084046AEE79D489D4908600846446093
:100FF0004FEA0A1088600220C860002008610120C2
:101000004861084602F0FFFF9348046000209649BB
:101010000860964805608A48076011208849486042
:10102000402088600020C8604FF480600861084656
:1010300002F0C6FF1120FFF7EFF98046B8F12A0F42
:1010400001D040467EE77D480068022857D111E074
:101050004FF4004003F020F860B14FF0000905E0C4
:1010600002F0F3FF46F8290009F10109B9F1080F70
:10107000F6D3203675488038406B40F22A6108422A
:10108000E6D0082003F008F830B1082003F00EF88D
:101090004FF00408404655E7022002F0FDFF30B152
:1010A000022003F003F84FF0020840464AE72020F0
:1010B00002F0F2FF30B1202002F0F8FF4FF00608F6
:1010C00040463FE74FF4007002F0E6FF38B14FF4BE
:1010D000007002F0EBFF4FF00708404632E703E0F4
:1010E00002F0B3FF3060361D4FF4001002F0D4FF61
:1010F0000028F5D140F2FF5002F0D8FF2CE04F4815
:101100000068012813D1012148F22A3002F048FF7B
:1011100000BF5048006818B94D4800782A28F8D018
:101120004B4800782A2817D0494800780AE74348F6
:10113000006888B9012140F22A3002F031FF012015
:1011400002F03BFF21462846FFF7B8FE00BF4848A3
:1011500003F0AAF80028FAD04046F3E62DE9F05F44
:1011600081460E4614461D464FF02A084FF0000AED
:1011700037464FF0000B26B94FF026084046BDE831
:10118000F09F2A2032490870002032490860324915
:101190000860324832490860002048608860C860B2
:1011A00008614861084602F02EFF002002F005FFAA
:1011B000002002F023FF10F0007F03D04FF00E0854
:1011C0004046DCE727480068022802D104024FEAC3
:1011D0005929002C21DDB4F5006F1EDC601E204271
:1011E0001BD12046FFF795FE83461548046010206A
:1011F00013494860402088600020C8604FF4806038
:101200000861084602F0DCFE1020FFF705F9804671
:10121000B8F12A0F05D04046B1E74FF02608404606
:10122000ADE7012D7DD905FB04F0B0F1007F21D39E
:101230004FF026084046A2E7CC000020080000201E
:10124000E400002000F000104404024080800140CF
:1012500014000020180000200C000020FFFF0F00E9
:10126000F8000020000000201000002024000020D2
:101270000020001005FB04F0FE4908600120FE4933
:101280000860FE480660FE48FE49086005FB04F061
:1012900048604FEA0B1088600220C8600020086197
:1012A00001204861084602F0AEFEF748C0F8009001
:1012B0001220F5494860402088600020C8604FF443
:1012C00080600861084602F07BFE1220FFF7A4F858
:1012D0008046B8F12A0F01D0404650E7EB4800683D
:1012E00002287BD111E04FF4004002F0D5FE60B13E
:1012F0004FF0000A05E002F0A8FE47F82A000AF1C4
:10130000010ABAF1080FF6D32037E148406B40F2EA
:101310002A310842E7D0082002F0BEFE40B1082082
:1013200000E09EE002F0C2FE4FF00408404626E7CF
:10133000022002F0B1FE30B1022002F0B7FE4FF001
:10134000020840461BE7202002F0A6FE30B1202014
:1013500002F0ACFE4FF00608404610E74FF4007074
:1013600002F09AFE38B14FF4007002F09FFE4FF089
:101370000708404603E703E002F067FE38603F1DC0
:101380004FF4001002F088FE0028F5D14FF4807071
:1013900002F082FE18B3BF48006838B1BD4800684B
:1013A000022803D0BB480068012818D10020B649A4
:1013B00008600C204860402088600020C8604FF41E
:1013C00080600861084602F0FBFD0C20FFF724F85E
:1013D0008046B8F12A0F02D04046D0E604E040F241
:1013E000FF5002F063FE3CE0A8480068012813D1DA
:1013F000012148F22A3002F0D3FD00BFA648006860
:1014000018B9A64800782A28F8D0A44800782A28D5
:1014100027D0A2480078B2E69C48006808BB0121AA
:1014200040F22A3002F0BCFD012002F0C6FD05FBAF
:1014300004F13046FFF742FD00BF994802F034FF47
:101440000028FAD000BF9448006818B99348007883
:101450002A28F8D0914800782A2802D08F480078AE
:101460008DE640468BE67CB504462A250020019097
:1014700000908C4800880004834908600D20486073
:10148000402088600020C8604FF4806008610846F2
:1014900002F096FD7E48406B009002E07C48406B75
:1014A0000090009810F0450FF8D0009810F0040F4D
:1014B00005D00325042002F0F9FD28467CBD0098E4
:1014C00010F0010F05D00125012002F0EFFD2846A4
:1014D000F4E702F08FFD009000980D2802D010254F
:1014E0002846EBE740F2FF5002F0E0FD002002F05A
:1014F00085FD01900198C0F3432020706A4901984E
:10150000084201D12846D9E7019810F0004F01D0D8
:101510001C20D3E7019810F0804F01D00920CDE7BF
:10152000019810F0005F01D00A20C7E7019810F081
:10153000805F01D00B20C1E7019810F0006F01D04F
:101540000C20BBE7019810F0806F01D00D20B5E7AB
:10155000019810F0807F01D00E20AFE7019810F4C1
:10156000000F01D00F20A9E7019810F4800F01D0DF
:101570001020A3E7019810F4001F01D011209DE76F
:10158000019810F4801F01D0122097E7019810F401
:10159000002F01D0132091E7019810F4802F01D083
:1015A00014208BE7019810F4003F01D0152085E747
:1015B000019810F4803F01D016207FE7019810F4C5
:1015C000004F01D0172079E7019810F4804F01D027
:1015D000182073E7019810F4005F01D019206DE71F
:1015E000019810F0080F01D01A2067E7284665E738
:1015F00030B58BB005460C462C4802F068FE002141
:101600002B4802F039FE22488030009001951020CE
:101610000290A00803900020049080200590800094
:10162000069080000790002008904FF40050099029
:1016300000200A9069461E4802F0F3FD01211C4873
:1016400002F01AFE0BB030BD2DE9FF5F82460F4657
:1016500014462A250020039002908346002601901C
:1016600080460090B94627B92625284604B0BDE833
:10167000F09F1FE00C00002010000020240000203C
:10168000FFFF0F00F8000020E40000200800002009
:1016900000800140000000201800002014000020FD
:1016A000002000100400002008E0FFFD00F0001002
:1016B000440402402A20F84908700020F7490860D5
:1016C000F7490860F748F8490860002048608860DA
:1016D000C86008614861084602F095FC002002F0ED
:1016E0006CFC002002F08AFC10F0007F04D00E2574
:1016F000284604B0BDE8F09FEC480068022802D1FB
:1017000004024FEA5A2A002C20DDB4F5006F1DDCDC
:10171000601E20421AD12046FFF7FBFB0390E448ED
:1017200004601020E2494860402088600020C860C2
:101730004FF480600861084602F042FC1020FEF77A
:101740006BFE05462A2D04D02846D2E726252846DA
:10175000CFE7D84800880004D54908600D204860CC
:10176000402088600020C8604FF48060086108460F
:1017700002F026FC0D20FEF74FFE05462A2D01D073
:101780002846B6E7002002F039FC0190DFF814B3D8
:101790001EE0ABF1010BC74800880004C449086093
:1017A0000D204860402088600020C8604FF48060B1
:1017B0000861084602F004FC0D20FEF72DFE0546E8
:1017C0002A2D01D0284694E7002002F017FC019052
:1017D000019810F4807F02D1BBF1000FD9D1BBF189
:1017E000000F01D1292084E7B148C0F800A01820DB
:1017F000AF494860402088600020C8604FF4806096
:101800000861084602F0DCFB1820FEF705FE0546DD
:101810002A2D01D028466CE7A14804600020A64983
:101820000860A64807609F489F49086008464460D2
:101830000398000188600020C860086101204861A9
:10184000084602F0E0FB9E48006802286AD139E0B1
:101850004FF4804002F020FCA0B391480068801B48
:10186000202820D28E480078801B10F0030F04D16E
:101870008B480068801B800804E089480068801B52
:101880008008401C00904FF0000808E0D9F80000E4
:1018900002F0DEFB08F1010809F10409361D009889
:1018A00080450FD2F2E74FF0000805E059F8280014
:1018B00002F0CEFB08F10108B8F1080FF6D309F1E8
:1018C000200920367F48406B40F21A610842BFD0A1
:1018D000082002F0E1FB28B1082002F0E7FB042514
:1018E000284606E7022002F0D7FB28B1022002F0CA
:1018F000DDFB02252846FCE6102002F0CDFB28B1D6
:10190000102002F0D3FB05252846F2E64FF40070C4
:1019100002F0C2FBF0B34FF4007002F0C7FB0725E2
:101920002846E6E666480068012813D1012144F202
:101930001A3002F035FB00BF5848006818B9564805
:1019400000782A28F8D0544800782A2828D052480D
:101950000078CEE65A480068E0B9012140F21A301A
:1019600002F01EFB21463846FFF742FE012002F03E
:1019700024FB00BF544802F097FC0028FAD000BFB7
:101980004648006818B9444800782A28F8D04248E8
:10199000007800E004E02A2802D03F480078A8E65A
:1019A00040F2FF5002F082FB02A8FFF75CFD054603
:1019B00003E002A8FFF757FD05462A2D07D19DF841
:1019C00008000728F5D09DF808000628F1D0284621
:1019D0008FE62DE9FE4F8346884614461E462A258B
:1019E000002002900190002781460090C246B8F185
:1019F000000F03D126252846BDE8FE8F2A20264960
:101A000008700020254908602549086025482649B6
:101A10000860002048608860C86008614861084626
:101A200002F0F1FA002002F0C8FA002002F0E6FA13
:101A300010F0007F02D00E252846DDE71B48006825
:101A4000022802D104024FEA5B2B002C20DDB4F502
:101A5000006F1DDC601E20421AD12046FFF759FAA4
:101A600002901348046010201149486040208860AB
:101A70000020C8604FF480600861084602F0A0FAB8
:101A80001020FEF7C9FC05462A2D1FD02846B3E7D3
:101A900026252846B0E7000014000020180000208A
:101AA0000C000020FFFF0F00F800002000000020C5
:101AB000E40000200400002010000020200000208E
:101AC000080000200080014000200010FE4800882F
:101AD0000004FE4908600D20486040208860002016
:101AE000C8604FF480600861084602F069FA0D2072
:101AF000FEF792FC05462A2D01D028467CE7012EF0
:101B00007AD906FB04F0B0F1007F02D326252846DF
:101B100072E7EF48006838B1ED480068012803D04B
:101B2000EB48006802282FD1E74800880004E74905
:101B3000086037204860402088600020C8604FF46B
:101B400080600861084602F03BFA3720FEF764FC2B
:101B500005462A2D01D028464EE7DC4806601720AE
:101B6000DA494860402088600020C8604FF48060F7
:101B70000861084602F024FA1720FEF74DFC0546DE
:101B80002A2D01D0284637E7D048C0F800B01920E8
:101B9000CE494860402088600020C8604FF48060D3
:101BA0000861084602F00CFA1920FEF735FC0546DC
:101BB0002A2D01D028461FE706FB04F0C54908601E
:101BC0000120C5490860C548C0F80080C448C5491F
:101BD000086006FB04F0486002980001886000205D
:101BE000C860086101204861084602F00CFABE484E
:101BF000006802287ED13AE0D0E04FF4804002F045
:101C00004BFAA0B3B3480068C01B20280FD34FF095
:101C1000000905E05AF8290002F01AFA09F1010951
:101C2000B9F1080FF6D30AF1200A20371FE0A948BE
:101C30000078C01B10F0030F04D1A6480068C01B39
:101C4000800804E0A3480068C01B8008401C009086
:101C50004FF0000908E0DAF8000002F0F9F909F1A4
:101C600001090AF1040A3F1D00988145F3D39F48FA
:101C7000406B40F21A310842BFD0082002F00CFA43
:101C800028B1082002F012FA04252846B4E6022002
:101C900002F002FA28B1022002F008FA02252846D2
:101CA000AAE6102002F0F8F928B1102002F0FEF99F
:101CB00005252846A0E64FF4007002F0EDF930B19A
:101CC0004FF4007002F0F2F90725284694E64FF42D
:101CD000807002F0E1F9002860D07D48006838B1DA
:101CE0007B480068012803D079480068022855D154
:101CF000002000E015E0754908600C204860402095
:101D000088600020C8604FF480600861084602F0D7
:101D100057F90C20FEF780FB05462A2D3ED02846B9
:101D20006AE671480068012813D1012144F21A3093
:101D300002F036F900BF6E48006818B96D480078A7
:101D40002A28F8D06B4800782A2827D069480078DC
:101D500052E66548006808BB012140F21A3002F0E3
:101D60001FF9012002F029F906FB04F14046FFF7B4
:101D70003FFC00BF604802F097FA0028FAD000BF8D
:101D80005B48006818B95B4800782A28F8D05948A1
:101D900000782A2802D0574800782DE640F2FF50FC
:101DA00002F084F901A8FFF75EFB054603E001A8F5
:101DB000FFF759FB05462A2D07D19DF80400072897
:101DC000F5D09DF804000628F1D0284614E64748CF
:101DD000406B10F4405F01D0012070470020FCE709
:101DE00010B52A240020394908600C2048604020A2
:101DF00088600020C8604FF480600861084602F0E7
:101E0000DFF80C20FEF708FB0446204610BD2DE944
:101E1000FC4105460E462A24002700200190009030
:101E200036484068202111EA105F03D1252420465E
:101E3000BDE8FC812D484068C0B2801C3049B1FB30
:101E4000F0F00190002002F0D9F810F0007F02D0ED
:101E50000E242046ECE71E480068022801D16D0AD6
:101E6000760A1B48006838B119480068012803D079
:101E70001748006802284CD11448056020201349F7
:101E80004860402088600020C8604FF4806008618E
:101E9000084602F095F82020FEF7BEFA04462A2CE8
:101EA00001D02046C4E70948066021200749486060
:101EB000402088600020C8604FF4806008610846B8
:101EC00002F07EF821201DE004000020E400002044
:101ED000000000200C000020100000202000002046
:101EE000FFFF0F00F80000200800002000800140E4
:101EF000180000201400002000200010AC0000207A
:101F000040190100FEF788FA04462A2C01D0204629
:101F10008EE70020FE490860262048604020886047
:101F20000020C8604FF480600861084602F048F85D
:101F30002620FEF771FA04462A2C01D0204677E7C6
:101F4000002700E07F1C01988742FBD36846FFF71B
:101F50008AFA044603E06846FFF785FA04462A2C0D
:101F600007D19DF800000728F5D09DF8000006284D
:101F7000F1D020465CE770B504462A2514B9262521
:101F8000284670BDE34800880004E14908600D2040
:101F90004860402088600020C8604FF4806008617D
:101FA000084602F00DF80D20FEF736FA05462A2DF8
:101FB00001D02846E5E7002002F020F820602846FE
:101FC000DFE770B504462A260025002002F016F847
:101FD00010F0007F02D00E26304670BD4020CC4964
:101FE000086010204860402088600020C8604FF4DE
:101FF00080600861084601F0E3FF1020FEF70CFA4C
:1020000006462A2E01D03046E7E7C2480088000481
:10201000BF49086037204860402088600020C860C1
:102020004FF480600861084601F0CAFF3720FEF7D0
:10203000F3F906462A2E01D03046CEE7B648B74916
:10204000086040204860602088600220C86000204E
:10205000086101204861084601F0D5FF0020AC4925
:1020600008600D204860402088600020C8604FF460
:1020700080600861084601F0A3FF0D20FEF7CCF94F
:1020800006462A2E01D03046A7E70EE04FF4004066
:1020900002F002F848B1002504E001F0D6FF44F850
:1020A00025006D1C082DF8D320349D48406B40F26C
:1020B0002A610842EAD0082001F0EEFF28B108208A
:1020C00001F0F4FF0426304687E7022001F0E4FF28
:1020D00028B1022001F0EAFF022630467DE72020E9
:1020E00001F0DAFF28B1202001F0E0FF062630469B
:1020F00073E74FF4007001F0CFFF30B14FF4007080
:1021000001F0D4FF0726304667E703E001F09DFFAA
:102110002060241D4FF4001001F0BEFF0028F5D10F
:1021200040F2FF5001F0C2FF403C002515E014F8DA
:102130002500000634F8251001F47F4140EA012013
:1021400054F8251001F47F0140EA112054F82510BD
:1021500040EA116044F825006D1C102DE7D330468D
:102160003BE770B5002400256E480068012867D160
:10217000C00301F09EFFA8B100BF06E001F065FFBB
:102180006949096841F82400641C082CF6D36648A4
:102190000068203064490860644800682030634962
:1021A00008604DE04FF4804001F083FF002847D0E5
:1021B0005F4800685D490968401A20282BD25C48B6
:1021C00000785A490968401A10F0030F06D15848A0
:1021D000006856490968401A800806E054480068BB
:1021E00052490968401A8008401C054600240FE047
:1021F00050490968086801F02BFF641C4D480068CD
:10220000001D4C49086049480068001D47490860A6
:10221000AC42EDD314E0002406E04649096851F8C9
:10222000240001F015FF641C082CF6D34148006817
:102230002030404908603D48006820303B49086034
:102240004FF4807001F035FFD8B336480068D0B144
:102250000EE001F0FAFE344909680860324800686F
:10226000001D3149086031480068001D2F49086091
:102270004FF4001001F010FF28B12C4800682C49E1
:1022800009688842E5D32C480068012804D1FFF78B
:10229000A7FD2A49087002E02A20284908704FF457
:1022A000807001F010FF00214CF23A3001F078FE0E
:1022B00001202349086000201C4908601F4800785D
:1022C00070BDFFE7022001F0F4FE70B1022001F0C2
:1022D000FAFE00214CF23A3001F062FE0020134970
:1022E0000860022015490870EAE7082001F0E1FEC5
:1022F00040B3082001F0E7FE00214CF23A3001F033
:102300004FFE00200949086004200C490870D7E7F7
:10231000E400002004000020FFFF0F00F800002070
:102320000080014008000020240000201C00002044
:102330000C000020200000201000002014000020CD
:1023400018000020FFE7202001F0B3FE70B120202C
:1023500001F0B9FE00214CF23A3001F021FE0020DC
:1023600017490860062017490870A9E7102001F0F6
:10237000A0FE70B1102001F0A6FE00214CF23A3010
:1023800001F00EFE00200E49086005200D4908707E
:1023900096E74FF4007001F08CFE78B14FF40070B6
:1023A00001F091FE00214CF23A3001F0F9FD0020DD
:1023B0000349086007200349087081E72A207FE766
:1023C0001C0000201400002001B5FE4900980860A0
:1023D00000BFFC4800680028FBD108BDF948006830
:1023E00020B1F8480068401EF6490860704710B5F3
:1023F00002F091FB10BD2DE9F0438DB0044621465B
:10240000684603F0ECFE06002ED1204604F089FA5F
:10241000C5B21EE09DF8240010F0100F13D009F192
:1024200001001FFA80F92F2060556119481C0DF139
:10243000250104F07DFA2046FFF7DDFF0646002067
:10244000605536B10FE008F101001FFA80F80798D7
:10245000074407A9684603F0F6FE060003D19DF87D
:1024600025000028D6D100BF30460DB0BDE8F0836E
:1024700010B50446102C59D2DFE804F0080D1217ED
:102480001C21262B30353A3F44494E530821CE4873
:1024900000F086FF10BD0E21CB4800F081FFF9E768
:1024A0000621C94800F07CFFF4E70421C64800F08B
:1024B00077FFEFE70221C44800F072FFEAE700214E
:1024C000C14800F06DFFE5E70C21BF4800F068FF50
:1024D000E0E70A21BC4800F063FFDBE70521BB48C9
:1024E00000F05EFFD6E70721B84800F059FFD1E7BA
:1024F0000F21B54800F054FFCCE70721B24800F0A7
:102500004FFFC7E70521B04800F04AFFC2E70321AB
:10251000AD4800F045FFBDE70121AB4800F040FFAA
:10252000B8E70D21A84800F03BFFB3E700BF00BFAC
:1025300000BFAFE700B5B5B0002004F0A5F9A4498D
:10254000002003F038FA0622A2A1A44803F046FABC
:1025500098B90120A2490860A24901A804F02AFA0A
:102560009F4BCD2201A99D4803F0ECFB9B4803F053
:102570004BFD9DA004F00EFA02E0A0A004F00AFAC0
:1025800035B000BD30B587B0002004F07DF990492A
:10259000002003F010FA02228EA1904803F01EFAE8
:1025A000002830D101208E4908608C48C16803F0B2
:1025B00036FD01F0DBFE054603A900F058FC884B10
:1025C000102203A9854803F0BDFB844803F0C1FC39
:1025D000002413E02046FFF74BFF05462A468CA156
:1025E000684604F0E7F97E4B092269467B4803F010
:1025F000A9FB7A4803F0ADFC601CC4B2102CE9DBE7
:10260000764803F001FD07B030BD30B59BB03421F2
:1026100001A804F07BF9002004F036F96C49002091
:1026200003F0C9F96BA10DF15D0004F081F901A976
:102630000EA803F0D4FD002840D138E09DF85C00DE
:1026400010F0200F33D09DF85D0000B935E00DF19A
:102650005D0172A004F09EF901220DF15D015F4859
:1026600003F0BCF9054601205D490860002400BF65
:10267000002403E0002070490855641CB4F5007F75
:10268000F8D36E4B4FF400726B49544803F06AFA6A
:10269000054669496AA004F07DF91DB967480068DC
:1026A0000028E5D100BF00BF4C4803F0ADFC15A9E0
:1026B0000EA803F0C8FD0028C0D000BF1BB030BD7D
:1026C00010B501214FF0C05001F019FA012001F0BE
:1026D0002CFF01F0CDFE012001F074F900BF412074
:1026E00001F0DAF80028FAD04FF4807001F083F995
:1026F000012001F086F901F07DFE01F073FE012159
:10270000084601F013FE01F06DFE47F6FF7001F080
:1027100043FE01F067FE10BD00B585B0012144F213
:10272000040001F0DFF900214FF4804001F0F4F9DA
:102730004FF40070ADF8100003208DF8120018203F
:102740008DF8130004A9404800F036FF4FF4806074
:10275000ADF8100004208DF8130004A93A4800F0E9
:102760002BFF4FF4E040ADF8100004A9374800F00B
:1027700023FF4FF40050ADF8100004A9344800F0D6
:102780001BFF4020ADF8100004A9324800F014FFF0
:102790004FF40060ADF8100028208DF8130004A954
:1027A0002D4800F009FF4FF40060ADF8100004A9B7
:1027B000264800F001FF8020ADF8100004A925484C
:1027C0004CE000006000002000240140003C01407B
:1027D000D00D00206C6F672E7478740000100020FC
:1027E0006C000020506D00080A0D46696C6520637E
:1027F00072656174656420210A0D00000A0D466946
:102800006C65206578697374656420210A0D000089
:102810002020202020253464000000000A0D2066BE
:10282000696C65206E616D652069733A0D0A0D2033
:10283000202025730D0A00002412002068000020CB
:1028400025730D0A0D00000000080140001801402A
:102850000014014000100140000C014000F0ACFEEB
:102860008021DB4800F053FF4FF4E130009000205E
:10287000ADF80400ADF80600ADF80800ADF80C00A6
:102880000C20ADF80A006946D24801F0DCF90122BB
:1028900040F22771CF4801F050FA012240F2255151
:1028A000CC4801F04AFA0121CA4801F03AFA05B0D1
:1028B00000BD08B54FF4C06000F0A8FD31208DF8D0
:1028C000000000208DF801008DF8020001208DF835
:1028D0000300684600F09FFD03208DF800000120F2
:1028E0008DF8010000208DF8020001208DF8030012
:1028F000684600F090FD0B208DF8000000208DF858
:1029000001008DF8020001208DF80300684600F0F8
:1029100082FD3B208DF8000000208DF801008DF82D
:10292000020001208DF80300684600F074FD08BD28
:102930001FB50024FFF75BFDA74800684FF47A72CB
:10294000B0FBF2F1B1F1807F00D31DE021F07F40B8
:10295000401E4FF0E022506150170F22002807DA86
:1029600013071E0E9D4B00F00F052D1F5E5503E053
:1029700013071D0E9A4B1D5400BF00204FF0E0229C
:1029800090610720106100BFFFF793FFFFF7C4FEBF
:1029900000F0A2FB00F0AEFCFDF7F8FE91490870D4
:1029A000084600782A2804D18F48FDF735FF8D4965
:1029B00008708C4800782A2807D18B49B1F84C1050
:1029C0000804FEF763FA87490870864800782A28C9
:1029D00007D10120FEF74EFA8249087083A003F068
:1029E000D9FF042001F071FDA0F52541A5390FD0D4
:1029F00082A003F0CFFFFFF763FE88A003F0CAFFB9
:102A000000F003FA4AF2A551042001F05AFD1DE03E
:102A10007B2000F041FF18B186A003F0BBFF06E069
:102A20007A2000F039FF10B18AA003F0B3FF91A023
:102A300003F0B0FF01F0DEFC0121084601F076FC56
:102A400001F0D0FCAFF2142003F0A4FF01F088F8ED
:102A5000FFF770FD01218F4801F00EFC01218E4827
:102A600001F00AFC8D4803F095FF3BE001F07EFC8D
:102A70000546694600F0FBF9694689A003F08AFF24
:102A80000121884801F03FFE0A20FFF79DFC00214C
:102A9000844801F038FE002407E0834830F8141021
:102AA00082A003F077FF601CC4B20F2CF5DB01217C
:102AB000804801F028FE0A20FFF786FC00217D48AF
:102AC00001F021FE002407E07B4830F8141077A0C5
:102AD00003F060FF601CC4B2032CF5DB4FF4FA6016
:102AE000FFF772FCC2E710B50446E1B2394801F0C5
:102AF00080F900BF3748008810F0800FFAD02046D8
:102B000010BD10B500BF3348008810F0200FFAD078
:102B1000304801F072F910BD70B5054600240CE094
:102B200000BF20212B4801F0BBF90028F9D029482B
:102B300001F063F92855601C84B2042CF0D370BDF9
:102B400070B504460D46E1B2224801F052F900BFCB
:102B50004021204801F0A4F90028F9D0204670BD9A
:102B60007CB5054600240020009001901BE000BFCA
:102B70002021184801F094F90028F9D0154801F0F7
:102B80003CF92146641C4DF82100601E5DF82000D0
:102B9000302804D3601E5DF82000392803D947A0EF
:102BA00003F0F8FE641E022CE1D30198303800993E
:102BB000303901EB810100EB4104AC4205D92946D3
:102BC0004AA003F0E7FEFF207CBDE0B2FCE7000076
:102BD0000010014000380140F86E000818ED00E0D8
:102BE00000E400E05C000020800100200D0A0D548C
:102BF000455354204F4B210D0A0D00000D0A0A20A9
:102C0000525443206E6F742079657420636F6E6632
:102C10006967757265642E2E2E2E00000D0A2052F3
:102C2000544320636F6E666967757265642E2E2E3D
:102C30002E0000000D0A0A20506F776572204F6E3B
:102C4000205265736574206F636375727265642EBC
:102C50002E2E2E000D0A0A2045787465726E616C66
:102C6000205265736574206F636375727265642E9C
:102C70002E2E2E000D0A204E6F206E656564207486
:102C80006F20636F6E666967757265205254432EBC
:102C90002E2E2E000800024058040240206E00082C
:102CA00025730000002401406414002020202534F6
:102CB00064000000003C0140DC1400200A0D0D50AF
:102CC0006C6561736520656E7465722076616C69F0
:102CD00064206E756D626572206265747765656EDD
:102CE000203020616E642039000000000A0D0D5074
:102CF0006C6561736520656E7465722076616C69C0
:102D000064206E756D626572206265747765656EAC
:102D1000203020616E6420256400000070B5FF241F
:102D2000FF25FF26FF20B749487008704880B64845
:102D300003F030FEB5A003F02DFE03E01720FFF7EF
:102D40000FFF0446FF2CF9D02146B6A003F022FE67
:102D5000B6A003F01FFE03E03B20FFF701FF05468E
:102D6000FF2DF9D02946AFA003F014FEB5A003F063
:102D700011FE03E03B20FFF7F3FE0646FF2EF9D0DD
:102D80003146A8A003F006FEB4A003F003FE04E061
:102D90001F20FFF7E5FE9B4948709A484078FF28BE
:102DA000F6D0984841789FA003F0F4FDB0A003F05E
:102DB000F1FD04E00C20FFF7D3FE92490870914822
:102DC0000078FF28F6D08F48017896A003F0E2FD46
:102DD000ADA003F0DFFD06E06320FFF7C1FE00F5C4
:102DE000FA608849488087484088FF28F4D08548A1
:102DF00041888CA003F0CEFD4FF461606043C5EBC9
:102E0000051100EB8100304470BD10B501F0EAFA05
:102E1000FFF784FF044601F0B2FA01F0E3FA10BDB7
:102E20002DE9F04104460025002600274FF461609B
:102E3000B4FBF0F5B4FBF0F100FB11403C21B0FB1A
:102E4000F1F64FF46160B4FBF0F100FB11403C215E
:102E5000B0FBF1F201FB1207182D00D100253B4613
:102E6000324629468DA003F095FDBDE8F0812DE99D
:102E7000F84304460D4600260027B0464FF4616033
:102E8000B4FBF0F6B4FBF0F100FB11403C21B0FBC9
:102E9000F1F74FF46160B4FBF0F100FB11403C210D
:102EA000B0FBF1F201FB1208182E00D100263B46C0
:102EB000324681A12846CDF8008003F07BFDBDE8B5
:102EC000F88310B583480068012807D101F04EFA55
:102ED0000446FFF7A5FF00207E49086010BD494861
:102EE0000078012817D047480078032813D04548B8
:102EF000007805280FD04348007807280BD04148B8
:102F00000078082807D03F4800780A2803D03D48B9
:102F100000780C281ED13B4840781F2805DA394834
:102F20004078401C374948706AE0364800780C28E1
:102F300007D034480078401C32490870012048709E
:102F40005EE001202F490870487008464088401C08
:102F5000488055E02B48007804280BD02948007899
:102F6000062807D027480078092803D0254800788C
:102F70000B2811D1234840781E2805DA21484078D3
:102F8000401C204948703BE01E480078401C1D4909
:102F900008700120487033E01A48007802282FD1C9
:102FA000184840781C2805DA16484078401C154916
:102FB000487025E0134840781C2816D111494888EC
:102FC000C11700EB91718910B0EB810105D10D485B
:102FD0004078401C0B49487012E00A480078401CB9
:102FE00008490870012048700AE0064840781D280A
:102FF00006D104480078401C02490870012048703E
:103000007047000074000020B06E00080D0A2020F8
:10301000506C656173652053657420486F757273D9
:10302000000000003A202025640000000D0A202046
:10303000506C6561736520536574204D696E7574BD
:10304000657300000D0A2020506C65617365205384
:103050006574205365636F6E647300000D0A202051
:10306000506C65617365205365742044617900007C
:103070000D0A2020506C6561736520536574204DE6
:103080006F6E7468000000000D0A2020506C6561AE
:1030900073652053657420596561720054696D65CC
:1030A0003A2025302E32643A25302E32643A2530CB
:1030B0002E3264202D2000000D0A54696D653A20DF
:1030C00025302E32643A25302E32643A25302E32A5
:1030D000640000007000002070B50F24032501215A
:1030E00048F29C2000F0FEFCBB4800F0EEFAFF2006
:1030F000B94908800020C870B84800F05DFAB648A9
:1031000000F0E3FA0320B44908800020C870B448F6
:1031100000F052FAB04800F0D8FA3F20AE490880DB
:103120000020C870AF4800F047FAAB4800F0CDFA75
:103130004FF4F860A84908800020C870AA4800F041
:103140003BFAAA4801F046FAA94801F093FA002098
:10315000A7490860012C01DD012000E00020A449FE
:103160000871012048714FF4602088600020C86019
:10317000084604749D4801F05AFA052306220021EE
:103180009A4801F0ECFA05230F220121974801F03B
:10319000E6FA05231A460221944801F0E0FA0523D5
:1031A0000C220321914801F0DAFA0523042211468A
:1031B0008E4801F0D4FA05230B2219468B4801F002
:1031C000CEFA052303220621884801F0C8FA052318
:1031D0000A220721854801F0C2FA052301220821AD
:1031E000824801F0BCFA052308220A217F4801F039
:1031F000B6FA05230F220B217C4801F0B0FA052313
:1032000007220C21794801F0AAFA05230E220D218C
:10321000764801F0A4FA052302220E21734801F03A
:103220009EFA052309220F21704801F098FA012126
:103230006E4801F028FA01216C4801F02FFA6B4822
:1032400001F043FA00BF694801F044FA0028FAD1BE
:10325000664801F049FA00BF644801F04AFA0028C4
:10326000FAD1644801F0B6F9614801F003FA002090
:103270005F490860012D01DD012000E000205C496C
:103280000871012048714FF4602088600020C860F8
:1032900008460574574801F0CAF905230222194669
:1032A000544801F05CFA052301220721514801F03E
:1032B00056FA0523032208214E4801F050FA012155
:1032C0004C4801F0E0F901214A4801F0E7F949488A
:1032D00001F0FBF900BF474801F0FCF90028FAD1E2
:1032E000444801F001FA00BF424801F002FA002808
:1032F000FAD170BD10B50121084600F0E6FB3E484A
:1033000000F0F6FE00203D4988622020086200029D
:103310004862401188618000C861802048610020B7
:10332000086188603C20C86030484C3008603448F0
:103330004860314800F075FF012202212E4800F05C
:10334000A6FF01212C4800F097FF0121022000F088
:10335000BCFB2C4800F0CCFE0020284988622020CD
:10336000086200024862401188618000C8618020C4
:1033700048610020086188600C20C8601D484C30FE
:103380000860214848601F4800F04BFF01220221DD
:103390001C4800F07CFF01211A4800F06DFF10BDB1
:1033A00070B504460D4640F6FF76072301222946F4
:1033B000204601F0D4F9A06840F48000A06004E049
:1033C0003000A6F1010600D170BD206810F0020F98
:1033D000F6D0E06C80B2F7E78600002000080140DC
:1033E000000C014000100140001C0140002401407D
:1033F00024140020003C0140080002403814002042
:103400006414002058040240DC14002031490143B8
:10341000314A1160704770B5002100230F22C47833
:103420000CB32D4C246804F4E064C4F5E064210A74
:10343000C1F10403CA40447804FA03F184781440CB
:1034400021430901254C0678A155047804F01F0595
:103450000124AC4005786D114FF0E02606EB8505A0
:10346000C5F8004109E0047804F01F050124AC40D0
:103470001B4D0678761145F8264070BD194A0A4062
:103480000243154B1B1F1A60704739B1124A121DB7
:1034900012680243104B1B1D1A6006E00E4A121DF3
:1034A000126882430C4B1B1D1A607047042808D118
:1034B0004FF0E021096941F004014FF0E022116171
:1034C00007E04FF0E021096921F004014FF0E0220C
:1034D000116170470000FA050CED00E000E400E027
:1034E00080E100E080FFFF1F10B50446C549601A67
:1034F0008C422FD009DCC448201810D0B0F5806F62
:1035000016D0B0F5006F4AD11BE0B0F5806F2AD01D
:10351000B0F5006F30D0B0F5406F40D135E00121FB
:10352000042000F0F9FA0021042000F0F5FA37E059
:103530000121082000F0F0FA0021082000F0ECFA48
:103540002EE00121102000F0E7FA0021102000F009
:10355000E3FA25E00121202000F0DEFA00212020FE
:1035600000F0DAFA1CE00121402000F0D5FA002139
:10357000402000F0D1FA13E00121802000F0CCFAC5
:103580000021802000F0C8FA0AE00121080200F0C2
:10359000C3FA00214FF4807000F0BEFA00E000BFD3
:1035A00000BF10BD10B50121084600F0B5FA00219A
:1035B000012000F0B1FA10BD2DE9F04102460025CE
:1035C0000026002000230024002791F803C00CF0FF
:1035D0000F0591F803C01CF0100F03D091F802C042
:1035E0004CEA050591F800C0BCF1000F31D0146819
:1035F00000202BE04FF0010C0CFA00F3B1F800C0F2
:103600000CEA03069E4220D183004FF00F0C0CFA07
:1036100003F7BC4305FA03FC4CEA040491F803C029
:10362000BCF1280F06D14FF0010C0CFA00FCC2F8D7
:1036300014C00AE091F803C0BCF1480F05D14FF067
:10364000010C0CFA00FCC2F810C0401C0828D1D3B1
:103650001460B1F800C0BCF1FF0F34DD54680020E5
:103660002EE000F1080C4FF0010808FA0CF3B1F855
:1036700000C00CEA03069E4221D183004FF00F0CDC
:103680000CFA03F7BC4305FA03FC4CEA040491F876
:1036900003C0BCF1280F05D100F1080C08FA0CF8A2
:1036A000C2F8148091F803C0BCF1480F07D100F1B3
:1036B000080C4FF0010808FA0CF8C2F81080401C02
:1036C0000828CED35460BDE8F0814FF6FF71018029
:1036D000022181700421C170704702460020936866
:1036E0000B4201D0012000E00020704701468868AD
:1036F00080B2704702460020D3680B4201D00120FF
:1037000000E0002070470146C86880B27047016140
:103710007047416170470AB1016100E04161704743
:10372000C16070474FF480320A43826181618261D7
:1037300082698269704702460020344B18684FF650
:103740008073184040EA02100843304B18607047FD
:103750002F49C8617047F0B50A46002300240021B4
:1037600000252A4E7168C0F3034583B200F4401669
:10377000B6F5401F08D121F07061244E766826F01E
:103780007066224F7E6012E000F48016B6F5801F4E
:1037900006D1032606FA05F4A14341F0706106E064
:1037A000460D360103FA06F6B14341F0706122B1CD
:1037B000460D360103FA06F63143144E7160F0BD32
:1037C00030B500228B071C0F0F2303FA04F20F4BB6
:1037D00008338C1053F8243093430C4C08348D106C
:1037E00044F8253023468C1053F824308C07240FDE
:1037F00000FA04F42343054C08348D1044F82530B6
:1038000030BD00000014014000F8FEBF0000014080
:1038100000002042DC48006840F00100DA490860FE
:1038200008464068D9490840D749486008460068BA
:10383000D7490840D44908600846006820F4802031
:1038400008600846406820F4FE0048600020886058
:103850007047CD49096821F48031CB4A1160114687
:10386000096821F480211160B0F5803F03D0B0F5E4
:10387000802F0ED106E0C449096841F48031C24A64
:10388000116007E0C049096841F4A021BE4A1160F7
:1038900000E000BF00BF704710B5014600220023C2
:1038A00000204A11012A02D1B74C236806E0022AFF
:1038B00002D1B54C236A01E0B34C636A01F01F02E8
:1038C000012494401C4201D0012000E0002010BDE2
:1038D00038B5002000900024002500BF3120FFF7FC
:1038E000DBFF05460098401C00901DB90098B0F51C
:1038F000A06FF3D13120FFF7CFFF08B1012400E022
:103900000024204638BD014600209F4A106820F060
:10391000F80040EAC100106070479E490860704797
:1039200002460020984B586820F47C1042EA0103BC
:103930001843954B58607047964908667047014692
:103940000020914A506820F00300084350607047FF
:103950008D48406800F00C007047014600208A4AFC
:10396000506820F0F0000843506070470146002086
:10397000854A506820F4E060084350607047014673
:103980000020814A506820F4605040EAC100506035
:10399000704729B17C4A527A02437B4B5A7204E049
:1039A000794A527A8243784B5A7270477A49086052
:1039B000704701460020744A506820F44040084394
:1039C000506070470021754A11706F4A82F82010CC
:1039D000012802D0042808D103E001216F4A1170A8
:1039E00004E005216D4A117000E000BF00BF704780
:1039F0006B49086070476449096A0143624A116271
:103A00007047674944390860704730B5002100228B
:103A1000002400235C4D6D6805F00C0121B10429E0
:103A200005D0082923D105E05E4D056022E05D4DFB
:103A300005601FE0544D6D6805F47012022505EB1A
:103A40009242514D6D6805F480341CB9564D554372
:103A500005600BE04C4D6D6815F4003F03D0524DEE
:103A60005543056002E04F4D5543056002E04D4D62
:103A7000056000BF00BF444D6D6805F0F001090905
:103A80004A4D6B5C0568DD4045603F4D6D6805F44F
:103A9000E061090A454D6B5C4568DD4085603A4D43
:103AA0006D6805F46051C90A404D6B5C4568DD40A6
:103AB000C560354D6D6805F44041890B3C4D6B5C2C
:103AC000C568B5FBF3F5056130BD29B12E4A5269D1
:103AD00002432D4B5A6104E02B4A526982432A4B20
:103AE0005A61704729B1284A92690243264B9A616C
:103AF00004E0254A92698243234B9A61704729B1B9
:103B0000214AD2690243204BDA6104E01E4AD2699D
:103B100082431D4BDA61704729B11B4AD2680243C8
:103B2000194BDA6004E0184AD2688243164BDA6017
:103B3000704729B1144A12690243134B1A6104E019
:103B4000114A12698243104B1A6170471449403977
:103B5000086070470F49C86470470B49C8717047C7
:103B60000948406A40F08070074948627047014642
:103B70000020054A92680A4201D0012000E000209E
:103B80007047014988727047001002400000FFF83A
:103B9000FFFFF6FE00004242D800424220100240E1
:103BA0008004424200127A0000093D008A00002091
:103BB0009A00002010B50446D749601A8C422BD0D9
:103BC00006DCD648201813D0B0F5806F38D119E044
:103BD000B0F5806F2AD0B0F56C4F31D10121880348
:103BE000FFF79AFF00214FF48040FFF795FF28E090
:103BF00001214804FFF79DFF00214FF40030FFF73B
:103C000098FF1EE001218804FFF793FF00214FF485
:103C10008020FFF78EFF14E00121C804FFF789FF21
:103C200000214FF40020FFF784FF0AE0012108057E
:103C3000FFF77FFF00214FF48010FFF77AFF00E0CD
:103C400000BF00BF10BD2DE9F04786B005460E4607
:103C50000024A24600BF00BF00272F462C8A4CF646
:103C6000FF700440F08804432C82AC894EF6F310B8
:103C70000440B08831890843718908430443AC810A
:103C8000AC8A4FF6FF400440B0890443AC8201A8DF
:103C9000FFF7BBFEA248874202D1DDF810A001E089
:103CA000DDF80CA00AEBCA0000EB0A1031688900AD
:103CB000B0FBF1F86420B8FBF0F0040120096421A6
:103CC00001FB1089322000EB0910B0FBF1F000F08D
:103CD0000F0004432C8106B0BDE8F0874FF4165165
:103CE000016000218180C18001810C21418100217E
:103CF0008181704710B502460020108A4FF2FF0301
:103D000018400B884C8823438C882343CC8823435A
:103D10001843108210BD0021018041808180C18044
:103D2000704721B1828942F40052828104E0828985
:103D30004DF6FF731A4082817047F0B503460024A8
:103D40000026002500201846C1F3421401F01F068A
:103D5000012707FA06F5012C01D10C3004E0022CF2
:103D600001D1103000E014301AB107682F4307600A
:103D700002E00768AF430760F0BD1AB1838A0B43C6
:103D8000838202E0838A8B4383827047028A4FF6E4
:103D9000F0731A400282028A0A43028270478289C3
:103DA0004FF2FF731A40828182890A4382817047F1
:103DB00021B1828942F00202828104E082894FF6B9
:103DC000FD731A4082817047028A4FF6DF731A40F2
:103DD0000282028A0A430282704721B1028A42F4B7
:103DE0008042028204E0028A4BF6FF731A4002828C
:103DF0007047C1F308028280704701468888C0F38B
:103E000008007047818941F0010181817047028B70
:103E1000D2B20283028B42EA012202837047028BF4
:103E200002F47F420283028B0A430283704721B16E
:103E3000828A42F02002828204E0828A4FF6DF7397
:103E40001A408282704721B1828A42F01002828237
:103E500004E0828A4FF6EF731A408282704721B1E4
:103E6000828A42F00802828204E0828A4FF6F77367
:103E70001A4082827047828A4FF6FB731A40828210
:103E8000828A0A438282704721B1828A42F002020A
:103E9000828204E0828A4FF6FD731A408282704764
:103EA0000246002013880B4201D0012000E00020D0
:103EB0007047CA430280704770B502460B46002423
:103EC000002100250020C3F3421503F01F01012645
:103ED00006FA01F1012D02D19689314006E0022D4A
:103EE00002D1168A314001E0968A31401C12012627
:103EF00006FA04F41688344011B10CB1012000E038
:103F0000002070BD10B5002200230A120124944045
:103F1000A3B2DC43048010BD004C004000BCFFBFD6
:103F20000038014000206949086048608860C86026
:103F300048628862C862664888630020C863704728
:103F40000021624A516847F6FF6291430278C368D4
:103F50001A4383681A4303691A4343681A4343693F
:103F60001A431143594A5160704700210170416062
:103F70008160C160016141617047564908607047C6
:103F80005249096821F00301504A1160114609683D
:103F90000143116070474D48006800F0030070470E
:103FA00029B14A4AD26B0243484BDA6304E0474ADC
:103FB000D26B8243454BDA637047474908607047CC
:103FC0000021424B02689A601A46D1686FF30A01D9
:103FD000D0E901231A43C3681A4303691A43114302
:103FE0003A4AD16070470021016041608160C16040
:103FF0000161704735480069C0B2704701463348D7
:104000000844406970470021304B02685A62426898
:104010009A621A46D16A21F0F701D0E902231A43C5
:1040200003691A4343691A431143284AD16270470E
:104030004FF0FF310160002141608160C16001618A
:10404000416170472148006B704724480068704701
:104050002249086070471D48806C70471E49143122
:10406000086070471C491831086070471A491C31B4
:104070000860704718492031086070471849086087
:10408000704718490860704701218143164A116042
:104090007047164908607047014600200B4A526B72
:1040A0000A4201D0012000E00020704707498863E0
:1040B000704701460020054A526B0A4201D0012098
:1040C00000E000207047014988637047008001408C
:1040D000FF07C000A00030428C05304280800140C4
:1040E000AC013042B0013042B4013042B80130423C
:1040F000016821F0010101600021016041608160DF
:10410000C160864A811A90425BD012DC844AA0EBDF
:10411000020190423AD007DC824941181BD0142991
:1041200022D028297AD128E0142938D0282975D11D
:104130003EE0B1F56C7F5BD006DCB1F5627F49D023
:10414000B1F5677F6AD14CE0B1F5717F57D0B1F519
:10415000767F63D15BE072494439496841F00F01D1
:104160006F4A443A51605AE06D494439496841F018
:10417000F0016B4A443A516051E069494439496859
:1041800041F47061664A443A516048E064494439F8
:10419000496841F47041624A443A51603FE06049E5
:1041A0004439496841F470215D4A443A516036E02F
:1041B0005B494439496841F47001594A443A5160B5
:1041C0002DE057494439496841F07061544A443AF6
:1041D000516024E05449096841F00F01524A1160CE
:1041E0001DE05149096841F0F0014F4A116016E0A5
:1041F0004D49096841F470614B4A11600FE04A492A
:10420000096841F47041484A116008E006E04649F7
:10421000096841F47021444A116000E000BF00BF0A
:10422000704710B50022026847F6F0739A430C6A93
:104230008B6823430C6923434C6923438C692343D4
:10424000CC6923434C6A23438C6A23431A4302609C
:10425000CB6843600B6883604B68C36010BD00216E
:10426000016041608160C160016141618161C16142
:10427000016241628162704721B1026842F001022D
:10428000026003E0026822F00102026070471AB186
:1042900003680B43036002E003688B4303607047CD
:1042A0000146486880B2704701460020002211F0A4
:1042B000805F03D01C4B1B1F1A6802E0184B443B65
:1042C0001A680A4201D0012000E00020704710F077
:1042D000805F02D01449086002E011494439486007
:1042E000704701460020002211F0805F03D00E4B82
:1042F0001B1F1A6802E00A4B443B1A680A4201D0AD
:10430000012000E00020704710F0805F02D00649D5
:10431000086002E00249443948607047800002406A
:1043200044000240F8FFFDBF0404024029B14F4A97
:10433000128802434D4B1A8004E04C4A1288824393
:104340004A4B1A8070474948001D008840F0100011
:104350004649091D088070474448001D00884FF6F3
:10436000EF7108404149091D0880704700213F480E
:104370001C300188001F008841EA0040704700B5EA
:104380000246FFF7E0FF100C384918310880091D7C
:104390000A80FFF7E1FF00BD00B50246FFF7D3FF3B
:1043A000C2F30340314908310880091D0A80FFF734
:1043B000D3FF00BD00B50246FFF7C5FF100C2B4927
:1043C00020310880091D0A80FFF7C6FF00BD0020CC
:1043D0002649103109880907080B24491431098836
:1043E0000843704700BF2148001D008810F0200FCF
:1043F000F9D070471D48001D00884FF6F77108403E
:104400001A49091D088000BF1848001D008810F0D7
:10441000080FF9D0704701460020144A121D128877
:104420000A4201D0012000E0002070470F49091D19
:10443000098881430D4A121D1180704701460020F2
:104440000A4A121D12880A40D0B2084A12880A424B
:1044500002D008B1012000E0002070470349091D87
:1044600009888143014A121D1180704700280040CD
:1044700010B50120FFF76AFB0020FFF767FB10BDB6
:104480002249086070472149091F086070471F4989
:10449000843108607047014600201D4A10884FF69D
:1044A0007F42104008431A4A10807047014600209E
:1044B000174A10884FF6807210400843144A108043
:1044C0007047134A2C3A81527047014610482C38E5
:1044D000085A70470D489C300068C0B270470C48BD
:1044E0000830008840F00100094908310880704711
:1044F0000648A0300068C0B2704705480830008800
:1045000040F00200024908310880704704860D42DD
:104510002C6C004010B501210807FFF70AFB0021B1
:104520004FF08050FFF705FB10BD26490862704729
:1045300024490861704701460020234A106820F092
:10454000E00008431060704720490860704710B5CC
:10455000024600201C4B186820F00300104318602E
:104560001B4B1B6843F00403194C2360012901D144
:1045700030BF00E020BF10BD1348006840F00400C9
:10458000114908600846006840F0020008601048C1
:10459000006840F004000E49086000BF00BF30BF53
:1045A000704701460020084A52680A4201D00120A3
:1045B00000E0002070470449096841EA8001024A8E
:1045C0001160704700000E4200700040A0000E42D3
:1045D00010ED00E010B50446F748201806D0B0F5FD
:1045E000806F0DD0B0F5C05F1ED113E001214802ED
:1045F000FFF792FA00214FF40070FFF78DFA14E0F4
:1046000001218802FFF788FA00214FF48060FFF74C
:1046100083FA0AE00121C803FFF77EFA00214FF474
:104620000040FFF779FA00E000BF00BF10BD30B5D1
:104630000246002000235068E04C20400D790C68B1
:1046400044EA0524204350609068DD4C2040D1E9C5
:1046500002542C434D7944EA450420439060D06ACB
:1046600020F470000C7C641E1C43E3B240EA03504B
:10467000D06230BD00210160017141718160C16073
:1046800001210174704721B1826842F00102826009
:1046900003E0826822F001028260704721B18268E3
:1046A00042F48072826003E0826822F48072826049
:1046B000704710B50023CBB21AB144681C43446064
:1046C00002E044689C43446010BD816841F00801E9
:1046D00081607047014600208A6812F0080F01D0FF
:1046E000012000E000207047816841F004018160F2
:1046F0007047014600208A6812F0040F01D00120A3
:1047000000E00020704721B1826842F4A00282607C
:1047100003E0826822F4A002826070470146002014
:104720008A6812F4800F01D0012000E00020704759
:1047300010B50A4600210023416821F46041531E50
:1047400041EA4331416010BD21B1426842F4006248
:10475000426003E0426822F4006242607047F0B5B4
:1047600004460D4600200021092D11DDE068A5F169
:104770000A0606EB4607072606FA07F18843A5F165
:104780000A0606EB460603FA06F10843E0600CE071
:10479000206905EB4507072606FA07F1884305EB74
:1047A000450603FA06F108432061072A0FDA606B19
:1047B000561E06EB86071F2606FA07F18843561E8B
:1047C00006EB860605FA06F10843606322E00D2A2F
:1047D0000FDA206BD61F06EB86071F2606FA07F1B5
:1047E0008843D61F06EB860605FA06F108432063C8
:1047F00010E0E06AA2F10D0606EB86071F2606FA16
:1048000007F18843A2F10D0606EB860605FA06F1CC
:104810000843E062F0BD21B1826842F480128260F8
:1048200003E0826822F48012826070470146C86CFF
:1048300080B2704763480068704721B1426842F413
:104840008062426003E0426822F480624260704706
:1048500021B1426842F48052426003E0426822F48F
:104860008052426070470A460021816821F4E0418D
:1048700011438160704721B1826842F40042826036
:1048800003E0826822F400428260704721B18268AE
:1048900042F40212826003E0826822F40212826013
:1048A0007047014600208A6812F4001F01D00120E1
:1048B00000E000207047F0B50446154600200022B5
:1048C0000026092911DDE068A1F10A0707EB470C72
:1048D000072707FA0CF29043A1F10A0707EB4707F5
:1048E00003FA07F21043E0600CE0206901EB410C91
:1048F000072707FA0CF2904301EB410703FA07F28E
:1049000010432061A06BC0F30156EF1C06F1010CAF
:10491000A7EB0C0707EB870C1F2707FA0CF2904355
:10492000EF1C06F1010CA7EB0C0707EB870701FA58
:1049300007F21043A063F0BD10B50A460021002322
:10494000816B21F44011531E41EA0351816310BD74
:104950004250704702465018806A80B270470A463B
:1049600000214168184B1940114341607047416272
:10497000826270470A460021416821F01F011143FD
:104980004160704740B10F494439096841F4000162
:104990000C4A443A116007E00A494439096821F495
:1049A0000001084A443A116070470246002013682B
:1049B0000B420BD001200AE000DCFEBFFFFEF0FF3F
:1049C000FDF7F1FF4C240140FFFD3FFF0020704741
:1049D000CA430260704770B50246002000230024DD
:1049E0000B125568CEB205EA060415681D4202D0C6
:1049F0000CB1012000E0002070BD00220A12D34358
:104A000003607047704708488047084981F3088869
:104A100007480047FEE7FEE7FEE7FEE7FEE7FEE7A2
:104A2000FEE7FEE7FEE7FEE7054A0008F81600206D
:104A3000310100080CB50020019000904748006843
:104A400040F480304549086000BF4448006800F4E5
:104A5000003000900198401C0190009818B901980E
:104A6000B0F5A06FF1D13D48006810F4003F02D0CE
:104A70000120009001E0002000900098012843D11F
:104A80003748006840F01000354908600846006863
:104A900020F0030008600846006840F0020008604B
:104AA0002E4840682D4948600846406848600846DE
:104AB000406840F4806048600846406820F47C10FC
:104AC00048600846406840F4E810486008460068BE
:104AD00040F08070086000BF2048006810F0007F40
:104AE000FAD01E48406820F003001C494860084680
:104AF000406840F00200486000BF1848406800F07D
:104B00000C000828F9D101E000BFFEE70CBD10B58C
:104B1000FFF790FF10BD10B51048006840F001008D
:104B20000E490860084640680E4908400B49486035
:104B3000084600680C4908400849086008460068B3
:104B400020F4802008600846406820F4FE00486099
:104B500000208860FFF7DBFF10BD0000001002405E
:104B6000002002400000FFF8FFFFF6FE70B503468C
:104B70000C4603E014F8015B03F8015B1500A2F199
:104B80000102F7D170BD30B5034601E003F8011B07
:104B90001400A2F10102F9D130BDF0B503461C4664
:104BA0000D46002000BF1600A2F1010207D014F844
:104BB000017B15F801CBA7EB0C063000F3D0F0BD5C
:104BC000024600E0521C107810B110788842F9D1EA
:104BD000107870472DE9F04104460D46E66AAE4272
:104BE0002FD0207908B360780123324604F13001D8
:104BF00001F068FE10B10120BDE8F08100202071B5
:104C0000A169206A0844B0420FD9E7780AE0A06998
:104C1000064460780123324604F1300101F052FE6F
:104C2000781EC7B2012FF2DC00BF55B160780123B6
:104C30002A4604F1300101F02DFE08B10120DBE726
:104C4000E5620020D8E770B5044600212046FFF752
:104C5000C1FF0546002D59D1207803284FD1A07AF5
:104C600000284CD00020E0624FF40072002104F1D3
:104C70003000FFF788FF552184F82E12AA2184F80E
:104C80002F12522084F83000522131200155612129
:104C900032200155412133200155722184F814122C
:104CA00084F81512412184F81612612184F8171234
:104CB000217C84F81812208A010A84F819122069CC
:104CC000010C84F81A122069010E84F81B12217B52
:104CD00084F81C12A089010A84F81D12E068010CF6
:104CE00084F81E12E068010E84F81F126078012318
:104CF00004F13001626901F0E5FD0020A0726078E6
:104D00000022114601F0F6FD00B10125284670BDD4
:104D10002DE9F04105460C46022C02D3E869A04279
:104D200002D80120BDE8F0812F6A2878012804D03C
:104D300002282AD0032870D140E0264606EB56060A
:104D400007EB56212846FFF745FF00B165E0C6F3A3
:104D5000080105F1300010F80180761C07EB5621A0
:104D60002846FFF737FF00B157E0C6F3080105F109
:104D70003000405C48EA002814F0010F02D04FEAEE
:104D80001810CFE7C8F30B00CCE707EB1421284637
:104D9000FFF720FF00B140E040F2FF1000EA4401BD
:104DA00005F13000415C40F2FF1000EA440205F1D9
:104DB00030001044407841EA0020B3E707EBD411FB
:104DC0002846FFF707FF00B127E040F2FF1000EA96
:104DD000840105F130000844C078010640F2FF105C
:104DE00000EA840205F130001044807841EA004175
:104DF00040F2FF1000EA840205F1300010444078D0
:104E000041EA002040F2FF1101EA840205F130017D
:104E1000895C084320F0704084E700BF4FF0FF300A
:104E200080E72DE9F04705460C461646022C02D3D2
:104E3000E869A04201D8022795E0D5F820A028789B
:104E4000012804D0022843D003287DD159E0A04690
:104E500008EB58080AEB58212846FFF7BBFE074627
:104E600007B17DE0C8F3080105F1300001EB00094E
:104E700014F0010F05D0F1B299F8000061F31F1092
:104E800000E0304689F8000008F10108012028718F
:104E90000AEB58212846FFF79DFE074607B15FE061
:104EA000C8F3080105F1300001EB000914F0010F0F
:104EB00002D0C6F3071008E099F8000000F0F000F7
:104EC000C6F3072101F00F01084389F8000047E00D
:104ED0000AEB14212846FFF77DFE074607B13FE0A5
:104EE00040F2FF1000EA440205F130008654310A16
:104EF00040F2FF1000EA440205F130001044417016
:104F00002EE00AEBD4112846FFF764FE074607B1EE
:104F100026E040F2FF1000EA840205F130008654DA
:104F2000310A40F2FF1000EA840205F1300010441B
:104F30004170310C40F2FF1000EA840205F13000AC
:104F400010448170310E00E008E040F2FF1000EAEA
:104F5000840205F130001044C17001E0022700BF57
:104F600000BF012028713846BDE8F0872DE9F041E7
:104F700004460E46022E02D3E069B04201D8022751
:104F800025E000271FE031462046FFF7C1FE054619
:104F900005B91BE0012D01D1022717E0681C01D1E2
:104FA000012713E0002231462046FFF73AFF07466B
:104FB00007B10BE02069401C04D02069401C20612F
:104FC0000120A0722E46E069B042DCD800BF38460E
:104FD000BDE8F0812DE9F04705468846D5F81C90DC
:104FE000B8F1000F05D1EE680EB14E4510D3012681
:104FF0000EE041462846FFF78BFE0746022F02D2FD
:105000000120BDE8F0874F4501D23846F9E7464612
:10501000344600BF641C4C4504D30224B44201D979
:105020000020EEE721462846FFF772FE074607B943
:1050300009E0781C01D0012F01D13846E1E7B442E4
:10504000E8D10020DDE700BF6FF07042214628461E
:10505000FFF7E7FE10B14FF0FF30D2E7B8F1000FD5
:1050600008D0224641462846FFF7DBFE10B14FF03C
:10507000FF30C6E7EC602869401C04D02869401E58
:1050800028610120A8722046BBE70246891ED0692C
:10509000801E884201D8002070479378906A01FBF7
:1050A0000300F9E72DE9F04104460E46E680A568C5
:1050B000012D03D02068C069A84202D80220BDE8B3
:1050C000F0812DB920680078032801D12068456A55
:1050D00065B9E56020680089B04201DC0220EEE796
:1050E0002068406A00EB1610206120E0206880787C
:1050F000070112E029462068FFF70AFE0546681CF2
:1051000001D10120DBE7022D03D32068C069A8424A
:1051100001D80220D3E7F01B86B2BE42EADAE5608E
:1051200029462068FFF7B1FF00EB161020612068C8
:10513000303006F00F0100EB411060610020BEE747
:105140002DE9F04104468846E088401C86B20EB145
:10515000206910B90420BDE8F08116F00F0F6ED160
:105160002069401C2061E06828B920680089B042AD
:1051700065DC0420EFE720688078401E10EA161FE7
:105180005DD1E1682068FFF7C3FD0546012D01D818
:105190000220E0E7681C01D10120DCE72068C0693B
:1051A000A84246D8B8F1000F01D10420D3E7E16846
:1051B0002068FFF70FFF05460DB90720CBE7012D4B
:1051C00001D10220C7E7681C01D10120C3E70021FB
:1051D0002068FFF7FFFC08B10120BCE7216801F15E
:1051E00030004FF400720021FFF7CDFC2946206803
:1051F000FFF74BFF2168C862002710E001202168FB
:10520000087100212068FFF7E5FC08B10120A2E742
:105210002068C06A401C2168C862781CC7B2206838
:105220008078B842EADC2068C06AC01B2168C86286
:1052300000BFE56029462068FFF727FF2061E68070
:105240002068303006F00F0100EB41106061002053
:1052500081E72DE9F041044600212046FFF722FFB7
:10526000054615B12846BDE8F08100BF21692068D8
:10527000FFF7B0FC054605B116E0666937780FB94F
:10528000042511E0F07A10F0080F06D10B22304609
:10529000A169FFF782FC00B906E000212046FFF774
:1052A0004FFF0546002DE1D000BF2846DBE72DE982
:1052B000F041044604251BE021692068FFF78AFCC1
:1052C000054605B117E067693E780EB9042512E07E
:1052D000E52E06D02E2E04D0F87A10F0080F00D15B
:1052E00009E000212046FFF72BFF054605B102E04B
:1052F00020690028E0D100BF0DB1002020612846C0
:10530000BDE8F0812DE9F041044600212046FFF779
:10531000C9FE0546ADB900BF21692068FFF75AFCF8
:10532000054605B10CE060690678E52E00D006B9A7
:1053300006E001212046FFF703FF0546002DEBD0D4
:1053400000BFC5B921692068FFF744FC054695B93F
:105350006769202200213846FFF715FC0B223846EA
:10536000A169FFF703FCA069C07A00F01800387348
:105370000120216808712846BDE8F08170B5044617
:10538000E1882046FFF78EFE05465DB92169206859
:10539000FFF720FC05462DB9E52061690870012062
:1053A00021680871284670BD2DE9F35F0098866971
:1053B0000B2220213046FFF7E6FB00200546804601
:1053C00082464FF008090198D0F800B000BF50465F
:1053D0000AF1010A1BF80040202C03DB2F2C01D01E
:1053E0005C2C00D156E02E2C01D0C8450EDBB9F163
:1053F000080F01D12E2C02D00620BDE8FC9F4FF0F3
:1054000008084FF00B09A806050EE0E7802C01DB29
:1054100045F00305812C01DB9F2C03DDE02C1DDB17
:10542000FC2C1BDC50460AF1010A1BF80070402FCF
:1054300001DB7E2F03DD802F05DBFC2F03DCA9F1D0
:105440000100404501DC0620D7E7404608F101088D
:105450003454404608F1010837541AE02146FEA0B2
:10546000FFF7AEFB08B10620C7E7412C04DB5A2C3E
:1054700002DC45F0020508E0612C06DB7A2C04DC36
:1054800045F00105A4F12000C4B2404608F101082E
:1054900034549CE700BF0BEB0A0101980160202CFB
:1054A00001DA042000E000200446B8F1000F01D129
:1054B0000620A2E73078E52801D105203070B9F147
:1054C000080F01D1A806050E05F00300012801D13F
:1054D00044F0100405F00C00042801D144F0080445
:1054E000F472002089E7F0B505460C4604F1090383
:1054F0002F69002F52D06869067B002213E0815C7F
:10550000202900D111E0052900D1E52116F0080F6E
:1055100006D0412904DB5A2902DC01F12007F9B247
:1055200003F8011B521C082AE9DB00BF077A202F71
:1055300018D02E2703F8017B082210E0815C202977
:1055400000D10EE016F0100F06D0412904DB5A29D5
:1055500002DC01F12007F9B203F8011B521C0B2AEF
:10556000ECDB00BFC77A2772C77F4FEA076C877FE3
:105570004CEA074C477F4CEA072790F81CC047EAE3
:105580000C07276090F818C0477E4CEA0727A780D1
:1055900090F816C0C77D4CEA0727E78000271F70E8
:1055A000F0BD2DE9F3410446019800782F2803D07F
:1055B000019800785C2802D10198401C01900020DD
:1055C000A06001980078202807D200212046FFF72C
:1055D00069FD0646002060612BE000BF01A920465E
:1055E000FFF7E2FE064606B122E02046FFF731FE55
:1055F0000646A069C07A00F0040726B1042E01D146
:1056000007B9052614E007B112E06569E87A10F0E1
:10561000100F01D105260BE0A97EE87E41EA0021AA
:105620002A7D687D42EA002041EA0040A060D5E77B
:1056300000BF3046BDE8FC8170B504460D46607879
:1056400001232A4604F1300101F024F908B10320B6
:1056500070BD94F82E1294F82F0241EA0020A0F5B4
:105660002A41553901D00220F2E703227D4904F195
:105670006600FFF792FA08B90020E9E703227949AA
:1056800004F18200FFF789FA30B994F8580010F05D
:10569000800F01D10020DBE70120D9E72DE9F74F8A
:1056A00084B00498D0F800B09BF80000A0F1300955
:1056B000B9F1090F09D89BF801003A2805D10BF17F
:1056C000020B0498C0F800B001E04FF00009B9F1F6
:1056D000000F03D00B2007B0BDE8F08F624850F8F0
:1056E0002940059804600CB90C20F4E7207878B1C3
:1056F000607801F0CCF8804618F0010F08D10698C8
:1057000020B118F0040F01D00A20E4E70020E2E7FE
:105710000020207084F80190607801F0B5F8804690
:1057200018F0010F01D00320D5E7069820B118F03A
:10573000040F01D00A20CEE74FF0000A5146204660
:10574000FFF77AFF0546012D13D104F5F777387975
:1057500078B1F87A0106B87A41EA0041787A41EAEC
:105760000020397A40EA010A51462046FFF764FFDB
:105770000546032D01D10120ADE745B93B20015D70
:1057800094F83C0041EA0020B0F5007F01D00D20E4
:10579000A1E74620015D94F8470041EA002676B96A
:1057A00094F85700010694F8560041EA004194F835
:1057B000550041EA002094F8541040EA0106A66121
:1057C0004020005DE070E07846433E20015D94F8A3
:1057D0003F0041EA0020504420623D20005DA0705F
:1057E0004120015D94F8420041EA002020814320DD
:1057F000015D94F8440041EA00200290029870B9DB
:1058000094F85300010694F8520041EA004194F8DC
:10581000510041EA002094F85010084302903E20C5
:10582000015D94F83F0041EA00210298401A801B74
:105830002189A0EB1110A178B0FBF1F0801C019040
:10584000E061012540F6F7710198884200D30225F6
:105850004FF6F771019809E020222A2B2C5B3D5D61
:105860007C7F0000086F0008A0000020884200D361
:105870000325032D0FD194F85F00010694F85E0014
:1058800041EA004194F85D0041EA002094F85C1080
:105890000843606202E0206A30446062206A30445B
:1058A000218900EB1110A0624FF0FF302061002031
:1058B0002071032D5CD1A07294F8601094F86100FF
:1058C00041EA0020504460616078012304F1300116
:1058D000626900F0DFFFE8BB94F82E1294F82F0203
:1058E00041EA0020A0F52A41553941D13320005D1D
:1058F00001063220005D41EA00413120005D41EAAD
:10590000002094F830100843F749884230D194F8C9
:105910001702010694F8160241EA004194F81502B4
:1059200041EA002094F814120843F04988421FD13C
:1059300094F81F02010694F81E0241EA004194F80F
:105940001D0241EA002094F81C120843E06094F81C
:105950001B0200E00CE0010694F81A0241EA004143
:1059600094F8190241EA002094F8181208432061C3
:1059700025700020E062DE480088401C80B2DC49CF
:105980000880E080002003900398A4E670B50446E8
:105990000D4624B1207810B1E088A84201D009203A
:1059A00070BD607800F073FF10F0010F01D003208C
:1059B000F6E70020F4E70246012A01DB0B207047DE
:1059C000CC4850F822300BB10020187009B10020EB
:1059D0000870C84840F822100020F0E72DE9F7438E
:1059E0008AB0054616460020286006F01F0606F01D
:1059F0001E0203A90BA8FFF751FE07461FB1384648
:105A00000DB0BDE8F083CDF824D003A80B99FFF7C3
:105A1000C8FD074616F01C0F67D067B1042F03D1ED
:105A200003A8FFF76FFC07460FB13846E8E746F0DA
:105A30000806089C40E016F0040F01D00820DFE7BC
:105A4000089C1CB1E07A10F0110F01D00720D7E7B5
:105A500016F0080F30D0A17EE07E41EA0021227DC1
:105A6000607D42EA002041EA0049002020750021C3
:105A70006175A076E17620776177A177E1770120E3
:105A8000039908710398D0F82C80B9F1000F0BD05E
:105A900049460398FFF76AFA07460FB13846AFE761
:105AA000A9F101000399C86041460398FFF792F8F5
:105AB00007460FB13846A3E716F0080F14D00020B0
:105AC000E07200F01AFF804684F80E804FEA182139
:105AD000E1734FEA184121744FEA186161740120A3
