:020000040800F2
:10000000000400209B5C000845010008470100082F
:100010004B0100084F0100085301000800000000D8
:10002000000000000000000000000000590100086E
:1000300057010008000000005B0100085D01000896
:10004000BB5C0008BB5C0008BB5C000877010008D3
:10005000BB5C0008BB5C0008BB5C0008CB0100086F
:10006000BB5C0008BB5C0008BB5C0008A701000883
:10007000BB5C0008BB5C0008BB5C0008BB5C000804
:10008000BB5C0008BB5C0008BB5C0008BB5C0008F4
:10009000BB5C0008BB5C0008BB5C0008BB5C0008E4
:1000A000BB5C0008BB5C0008BB5C0008BB5C0008D4
:1000B000BB5C0008BB5C0008BB5C0008BB5C0008C4
:1000C000BB5C0008BB5C0008BB5C0008BB5C0008B4
:1000D000BB5C0008BB5C0008BB5C0008BB5C0008A4
:1000E000BB5C0008BB5C0008BB5C0008BB5C000894
:1000F000BB5C0008BB5C0008BB5C0008BB5C000884
:10010000BB5C00086F010008BB5C0008BB5C00081A
:10011000BB5C0008BB5C0008BB5C0008BB5C000863
:10012000BB5C0008BB5C0008BB5C0008B9010008B0
:10013000DFF80CD007F054FD00480047B733000843
:1001400058190020704700BFFEE700BFFEE700BF60
:10015000FEE700BFFEE7704770477047224800681F
:1001600020B121480068401E1F490860704710B543
:1001700002F009F810BD10B5012005F017FA88B19A
:10018000012005F023FA01201849086005F0E2F982
:1001900005F0A4F91649884204D1002005F0A7F91A
:1001A00005F0D8F910BD10B5022005F052F910B1D4
:1001B000012005F061F910BD10B50E4805F049F9B0
:1001C00010B10D4805F058F910BD10B5022005F02A
:1001D00049FD38B14FF48071084804F052FB022009
:1001E0000749086010BD0000840100209401002030
:1001F00080510100000002100000011000140140B5
:100200001404014070B52A25FE48446B01E0FD4806
:10021000446B14F0450FFAD014F0040F05D00325F9
:10022000042004F0FBFF284670BD14F0010F05D038
:100230000125012004F0F2FF2846F5E740F2FF50C7
:1002400004F0ECFF2846EFE72DE9F04106460F46A3
:100250004FF02A08EB48456B01E0EA48456B15F082
:10026000450FFAD015F0040F07D04FF00308042013
:1002700004F0D4FF4046BDE8F08115F0010F06D030
:100280004FF00108012004F0C9FF4046F3E704F0F5
:1002900069FFB04203D04FF010084046EBE740F250
:1002A000FF5004F0BBFF002004F060FF044614F48C
:1002B000604F03D1200C38804046DCE714F4005F27
:1002C00001D01320D7E714F4804F01D01020D2E7DB
:1002D00014F4004F01D00F20CDE74046CBE738B5EE
:1002E0002A240120009004F00EFF10B92524204696
:1002F00038BDC5480068042829D00020C3490860DB
:1003000002204860C02088600020C8604FF48060F0
:100310000861084604F00CFFFFF774FF04462A2C1E
:1003200001D02046E4E7002004F020FFB84908602F
:10033000042004F01BFFB6494860082004F016FFB3
:10034000B34988600C2004F011FFB149C860AE4881
:10035000006858B1AC480068012807D0AA48006876
:10036000062803D0A8480068022817D10020A74912
:10037000086003204860402088600020C8604FF477
:1003800080600861084604F0D3FE69460320FFF749
:100390005BFF04462A2C01D02046A9E79A48006852
:1003A00004282FD0BDF800009A490860BDF800006D
:1003B00000049649086009204860C0208860002039
:1003C000C8604FF480600861084604F0B1FEFFF792
:1003D00019FF04462A2C01D0204689E7002004F0AA
:1003E000C5FE8D490860042004F0C0FE8A494860BB
:1003F000082004F0BBFE884988600C2004F0B6FE9B
:100400008549C8602A24204672E770B52A257D48B0
:10041000446B01E07B48446B14F0450FFAD014F0B4
:10042000040F05D00325042004F0F8FE284670BD13
:1004300040F2FF5004F0F2FE2846F8E72DE9F041C3
:1004400006462A276F48456B01E06E48456B15F05C
:10045000450FFAD015F0040F06D00327042004F04E
:10046000DDFE3846BDE8F08115F0010F05D001270B
:10047000012004F0D3FE3846F4E704F073FEB042E6
:1004800002D010273846EDE740F2FF5004F0C6FED8
:10049000002004F06BFE04466048044201D1384657
:1004A000E0E714F0004F01D01C20DBE714F0804F90
:1004B00001D00920D6E714F0005F01D00A20D1E76F
:1004C00014F0805F01D00B20CCE714F0006F01D056
:1004D0000C20C7E714F0806F01D00D20C2E714F0A4
:1004E000807F01D00E20BDE714F4000F01D00F2053
:1004F000B8E714F4800F01D01020B3E714F4001F04
:1005000001D01120AEE714F4801F01D01220A9E71A
:1005100014F4002F01D01320A4E714F4802F01D08D
:1005200014209FE714F4003F01D015209AE714F43B
:10053000803F01D0162095E714F4004F01D017201A
:1005400090E714F4804F01D018208BE714F4005F7B
:1005500001D0192086E714F0080F01D01A2081E796
:1005600038467FE770B52A2642F210752548446B5D
:1005700002E06D1E2348446B14F0450F01D1002D9D
:10058000F7D115B114F0040F05D00326042004F0B0
:1005900045FE304670BD14F0400F05D02A2640209D
:1005A00004F03CFE3046F5E73046F3E770B52A2507
:1005B00042F2107400E0641E24B1802004F024FE96
:1005C0000028F8D014B90325284670BD40F2FF502A
:1005D00004F024FE2846F8E72DE9F0412A240026FD
:1005E000002500274FF00008B2200D4908700020B8
:1005F00048608860C86008614861084604F058FD9A
:1006000003200FE00080014000000020FC010020DA
:10061000D401002004000020C401002008E0FFFDF8
:10062000E401002004F064FD012004F05EFD0020E0
:10063000FE49086048608860C8604FF480600861C7
:10064000084604F075FDFFF7B1FF04462A2C02D0DE
:100650002046BDE8F0814FF4D570F44908600820C9
:100660004860402088600020C8604FF480600861C6
:10067000084604F05DFDFFF775FF04462A2C05D1FE
:100680000120EB4908604FF0804812E00020E74964
:10069000086037204860402088600020C8604FF420
:1006A00080600861084604F043FD3720FFF7C6FE6E
:1006B00004460020DD4908603720486040208860FB
:1006C0000020C8604FF480600861084604F030FDE7
:1006D0003720FFF7B3FE04462A2C4CD138E0002027
:1006E000D249086037204860402088600020C860F8
:1006F0004FF480600861084604F01AFD3720FFF7C8
:100700009DFE04462A2C01D02046A2E7C94848EAAB
:100710000000C64908602920486040208860002009
:10072000C8604FF480600861084604F001FDFFF7DF
:100730006CFE04462A2C01D020468AE7002004F0F3
:1007400015FD0646012080EAD67080F001076D1C79
:100750001FB94FF6FF708542C1D34FF6FF70854237
:1007600002D31B24204674E706F08040060002D026
:100770000220AF49086020466BE708B50121302010
:1007800004F068FA4FF4F850ADF8000003208DF83B
:10079000020018208DF803006946A74803F0C4FF43
:1007A0000420ADF800006946A44803F0BDFF08BD71
:1007B00038B52A240121082004F04CFA2020ADF895
:1007C000000010208DF8030003208DF80200694618
:1007D0009B4803F0A9FF2021994804F052F8FFF745
:1007E000CCFF0121880204F028FA0121022004F044
:1007F00024FA04F04FFCFFF7EFFE04462A2C01D048
:10080000204638BDFFF76BFD04462A2C01D0204658
:10081000F7E701208B490870002048608860C860B5
:1008200008614861084604F043FC2046E9E710B53A
:100830002A24002004F05CFC204610BD30B501469F
:100840002A2000227A4B1B7881F84E307E4B1B8881
:10085000A1F84C307D4B1B681A0E93090B70C2F344
:1008600083034B7002F003038B70784B1B68C3F358
:100870000742CA70754B1B88C3F307220A71734B7A
:100880001A784A715B681A0E1301CB806F4B5B6854
:10089000C3F30742CB8843EA1213CB8002F00F0365
:1008A0000B726A4B9B88C3F30722D3094B72C2F3C6
:1008B00080138B72C2F34013CB72C2F300130B731D
:1008C00000234B735A4B1B681BB1594B1B68012B00
:1008D0003CD193071B0D0B615C4B1A790B6943EA02
:1008E00082030B61594B9B681A0E0B6943EA921302
:1008F0000B61C2F3C2030B7502F007034B75534B38
:100900009B68C3F3074253098B75C2F38203CB750F
:1009100093075B0F0B764D4B1B89C3F307220B7EAE
:1009200043EAD2130B760B695B1C4B640C7E4B6C59
:10093000A41C0125A5406B434B640C7A0123A34002
:100940008B64D1E9113463434B6421E0384B1B685D
:10095000022B1DD13D4B1A7993069B0A0B613B4B31
:100960009B681A0E0B6943EA02230B61374B9B68A5
:10097000C3F307420B6913430B61344B1B89C3F369
:1009800007220B695B1CDB044B644FF400738B6420
:10099000C2F3801301F8193F93065B0E4B702B4B8B
:1009A0001A7A4B7843EAD2134B7002F07F038B70B4
:1009B000264BDB681A0ED309CB70C2F341130B71BF
:1009C000C2F382034B7193071B0F8B711F4BDB68C4
:1009D000C3F307428B7943EA92138B71C2F340133E
:1009E000CB7100230B7202F001034B72174B9B89F2
:1009F000C3F30722D3098B72C2F38013CB72C2F305
:100A000040130B73C2F300134B73C2F381038B7358
:100A100002F00303CB730D4B1A7B53080B740123B5
:100A20004B740B4B1B681A0ECA7413E0FC010020B8
:100A30000000002000001080001001400014014060
:100A4000000C0140E401002004000020C40100204B
:100A5000D4010020A1F11901FD4B1B68C3F307422B
:100A60004FEA0224CC85FA4B1B88C3F30722CB8DB7
:100A700043EA0203CB85F64B1A784FEA02640C6313
:100A80005B684FEA13620B6B43EA02440C63F04B62
:100A90005B68C3F307420B6B43EA02240C63EC4B25
:100AA0009B88C3F307220B6B43EA02030B63E84BFB
:100AB0001A794FF034035A54E54B9B684FEA13629E
:100AC0004FF035035A54E24B9B68C3F307424FEA99
:100AD00002648C63DE4B1B89C3F307228B6B43EAF2
:100AE00002448C63DA4B1A7A8B6B43EA02248C63E0
:100AF000D74BDB684FEA13628B6B43EA02038B63CD
:100B0000D34BDB68C3F307424FF03C035B5C43EA23
:100B100012144FF03C035C544FEA02734FEA135433
:100B2000CC87CB4B9B89C3F30722CB8F43EA0203CD
:100B3000CB87C74B1A7B4FEA52044FF040035C54FB
:100B40004FF001044FF041035C5430BD2DE9FC41EE
:100B500007460D4600262A24002000900190082018
:100B6000BC49086010204860402088600020C860B0
:100B70004FF480600861084604F0DAFA1020FFF7AD
:100B80005DFC04462A2C02D02046BDE8FC81B24818
:100B900000880004AF490860372048604020886022
:100BA0000020C8604FF480600861084604F0C0FA75
:100BB0003720FFF743FC04462A2C01D02046E4E707
:100BC000A648A749086008204860302088600220B5
:100BD000C8600020086101204861084604F0CBFA93
:100BE00000209C4908603320486040208860002035
:100BF000C8604FF480600861084604F099FA332019
:100C0000FFF71CFC04462A2C01D02046BDE709E072
:100C10004FF4001004F0F8FA20B104F0CEFA4DF8C9
:100C20002600761C8F48406B40F22A610842EFD0C4
:100C3000082004F0E9FA28B1082004F0EFFA0424AF
:100C40002046A2E7022004F0DFFA28B1022004F0D7
:100C5000E5FA0224204698E7202004F0D5FA28B1CE
:100C6000202004F0DBFA062420468EE74FF40070C3
:100C700004F0CAFA30B14FF4007004F0CFFA072440
:100C8000204682E740F2FF5004F0C8FA00980006C0
:100C9000009901F47F4140EA0120009901F47F01AD
:100CA00040EA1120009940EA11606860019800064E
:100CB000019901F47F4140EA0120019901F47F018B
:100CC00040EA1120019940EA1160286020465CE763
:100CD0007CB505462A2400200090019004F046FAD5
:100CE00010F0007F02D00E2420467CBD5A490988AE
:100CF00088B26946FFF72AFF04462A2C01D0204615
:100D0000F3E7012D37D1019810F4802F30D05248ED
:100D1000008800044F490860372048604020886000
:100D20000020C860A8020861084604F001FA3720D4
:100D3000FFF784FB04462A2C01D02046D5E7022089
:100D40004449086006204860402088600020C86050
:100D50004FF480600861084604F0EAF90620FFF7C6
:100D60006DFB04462A2C01D02046BEE72046BCE796
:100D700025242046B9E7019810F4803F31D0364849
:100D800000880004334908603720486040208860AC
:100D90000020C8604FF480600861084604F0C8F97C
:100DA0003720FFF74BFB04462A2C01D020469CE756
:100DB0000020284908600620486040208860002004
:100DC000C8604FF480600861084604F0B1F906205D
:100DD000FFF734FB04462A2C01D0204685E7204645
:100DE00083E72524204680E770B504462A251E485F
:100DF0000068032802D12725284670BD1A480068DC
:100E000038B119480068012803D017480068022843
:100E100040D1B4F5805F02D127252846EDE7B4F52F
:100E2000006F25D10120FFF753FF05462A2D31D150
:100E300001200E490870002048608860C8604FF4A7
:100E40000060086100204861084604F031F921E0A3
:100E5000D4010020FC01002004000020FFFF0F004F
:100E6000100200200080014000000020E40100206A
:100E70000020FFF72DFF05462A2D0BD10120F74951
:100E80000870002048608860C860086148610846B2
:100E900004F00EF92846B0E701462A2019B10129CD
:100EA00001D0022902D1EE4A116000E026207047ED
:100EB00070B504462A25EB4804600720E9494860DC
:100EC000402088600020C8604FF4806008610846B8
:100ED00004F02EF90720FFF7B1FA0546284670BD49
:100EE00030B58BB005460C46DF4804F0A8FA002167
:100EF000DE4804F079FADE48009001950020029067
:100F0000A0080390002004908020059080000690A7
:100F100080000790002008904FF4005009900020B6
:100F20000A906946D14804F034FA0121CF4804F010
:100F30005BFA0BB030BD0146002002E04910421CB4
:100F4000D0B20129FAD170472DE9F04707460D4686
:100F500014464FF02A084FF000092E464FF0000AC1
:100F600025B94FF026084046BDE8F0872A20C14940
:100F700008700020C0490860C0490860C048C149E5
:100F80000860002048608860C860086148610846C1
:100F900004F0F1F8002004F0C8F8002004F0E6F8AE
:100FA00010F0007F03D04FF00E084046DCE7B64853
:100FB0000068022801D104027F0A002C21DDB4F56B
:100FC000006F1EDC601E20421BD12046FFF7B3FFDE
:100FD0008246A44804601020A249486040208860EE
:100FE0000020C8604FF480600861084604F0A0F853
:100FF0001020FFF723FA8046B8F12A0F05D04046AB
:10100000B2E74FF026084046AEE79D489D4908608C
:10101000084644604FEA0A1088600220C860002039
:10102000086101204861084604F0A5F8934804606F
:10103000002096490860964805608A48076011209C
:1010400088494860402088600020C8604FF4806074
:101050000861084604F06CF81120FFF7EFF98046AC
:10106000B8F12A0F01D040467EE77D48006802288B
:1010700057D111E04FF4004004F0C6F860B14FF0D2
:10108000000905E004F099F846F8290009F1010982
:10109000B9F1080FF6D3203675488038406B40F21E
:1010A0002A610842E6D0082004F0AEF830B10820EA
:1010B00004F0B4F84FF00408404655E7022004F06D
:1010C000A3F830B1022004F0A9F84FF0020840461E
:1010D0004AE7202004F098F830B1202004F09EF870
:1010E0004FF0060840463FE74FF4007004F08CF8DC
:1010F00038B14FF4007004F091F84FF00708404603
:1011000032E703E004F059F83060361D4FF4001068
:1011100004F07AF80028F5D140F2FF5004F07EF890
:101120002CE04F480068012813D1012148F22A30F1
:1011300003F0EEFF00BF5048006818B94D48007832
:101140002A28F8D04B4800782A2817D04948007838
:101150000AE74348006888B9012140F22A3003F0C9
:10116000D7FF012003F0E1FF21462846FFF7B8FE34
:1011700000BF484804F050F90028FAD04046F3E692
:101180002DE9F05F81460E4614461D464FF02A08B1
:101190004FF0000A37464FF0000B26B94FF02608F3
:1011A0004046BDE8F09F2A203249087000203249AD
:1011B00008603249086032483249086000204860BF
:1011C0008860C86008614861084603F0D4FF0020C9
:1011D00003F0ABFF002003F0C9FF10F0007F03D045
:1011E0004FF00E084046DCE727480068022802D18D
:1011F00004024FEA5929002C21DDB4F5006F1EDCF2
:10120000601E20421BD12046FFF795FE83461548FD
:101210000460102013494860402088600020C860A6
:101220004FF480600861084603F082FF1020FFF74A
:1012300005F98046B8F12A0F05D04046B1E74FF0D6
:1012400026084046ADE7012D7DD905FB04F0B0F13D
:10125000007F21D34FF026084046A2E7E40100209A
:1012600008000020FC01002000F0001044040240AF
:101270008080014014000020180000200C00002095
:10128000FFFF0F00100200200000002010000020CF
:10129000240000200020001005FB04F0FE49086037
:1012A0000120FE490860FE480660FE48FE490860CD
:1012B00005FB04F048604FEA0B1088600220C8600C
:1012C0000020086101204861084603F054FFF748F8
:1012D000C0F800901220F549486040208860002046
:1012E000C8604FF480600861084603F021FF1220B7
:1012F000FFF7A4F88046B8F12A0F01D0404650E726
:10130000EB48006802287BD111E04FF4004003F065
:101310007BFF60B14FF0000A05E003F04EFF47F895
:101320002A000AF1010ABAF1080FF6D32037E14882
:10133000406B40F22A310842E7D0082003F064FFF6
:1013400040B1082000E09EE003F068FF4FF0040881
:10135000404626E7022003F057FF30B1022003F099
:101360005DFF4FF0020840461BE7202003F04CFFD2
:1013700030B1202003F052FF4FF00608404610E73E
:101380004FF4007003F040FF38B14FF4007003F0E9
:1013900045FF4FF00708404603E703E003F00DFF69
:1013A00038603F1D4FF4001003F02EFF0028F5D1E8
:1013B0004FF4807003F028FF18B3BF48006838B1BD
:1013C000BD480068022803D0BB480068012818D136
:1013D0000020B64908600C2048604020886000204A
:1013E000C8604FF480600861084603F0A1FE0C203D
:1013F000FFF724F88046B8F12A0F02D04046D0E625
:1014000004E040F2FF5003F009FF3CE0A848006808
:10141000012813D1012148F22A3003F079FE00BFE0
:10142000A648006818B9A64800782A28F8D0A44829
:1014300000782A2827D0A2480078B2E69C480068A5
:1014400008BB012140F22A3003F062FE012003F0C4
:101450006CFE05FB04F13046FFF742FD00BF9948E2
:1014600003F0DAFF0028FAD000BF9448006818B9EA
:10147000934800782A28F8D0914800782A2802D08A
:101480008F4800788DE640468BE67CB504462A25D9
:101490000020019000908C48008800048349086077
:1014A0000D204860402088600020C8604FF48060B4
:1014B0000861084603F03CFE7E48406B009002E065
:1014C0007C48406B0090009810F0450FF8D00098D1
:1014D00010F0040F05D00325042003F09FFE2846DA
:1014E0007CBD009810F0010F05D00125012003F00C
:1014F00095FE2846F4E703F035FE009000980D288D
:1015000002D010252846EBE740F2FF5003F086FE9C
:10151000002003F02BFE01900198C0F343202070BF
:101520006A490198084201D12846D9E7019810F08C
:10153000004F01D01C20D3E7019810F0804F01D05C
:101540000920CDE7019810F0005F01D00A20C7E71D
:10155000019810F0805F01D00B20C1E7019810F0D6
:10156000006F01D00C20BBE7019810F0806F01D014
:101570000D20B5E7019810F0807F01D00E20AFE775
:10158000019810F4000F01D00F20A9E7019810F482
:10159000800F01D01020A3E7019810F4001F01D0A4
:1015A00011209DE7019810F4801F01D0122097E7C9
:1015B000019810F4002F01D0132091E7019810F446
:1015C000802F01D014208BE7019810F4003F01D048
:1015D000152085E7019810F4803F01D016207FE7A1
:1015E000019810F4004F01D0172079E7019810F40A
:1015F000804F01D0182073E7019810F4005F01D0EC
:1016000019206DE7019810F0080F01D01A2067E744
:10161000284665E730B58BB005460C462C4803F0EC
:101620000EFF00212B4803F0DFFE2248803000909F
:10163000019510200290A0080390002004908020C3
:1016400005908000069080000790002008904FF4DD
:101650000050099000200A9069461E4803F099FE48
:1016600001211C4803F0C0FE0BB030BD2DE9FF5F27
:1016700082460F4614462A25002003900290834696
:101680000026019080460090B94627B926252846B5
:1016900004B0BDE8F09F1FE00C0000201000002007
:1016A00024000020FFFF0F0010020020FC0100209A
:1016B00008000020008001400000002018000020E9
:1016C00014000020002000100400002008E0FFFDAE
:1016D00000F00010440402402A20F849087000205D
:1016E000F7490860F7490860F748F84908600020A2
:1016F00048608860C86008614861084603F03BFDA7
:10170000002003F012FD002003F030FD10F0007FF8
:1017100004D00E25284604B0BDE8F09FEC480068D0
:10172000022802D104024FEA5A2A002C20DDB4F527
:10173000006F1DDC601E20421AD12046FFF7FBFB24
:101740000390E44804601020E2494860402088602B
:101750000020C8604FF480600861084603F0E8FC90
:101760001020FEF76BFE05462A2D04D02846D2E74E
:1017700026252846CFE7D84800880004D5490860C8
:101780000D204860402088600020C8604FF48060D1
:101790000861084603F0CCFC0D20FEF74FFE05461D
:1017A0002A2D01D02846B6E7002003F0DFFC019087
:1017B000DFF814B31EE0ABF1010BC748008800044A
:1017C000C44908600D204860402088600020C8603F
:1017D0004FF480600861084603F0AAFC0D20FEF774
:1017E0002DFE05462A2D01D0284694E7002003F05F
:1017F000BDFC0190019810F4807F02D1BBF1000F75
:10180000D9D1BBF1000F01D1292084E7B148C0F83C
:1018100000A01820AF494860402088600020C860C0
:101820004FF480600861084603F082FC1820FEF740
:1018300005FE05462A2D01D028466CE7A148046024
:101840000020A6490860A64807609F489F49086095
:10185000084644600398000188600020C860086161
:1018600001204861084603F086FC9E480068022873
:101870006AD139E04FF4804003F0C6FCA0B3914830
:101880000068801B202820D28E480078801B10F032
:10189000030F04D18B480068801B800804E089484E
:1018A0000068801B8008401C00904FF0000808E092
:1018B000D9F8000003F084FC08F1010809F10409DB
:1018C000361D009880450FD2F2E74FF0000805E082
:1018D00059F8280003F074FC08F10108B8F1080F6A
:1018E000F6D309F1200920367F48406B40F21A6197
:1018F0000842BFD0082003F087FC28B1082003F07D
:101900008DFC0425284606E7022003F07DFC28B163
:10191000022003F083FC02252846FCE6102003F099
:1019200073FC28B1102003F079FC05252846F2E667
:101930004FF4007003F068FCF0B34FF4007003F054
:101940006DFC07252846E6E666480068012813D1A5
:10195000012144F21A3003F0DBFB00BF5848006855
:1019600018B9564800782A28F8D0544800782A2810
:1019700028D052480078CEE65A480068E0B90121E4
:1019800040F21A3003F0C4FB21463846FFF742FE0E
:10199000012003F0CAFB00BF544803F03DFD0028BE
:1019A000FAD000BF4648006818B9444800782A2891
:1019B000F8D04248007800E004E02A2802D03F48EE
:1019C0000078A8E640F2FF5003F028FC02A8FFF7D9
:1019D0005CFD054603E002A8FFF757FD05462A2DEA
:1019E00007D19DF808000728F5D09DF808000628C3
:1019F000F1D028468FE62DE9FE4F834688461446EF
:101A00001E462A2500200290019000278146009062
:101A1000C246B8F1000F03D126252846BDE8FE8F47
:101A20002A202649087000202549086025490860B9
:101A3000254826490860002048608860C860086121
:101A40004861084603F097FB002003F06EFB00207E
:101A500003F08CFB10F0007F02D00E252846DDE756
:101A60001B480068022802D104024FEA5B2B002CBD
:101A700020DDB4F5006F1DDC601E20421AD1204627
:101A8000FFF759FA0290134804601020114948608A
:101A9000402088600020C8604FF4806008610846DC
:101AA00003F046FB1020FEF7C9FC05462A2D1FD087
:101AB0002846B3E726252846B0E70000140000209A
:101AC000180000200C000020FFFF0F001002002073
:101AD00000000020FC010020040000201000002075
:101AE000200000200800002000800140002000109D
:101AF000FE4800880004FE4908600D204860402030
:101B000088600020C8604FF480600861084603F0D8
:101B10000FFB0D20FEF792FC05462A2D01D028462A
:101B20007CE7012E7AD906FB04F0B0F1007F02D3E6
:101B30002625284672E7EF48006838B1ED4800686E
:101B4000012803D0EB48006802282FD1E74800881D
:101B50000004E74908603720486040208860002082
:101B6000C8604FF480600861084603F0E1FA37204E
:101B7000FEF764FC05462A2D01D028464EE7DC48D6
:101B800006601720DA494860402088600020C8605D
:101B90004FF480600861084603F0CAFA1720FEF788
:101BA0004DFC05462A2D01D0284637E7D048C0F81D
:101BB00000B01920CE494860402088600020C860ED
:101BC0004FF480600861084603F0B2FA1920FEF76E
:101BD00035FC05462A2D01D028461FE706FB04F0F8
:101BE000C54908600120C5490860C548C0F80080A3
:101BF000C448C549086006FB04F04860029800012B
:101C000088600020C860086101204861084603F030
:101C1000B2FABE48006802287ED13AE0D0E04FF424
:101C2000804003F0F1FAA0B3B3480068C01B20283D
:101C30000FD34FF0000905E05AF8290003F0C0FA6D
:101C400009F10109B9F1080FF6D30AF1200A20378A
:101C50001FE0A9480078C01B10F0030F04D1A6486C
:101C60000068C01B800804E0A3480068C01B80080F
:101C7000401C00904FF0000908E0DAF8000003F083
:101C80009FFA09F101090AF1040A3F1D00988145F4
:101C9000F3D39F48406B40F21A310842BFD008206E
:101CA00003F0B2FA28B1082003F0B8FA0425284658
:101CB000B4E6022003F0A8FA28B1022003F0AEFA3D
:101CC00002252846AAE6102003F09EFA28B110202B
:101CD00003F0A4FA05252846A0E64FF4007003F0AF
:101CE00093FA30B14FF4007003F098FA07252846B4
:101CF00094E64FF4807003F087FA002860D07D48A6
:101D0000006838B17B480068012803D07948006832
:101D1000022855D1002000E015E0754908600C202C
:101D20004860402088600020C8604FF480600861EF
:101D3000084603F0FDF90C20FEF780FB05462A2D2E
:101D40003ED028466AE671480068012813D1012177
:101D500044F21A3003F0DCF900BF6E48006818B98D
:101D60006D4800782A28F8D06B4800782A2827D0B8
:101D70006948007852E66548006808BB012140F2D6
:101D80001A3003F0C5F9012003F0CFF906FB04F186
:101D90004046FFF73FFC00BF604803F03DFB0028D2
:101DA000FAD000BF5B48006818B95B4800782A2861
:101DB000F8D0594800782A2802D0574800782DE6F4
:101DC00040F2FF5003F02AFA01A8FFF75EFB054638
:101DD00003E001A8FFF759FB05462A2D07D19DF81E
:101DE00004000728F5D09DF804000628F1D0284605
:101DF00014E64748406B10F4405F01D00120704763
:101E00000020FCE710B52A240020394908600C2086
:101E10004860402088600020C8604FF480600861FE
:101E2000084603F085F90C20FEF708FB044620461F
:101E300010BD2DE9FC4105460E462A24002700204E
:101E40000190009036484068202111EA105F03D1CC
:101E500025242046BDE8FC812D484068C0B2801C86
:101E60003049B1FBF0F00190002003F07FF910F051
:101E7000007F02D00E242046ECE71E4800680228AE
:101E800001D16D0A760A1B48006838B1194800680C
:101E9000012803D01748006802284CD11448056077
:101EA000202013494860402088600020C8604FF41B
:101EB00080600861084603F03BF92020FEF7BEFA77
:101EC00004462A2C01D02046C4E709480660212098
:101ED00007494860402088600020C8604FF4806057
:101EE0000861084603F024F921201DE004000020C9
:101EF000FC010020000000200C0000201000002049
:101F000020000020FFFF0F0010020020080000202A
:101F10000080014018000020140000200020001064
:101F2000C401002040190100FEF788FA04462A2C5B
:101F300001D020468EE70020FE4908602620486038
:101F4000402088600020C8604FF480600861084627
:101F500003F0EEF82620FEF771FA04462A2C01D091
:101F6000204677E7002700E07F1C01988742FBD3DB
:101F70006846FFF78AFA044603E06846FFF785FAE9
:101F800004462A2C07D19DF800000728F5D09DF8BB
:101F900000000628F1D020465CE770B504462A25EB
:101FA00014B92625284670BDE34800880004E1499D
:101FB00008600D204860402088600020C8604FF411
:101FC00080600861084603F0B3F80D20FEF736FA8A
:101FD00005462A2D01D02846E5E7002003F0C6F883
:101FE00020602846DFE770B504462A260025002039
:101FF00003F0BCF810F0007F02D00E26304670BD12
:102000004020CC49086010204860402088600020B3
:10201000C8604FF480600861084603F089F810201A
:10202000FEF70CFA06462A2E01D03046E7E7C248F2
:1020300000880004BF49086037204860402088605D
:102040000020C8604FF480600861084603F070F813
:102050003720FEF7F3F906462A2E01D03046CEE7A8
:10206000B648B74908604020486060208860022078
:10207000C8600020086101204861084603F07BF831
:102080000020AC4908600D20486040208860002096
:10209000C8604FF480600861084603F049F80D20DD
:1020A000FEF7CCF906462A2E01D03046A7E70EE00F
:1020B0004FF4004003F0A8F848B1002504E003F015
:1020C0007CF844F825006D1C082DF8D320349D4879
:1020D000406B40F22A610842EAD0082003F094F8ED
:1020E00028B1082003F09AF80426304687E702203A
:1020F00003F08AF828B1022003F090F80226304657
:102100007DE7202003F080F828B1202003F086F836
:102110000626304673E74FF4007003F075F830B1CF
:102120004FF4007003F07AF80726304667E703E0C3
:1021300003F043F82060241D4FF4001003F064F80E
:102140000028F5D140F2FF5003F068F8403C00252C
:1021500015E014F82500000634F8251001F47F413D
:1021600040EA012054F8251001F47F0140EA1120D3
:1021700054F8251040EA116044F825006D1C102D1C
:10218000E7D330463BE770B5002400256E48006871
:10219000012867D1C00303F044F8A8B100BF06E0EE
:1021A00003F00BF86949096841F82400641C082C05
:1021B000F6D36648006820306449086064480068C7
:1021C0002030634908604DE04FF4804003F029F867
:1021D000002847D05F4800685D490968401A2028F8
:1021E0002BD25C4800785A490968401A10F0030F56
:1021F00006D15848006856490968401A800806E028
:102200005448006852490968401A8008401C054635
:1022100000240FE050490968086802F0D1FF641CEF
:102220004D480068001D4C49086049480068001D81
:1022300047490860AC42EDD314E0002406E046496B
:10224000096851F8240002F0BBFF641C082CF6D387
:10225000414800682030404908603D48006820300F
:102260003B4908604FF4807002F0DBFFD8B336487A
:102270000068D0B10EE002F0A0FF344909680860A0
:1022800032480068001D3149086031480068001D6F
:102290002F4908604FF4001002F0B6FF28B12C4817
:1022A00000682C4909688842E5D32C480068012859
:1022B00004D1FFF7A7FD2A49087002E02A20284927
:1022C00008704FF4807002F0B6FF00214CF23A30F3
:1022D00002F01EFF01202349086000201C4908600D
:1022E0001F48007870BDFFE7022002F09AFF70B12E
:1022F000022002F0A0FF00214CF23A3002F008FF69
:10230000002013490860022015490870EAE70820F8
:1023100002F087FF40B3082002F08DFF00214CF24D
:102320003A3002F0F5FE00200949086004200C490B
:102330000870D7E7FC01002004000020FFFF0F0019
:10234000100200200080014008000020240000202E
:102350001C0000200C0000202000002010000020A5
:102360001400002018000020FFE7202002F059FF91
:1023700070B1202002F05FFF00214CF23A3002F0F1
:10238000C7FE002017490860062017490870A9E712
:10239000102002F046FF70B1102002F04CFF002127
:1023A0004CF23A3002F0B4FE00200E4908600520DD
:1023B0000D49087096E74FF4007002F032FF78B1D3
:1023C0004FF4007002F037FF00214CF23A3002F077
:1023D0009FFE00200349086007200349087081E739
:1023E0002A207FE71C0000201400002001B5FE49D0
:1023F0000098086000BFFC4800680028FBD108BDB9
:10240000F948006820B1F8480068401EF6490860A5
:10241000704710B503F0C9FC10BD10B58021F3481A
:1024200002F02FFA2021F14802F02BFA0121F048A6
:1024300003F021FA0A20FFF7D9FF0021EC4803F04E
:102440001AFAEC48808BEB49498F0844E949B1F806
:1024500058100844E749B1F876100844E549B1F846
:1024600094100844E349B1F8B2100844E149B1F8C6
:10247000D0100844DF49B1F8EE100844DD49B1F846
:102480000C110844DB49B1F82A1108440A2190FBD9
:10249000F1F0D94908840121D84803F0ECF90A2069
:1024A000FFF7A4FF0021D54803F0E5F9D448808860
:1024B000D34949890844D249098A0844D049C98A7C
:1024C0000844CF49898B0844CD49498C0844CC49FC
:1024D000098D0844CA49C98D0844C949898E0844F0
:1024E000C749498F08440A2190FBF1F0C24948844A
:1024F0008021BE4802F0C5F92021BC4802F0BFF996
:102500000121BB4803F0B7F90A20FFF76FFF002154
:10251000B74803F0B0F9B748808BB649498F0844F3
:10252000B449B1F858100844B249B1F876100844DB
:10253000B049B1F894100844AE49B1F8B21008445B
:10254000AC49B1F8D0100844AA49B1F8EE100844DB
:10255000A849B1F80C110844A649B1F82A11084459
:102560000A2190FBF1F0A44988840121A34803F0DB
:1025700082F90A20FFF73AFF0021A04803F07BF917
:102580009F4880889E49498908449D49098A084492
:102590009B49C98A08449A49898B08449849498CBF
:1025A00008449749098D08449549C98D08449449C0
:1025B000898E08449249498F08440A2190FBF1F022
:1025C0008D49C8848021894802F059F92021874823
:1025D00002F057F90121864803F04DF90A20FFF770
:1025E00005FF0021824803F046F98248808B81492B
:1025F000498F08447F49B1F8581008447D49B1F823
:10260000761008447B49B1F8941008447949B1F830
:10261000B21008447749B1F8D01008447549B1F8B0
:10262000EE1008447349B1F80C1108447149B1F82F
:102630002A1108440A2190FBF1F06F490885012115
:102640006E4803F018F90A20FFF7D0FE00216B480E
:1026500003F011F96A488088694949890844684942
:10266000098A08446649C98A08446549898B08442F
:102670006349498C08446249098D08446049C98D01
:1026800008445F49898E08445D49498F08440A21FE
:1026900090FBF1F0584948858021544802F0EFF84A
:1026A0002021524802F0EBF80121514803F0E3F8F1
:1026B0000A20FFF79BFE00214D4803F0DCF84D484F
:1026C00000884C49C98B08444A49898F08444949C4
:1026D000B1F85A1008444749B1F878100844454900
:1026E000B1F8961008444349B1F8B4100844414980
:1026F000B1F8D21008443F49B1F8F01008443D4900
:10270000B1F80E1108440A2190FBF1F03A49088013
:10271000384840883749098C08443649C98F0844ED
:102720003449B1F85C1008443249B1F87A100844D1
:102730003049B1F8981008442E49B1F8B610084451
:102740002C49B1F8D41008442A49B1F8F2100844D1
:102750002849B1F8101108440A2190FBF1F02649EC
:102760004880244880882349498C08442149B1F88D
:10277000401008441F49B1F85E1008441D49B1F8E3
:102780007C1008441B49B1F89A1008441949B1F863
:10279000B81008441749B1F8D61008441549B1F8E3
:1027A000F41008441349B1F8121108440A2190FBAF
:1027B000F1F0114988800F48C0880E49898C08447F
:1027C0000C49B1F8421008440A49B1F860100844B5
:1027D0000849B1F87E1008440649B1F89C10084435
:1027E0000449B1F8BA100DE084010020000C01404A
:1027F00000240140F0150020A8020020003C014008
:102800001C1700200844FE49B1F8D8100844FC49C0
:10281000B1F8F6100844FA49B1F8141108440A2135
:1028200090FBF1F0F749C880F5480089F449C98C5C
:102830000844F349B1F844100844F149B1F8621072
:102840000844EF49B1F880100844ED49B1F89E10F2
:102850000844EB49B1F8BC100844E949B1F8DA1072
:102860000844E749B1F8F8100844E549B1F81611F1
:1028700008440A2190FBF1F0E2490881E0484089D0
:10288000DF49098D0844DE49B1F846100844DC49A7
:10289000B1F864100844DA49B1F882100844D84904
:1028A000B1F8A0100844D649B1F8BE100844D44984
:1028B000B1F8DC100844D249B1F8FA100844D04904
:1028C000B1F8181108440A2190FBF1F0CD49488174
:1028D000CB488089CA49498D0844C949B1F8481094
:1028E0000844C749B1F866100844C549B1F88410D6
:1028F0000844C349B1F8A2100844C149B1F8C01056
:102900000844BF49B1F8DE100844BD49B1F8FC10D5
:102910000844BB49B1F81A1108440A2190FBF1F0B0
:10292000B8498881B648C089B549898D0844B449F9
:10293000B1F84A100844B249B1F868100844B049E7
:10294000B1F886100844AE49B1F8A4100844AC4967
:10295000B1F8C2100844AA49B1F8E0100844A849E7
:10296000B1F8FE100844A649B1F81C1108440A2128
:1029700090FBF1F0A349C881A148008AA049C98D04
:1029800008449F49B1F84C1008449D49B1F86A10B9
:1029900008449B49B1F8881008449949B1F8A61039
:1029A00008449749B1F8C41008449549B1F8E210B9
:1029B00008449349B1F8001108449149B1F81E1137
:1029C00008440A2190FBF1F08E4988828C48408AA5
:1029D0008B49098E08448A49B1F84E100844884949
:1029E000B1F86C1008448649B1F88A10084484494B
:1029F000B1F8A81008448249B1F8C61008448049CB
:102A0000B1F8E41008447E49B1F8021108447C4949
:102A1000B1F8201108440A2190FBF1F07949C882ED
:102A20007748808A7649498E08447549B1F8501034
:102A300008447349B1F86E1008447149B1F88C101C
:102A400008446F49B1F8AA1008446D49B1F8C8109C
:102A500008446B49B1F8E61008446949B1F804111B
:102A600008446749B1F8221108440A2190FBF1F0AB
:102A7000644908836248C08A6149898E0844604974
:102A8000B1F8521008445E49B1F8701008445C492E
:102A9000B1F88E1008445A49B1F8AC1008445849AE
:102AA000B1F8CA1008445649B1F8E810084454492E
:102AB000B1F8061108445249B1F8241108440A211A
:102AC00090FBF1F04F4948834D48008B4C49C98E2B
:102AD00008444B49B1F8541008444949B1F8721000
:102AE00008444749B1F8901008444549B1F8AE1080
:102AF00008444349B1F8CC1008444149B1F8EA1000
:102B000008443F49B1F8081108443D49B1F826117D
:102B100008440A2190FBF1F03A4988833848408BF9
:102B20003749098F08443649B1F8561008443449EA
:102B3000B1F8741008443249B1F892100844304991
:102B4000B1F8B01008442E49B1F8CE1008442C4911
:102B5000B1F8EC1008442A49B1F80A110844284990
:102B6000B1F8281108440A2190FBF1F02549C883E7
:102B70002348808B2249498F08442149B1F85810D5
:102B800008441F49B1F8761008441D49B1F8941063
:102B900008441B49B1F8B21008441949B1F8D010E3
:102BA00008441749B1F8EE1008441549B1F80C1162
:102BB00008441349B1F82A1108440A2190FBF1F0A6
:102BC000104988850121104802F055FE0A20FFF7C0
:102BD0000DFC00210C4802F04EFE0C4800880B4909
:102BE000C98808440949098808440849498A0844A9
:102BF0000649098B08440549C98B0844034907E085
:102C0000F0150020A8020020003C01401C17002005
:102C1000898C0844FE49498D0844FD49098E0844C1
:102C2000FB49C98E08440A2190FBF1F0F94908825A
:102C3000F7484088F64909890844F5490989084454
:102C4000F349898A0844F249498B0844F049098CC0
:102C50000844EF49C98C0844ED49898D0844EC4982
:102C6000498E0844EA49098F08440A2190FBF1F093
:102C7000E8494882E6488088E54949890844E449AA
:102C8000098A0844E249C98A0844E149898B084411
:102C9000DF49498C0844DE49098D0844DC49C98D67
:102CA0000844DB49898E0844D949498F08440A21E0
:102CB00090FBF1F0D749C88510BD00202FE000EB54
:102CC0004001D54A52F8211000EB4002D24B03EBF1
:102CD000820252681144CF4A32F810204FF4A57393
:102CE0005A43514300EB4002CB4B03EB8202526844
:102CF0001203B1FBF2F1C74A22F81010114631F865
:102D000010106422514300EB400203EB82029268F0
:102D1000B1FBF2F1BF4A22F81010411CC8B21828CA
:102D2000CDDB7047BB48008800B2BA490886084628
:102D300040880988401A01B2B64841868088B54962
:102D40004988401A01B2B3488186C088B149898850
:102D5000401A01B2AF48C1860089AE49C988401AFD
:102D600001B2AC4801874089AA490989401A01B2D9
:102D7000A84841878089A7494989401A01B2A548D6
:102D80008187C089A3498989401A01B2A148C187B6
:102D9000008AA049C989401A01B29E48A0F8401093
:102DA000408A9C49098A401A01B29A48A0F8421008
:102DB000808A9849498A401A01B29648A0F844107E
:102DC000C08A9449898A401A01B29248A0F84610F4
:102DD000008B9049C98A401A01B28E48A0F8481069
:102DE000408B8C49098B401A01B28A48A0F84A10DE
:102DF000808B8849498B401A01B28648A0F84C1054
:102E0000C08B8449898B401A01B28248A0F84E10C9
:102E1000008C8049C98B401A01B27E48A0F850103E
:102E2000408C7C49098C401A01B27A48A0F85210B3
:102E3000808C7849498C401A01B27648A0F8541029
:102E4000C08C7449898C401A01B27248A0F856109F
:102E5000008D7049C98C401A01B26E48A0F8581014
:102E6000408D6C49098D401A01B26A48A0F85A1089
:102E7000808D6849498D401A01B26648A0F85C10FF
:102E8000C08D6449898D401A01B26248A0F85E1075
:102E9000704710B504465F48303030F914005F4980
:102EA00031F91410884209DA4FF480715C4801F05E
:102EB000E6FC01205B4901F8140003E000205949B9
:102EC00001F8140010BD10B50446564810F814005F
:102ED00018B1204601F00FFA02E0204601F0A6FAF0
:102EE00010BD70B5B4B004460D461646204600F03D
:102EF0007BFEE878E17888421FD002224AA14C4844
:102F000003F0B6FEC8B901204A4908604A4901A841
:102F100004F0B6FE4648C16804F0CBF94749087092
:102F2000444BC92201A9424804F056F843490870AD
:102F30003F4804F0B3F941490870A6B1E079E97956
:102F400088420ED060796871A079A871E079E87143
:102F500020882880A078A870E078E870012034B03C
:102F600070BD0020FBE70020F9E72DE9F0438DB0AC
:102F700004462146684604F07CFA06002ED120461D
:102F800004F007FEC5B21EE09DF8240010F0100FFB
:102F900013D009F101001FFA80F92F206055611943
:102FA000481C0DF1250104F0FBFD2046FFF7DDFF75
:102FB00006460020605536B10FE008F101001FFA07
:102FC00080F80798074407A9684604F086FA0600C7
:102FD00003D19DF825000028D6D100BF30460DB0A2
:102FE000BDE8F08310B5CEB0002004F097FD144981
:102FF000002003F02AFE0B2000F02FFC3B2000F005
:103000002CFC122000F029FC122000F026FC19E014
:103010001C170020A80200205C0000201C80000873
:1030200000140140280200206C6F672E7478740031
:103030008C110020900100204C80000889010020A4
:103040005C0F0020072000F008FC0622AFF22801E8
:10305000FE4803F00DFE002868D10120FC490860FD
:103060004BA800F0C1FDFBA137A804F009FEF84B06
:10307000282237A9F54803F0AFFF0446F34804F0CF
:10308000B2F80446FEA137A804F0FAFDEF48C16883
:1030900004F00FF90446EE4B282237A9EB4803F061
:1030A0009BFF0446E94804F09EF804469DF833016E
:1030B0009DF832119DF831219DF82F31CDE9003274
:1030C000CDE902109DF82E31BDF82C21F7A141A8C1
:1030D00004F0D6FDDD48C16804F0EBF80446DC4B93
:1030E000252241A9D94803F077FF0446D74804F0C8
:1030F0007AF80446F94904A804F0C2FDD348C1682F
:1031000004F0D7F80446D24BC92204A9CF4803F0F3
:1031100063FF0446CD4804F066F80446CB4804F04B
:10312000BDF80446EEA004F09BFD02E0F1A004F01F
:1031300097FD0B2000F085FB3B2000F082FB122066
:1031400000F07FFB122000F07CFB072000F079FBF1
:103150004EB010BD30B591B0002004F0DFFCEA495C
:10316000002003F072FD0B2000F077FB3B2000F005
:1031700074FB122000F071FB122000F06EFB0720A0
:1031800000F06BFB0222AFF26011B04803F070FD5B
:10319000002866D10120AE4908600EA800F024FD89
:1031A0009DF83F009DF83E109DF83D209DF83B3076
:1031B000CDE90032CDE902109DF83A30BDF8382053
:1031C000D2A107A804F05CFDA048C16804F071F822
:1031D00005469F4B1B2207A99C4803F0FDFE0546B0
:1031E0009A4804F000F80546002435E09748C16885
:1031F00004F05FF80546CF4830F91420CEA105A8A9
:1032000004F03EFD924B072205A9904803F0E4FE2E
:1032100005468E4803F0E7FF05468C48C16804F078
:1032200048F80546C64810F8140020B1C5A105A805
:1032300004F026FD03E0C5A105A804F021FD844BA0
:10324000072205A9814803F0C7FE05467F4803F021
:10325000CAFF0546601CC4B2182CC7DB7B4804F0CB
:103260001DF80B2000F0EDFA3B2000F0EAFA1220E6
:1032700000F0E7FA122000F0E4FA072000F0E1FA8B
:1032800011B030BD00B585B0012144F2040001F059
:10329000E1FC00214FF4804001F0F6FC4FF4007097
:1032A000ADF8100003208DF8120018208DF81300DF
:1032B00004A9A84801F038FA4FF48060ADF8100076
:1032C00004208DF8130004A9A24801F02DFA4FF450
:1032D000E13000900020ADF80400ADF80600ADF834
:1032E0000800ADF80C000C20ADF80A0069469A48B9
:1032F00001F061FD012240F22771974801F0D5FDF0
:10330000012240F22551944801F0CFFD012192485D
:1033100001F0BFFD05B000BD08B54FF4C06001F07D
:103320002DF931208DF8000000208DF801008DF876
:10333000020001208DF80300684601F024F9032003
:103340008DF8000000208DF8010001208DF80200AA
:103350008DF80300684601F016F90B208DF8000087
:1033600001208DF8010000208DF8020001208DF869
:103370000300684601F007F93B208DF800000120AA
:103380008DF8010000208DF8020001208DF8030067
:10339000684601F0F8F807208DF8000002208DF84B
:1033A000010000208DF8020001208DF8030068461E
:1033B00001F0E9F808BD0EB500240026FFF729F852
:1033C000664800684FF47A72B0FBF2F1B1F1807F89
:1033D00000D31FE021F07F40401E4FF0E0225061FB
:1033E00050170F22002809DA13074FEA136C5C4BC1
:1033F00000F00F073F1F03F807C003E013071F0E7D
:10340000584B1F5400BF00204FF0E022906107206E
:10341000106100BFFFF780FFFFF734FFFDF7C8F929
:1034200051490870084600782A2804D14F48FDF712
:1034300005FA4D4908704C4800782A2804D14B49B8
:10344000B1F84C10080493E096E000008C110020C5
:10345000900100203D3D3D3D2020424154544552C5
:1034600059204D4F4E49544F52494E47204C4F47DB
:103470002046494C45203D3D3D3D0D0A00000000E1
:103480003D3D3D3D20204D4144452042593A20419B
:10349000264420544543482E2C204A5343202020C4
:1034A00020203D3D3D3D0D0A0000000043524541B6
:1034B0005445442054494D453A202534642D253245
:1034C000642D2532642025302E32643A25302E3288
:1034D000643A25302E3264200A0D0000188100085D
:1034E0000A0D46696C65206372656174656420210C
:1034F0000A0D00000A0D46696C65206578697374D1
:10350000656420210A0D00005C0F00200D0A54693B
:103510006D653A202534642D2532642D25326420D2
:1035200025302E32643A25302E32643A25302E3240
:1035300064200000D802002020202535640000000F
:103540002802002020205741524E21002020202018
:10355000202020000008014000380140FC820008C3
:1035600018ED00E000E400E07F0100200C030020E3
:10357000FDF79EFCBD490870BC4800782A2807D199
:103580000120FDF789FCB9490870B9A004F068FB77
:10359000042002F052F8A0F52541A53913D0B8A0B7
:1035A00004F05EFB00F09FFBBDA004F059FBC24895
:1035B00000F0C5FBC04800F034FB4AF2A5510420DE
:1035C00002F037F81CE07B2001F01EFA18B1BBA016
:1035D00004F046FB06E07A2001F016FA10B1BFA015
:1035E00004F03EFBC5A004F03BFB01F0BBFF012152
:1035F000084601F053FF01F0ADFFC8A004F030FB16
:1036000001F066FB00F0EEFD00F052FC00F05EFD04
:10361000FFF7E8FC0121C24801F0E6FE0121C148A4
:1036200001F0E2FEA44800F0DFFABF4800F0DCFA47
:10363000BEA004F015FB40F2E730FEF7D7FE0A25E6
:103640000FE02946C0A004F00BFBFEF7E6FEFFF7F3
:1036500034FBFFF767FB40F2E730FEF7C7FE681E5A
:10366000C5B2002DEDDCADA004F0FAFA9248C378A3
:1036700082780188B6A004F0F3FABA4804F0F0FAB0
:103680006AE03246A8498C48FFF72BFCC8B1B6481F
:103690000078401CB4490870FEF7BFFEFFF70DFB31
:1036A000FFF740FB002407E02046FFF7F2FB20462F
:1036B000FFF709FC601CC4B2182CF5DB7DA004F0F8
:1036C000CFFAA94800780A2845D1FFF743FD7A4888
:1036D000C07979498979784A5279CDE900210290F7
:1036E0007548C37882780188AFF2E01004F0B8FA28
:1036F000002408E09D4830F81410AFF2C41004F024
:10370000AFFA601CC4B2182CF4DB6B48C179807925
:10371000694A5279CDE9002002916748C3788278DE
:103720000188AFF2182004F09BFA00240EE09048C4
:1037300010F8140020B1AFF2F41004F091FA03E095
:10374000AFF2F81004F08CFA601CC4B2182CEEDB57
:10375000002085490870012693E710B50446E1B2C0
:10376000844801F0FEFB00BF8248008810F0800F03
:10377000FAD0204610BD10B500BF7E48008810F07A
:10378000200FFAD07B4801F0F0FB10BD70B5054664
:1037900000240CE000BF2021764801F039FC00280D
:1037A000F9D0744801F0E1FB2855601C84B2042C68
:1037B000F0D370BD70B504460D46E1B26D4801F01E
:1037C000D0FB00BF40216B4801F022FC0028F9D05B
:1037D000204670BD7CB50546002400200090019075
:1037E0001BE000BF2021634801F012FC0028F9D043
:1037F000604801F0BAFB2146641C4DF82100601EB0
:103800005DF82000302804D3601E5DF820003928C0
:1038100003D959A004F024FA641E022CE1D30198C4
:1038200030380099303901EB810100EB4104AC42A2
:1038300005D929465CA004F013FAFF207CBDE0B254
:10384000FCE700F01F020121914042094FF0E02304
:1038500003EB8202C2F80011704700F01F02012141
:1038600091405D4A430942F8231070477F010020D0
:103870000D0A0D54455354204F4B210D0A0D0000E5
:103880000D0A0A20525443206E6F7420796574200B
:10389000636F6E666967757265642E2E2E2E00004A
:1038A0000D0A2052544320636F6E66696775726516
:1038B000642E2E2E2E000000580200200D0A0A2031
:1038C000506F776572204F6E205265736574206F5C
:1038D000636375727265642E2E2E2E000D0A0A2007
:1038E00045787465726E616C205265736574206FE3
:1038F000636375727265642E2E2E2E000D0A204EA3
:103900006F206E65656420746F20636F6E666967F3
:10391000757265205254432E2E2E2E000D0A000083
:10392000080002405804024062020020496E697497
:1039300069616C697A652C20506C656173652077CC
:103940006169743A2000000025642E2E20000000DA
:10395000253032642D253032642D253032640A0D35
:1039600000000000E081000880010020A802002083
:1039700028020020003801400A0D0D506C6561736B
:103980006520656E7465722076616C6964206E7561
:103990006D626572206265747765656E20302061A6
:1039A0006E642039000000000A0D0D506C656173D3
:1039B0006520656E7465722076616C6964206E7531
:1039C0006D626572206265747765656E2030206176
:1039D0006E6420256400000080E100E001468A78E2
:1039E000032A01DB0A2A01DD002070470B79C87821
:1039F000C01A192807DB13B94879022803DB0A2A01
:103A000005D10020F1E7032A01D10020EDE70120D4
:103A1000EBE72DE9F041044694F80580E578267936
:103A2000A7782046FFF7DAFF08B30120207208F1DB
:103A3000010000F0FF08B8F1180F10D14FF0000896
:103A4000701CC6B2072E00D10026781EF049085C13
:103A5000A84202D10025781CC7B2681CC5B2A77065
:103A600084F80580E57026710120BDE8F081002012
:103A7000207200BFF9E72DE9F04102463C27B2FB76
:103A8000F7FC07FB1C27CF713C27B2FBF7F2B2FB18
:103A9000F7FC07FB1C278F713C27B2FBF7F21827B6
:103AA000B2FBF7FC07FB1C274F711827B2FBF7F797
:103AB000B8B2871D4FF0070C97FBFCF80CFB18778A
:103AC0000F710023012600BF40F26D1513F0030FA4
:103AD0000BD16D1C1BB1642B01D0C82B05D1771EF7
:103AE000FFB23E0001D040F26D15A84200DA04E0BA
:103AF000471BB8B25F1CFBB2E6E700BF03F5FA67ED
:103B00000F8015F0010F03D03A2801DD471CB8B231
:103B1000012408E0671EDFF8F8C21CF80770C71B15
:103B2000B8B2671CFCB2671EDFF8E4C21CF807706D
:103B30008742EFDD8C70471CCF70BDE8F081F0B597
:103B4000024600BF118840F26D1401FB04F0148896
:103B5000012C0FDBCC1CE61704EB967600EBA600DD
:103B60004C1E642694FBF6F4001B4C1EB60094FB1E
:103B7000F6F42044A74C001B9478641EA5B20023E1
:103B800004E0A34CE45C20445C1CE3B2AB42F8DBF1
:103B90004FF4C87691FBF6F706FB171686B1CE17E1
:103BA00001EB9676B610B1EB860605D1642691FB43
:103BB000F6F706FB17161EB99478022C00DD401E9E
:103BC000D4782044441E944E74435679C6EB46176D
:103BD000C7EB062604EB06149679C6EB061604EB33
:103BE0008604D679A019F0BD70B5044600BF01F077
:103BF00075FC054601F072FC8542F8D12146284645
:103C0000FFF739FF2046FFF704FF012070BD10B514
:103C1000044601F09FFC204601F069FC01F09AFC8B
:103C200010BD3EB505462846FFF789FF04466946A4
:103C30002046FFF720FF6846FFF7D0FE08B1A4F545
:103C400061642046FFF7E3FF01203EBD08B5012176
:103C50004FF0C05001F00BF80020009004E0BDF8D8
:103C60000000401C80B20090BDF8000041F2883195
:103C70008842F4DB042001F0E0FCA0F52541A539E1
:103C80002DD0012001F009FD01F0AAFC012000F077
:103C900051FF00BF412000F0B7FE0028FAD04FF4DA
:103CA000807000F060FF012000F063FF01F05AFC1B
:103CB00001F050FC47F6FF7001F026FC01F04AFCD1
:103CC0004AF2947001F013FC01F044FC4AF2A55151
:103CD000042001F0AEFC002001F0DFFC01E001F067
:103CE00041FC002008BD10B501214FF0C05000F08C
:103CF000BEFF012001F0D1FC01F072FC012000F0B8
:103D000019FF00BF412000F07FFE0028FAD04FF4D9
:103D1000807000F028FF012000F02BFF01F022FC52
:103D200001F018FC0121084601F0B8FB01F012FC7B
:103D300047F6FF7001F0E8FB01F00CFC10BD10B578
:103D40000446FF206071A071E071E070A0702080D7
:103D5000324803F085FF32A003F082FF03E0172012
:103D6000FFF738FD60716079FF28F8D0617932A0E3
:103D700003F076FF32A003F073FF03E03B20FFF770
:103D800029FDA071A079FF28F8D0A1792AA003F01D
:103D900067FF31A003F064FF03E03B20FFF71AFD4B
:103DA000E071E079FF28F8D0E17923A003F058FF13
:103DB0002FA003F055FF03E01F20FFF70BFDE0707D
:103DC000E078FF28F8D0E1781BA003F049FF2DA090
:103DD00003F046FF03E00C20FFF7FCFCA070A07886
:103DE000FF28F8D0A17814A003F03AFF2BA003F02D
:103DF00037FF05E06320FFF7EDFC00F5FA60208057
:103E00002088FF28F6D021880BA003F029FF10BDE1
:103E1000A882000875250B0080510100B4820008BB
:103E20000D0A2020506C656173652053657420482D
:103E30006F757273000000003A20202564000000B6
:103E40000D0A2020506C6561736520536574204D08
:103E5000696E7574657300000D0A2020506C6561F1
:103E6000736520536574205365636F6E647300003F
:103E70000D0A2020506C65617365205365742044E1
:103E8000617900000D0A2020506C65617365205334
:103E90006574204D6F6E7468000000000D0A2020CC
:103EA000506C6561736520536574205965617200BB
:103EB00070B50F240325012148F29C2000F0CAFEB2
:103EC000BB4800F0BAFCFF20B94908800020C87048
:103ED000B84800F029FCB64800F0AFFC0320B44914
:103EE00008800020C870B44800F01EFCB04800F004
:103EF000A4FC3F20AE4908800020C870AF4800F005
:103F000013FCAB4800F099FC4FF4F860A849088016
:103F10000020C870AA4800F007FCAA4801F012FC73
:103F2000A94801F05FFC0020A7490860012C01DDD1
:103F3000012000E00020A4490871012048714FF4DD
:103F4000602088600020C860084604749D4801F025
:103F500026FC0723062200219A4801F0B8FC07231B
:103F60000D220121974801F0B2FC0723052202210E
:103F7000944801F0ACFC07230C220321914801F086
:103F8000A6FC0723042211468E4801F0A0FC07235B
:103F90000B2205218B4801F09AFC072303220621FE
:103FA000884801F094FC07230A221946854801F04D
:103FB0008EFC072301220821824801F088FC072398
:103FC00008220A217F4801F082FC07230F220B21DF
:103FD0007C4801F07CFC07231A460C21794801F04B
:103FE00076FC07230E220D21764801F070FC072392
:103FF00002220E21734801F06AFC072309220F21D7
:10400000704801F064FC01216E4801F0F4FB0121CD
:104010006C4801F0FBFB6B4801F00FFC00BF6948E6
:1040200001F010FC0028FAD1664801F015FC00BF31
:10403000644801F016FC0028FAD1644801F082FBC4
:10404000614801F0CFFB00205F490860012D01DDD0
:10405000012000E000205C490871012048714FF404
:10406000602088600020C86008460574574801F049
:1040700096FB072302220521544801F028FC072360
:1040800001221946514801F022FC0723032208218E
:104090004E4801F01CFC01214C4801F0ACFB012111
:1040A0004A4801F0B3FB494801F0C7FB00BF47484D
:1040B00001F0C8FB0028FAD1444801F0CDFB00BF55
:1040C000424801F0CEFB0028FAD170BD10B50121A5
:1040D000084600F0B2FD3E4801F0C2F800203D491C
:1040E00088622020086200024862401188618000D6
:1040F000C861802048610020086188609620C860FF
:1041000030484C30086034484860314801F041F98B
:10411000012202212E4801F072F901212C4801F000
:1041200063F90121022000F088FD2C4801F098F885
:10413000002028498862202008620002486240115D
:1041400088618000C8618020486100200861886023
:104150001E20C8601D484C300860214848601F4838
:1041600001F017F9012202211C4801F048F9012150
:104170001A4801F039F910BD70B504460D4640F6F5
:10418000FF76072301222946204601F0A0FBA06804
:1041900040F48000A06004E03000A6F1010600D1E8
:1041A00070BD206810F0020FF6D0E06C80B2F7E727
:1041B0009E01002000080140000C01400010014059
:1041C000001C014000240140B0150020003C0140CB
:1041D00008000240C4150020F015002058040240D9
:1041E0001C1700200EB501214FF4FE7000F032FDC7
:1041F00002A800F022FB4FF4AA40ADF8080003200B
:104200008DF80A0010208DF80B0002A9D54800F0A7
:104210008BFA02A800F011FB4CF2A820ADF80800C0
:1042200003208DF80A0010208DF80B0002A9CE485B
:1042300000F07AFA02A800F000FB4FF4AA50ADF8A3
:10424000080003208DF80A0010208DF80B0002A949
:10425000C64800F069FA02A800F0EFFA4AF6AA3060
:10426000ADF8080003208DF80A0010208DF80B002F
:1042700002A9BF4800F058FA02A800F0DEFA0220B6
:10428000ADF8080003208DF80A0048208DF80B00D7
:1042900002A9B84800F048FA02A800F0CEFA4DF2A0
:1042A000FC50ADF8080003208DF80A0010208DF8AE
:1042B0000B0002A9B04800F037FA4FF48041AA4839
:1042C00000F0DDFA4FF40071A74800F0DAFA4FF47D
:1042D0008071A74800F0D5FA0220009000208DF8E8
:1042E00004000C208DF8050001208DF806006846BA
:1042F00001F04EFC0EBD10B50446182C71D2DFE85B
:1043000004F00C12181E23282E34393E43494F5511
:104310005B60656A71777D82878D4FF400419248BA
:1043200000F0ADFA80E04FF40061914800F0A7FA88
:104330007AE04FF400418E4800F0A1FA74E02021A9
:104340008D4800F09CFA6FE04021884800F097FA11
:104350006AE04FF48071834800F091FA64E04FF412
:104360008051804800F08BFA5EE04021824800F0E6
:1043700086FA59E002217E4800F081FA54E02021BB
:104380007B4800F07CFA4FE04FF480617A4800F0FF
:1043900076FA49E04FF48041774800F070FA43E044
:1043A0004FF40071724800F06AFA3DE04FF400519A
:1043B0006F4800F064FA37E008216F4800F05FFAB8
:1043C00032E080216C4800F05AFA2DE004216A485E
:1043D00000F055FA28E04FF48061624800F04FFA8F
:1043E00022E020E04FF40041634800F048FA1BE06F
:1043F0004FF48071604800F042FA15E008215C48F3
:1044000000F03DFA10E08021594800F038FA0BE046
:104410004FF48051584800F032FA05E01021564818
:1044200000F02DFA00E000BF00BF10BD10B504463B
:10443000182C71D2DFE804F00C12181E23282E3439
:10444000393E43494F555B60656A71777D82878D40
:104450004FF40041444800F014FA80E04FF400614A
:10446000434800F00EFA7AE04FF40041404800F073
:1044700008FA74E02021404800F003FA6FE0402180
:104480003A4800F0FEF96AE04FF48071354800F0D8
:10449000F8F964E04FF48051324800F0F2F95EE040
:1044A0004021354800F0EDF959E00221304800F094
:1044B000E8F954E020212E4800F0E3F94FE04FF4F2
:1044C00080612D4800F0DDF949E04FF480412A4831
:1044D00000F0D7F943E04FF40071254800F0D1F91E
:1044E0003DE04FF40051224800F0CBF937E00821BD
:1044F000214800F0C6F932E080211F4800F0C1F9E0
:104500002DE004211C4800F0BCF928E04FF4806144
:10451000144800F0B6F922E020E04FF400411648BC
:1045200000F0AFF91BE04FF48071134800F0A9F9D7
:1045300015E008210E4800F0A4F910E080210C4895
:1045400000F09FF90BE04FF480510B4800F099F90F
:1045500005E01021084800F094F900E000BF00BF1A
:1045600010BD000000080140000C01400010014097
:10457000001401400018014000200140314901436E
:10458000314A1160704770B5002100230F22C478B2
:104590000CB32D4C246804F4E064C4F5E064210AF3
:1045A000C1F10403CA40447804FA03F1847814404A
:1045B00021430901254C0678A155047804F01F0514
:1045C0000124AC4005786D114FF0E02606EB85051F
:1045D000C5F8004109E0047804F01F050124AC404F
:1045E0001B4D0678761145F8264070BD194A0A40E1
:1045F0000243154B1B1F1A60704739B1124A121D36
:1046000012680243104B1B1D1A6006E00E4A121D71
:10461000126882430C4B1B1D1A607047042808D196
:104620004FF0E021096941F004014FF0E0221161EF
:1046300007E04FF0E021096921F004014FF0E0228A
:10464000116170470000FA050CED00E000E400E0A5
:1046500080E100E080FFFF1F10B50446C549601AE5
:104660008C422FD009DCC448201810D0B0F5806FE0
:1046700016D0B0F5006F4AD11BE0B0F5806F2AD09C
:10468000B0F5006F30D0B0F5406F40D135E001217A
:10469000042000F0F9FA0021042000F0F5FA37E0D8
:1046A0000121082000F0F0FA0021082000F0ECFAC7
:1046B0002EE00121102000F0E7FA0021102000F088
:1046C000E3FA25E00121202000F0DEFA002120207D
:1046D00000F0DAFA1CE00121402000F0D5FA0021B8
:1046E000402000F0D1FA13E00121802000F0CCFA44
:1046F0000021802000F0C8FA0AE00121080200F041
:10470000C3FA00214FF4807000F0BEFA00E000BF51
:1047100000BF10BD10B50121084600F0B5FA002118
:10472000012000F0B1FA10BD2DE9F041024600254C
:104730000026002000230024002791F803C00CF07D
:104740000F0591F803C01CF0100F03D091F802C0C0
:104750004CEA050591F800C0BCF1000F31D0146897
:1047600000202BE04FF0010C0CFA00F3B1F800C070
:104770000CEA03069E4220D183004FF00F0C0CFA86
:1047800003F7BC4305FA03FC4CEA040491F803C0A8
:10479000BCF1280F06D14FF0010C0CFA00FCC2F856
:1047A00014C00AE091F803C0BCF1480F05D14FF0E6
:1047B000010C0CFA00FCC2F810C0401C0828D1D330
:1047C0001460B1F800C0BCF1FF0F34DD5468002064
:1047D0002EE000F1080C4FF0010808FA0CF3B1F8D4
:1047E00000C00CEA03069E4221D183004FF00F0C5B
:1047F0000CFA03F7BC4305FA03FC4CEA040491F8F5
:1048000003C0BCF1280F05D100F1080C08FA0CF820
:10481000C2F8148091F803C0BCF1480F07D100F131
:10482000080C4FF0010808FA0CF8C2F81080401C80
:104830000828CED35460BDE8F0814FF6FF710180A7
:10484000022181700421C1707047024600209368E4
:104850000B4201D0012000E000207047014688682B
:1048600080B2704702460020D3680B4201D001207D
:1048700000E0002070470146C86880B270470161BF
:104880007047416170470AB1016100E041617047C2
:10489000C16070474FF480320A4382618161826156
:1048A00082698269704702460020344B18684FF6CF
:1048B0008073184040EA02100843304B186070477C
:1048C0002F49C8617047F0B50A4600230024002133
:1048D00000252A4E7168C0F3034583B200F44016E8
:1048E000B6F5401F08D121F07061244E766826F09D
:1048F0007066224F7E6012E000F48016B6F5801FCD
:1049000006D1032606FA05F4A14341F0706106E0E2
:10491000460D360103FA06F6B14341F0706122B14B
:10492000460D360103FA06F63143144E7160F0BDB0
:1049300030B500228B071C0F0F2303FA04F20F4B34
:1049400008338C1053F8243093430C4C08348D10EA
:1049500044F8253023468C1053F824308C07240F5C
:1049600000FA04F42343054C08348D1044F8253034
:1049700030BD00000014014000F8FEBF00000140FF
:1049800000002042DC48006840F00100DA4908607D
:1049900008464068D9490840D74948600846006839
:1049A000D7490840D44908600846006820F48020B0
:1049B00008600846406820F4FE00486000208860D7
:1049C0007047CD49096821F48031CB4A1160114606
:1049D000096821F480211160B0F5803F03D0B0F563
:1049E000802F0ED106E0C449096841F48031C24AE3
:1049F000116007E0C049096841F4A021BE4A116076
:104A000000E000BF00BF704710B501460022002340
:104A100000204A11012A02D1B74C236806E0022A7D
:104A200002D1B54C236A01E0B34C636A01F01F0266
:104A3000012494401C4201D0012000E0002010BD60
:104A400038B5002000900024002500BF3120FFF77A
:104A5000DBFF05460098401C00901DB90098B0F59A
:104A6000A06FF3D13120FFF7CFFF08B1012400E0A0
:104A70000024204638BD014600209F4A106820F0DF
:104A8000F80040EAC100106070479E490860704716
:104A900002460020984B586820F47C1042EA01033B
:104AA0001843954B58607047964908667047014611
:104AB0000020914A506820F003000843506070477E
:104AC0008D48406800F00C007047014600208A4A7B
:104AD000506820F0F0000843506070470146002005
:104AE000854A506820F4E0600843506070470146F2
:104AF0000020814A506820F4605040EAC1005060B4
:104B0000704729B17C4A527A02437B4B5A7204E0C7
:104B1000794A527A8243784B5A7270477A490860D0
:104B2000704701460020744A506820F44040084312
:104B3000506070470021754A11706F4A82F820104A
:104B4000012802D0042808D103E001216F4A117026
:104B500004E005216D4A117000E000BF00BF7047FE
:104B60006B49086070476449096A0143624A1162EF
:104B70007047674944390860704730B5002100220A
:104B8000002400235C4D6D6805F00C0121B104295F
:104B900005D0082923D105E05E4D056022E05D4D7A
:104BA00005601FE0544D6D6805F47012022505EB99
:104BB0009242514D6D6805F480341CB9564D5543F1
:104BC00005600BE04C4D6D6815F4003F03D0524D6D
:104BD0005543056002E04F4D5543056002E04D4DE1
:104BE000056000BF00BF444D6D6805F0F001090984
:104BF0004A4D6B5C0568DD4045603F4D6D6805F4CE
:104C0000E061090A454D6B5C4568DD4085603A4DC1
:104C10006D6805F46051C90A404D6B5C4568DD4024
:104C2000C560354D6D6805F44041890B3C4D6B5CAA
:104C3000C568B5FBF3F5056130BD29B12E4A52694F
:104C400002432D4B5A6104E02B4A526982432A4B9E
:104C50005A61704729B1284A92690243264B9A61EA
:104C600004E0254A92698243234B9A61704729B137
:104C7000214AD2690243204BDA6104E01E4AD2691C
:104C800082431D4BDA61704729B11B4AD268024347
:104C9000194BDA6004E0184AD2688243164BDA6096
:104CA000704729B1144A12690243134B1A6104E098
:104CB000114A12698243104B1A61704714494039F6
:104CC000086070470F49C86470470B49C871704746
:104CD0000948406A40F080700749486270470146C1
:104CE0000020054A92680A4201D0012000E000201D
:104CF0007047014988727047001002400000FFF8B9
:104D0000FFFFF6FE00004242D8004242201002405F
:104D10008004424200127A0000093D00A2010020F6
:104D2000B201002010B50446D749601A8C422BD03E
:104D300006DCD648201813D0B0F5806F38D119E0C2
:104D4000B0F5806F2AD0B0F56C4F31D101218803C6
:104D5000FFF79AFF00214FF48040FFF795FF28E00E
:104D600001214804FFF79DFF00214FF40030FFF7B9
:104D700098FF1EE001218804FFF793FF00214FF404
:104D80008020FFF78EFF14E00121C804FFF789FFA0
:104D900000214FF40020FFF784FF0AE001210805FD
:104DA000FFF77FFF00214FF48010FFF77AFF00E04C
:104DB00000BF00BF10BD2DE9F04786B005460E4686
:104DC0000024A24600BF00BF00272F462C8A4CF6C5
:104DD000FF700440F08804432C82AC894EF6F31037
:104DE0000440B08831890843718908430443AC8189
:104DF000AC8A4FF6FF400440B0890443AC8201A85E
:104E0000FFF7BBFEA248874202D1DDF810A001E007
:104E1000DDF80CA00AEBCA0000EB0A10316889002B
:104E2000B0FBF1F86420B8FBF0F004012009642124
:104E300001FB1089322000EB0910B0FBF1F000F00B
:104E40000F0004432C8106B0BDE8F0874FF41651E3
:104E5000016000218180C18001810C2141810021FC
:104E60008181704710B502460020108A4FF2FF037F
:104E700018400B884C8823438C882343CC882343D9
:104E80001843108210BD0021018041808180C180C3
:104E9000704721B1828942F40052828104E0828904
:104EA0004DF6FF731A4082817047F0B50346002427
:104EB0000026002500201846C1F3421401F01F0609
:104EC000012707FA06F5012C01D10C3004E0022C71
:104ED00001D1103000E014301AB107682F43076089
:104EE00002E00768AF430760F0BD1AB1838A0B4345
:104EF000838202E0838A8B4383827047028A4FF663
:104F0000F0731A400282028A0A4302827047828941
:104F10004FF2FF731A40828182890A43828170476F
:104F200021B1828942F00202828104E082894FF637
:104F3000FD731A4082817047028A4FF6DF731A4070
:104F40000282028A0A430282704721B1028A42F435
:104F50008042028204E0028A4BF6FF731A4002820A
:104F60007047C1F308028280704701468888C0F309
:104F700008007047818941F0010181817047028BEF
:104F8000D2B20283028B42EA012202837047028B73
:104F900002F47F420283028B0A430283704721B1ED
:104FA000828A42F02002828204E0828A4FF6DF7316
:104FB0001A408282704721B1828A42F010028282B6
:104FC00004E0828A4FF6EF731A408282704721B163
:104FD000828A42F00802828204E0828A4FF6F773E6
:104FE0001A4082827047828A4FF6FB731A4082828F
:104FF000828A0A438282704721B1828A42F0020289
:10500000828204E0828A4FF6FD731A4082827047E2
:105010000246002013880B4201D0012000E000204E
:105020007047CA430280704770B502460B460024A1
:10503000002100250020C3F3421503F01F010126C3
:1050400006FA01F1012D02D19689314006E0022DC8
:1050500002D1168A314001E0968A31401C120126A5
:1050600006FA04F41688344011B10CB1012000E0B6
:10507000002070BD10B5002200230A1201249440C4
:10508000A3B2DC43048010BD004C004000BCFFBF55
:105090000038014000206949086048608860C860A5
:1050A00048628862C862664888630020C8637047A7
:1050B0000021624A516847F6FF6291430278C36853
:1050C0001A4383681A4303691A4343681A434369BE
:1050D0001A431143594A51607047002101704160E1
:1050E0008160C16001614161704756490860704745
:1050F0005249096821F00301504A116011460968BC
:105100000143116070474D48006800F0030070478C
:1051100029B14A4AD26B0243484BDA6304E0474A5A
:10512000D26B8243454BDA6370474749086070474A
:105130000021424B02689A601A46D1686FF30A0157
:10514000D0E901231A43C3681A4303691A43114380
:105150003A4AD16070470021016041608160C160BE
:105160000161704735480069C0B270470146334855
:105170000844406970470021304B02685A62426817
:105180009A621A46D16A21F0F701D0E902231A4344
:1051900003691A4343691A431143284AD16270478D
:1051A0004FF0FF310160002141608160C160016109
:1051B000416170472148006B704724480068704780
:1051C0002249086070471D48806C70471E491431A1
:1051D000086070471C491831086070471A491C3133
:1051E0000860704718492031086070471849086006
:1051F000704718490860704701218143164A1160C1
:105200007047164908607047014600200B4A526BF0
:105210000A4201D0012000E000207047074988635E
:10522000704701460020054A526B0A4201D0012016
:1052300000E000207047014988637047008001400A
:10524000FF07C000A00030428C0530428080014042
:10525000AC013042B0013042B4013042B8013042BA
:10526000016821F00101016000210160416081605D
:10527000C160864A811A90425BD012DC844AA0EB5E
:10528000020190423AD007DC824941181BD0142910
:1052900022D028297AD128E0142938D0282975D19C
:1052A0003EE0B1F56C7F5BD006DCB1F5627F49D0A2
:1052B000B1F5677F6AD14CE0B1F5717F57D0B1F598
:1052C000767F63D15BE072494439496841F00F0150
:1052D0006F4A443A51605AE06D494439496841F097
:1052E000F0016B4A443A516051E0694944394968D8
:1052F00041F47061664A443A516048E06449443977
:10530000496841F47041624A443A51603FE0604963
:105310004439496841F470215D4A443A516036E0AD
:105320005B494439496841F47001594A443A516033
:105330002DE057494439496841F07061544A443A74
:10534000516024E05449096841F00F01524A11604C
:105350001DE05149096841F0F0014F4A116016E023
:105360004D49096841F470614B4A11600FE04A49A8
:10537000096841F47041484A116008E006E0464976
:10538000096841F47021444A116000E000BF00BF89
:10539000704710B50022026847F6F0739A430C6A12
:1053A0008B6823430C6923434C6923438C69234353
:1053B000CC6923434C6A23438C6A23431A4302601B
:1053C000CB6843600B6883604B68C36010BD0021ED
:1053D000016041608160C160016141618161C161C1
:1053E000016241628162704721B1026842F00102AC
:1053F000026003E0026822F00102026070471AB105
:1054000003680B43036002E003688B43036070474B
:105410000146486880B2704701460020002211F022
:10542000805F03D01C4B1B1F1A6802E0184B443BE3
:105430001A680A4201D0012000E00020704710F0F5
:10544000805F02D01449086002E011494439486085
:10545000704701460020002211F0805F03D00E4B00
:105460001B1F1A6802E00A4B443B1A680A4201D02B
:10547000012000E00020704710F0805F02D0064954
:10548000086002E0024944394860704780000240E9
:1054900044000240F8FFFDBF0404024029B14F4A16
:1054A000128802434D4B1A8004E04C4A1288824312
:1054B0004A4B1A8070474948001D008840F0100090
:1054C0004649091D088070474448001D00884FF672
:1054D000EF7108404149091D0880704700213F488D
:1054E0001C300188001F008841EA0040704700B569
:1054F0000246FFF7E0FF100C384918310880091DFB
:105500000A80FFF7E1FF00BD00B50246FFF7D3FFB9
:10551000C2F30340314908310880091D0A80FFF7B2
:10552000D3FF00BD00B50246FFF7C5FF100C2B49A5
:1055300020310880091D0A80FFF7C6FF00BD00204A
:105540002649103109880907080B244914310988B4
:105550000843704700BF2148001D008810F0200F4D
:10556000F9D070471D48001D00884FF6F7710840BC
:105570001A49091D088000BF1848001D008810F056
:10558000080FF9D0704701460020144A121D1288F6
:105590000A4201D0012000E0002070470F49091D98
:1055A000098881430D4A121D118070470146002071
:1055B0000A4A121D12880A40D0B2084A12880A42CA
:1055C00002D008B1012000E0002070470349091D06
:1055D00009888143014A121D11807047002800404C
:1055E00010B50120FFF76AFB0020FFF767FB10BD35
:1055F0002249086070472149091F086070471F4908
:10560000843108607047014600201D4A10884FF61B
:105610007F42104008431A4A10807047014600201C
:10562000174A10884FF6807210400843144A1080C1
:105630007047134A2C3A81527047014610482C3863
:10564000085A70470D489C300068C0B270470C483B
:105650000830008840F0010009490831088070478F
:105660000648A0300068C0B270470548083000887E
:1056700040F00200024908310880704704860D425C
:105680002C6C004010B501210807FFF70AFB002130
:105690004FF08050FFF705FB10BD264908627047A8
:1056A00024490861704701460020234A106820F011
:1056B000E00008431060704720490860704710B54B
:1056C000024600201C4B186820F0030010431860AD
:1056D0001B4B1B6843F00403194C2360012901D1C3
:1056E00030BF00E020BF10BD1348006840F0040048
:1056F000114908600846006840F002000860104840
:10570000006840F004000E49086000BF00BF30BFD1
:10571000704701460020084A52680A4201D0012021
:1057200000E0002070470449096841EA8001024A0C
:105730001160704700000E4200700040A0000E4251
:1057400010ED00E010B50446F748201806D0B0F57B
:10575000806F0DD0B0F5C05F1ED113E0012148026B
:10576000FFF792FA00214FF40070FFF78DFA14E072
:1057700001218802FFF788FA00214FF48060FFF7CB
:1057800083FA0AE00121C803FFF77EFA00214FF4F3
:105790000040FFF779FA00E000BF00BF10BD30B550
:1057A0000246002000235068E04C20400D790C6830
:1057B00044EA0524204350609068DD4C2040D1E944
:1057C00002542C434D7944EA450420439060D06A4A
:1057D00020F470000C7C641E1C43E3B240EA0350CA
:1057E000D06230BD00210160017141718160C160F2
:1057F00001210174704721B1826842F00102826088
:1058000003E0826822F001028260704721B1826861
:1058100042F48072826003E0826822F480728260C7
:10582000704710B50023CBB21AB144681C434460E2
:1058300002E044689C43446010BD816841F0080167
:1058400081607047014600208A6812F0080F01D07D
:10585000012000E000207047816841F00401816070
:105860007047014600208A6812F0040F01D0012021
:1058700000E00020704721B1826842F4A0028260FB
:1058800003E0826822F4A002826070470146002093
:105890008A6812F4800F01D0012000E000207047D8
:1058A00010B50A4600210023416821F46041531ECF
:1058B00041EA4331416010BD21B1426842F40062C7
:1058C000426003E0426822F4006242607047F0B533
:1058D00004460D4600200021092D11DDE068A5F1E8
:1058E0000A0606EB4607072606FA07F18843A5F1E4
:1058F0000A0606EB460603FA06F10843E0600CE0F0
:10590000206905EB4507072606FA07F1884305EBF2
:10591000450603FA06F108432061072A0FDA606B97
:10592000561E06EB86071F2606FA07F18843561E09
:1059300006EB860605FA06F10843606322E00D2AAD
:105940000FDA206BD61F06EB86071F2606FA07F133
:105950008843D61F06EB860605FA06F10843206346
:1059600010E0E06AA2F10D0606EB86071F2606FA94
:1059700007F18843A2F10D0606EB860605FA06F14B
:105980000843E062F0BD21B1826842F48012826077
:1059900003E0826822F48012826070470146C86C7E
:1059A00080B2704763480068704721B1426842F492
:1059B0008062426003E0426822F480624260704785
:1059C00021B1426842F48052426003E0426822F40E
:1059D0008052426070470A460021816821F4E0410C
:1059E00011438160704721B1826842F400428260B5
:1059F00003E0826822F400428260704721B182682D
:105A000042F40212826003E0826822F40212826091
:105A10007047014600208A6812F4001F01D001205F
:105A200000E000207047F0B5044615460020002233
:105A30000026092911DDE068A1F10A0707EB470CF0
:105A4000072707FA0CF29043A1F10A0707EB470773
:105A500003FA07F21043E0600CE0206901EB410C0F
:105A6000072707FA0CF2904301EB410703FA07F20C
:105A700010432061A06BC0F30156EF1C06F1010C2E
:105A8000A7EB0C0707EB870C1F2707FA0CF29043D4
:105A9000EF1C06F1010CA7EB0C0707EB870701FAD7
:105AA00007F21043A063F0BD10B50A4600210023A1
:105AB000816B21F44011531E41EA0351816310BDF3
:105AC0004250704702465018806A80B270470A46BA
:105AD00000214168184B19401143416070474162F1
