:020000040800F2
:10000000000400207B550008450100084701000856
:100010004B0100084F0100085301000800000000D8
:10002000000000000000000000000000590100086E
:1000300057010008000000005B0100085D01000896
:100040009B5500089B5500089B5500087701000848
:100050009B5500089B5500089B550008CB010008E4
:100060009B5500089B5500089B550008A7010008F8
:100070009B5500089B5500089B5500089B550008A0
:100080009B5500089B5500089B5500089B55000890
:100090009B5500089B5500089B5500089B55000880
:1000A0009B5500089B5500089B5500089B55000870
:1000B0009B5500089B5500089B5500089B55000860
:1000C0009B5500089B5500089B5500089B55000850
:1000D0009B5500089B5500089B5500089B55000840
:1000E0009B5500089B5500089B5500089B55000830
:1000F0009B5500089B5500089B5500089B55000820
:100100009B5500086F0100089B5500089B5500088F
:100110009B5500089B5500089B5500089B550008FF
:100120009B5500089B5500089B550008B901000825
:10013000DFF80CD007F0D6F900480047013100087D
:1001400070180020704700BFFEE700BFFEE700BF49
:10015000FEE700BFFEE77047704770472148006820
:1001600020B120480068401E1E490860704710B545
:1001700002F007F810BD10B5012004F087FE88B129
:10018000012004F093FE01201749086004F052FE9C
:1001900004F014FE1549884204D1002004F017FE33
:1001A00004F048FE10BD10B5022004F0C2FD10B1ED
:1001B000012004F0D1FD10BD10B50D4804F0B9FDCB
:1001C00010B10C4804F0C8FD10BD10B5022005F0B8
:1001D000B9F930B18021084803F0C3FF0220074974
:1001E000086010BDB4010020C4010020805101004E
:1001F0000000021000000110000C01401404014036
:1002000070B52A25FE48446B01E0FD48446B14F0AC
:10021000450FFAD014F0040F05D00325042004F094
:100220006DFC284670BD14F0010F05D0012501209A
:1002300004F064FC2846F5E740F2FF5004F05EFC51
:100240002846EFE72DE9F04106460F464FF02A0811
:10025000EB48456B01E0EA48456B15F0450FFAD0D5
:1002600015F0040F07D04FF00308042004F046FCFB
:100270004046BDE8F08115F0010F06D04FF00108AF
:10028000012004F03BFC4046F3E704F0DBFBB04206
:1002900003D04FF010084046EBE740F2FF5004F067
:1002A0002DFC002004F0D2FB044614F4604F03D16F
:1002B000200C38804046DCE714F4005F01D01320A6
:1002C000D7E714F4804F01D01020D2E714F4004F88
:1002D00001D00F20CDE74046CBE738B52A240120D6
:1002E000009004F080FB10B92524204638BDC54895
:1002F0000068042829D00020C34908600220486013
:10030000C02088600020C8604FF480600861084603
:1003100004F07EFBFFF774FF04462A2C01D0204630
:10032000E4E7002004F092FBB8490860042004F0E0
:100330008DFBB6494860082004F088FBB34988600B
:100340000C2004F083FBB149C860AE48006858B186
:10035000AC480068012807D0AA480068062803D0E6
:10036000A8480068022817D10020A7490860032088
:100370004860402088600020C8604FF480600861B9
:10038000084604F045FB69460320FFF75BFF04467F
:100390002A2C01D02046A9E79A48006804282FD0CB
:1003A000BDF800009A490860BDF8000000049649B5
:1003B000086009204860C02088600020C8604FF4B1
:1003C00080600861084604F023FBFFF719FF04462C
:1003D0002A2C01D0204689E7002004F037FB8D4904
:1003E0000860042004F032FB8A494860082004F0C9
:1003F0002DFB884988600C2004F028FB8549C860E3
:100400002A24204672E770B52A257D48446B01E016
:100410007B48446B14F0450FFAD014F0040F05D05C
:100420000325042004F06AFB284670BD40F2FF500B
:1004300004F064FB2846F8E72DE9F04106462A2738
:100440006F48456B01E06E48456B15F0450FFAD0DB
:1004500015F0040F06D00327042004F04FFB3846A4
:10046000BDE8F08115F0010F05D00127012004F04F
:1004700045FB3846F4E704F0E5FAB04202D0102715
:100480003846EDE740F2FF5004F038FB002004F05E
:10049000DDFA04466048044201D13846E0E714F032
:1004A000004F01D01C20DBE714F0804F01D0092061
:1004B000D6E714F0005F01D00A20D1E714F0805F86
:1004C00001D00B20CCE714F0006F01D00C20C7E75F
:1004D00014F0806F01D00D20C2E714F0807F01D0AE
:1004E0000E20BDE714F4000F01D00F20B8E714F47C
:1004F000800F01D01020B3E714F4001F01D01120A9
:10050000AEE714F4801F01D01220A9E714F4002FE5
:1005100001D01320A4E714F4802F01D014209FE70A
:1005200014F4003F01D015209AE714F4803F01D065
:10053000162095E714F4004F01D0172090E714F42B
:10054000804F01D018208BE714F4005F01D01920F0
:1005500086E714F0080F01D01A2081E738467FE7BC
:1005600070B52A2642F210752548446B02E06D1ED4
:100570002348446B14F0450F01D1002DF7D115B17C
:1005800014F0040F05D00326042004F0B7FA304617
:1005900070BD14F0400F05D02A26402004F0AEFABA
:1005A0003046F5E73046F3E770B52A2542F210747D
:1005B00000E0641E24B1802004F096FA0028F8D0F0
:1005C00014B90325284670BD40F2FF5004F096FA96
:1005D0002846F8E72DE9F0412A24002600250027C7
:1005E0004FF00008B2200D49087000204860886074
:1005F000C86008614861084604F0CAF903200FE0AA
:1006000000800140000000202C0200200402002095
:1006100004000020F401002008E0FFFD1402002087
:1006200004F0D6F9012004F0D0F90020FE4908605A
:1006300048608860C8604FF480600861084604F034
:10064000E7F9FFF7B1FF04462A2C02D02046BDE8A7
:10065000F0814FF4D570F4490860082048604020CC
:1006600088600020C8604FF480600861084604F08C
:10067000CFF9FFF775FF04462A2C05D10120EB497D
:1006800008604FF0804812E00020E74908603720FA
:100690004860402088600020C8604FF48060086196
:1006A000084604F0B5F93720FFF7C6FE04460020DF
:1006B000DD49086037204860402088600020C8601D
:1006C0004FF480600861084604F0A2F93720FFF774
:1006D000B3FE04462A2C4CD138E00020D2490860F1
:1006E00037204860402088600020C8604FF4806058
:1006F0000861084604F08CF93720FFF79DFE044698
:100700002A2C01D02046A2E7C94848EA0000C64981
:10071000086029204860402088600020C8604FF4AD
:1007200080600861084604F073F9FFF76CFE044628
:100730002A2C01D020468AE7002004F087F90646DB
:10074000012080EAD67080F001076D1C1FB94FF6BA
:10075000FF708542C1D34FF6FF70854202D31B2440
:10076000204674E706F08040060002D00220AF4920
:10077000086020466BE708B50121302003F0DAFE5F
:100780004FF4F850ADF8000003208DF80200182057
:100790008DF803006946A74803F036FC0420ADF845
:1007A00000006946A44803F02FFC08BD38B52A2490
:1007B0000121082003F0BEFE2020ADF8000010202B
:1007C0008DF8030003208DF8020069469B4803F072
:1007D0001BFC2021994803F0C4FCFFF7CCFF01214A
:1007E000880203F09AFE0121022003F096FE04F035
:1007F000C1F8FFF7EFFE04462A2C01D0204638BD91
:10080000FFF76BFD04462A2C01D02046F7E70120B4
:100810008B490870002048608860C86008614861A2
:10082000084604F0B5F82046E9E710B52A24002070
:1008300004F0CEF8204610BD30B501462A20002233
:100840007A4B1B7881F84E307E4B1B88A1F84C30D8
:100850007D4B1B681A0E93090B70C2F383034B7018
:1008600002F003038B70784B1B68C3F30742CA7016
:10087000754B1B88C3F307220A71734B1A784A71B0
:100880005B681A0E1301CB806F4B5B68C3F30742A2
:10089000CB8843EA1213CB8002F00F030B726A4B32
:1008A0009B88C3F30722D3094B72C2F380138B7268
:1008B000C2F34013CB72C2F300130B7300234B73CC
:1008C0005A4B1B681BB1594B1B68012B3CD193073A
:1008D0001B0D0B615C4B1A790B6943EA82030B61B8
:1008E000594B9B681A0E0B6943EA92130B61C2F3D2
:1008F000C2030B7502F007034B75534B9B68C3F3A0
:10090000074253098B75C2F38203CB7593075B0FC4
:100910000B764D4B1B89C3F307220B7E43EAD213A0
:100920000B760B695B1C4B640C7E4B6CA41C012585
:10093000A5406B434B640C7A0123A3408B64D1E93F
:10094000113463434B6421E0384B1B68022B1DD1EB
:100950003D4B1A7993069B0A0B613B4B9B681A0E21
:100960000B6943EA02230B61374B9B68C3F30742D1
:100970000B6913430B61344B1B89C3F307220B69CB
:100980005B1CDB044B644FF400738B64C2F3801375
:1009900001F8193F93065B0E4B702B4B1A7A4B787C
:1009A00043EAD2134B7002F07F038B70264BDB6857
:1009B0001A0ED309CB70C2F341130B71C2F3820339
:1009C0004B7193071B0F8B711F4BDB68C3F30742FF
:1009D0008B7943EA92138B71C2F34013CB710023DE
:1009E0000B7202F001034B72174B9B89C3F3072272
:1009F000D3098B72C2F38013CB72C2F340130B7313
:100A0000C2F300134B73C2F381038B7302F0030331
:100A1000CB730D4B1A7B53080B7401234B740B4B98
:100A20001B681A0ECA7413E02C020020000000207C
:100A3000000010800010014000140140000C014033
:100A40001402002004000020F40100200402002011
:100A5000A1F11901FD4B1B68C3F307424FEA0224C1
:100A6000CC85FA4B1B88C3F30722CB8D43EA0203E4
:100A7000CB85F64B1A784FEA02640C635B684FEA49
:100A800013620B6B43EA02440C63F04B5B68C3F3E5
:100A900007420B6B43EA02240C63EC4B9B88C3F3C5
:100AA00007220B6B43EA02030B63E84B1A794FF002
:100AB00034035A54E54B9B684FEA13624FF03503F9
:100AC0005A54E24B9B68C3F307424FEA02648C63BB
:100AD000DE4B1B89C3F307228B6B43EA02448C6312
:100AE000DA4B1A7A8B6B43EA02248C63D74BDB68B0
:100AF0004FEA13628B6B43EA02038B63D34BDB68D1
:100B0000C3F307424FF03C035B5C43EA12144FF01F
:100B10003C035C544FEA02734FEA1354CC87CB4B2F
:100B20009B89C3F30722CB8F43EA0203CB87C74BD2
:100B30001A7B4FEA52044FF040035C544FF001041B
:100B40004FF041035C5430BD2DE9FC4107460D4692
:100B500000262A240020009001900820BC4908604B
:100B600010204860402088600020C8604FF48060FA
:100B70000861084603F04CFF1020FFF75DFC0446B7
:100B80002A2C02D02046BDE8FC81B248008800042F
:100B9000AF49086037204860402088600020C86066
:100BA0004FF480600861084603F032FF3720FFF7FA
:100BB00043FC04462A2C01D02046E4E7A648A74976
:100BC000086008204860302088600220C86000204B
:100BD000086101204861084603F03DFF00209C4960
:100BE000086033204860402088600020C8604FF4CF
:100BF00080600861084603F00BFF3320FFF71CFC00
:100C000004462A2C01D02046BDE709E04FF400102D
:100C100003F06AFF20B103F040FF4DF82600761C78
:100C20008F48406B40F22A610842EFD0082003F061
:100C30005BFF28B1082003F061FF04242046A2E7EF
:100C4000022003F051FF28B1022003F057FF0224D5
:100C5000204698E7202003F047FF28B1202003F02A
:100C60004DFF062420468EE74FF4007003F03CFF52
:100C700030B14FF4007003F041FF0724204682E7B3
:100C800040F2FF5003F03AFF00980006009901F48B
:100C90007F4140EA0120009901F47F0140EA1120E0
:100CA000009940EA1160686001980006019901F41A
:100CB0007F4140EA0120019901F47F0140EA1120BF
:100CC000019940EA1160286020465CE77CB5054642
:100CD0002A2400200090019003F0B8FE10F0007F5D
:100CE00002D00E2420467CBD5A49098888B2694644
:100CF000FFF72AFF04462A2C01D02046F3E7012DF6
:100D000037D1019810F4802F30D052480088000469
:100D10004F49086037204860402088600020C86044
:100D2000A8020861084603F073FE3720FFF784FB32
:100D300004462A2C01D02046D5E702204449086009
:100D400006204860402088600020C8604FF4806022
:100D50000861084603F05CFE0620FFF76DFB0446C1
:100D60002A2C01D02046BEE72046BCE72524204699
:100D7000B9E7019810F4803F31D03648008800046C
:100D80003349086037204860402088600020C860F0
:100D90004FF480600861084603F03AFE3720FFF701
:100DA0004BFB04462A2C01D020469CE70020284912
:100DB000086006204860402088600020C8604FF42A
:100DC00080600861084603F023FE0620FFF734FB2D
:100DD00004462A2C01D0204685E7204683E72524B7
:100DE000204680E770B504462A251E48006803287F
:100DF00002D12725284670BD1A48006838B1194825
:100E00000068012803D017480068022840D1B4F5D3
:100E1000805F02D127252846EDE7B4F5006F25D184
:100E20000120FFF753FF05462A2D31D101200E493D
:100E30000870002048608860C8604FF40060086156
:100E400000204861084603F0A3FD21E004020020D1
:100E50002C02002004000020FFFF0F0040020020B1
:100E60000080014000000020140200200020FFF755
:100E70002DFF05462A2D0BD10120F74908700020CF
:100E800048608860C86008614861084603F080FDDA
:100E90002846B0E701462A2019B1012901D00229CC
:100EA00002D1EE4A116000E02620704770B504467A
:100EB0002A25EB4804600720E94948604020886003
:100EC0000020C8604FF480600861084603F0A0FD70
:100ED0000720FFF7B1FA0546284670BD30B58BB044
:100EE00005460C46DF4803F01AFF0021DE4803F0F8
:100EF000EBFEDE480090019500200290A0080390D0
:100F000000200490802005908000069080000790CB
:100F1000002008904FF40050099000200A90694684
:100F2000D14803F0A6FE0121CF4803F0CDFE0BB05F
:100F300030BD0146002002E04910421CD0B2012918
:100F4000FAD170472DE9F04707460D4614464FF099
:100F50002A084FF000092E464FF0000A25B94FF03D
:100F600026084046BDE8F0872A20C14908700020C5
:100F7000C0490860C0490860C048C14908600020F5
:100F800048608860C86008614861084603F063FDF6
:100F9000002003F03AFD002003F058FD10F0007F20
:100FA00003D04FF00E084046DCE7B6480068022840
:100FB00001D104027F0A002C21DDB4F5006F1EDC94
:100FC000601E20421BD12046FFF7B3FF8246A44893
:100FD00004601020A2494860402088600020C8605A
:100FE0004FF480600861084603F012FD1020FFF7FF
:100FF00023FA8046B8F12A0F05D04046B2E74FF0F9
:1010000026084046AEE79D489D4908600846446072
:101010004FEA0A1088600220C860002008610120A1
:101020004861084603F017FD934804600020964984
:101030000860964805608A48076011208849486022
:10104000402088600020C8604FF480600861084636
:1010500003F0DEFC1120FFF7EFF98046B8F12A0F0C
:1010600001D040467EE77D480068022857D111E054
:101070004FF4004003F038FD60B14FF0000905E087
:1010800003F00BFD46F8290009F10109B9F1080F39
:10109000F6D3203675488038406B40F22A6108420A
:1010A000E6D0082003F020FD30B1082003F026FD33
:1010B0004FF00408404655E7022003F015FD30B11B
:1010C000022003F01BFD4FF0020840464AE72020B3
:1010D00003F00AFD30B1202003F010FD4FF00608A8
:1010E00040463FE74FF4007003F0FEFC38B14FF488
:1010F000007003F003FD4FF00708404632E703E0BD
:1011000003F0CBFC3060361D4FF4001003F0ECFC14
:101110000028F5D140F2FF5003F0F0FC2CE04F48DE
:101120000068012813D1012148F22A3003F060FC45
:1011300000BF5048006818B94D4800782A28F8D0F8
:101140004B4800782A2817D0494800780AE74348D6
:10115000006888B9012140F22A3003F049FC0120DF
:1011600003F053FC21462846FFF7B8FE00BF48486D
:1011700003F0C2FD0028FAD04046F3E62DE9F05F07
:1011800081460E4614461D464FF02A084FF0000ACD
:1011900037464FF0000B26B94FF026084046BDE811
:1011A000F09F2A20324908700020324908603249F5
:1011B0000860324832490860002048608860C86092
:1011C00008614861084603F046FC002003F01DFC5E
:1011D000002003F03BFC10F0007F03D04FF00E081E
:1011E0004046DCE727480068022802D104024FEAA3
:1011F0005929002C21DDB4F5006F1EDC601E204251
:101200001BD12046FFF795FE834615480460102049
:1012100013494860402088600020C8604FF4806017
:101220000861084603F0F4FB1020FFF705F980463B
:10123000B8F12A0F05D04046B1E74FF026084046E6
:10124000ADE7012D7DD905FB04F0B0F1007F21D37E
:101250004FF026084046A2E71402002008000020B4
:101260002C02002000F00010440402408080014065
:1012700014000020180000200C000020FFFF0F00C9
:101280004002002000000020100000202400002068
:101290000020001005FB04F0FE4908600120FE4913
:1012A0000860FE480660FE48FE49086005FB04F041
:1012B00048604FEA0B1088600220C8600020086177
:1012C00001204861084603F0C6FBF748C0F80090CB
:1012D0001220F5494860402088600020C8604FF423
:1012E00080600861084603F093FB1220FFF7A4F822
:1012F0008046B8F12A0F01D0404650E7EB4800681D
:1013000002287BD111E04FF4004003F0EDFB60B107
:101310004FF0000A05E003F0C0FB47F82A000AF18D
:10132000010ABAF1080FF6D32037E148406B40F2CA
:101330002A310842E7D0082003F0D6FB40B108204C
:1013400000E09EE003F0DAFB4FF00408404626E799
:10135000022003F0C9FB30B1022003F0CFFB4FF0B5
:10136000020840461BE7202003F0BEFB30B12020DE
:1013700003F0C4FB4FF00608404610E74FF400703E
:1013800003F0B2FB38B14FF4007003F0B7FB4FF03D
:101390000708404603E703E003F07FFB38603F1D8A
:1013A0004FF4001003F0A0FB0028F5D14FF480703B
:1013B00003F09AFB18B3BF48006838B1BD48006815
:1013C000022803D0BB480068012818D10020B64984
:1013D00008600C204860402088600020C8604FF4FE
:1013E00080600861084603F013FB0C20FFF724F827
:1013F0008046B8F12A0F02D04046D0E604E040F221
:10140000FF5003F07BFB3CE0A8480068012813D1A3
:10141000012148F22A3003F0EBFA00BFA648006829
:1014200018B9A64800782A28F8D0A44800782A28B5
:1014300027D0A2480078B2E69C48006808BB01218A
:1014400040F22A3003F0D4FA012003F0DEFA05FB63
:1014500004F13046FFF742FD00BF994803F04CFC11
:101460000028FAD000BF9448006818B99348007863
:101470002A28F8D0914800782A2802D08F4800788E
:101480008DE640468BE67CB504462A250020019077
:1014900000908C4800880004834908600D20486053
:1014A000402088600020C8604FF4806008610846D2
:1014B00003F0AEFA7E48406B009002E07C48406B3F
:1014C0000090009810F0450FF8D0009810F0040F2D
:1014D00005D00325042003F011FB28467CBD0098AD
:1014E00010F0010F05D00125012003F007FB28466D
:1014F000F4E703F0A7FA009000980D2802D0102519
:101500002846EBE740F2FF5003F0F8FA002003F022
:101510009DFA01900198C0F3432020706A49019818
:10152000084201D12846D9E7019810F0004F01D0B8
:101530001C20D3E7019810F0804F01D00920CDE79F
:10154000019810F0005F01D00A20C7E7019810F061
:10155000805F01D00B20C1E7019810F0006F01D02F
:101560000C20BBE7019810F0806F01D00D20B5E78B
:10157000019810F0807F01D00E20AFE7019810F4A1
:10158000000F01D00F20A9E7019810F4800F01D0BF
:101590001020A3E7019810F4001F01D011209DE74F
:1015A000019810F4801F01D0122097E7019810F4E1
:1015B000002F01D0132091E7019810F4802F01D063
:1015C00014208BE7019810F4003F01D0152085E727
:1015D000019810F4803F01D016207FE7019810F4A5
:1015E000004F01D0172079E7019810F4804F01D007
:1015F000182073E7019810F4005F01D019206DE7FF
:10160000019810F0080F01D01A2067E7284665E717
:1016100030B58BB005460C462C4803F080FB00210A
:101620002B4803F051FB2248803000900195102098
:101630000290A00803900020049080200590800074
:10164000069080000790002008904FF40050099009
:1016500000200A9069461E4803F00BFB01211C483C
:1016600003F032FB0BB030BD2DE9FF5F82460F4621
:1016700014462A25002003900290834600260190FC
:1016800080460090B94627B92625284604B0BDE813
:10169000F09F1FE00C00002010000020240000201C
:1016A000FFFF0F00400200202C0200200800002055
:1016B00000800140000000201800002014000020DD
:1016C000002000100400002008E0FFFD00F00010E2
:1016D000440402402A20F84908700020F7490860B5
:1016E000F7490860F748F8490860002048608860BA
:1016F000C86008614861084603F0ADF9002003F0B6
:1017000084F9002003F0A2F910F0007F04D00E2528
:10171000284604B0BDE8F09FEC480068022802D1DA
:1017200004024FEA5A2A002C20DDB4F5006F1DDCBC
:10173000601E20421AD12046FFF7FBFB0390E448CD
:1017400004601020E2494860402088600020C860A2
:101750004FF480600861084603F05AF91020FEF744
:101760006BFE05462A2D04D02846D2E726252846BA
:10177000CFE7D84800880004D54908600D204860AC
:10178000402088600020C8604FF4806008610846EF
:1017900003F03EF90D20FEF74FFE05462A2D01D03D
:1017A0002846B6E7002003F051F90190DFF814B3A2
:1017B0001EE0ABF1010BC74800880004C449086073
:1017C0000D204860402088600020C8604FF4806091
:1017D0000861084603F01CF90D20FEF72DFE0546B2
:1017E0002A2D01D0284694E7002003F02FF901901C
:1017F000019810F4807F02D1BBF1000FD9D1BBF169
:10180000000F01D1292084E7B148C0F800A01820BA
:10181000AF494860402088600020C8604FF4806075
:101820000861084603F0F4F81820FEF705FE0546A7
:101830002A2D01D028466CE7A14804600020A64963
:101840000860A64807609F489F49086008464460B2
:101850000398000188600020C86008610120486189
:10186000084603F0F8F89E48006802286AD139E07B
:101870004FF4804003F038F9A0B391480068801B12
:10188000202820D28E480078801B10F0030F04D14E
:101890008B480068801B800804E089480068801B32
:1018A0008008401C00904FF0000808E0D9F80000C4
:1018B00003F0F6F808F1010809F10409361D009853
:1018C00080450FD2F2E74FF0000805E059F82800F4
:1018D00003F0E6F808F10108B8F1080FF6D309F1B2
:1018E000200920367F48406B40F21A610842BFD081
:1018F000082003F0F9F828B1082003F0FFF80425C8
:10190000284606E7022003F0EFF828B1022003F092
:10191000F5F802252846FCE6102003F0E5F828B18A
:10192000102003F0EBF805252846F2E64FF400708E
:1019300003F0DAF8F0B34FF4007003F0DFF8072596
:101940002846E6E666480068012813D1012144F2E2
:101950001A3003F04DF800BF5848006818B95648CF
:1019600000782A28F8D0544800782A2828D05248ED
:101970000078CEE65A480068E0B9012140F21A30FA
:1019800003F036F821463846FFF742FE012003F007
:101990003CF800BF544803F0AFF90028FAD000BF6C
:1019A0004648006818B9444800782A28F8D04248C8
:1019B000007800E004E02A2802D03F480078A8E63A
:1019C00040F2FF5003F09AF802A8FFF75CFD0546CD
:1019D00003E002A8FFF757FD05462A2D07D19DF821
:1019E00008000728F5D09DF808000628F1D0284601
:1019F0008FE62DE9FE4F8346884614461E462A256B
:101A0000002002900190002781460090C246B8F164
:101A1000000F03D126252846BDE8FE8F2A2026493F
:101A20000870002025490860254908602548264996
:101A30000860002048608860C86008614861084606
:101A400003F009F8002002F0E0FF002002F0FEFFA2
:101A500010F0007F02D00E252846DDE71B48006805
:101A6000022802D104024FEA5B2B002C20DDB4F5E2
:101A7000006F1DDC601E20421AD12046FFF759FA84
:101A8000029013480460102011494860402088608B
:101A90000020C8604FF480600861084602F0B8FF7B
:101AA0001020FEF7C9FC05462A2D1FD02846B3E7B3
:101AB00026252846B0E7000014000020180000206A
:101AC0000C000020FFFF0F0040020020000000205B
:101AD0002C02002004000020100000202000002024
:101AE000080000200080014000200010FE4800880F
:101AF0000004FE4908600D204860402088600020F6
:101B0000C8604FF480600861084602F081FF0D2034
:101B1000FEF792FC05462A2D01D028467CE7012ECF
:101B20007AD906FB04F0B0F1007F02D326252846BF
:101B300072E7EF48006838B1ED480068012803D02B
:101B4000EB48006802282FD1E74800880004E749E5
:101B5000086037204860402088600020C8604FF44B
:101B600080600861084602F053FF3720FEF764FCEE
:101B700005462A2D01D028464EE7DC48066017208E
:101B8000DA494860402088600020C8604FF48060D7
:101B90000861084602F03CFF1720FEF74DFC0546A1
:101BA0002A2D01D0284637E7D048C0F800B01920C8
:101BB000CE494860402088600020C8604FF48060B3
:101BC0000861084602F024FF1920FEF735FC05469F
:101BD0002A2D01D028461FE706FB04F0C5490860FE
:101BE0000120C5490860C548C0F80080C448C549FF
:101BF000086006FB04F0486002980001886000203D
:101C0000C860086101204861084602F024FFBE4810
:101C1000006802287ED13AE0D0E04FF4804002F024
:101C200063FFA0B3B3480068C01B20280FD34FF058
:101C3000000905E05AF8290002F032FF09F1010914
:101C4000B9F1080FF6D30AF1200A20371FE0A9489E
:101C50000078C01B10F0030F04D1A6480068C01B19
:101C6000800804E0A3480068C01B8008401C009066
:101C70004FF0000908E0DAF8000002F011FF09F166
:101C800001090AF1040A3F1D00988145F3D39F48DA
:101C9000406B40F21A310842BFD0082002F024FF06
:101CA00028B1082002F02AFF04252846B4E60220C5
:101CB00002F01AFF28B1022002F020FF0225284678
:101CC000AAE6102002F010FF28B1102002F016FF43
:101CD00005252846A0E64FF4007002F005FF30B15C
:101CE0004FF4007002F00AFF0725284694E64FF4EF
:101CF000807002F0F9FE002860D07D48006838B19D
:101D00007B480068012803D079480068022855D133
:101D1000002000E015E0754908600C204860402074
:101D200088600020C8604FF480600861084602F0B7
:101D30006FFE0C20FEF780FB05462A2D3ED028467C
:101D40006AE671480068012813D1012144F21A3073
:101D500002F04EFE00BF6E48006818B96D4800786A
:101D60002A28F8D06B4800782A2827D069480078BC
:101D700052E66548006808BB012140F21A3002F0C3
:101D800037FE012002F041FE06FB04F14046FFF75A
:101D90003FFC00BF604802F0AFFF0028FAD000BF50
:101DA0005B48006818B95B4800782A28F8D0594881
:101DB00000782A2802D0574800782DE640F2FF50DC
:101DC00002F09CFE01A8FFF75EFB054603E001A8B8
:101DD000FFF759FB05462A2D07D19DF80400072877
:101DE000F5D09DF804000628F1D0284614E64748AF
:101DF000406B10F4405F01D0012070470020FCE7E9
:101E000010B52A240020394908600C204860402081
:101E100088600020C8604FF480600861084602F0C6
:101E2000F7FD0C20FEF708FB0446204610BD2DE907
:101E3000FC4105460E462A24002700200190009010
:101E400036484068202111EA105F03D1252420463E
:101E5000BDE8FC812D484068C0B2801C3049B1FB10
:101E6000F0F00190002002F0F1FD10F0007F02D0B0
:101E70000E242046ECE71E480068022801D16D0AB6
:101E8000760A1B48006838B119480068012803D059
:101E90001748006802284CD11448056020201349D7
:101EA0004860402088600020C8604FF4806008616E
:101EB000084602F0ADFD2020FEF7BEFA04462A2CAB
:101EC00001D02046C4E70948066021200749486040
:101ED000402088600020C8604FF480600861084698
:101EE00002F096FD21201DE0040000202C020020BD
:101EF000000000200C000020100000202000002026
:101F0000FFFF0F0040020020080000200080014079
:101F1000180000201400002000200010F401002010
:101F200040190100FEF788FA04462A2C01D0204609
:101F30008EE70020FE490860262048604020886027
:101F40000020C8604FF480600861084602F060FD20
:101F50002620FEF771FA04462A2C01D0204677E7A6
:101F6000002700E07F1C01988742FBD36846FFF7FB
:101F70008AFA044603E06846FFF785FA04462A2CED
:101F800007D19DF800000728F5D09DF8000006282D
:101F9000F1D020465CE770B504462A2514B9262501
:101FA000284670BDE34800880004E14908600D2020
:101FB0004860402088600020C8604FF4806008615D
:101FC000084602F025FD0D20FEF736FA05462A2DBB
:101FD00001D02846E5E7002002F038FD20602846C1
:101FE000DFE770B504462A260025002002F02EFD0A
:101FF00010F0007F02D00E26304670BD4020CC4944
:10200000086010204860402088600020C8604FF4BD
:1020100080600861084602F0FBFC1020FEF70CFA15
:1020200006462A2E01D03046E7E7C2480088000461
:10203000BF49086037204860402088600020C860A1
:102040004FF480600861084602F0E2FC3720FEF79A
:10205000F3F906462A2E01D03046CEE7B648B749F6
:10206000086040204860602088600220C86000202E
:10207000086101204861084602F0EDFC0020AC49EF
:1020800008600D204860402088600020C8604FF440
:1020900080600861084602F0BBFC0D20FEF7CCF919
:1020A00006462A2E01D03046A7E70EE04FF4004046
:1020B00002F01AFD48B1002504E002F0EEFC44F8FD
:1020C00025006D1C082DF8D320349D48406B40F24C
:1020D0002A610842EAD0082002F006FD28B1082053
:1020E00002F00CFD0426304687E7022002F0FCFCDB
:1020F00028B1022002F002FD022630467DE72020B2
:1021000002F0F2FC28B1202002F0F8FC062630464E
:1021100073E74FF4007002F0E7FC30B14FF4007049
:1021200002F0ECFC0726304667E703E002F0B5FC5E
:102130002060241D4FF4001002F0D6FC0028F5D1D9
:1021400040F2FF5002F0DAFC403C002515E014F8A4
:102150002500000634F8251001F47F4140EA0120F3
:1021600054F8251001F47F0140EA112054F825109D
:1021700040EA116044F825006D1C102DE7D330466D
:102180003BE770B5002400256E480068012867D140
:10219000C00302F0B6FCA8B100BF06E002F07DFC6F
:1021A0006949096841F82400641C082CF6D3664884
:1021B0000068203064490860644800682030634942
:1021C00008604DE04FF4804002F09BFC002847D0AF
:1021D0005F4800685D490968401A20282BD25C4896
:1021E00000785A490968401A10F0030F06D1584880
:1021F000006856490968401A800806E0544800689B
:1022000052490968401A8008401C054600240FE026
:1022100050490968086802F043FC641C4D48006896
:10222000001D4C49086049480068001D4749086086
:10223000AC42EDD314E0002406E04649096851F8A9
:10224000240002F02DFC641C082CF6D341480068E1
:102250002030404908603D48006820303B49086014
:102260004FF4807002F04DFCD8B336480068D0B10E
:102270000EE002F012FC3449096808603248006838
:10228000001D3149086031480068001D2F49086071
:102290004FF4001002F028FC28B12C4800682C49AB
:1022A00009688842E5D32C480068012804D1FFF76B
:1022B000A7FD2A49087002E02A20284908704FF437
:1022C000807002F028FC00214CF23A3002F090FBC2
:1022D00001202349086000201C4908601F4800783D
:1022E00070BDFFE7022002F00CFC70B1022002F08A
:1022F00012FC00214CF23A3002F07AFB0020134924
:102300000860022015490870EAE7082002F0F9FB8E
:1023100040B3082002F0FFFB00214CF23A3002F0FB
:1023200067FB00200949086004200C490870D7E7C2
:102330002C02002004000020FFFF0F0040020020BC
:102340000080014008000020240000201C00002024
:102350000C000020200000201000002014000020AD
:1023600018000020FFE7202002F0CBFB70B12020F6
:1023700002F0D1FB00214CF23A3002F039FB002090
:1023800017490860062017490870A9E7102002F0D5
:10239000B8FB70B1102002F0BEFB00214CF23A30C5
:1023A00002F026FB00200E49086005200D49087048
:1023B00096E74FF4007002F0A4FB78B14FF4007080
:1023C00002F0A9FB00214CF23A3002F011FB002090
:1023D0000349086007200349087081E72A207FE746
:1023E0001C0000201400002001B5F7490098086087
:1023F00000BFF54800680028FBD108BDF24800681E
:1024000020B1F1480068401EEF490860704710B5E0
:1024100003F03BF910BD2DE9F0438DB00446214691
:10242000684604F096FC06002ED1204605F033F8ED
:10243000C5B21EE09DF8240010F0100F13D009F172
:1024400001001FFA80F92F2060556119481C0DF119
:10245000250105F027F82046FFF7DDFF064600209E
:10246000605536B10FE008F101001FFA80F80798B7
:10247000074407A9684604F0A0FC060003D19DF8B4
:1024800025000028D6D100BF30460DB0BDE8F0834E
:1024900070B5B4B004460D461646204601F050F91A
:1024A000002E39D0A079A979401A022832DBE878C9
:1024B000E17888421FD00222C4A1C64804F048F83F
:1024C000C8B90120C4490860C44901A805F05AF8F8
:1024D000C048C16804F05DFBC1490870BE4BC92209
:1024E00001A9BC4804F0E8F9BD490870B94804F0F6
:1024F00045FBBB49087060796871A079A871E079E3
:10250000E87120882880A078A870E078E870012021
:1025100034B070BD0020FBE70120F9E710B5802141
:10252000B04801F01EFE2021AE4801F01AFE012144
:10253000AD4802F010FE0A20FFF756FF0021AA481E
:1025400002F009FEA948808BA94908840121A94805
:1025500002F001FE0A20FFF747FF0021A54802F024
:10256000FAFDA5488088A249488480219D4801F051
:10257000F8FD20219B4801F0F2FD01219A4802F06C
:10258000EAFD0A20FFF730FF0021974802F0E3FD43
:102590009648808B964988840121964802F0DBFD9D
:1025A0000A20FFF721FF0021924802F0D4FD924853
:1025B00080888F49C88480218A4801F0D0FD20217D
:1025C000884801F0CEFD0121874802F0C4FD0A20B1
:1025D000FFF70AFF0021844802F0BDFD8348808B8D
:1025E000834908850121834802F0B5FD0A20FFF7E1
:1025F000FBFE00217F4802F0AEFD7F4880887C49C9
:1026000048858021774801F0AAFD2021754801F016
:10261000A6FD0121744802F09EFD0A20FFF7E4FEAA
:102620000021714802F097FD7048008870490880C9
:102630006E48408848806D48808888806B48C08894
:10264000C8806A480089088168484089488167488D
:10265000808988816548C089C8816448008A8882E9
:102660006248408AC8826148808A08835F48C08A7D
:1026700048835E48008B88835C48408BC8835B48F6
:10268000808B888501215B4802F065FD0A20FFF7F9
:10269000ABFE0021574802F05EFD574800885449C0
:1026A000088255484088488253488088C88510BDB4
:1026B00000202FE000EB4001504A52F8211000EBBF
:1026C00040024E4B03EB820252681144484A32F8F2
:1026D00010204FF4A5735A43514300EB4002474B7F
:1026E00003EB820252681203B1FBF2F1404A22F876
:1026F0001010114631F8101000EB400203EB82027B
:10270000926851436422B1FBF2F1394A22F8101069
:10271000411CC8B21828CDDB704735490988344AB6
:10272000118601200EE0324931F81020411E304B55
:1027300033F81110511A8AB203F1300121F8102038
:10274000411CC8B21828EEDB704710B50446182C9F
:1027500072D2DFE804F00C255F7890A8BED4FAF3BB
:10276000F2F1F0EFEEEDECEBEAE9E8E7E6E5204820
:10277000303030F81400224931F81410884209DC56
:102780004FF40041174801F0ECFC8021154801F09E
:10279000E6FC04E04FF40041124801F0E0FC58E28E
:1027A0001348303030F81400154931F814108842BD
:1027B0002ADC4FF40071134801F0D3FC8021094852
:1027C00001F0CDFC25E00000B40100206C6F672E05
:1027D0007478740078110020C0010020207900086E
:1027E000B9010020000C014000240140DC1500204C
:1027F00094020020003C0140541600205C000020A0
:102800007C010020001401404FF40071FB4801F0EE
:10281000A6FC1EE2FA4830F81400FA4931F8141008
:1028200088420ADC4FF40061F44801F09AFC8021F0
:10283000F54801F094FC05E00AE24FF40061EF482E
:1028400001F08DFC05E2EE4830F81400ED4931F856
:102850001410884209DC4FF40051E84801F081FC73
:102860008021E94801F07BFC04E04FF40051E3488B
:1028700001F075FCEDE1E24830F81400E14931F86F
:102880001410884209DC4FF40041DC4801F069FC77
:102890008021DD4801F063FC04E04FF40041D7489B
:1028A00001F05DFCD5E1D64830F81400D54931F887
:1028B0001410884208DC0821D44801F052FC802121
:1028C000D14801F04CFC03E00821D04801F047FC5E
:1028D000BFE1CB4830F81400CA4931F814108842DF
:1028E00008DC2021C94801F03CFC8021C64801F0E9
:1028F00036FC03E02021C54801F031FCA9E1C048C5
:1029000030F81400BF4931F81410884218DC8021D7
:10291000BE4801F026FC8021BB4801F020FC13E0FA
:1029200080E158E13FE126E10FE1F8E0E1E0CAE0B3
:10293000B1E098E07FE066E04DE034E01BE004E0C9
:102940008021B24801F00BFC83E1AD4830F814005F
:10295000AC4931F81410884208DC4021AC4801F041
:1029600000FC8021A84801F0FAFB03E04021A848C0
:1029700001F0F5FB6DE1A24830F81400A14931F8EF
:102980001410884209DC4FF48071A14801F0E9FB82
:1029900080219D4801F0E3FB04E04FF480719C48E6
:1029A00001F0DDFB55E1964830F81400954931F807
:1029B0001410884209DC4FF48071964801F0D1FB75
:1029C0008021914801F0CBFB04E04FF480719148E5
:1029D00001F0C5FB3DE18A4830F81400894931F81F
:1029E0001410884209DC4FF480618A4801F0B9FB79
:1029F0008021854801F0B3FB04E04FF480618548F5
:102A000001F0ADFB25E17E4830F814007D4931F836
:102A10001410884209DC4FF480517E4801F0A1FB7C
:102A20008021794801F09BFB04E04FF48051794804
:102A300001F095FB0DE1724830F81400714931F84E
:102A40001410884209DC4FF48041724801F089FB80
:102A500080216D4801F083FB04E04FF480416D4814
:102A600001F07DFBF5E0664830F81400654931F867
:102A70001410884209DC4FF48061654801F071FB55
:102A80008021614801F06BFB04E04FF480616048F5
:102A900001F065FBDDE05A4830F81400594931F87F
:102AA0001410884209DC4FF48051594801F059FB59
:102AB0008021554801F053FB04E04FF48051544805
:102AC00001F04DFBC5E04E4830F814004D4931F897
:102AD0001410884208DC0221484801F042FB8021A2
:102AE000494801F03CFB03E00221444801F037FB78
:102AF000AFE0434830F81400424931F814108842DE
:102B000008DC08213D4801F02CFB80213E4801F003
:102B100026FB03E00821394801F021FB99E0384801
:102B200030F81400374931F81410884208DC2021AD
:102B3000324801F016FB8021334801F010FB03E01E
:102B400020212E4801F00BFB83E02D4830F81400C3
:102B50002C4931F81410884208DC8021274801F004
:102B600000FB8021284801F0FAFA03E08021234885
:102B700001F0F5FA6DE0224830F81400214931F8EF
:102B80001410884209DC4FF48061204801F0E9FA12
:102B900080211D4801F0E3FA04E04FF480611B48F6
:102BA00001F0DDFA55E0164830F81400154931F807
:102BB0001410884209DC4FF48051144801F0D1FA16
:102BC0008021114801F0CBFA04E04FF480510F4806
:102BD00001F0C5FA3DE00A4830F81400094931F81F
:102BE0001410884218DC4FF48041084801F0B9FA0B
:102BF0008021054801F0B3FA13E000000014014001
:102C0000C40200207C010020000C01400020014093
:102C100000100140000801404FF48041FE4801F0DF
:102C20009EFA16E0FD4830F81400FD4931F8141002
:102C3000884208DC0821FB4801F093FA8021F9481A
:102C400001F08DFA03E00821F64801F088FA00E06F
:102C500000BF00BF10BD10B5BCB0002004F0CEFB1B
:102C6000F149002003F061FC0B2000F0B4FB3B2095
:102C700000F0B1FB122000F0AEFB122000F0ABFB25
:102C800033A800F05DFD0622AFF2C041E74803F033
:102C90005FFCA8BB0120E6490860E64901A804F0F2
:102CA00071FCE34BC72201A9E04803F005FE04468E
:102CB000BDF8CC0040029DF8CE1001F00F0100EBF2
:102CC00041109DF8CE1001F01F01084480B2ADF80C
:102CD000DC009DF8D100C0029DF8D21001F03F0148
:102CE00000EB41109DF8D31001F03E0100EB4100D4
:102CF00080B2ADF8DC00CD4803F040FF044600E0B0
:102D000003E0CDA004F02EFC02E0D0A004F02AFCE9
:102D10000B2000F054FB3B2000F051FB122000F090
:102D20004EFB122000F04BFB3CB010BD30B599B00B
:102D3000002004F063FBBC49002003F0F6FB0B20ED
:102D400000F049FB3B2000F046FB122000F043FB63
:102D5000122000F040FB0222AFF29051B34803F082
:102D6000F7FB002870D10120B149086010A800F0DD
:102D7000E7FC9DF847009DF846109DF845209DF81A
:102D80004330CDE90032CDE902109DF84230BDF864
:102D90004020B3A106A804F0F5FBA448C16803F0E5
:102DA000F8FE0546A24B1B2206A9A04803F084FDAD
:102DB00005469E4803F087FE0546002419E09B481F
:102DC000C16803F0E6FE05469448303830F8142018
:102DD000ADA104A804F0D6FB954B072204A99348A3
:102DE00003F06AFD0546914803F06DFE0546601C40
:102DF000C4B2182CE3DB0DA800F0A2FCBDF834002F
:102E000040029DF8361001F00F0100EB41109DF8D3
:102E1000361001F01F01084480B2ADF850009DF853
:102E20003900C0029DF83A1001F03F0100EB41105B
:102E30009DF83B1001F03E0100EB410080B2ADF87F
:102E400050007A4803F09AFE0B2000F0B8FA3B20BD
:102E500000F0B5FA122000F0B2FA122000F0AFFA3A
:102E600019B030BD30B59BB0342101A804F008FB87
:102E7000002004F0C3FA6C49002003F056FBAFF2C7
:102E8000B4610DF15D0004F00DFB01A90EA803F083
:102E900060FF002840D138E09DF85C0010F0200F62
:102EA00033D09DF85D0000B935E00DF15D0178A0EB
:102EB00004F058FB01220DF15D015C4803F048FB72
:102EC000054601205A490860002400BF002403E0A1
:102ED000002076490855641CB4F5007FF8D3744B84
:102EE0004FF400727149514803F0F6FB05466F49F3
:102EF00070A004F037FB1DB96D4800680028E5D1CB
:102F000000BF00BF494803F039FE15A90EA803F021
:102F100054FF0028C0D000BF1BB030BD00B585B045
:102F2000012144F2040001F005FB00214FF4804030
:102F300001F01AFB4FF40070ADF8100003208DF87B
:102F4000120018208DF8130004A95C4801F05CF809
:102F50004FF48060ADF8100004208DF8130004A930
:102F6000564801F051F84FF4E13000900020ADF8E0
:102F70000400ADF80600ADF80800ADF80C000C2018
:102F8000ADF80A0069464E4801F085FB012240F287
:102F900027714B4801F0F9FB012240F225514848C6
:102FA00001F0F3FB0121464801F0E3FB05B000BD51
:102FB00008B54FF4C06000F051FF31208DF80000DB
:102FC00000208DF801008DF8020001208DF803002B
:102FD000684600F048FF03208DF8000001208DF8BE
:102FE000010000208DF8020001208DF803006846E2
:102FF00000F039FF0B208DF8000001208DF8010052
:1030000000208DF8020001208DF80300684600F0D2
:103010002AFF3B2056E0000000200140C4020020AF
:103020007C010020000C0140480F00207811002096
:10303000C0010020EC7900080A0D46696C65206328
:1030400072656174656420210A0D00000A0D4669ED
:103050006C65206578697374656420210A0D000031
:103060000D0A54696D653A202534642D2532642D8E
:103070002532642025302E32643A25302E32643ACF
:1030800025302E3264200000202025356400000009
:103090000A0D2066696C65206E616D652069733A62
:1030A0000D0A0D20202025730D0A00009C1300201E
:1030B000BC01002025730D0A0D000000000801402E
:1030C000003801408DF8000001208DF8010000203B
:1030D0008DF8020001208DF80300684600F0C3FE61
:1030E00007208DF8000002208DF8010000208DF8E7
:1030F000020001208DF80300684600F0B4FE08BD10
:103100008AB0002400BFFFF782F9B74800684FF487
:103110007A72B0FBF2F1B1F1807F00D31DE021F0B3
:103120007F40401E4FF0E022506150170F220028D0
:1031300007DA13071E0EAD4B00F00F052D1F5E556D
:1031400003E013071D0EAA4B1D5400BF00204FF0D3
:10315000E02290610720106100BFFFF729FFFFF711
:10316000DDFE00F0EBFD00F04FFC00F05BFDFDF735
:103170001DFBA0490870084600782A2804D19E4803
:10318000FDF75AFB9B4908709A4800782A2807D116
:103190009949B1F84C100804FDF788FE954908706C
:1031A000944800782A2807D10120FDF773FE914941
:1031B000087092A004F0D6F9042001F0AEFEA0F54C
:1031C0002541A53913D091A004F0CCF900F037FBCC
:1031D00096A004F0C7F907A800F05DFB07A800F06F
:1031E000CCFA4AF2A551042001F093FE1DE07B20A9
:1031F00001F07AF818B193A004F0B4F906E07A204F
:1032000001F072F810B197A004F0ACF99DA004F0A1
:10321000A9F901F017FE0121084601F0AFFD01F008
:1032200009FEAFF27C1004F09DF901F0C1F9FFF73F
:1032300012FD01219B4801F047FD01219A4801F050
:1032400043FD07A800F07CFA04A800F079FA9DF885
:103250001F309DF81E20BDF81C1094A004F082F9C8
:10326000974804F07FF935E0FFF758F9FFF720FAA7
:10327000FFF753FA9DF823009DF822109DF82120B6
:10328000CDE9002102909DF81F309DF81E20BDF869
:103290001C10AFF2342004F065F9002408E08948DE
:1032A00030F81410AFF2202004F05CF9601CC4B2B6
:1032B000182CF4DB8021844800F051FF41F2883063
:1032C000FFF792F88021804800F04BFF41F28830F0
:1032D000FFF78AF8C8E710B50446E1B27B4801F071
:1032E000B0FA00BF7948008810F0800FFAD020466D
:1032F00010BD10B500BF7548008810F0200FFAD03F
:10330000724801F0A2FA10BD70B5054600240CE029
:1033100000BF20216D4801F0EBFA0028F9D06B487E
:1033200001F093FA2855601C84B2042CF0D370BDD0
:1033300070B504460D46E1B2644801F082FA00BF60
:103340004021624801F0D4FA0028F9D0204670BD2F
:103350007CB5054600240020009001901BE000BFD2
:1033600020215A4801F0C4FA0028F9D0574801F04A
:103370006CFA2146641C4DF82100601E5DF82000A7
:10338000302804D3601E5DF82000392803D950A0EE
:1033900004F0E8F8641E022CE1D30198303800995B
:1033A000303901EB810100EB4104AC4205D92946DB
:1033B00053A004F0D7F8FF207CBDE0B2FCE700F09A
:1033C0001F020121914042094FF0E02303EB8202EA
:1033D000C2F80011704700F01F0201219140544AC9
:1033E000430942F823107047087B000818ED00E0FD
:1033F00000E400E0AF010020F80200200D0A0D54A7
:10340000455354204F4B210D0A0D00000D0A0A2090
:10341000525443206E6F742079657420636F6E661A
:103420006967757265642E2E2E2E00000D0A2052DB
:10343000544320636F6E666967757265642E2E2E25
:103440002E0000000D0A0A20506F776572204F6E23
:10345000205265736574206F636375727265642EA4
:103460002E2E2E000D0A0A2045787465726E616C4E
:10347000205265736574206F636375727265642E84
:103480002E2E2E000D0A204E6F206E65656420746E
:103490006F20636F6E666967757265205254432EA4
:1034A0002E2E2E00080002405804024025303264BF
:1034B0002D253032642D253032640A0D00000000C5
:1034C000EC79000894020020000C01400038014013
:1034D0000A0D0D506C6561736520656E7465722010
:1034E00076616C6964206E756D62657220626574C8
:1034F0007765656E203020616E6420390000000021
:103500000A0D0D506C6561736520656E74657220DF
:1035100076616C6964206E756D6265722062657497
:103520007765656E203020616E64202564000000A0
:1035300080E100E001468A78032A01DB0A2A01DDE6
:10354000002070470B79C878C01A192807DB13B917
:103550004879022803DB0A2A05D10020F1E7032A73
:1035600001D10020EDE70120EBE72DE9F041044611
:1035700094F80580E5782679A7782046FFF7DAFFEA
:1035800008B30120207208F1010000F0FF08B8F133
:10359000180F10D14FF00008701CC6B2072E00D1D2
:1035A0000026781EF049085CA84202D10025781C4C
:1035B000C7B2681CC5B2A77084F80580E570267193
:1035C0000120BDE8F0810020207200BFF9E72DE95D
:1035D000F04102463C27B2FBF7FC07FB1C27CF71EA
:1035E0003C27B2FBF7F2B2FBF7FC07FB1C278F71FD
:1035F0003C27B2FBF7F21827B2FBF7FC07FB1C27AE
:103600004F711827B2FBF7F7B8B2871D4FF0070CC0
:1036100097FBFCF80CFB18770F710023012600BF05
:1036200040F26D1513F0030F0BD16D1C1BB1642B11
:1036300001D0C82B05D1771EFFB23E0001D040F269
:103640006D15A84200DA04E0471BB8B25F1CFBB25C
:10365000E6E700BF03F5FA670F8015F0010F03D00E
:103660003A2801DD471CB8B2012408E0671EDFF8E4
:10367000F8C21CF80770C71BB8B2671CFCB2671E03
:10368000DFF8E4C21CF807708742EFDD8C70471C3E
:10369000CF70BDE8F081F0B5024600BF118840F25E
:1036A0006D1401FB04F01488012C0FDBCC1CE61711
:1036B00004EB967600EBA6004C1E642694FBF6F411
:1036C000001B4C1EB60094FBF6F42044A74C001BD4
:1036D0009478641EA5B2002304E0A34CE45C20446B
:1036E0005C1CE3B2AB42F8DB4FF4C87691FBF6F713
:1036F00006FB171686B1CE1701EB9676B610B1EB26
:10370000860605D1642691FBF6F706FB17161EB94F
:103710009478022C00DD401ED4782044441E944E40
:1037200074435679C6EB4617C7EB062604EB06141E
:103730009679C6EB061604EB8604D679A019F0BD7F
:1037400070B5044600BF01F039FB054601F036FBB9
:103750008542F8D121462846FFF739FF2046FFF77A
:1037600004FF012070BD10B5044601F063FB204644
:1037700001F02DFB01F05EFB10BD3EB5054628466D
:10378000FFF789FF044669462046FFF720FF684699
:10379000FFF7D0FE08B1A4F561642046FFF7E3FF10
:1037A00001203EBD08B501214FF0C05000F0CFFE12
:1037B0000020009004E0BDF80000401C80B20090A2
:1037C000BDF8000041F288318842F4DB042001F0AA
:1037D000A4FBA0F52541A5392DD0012001F0CDFB9A
:1037E00001F06EFB012000F015FE00BF412000F04B
:1037F0007BFD0028FAD04FF4807000F024FE0120F9
:1038000000F027FE01F01EFB01F014FB47F6FF70ED
:1038100001F0EAFA01F00EFB4AF2947001F0D7FAD7
:1038200001F008FB4AF2A551042001F072FB0020D0
:1038300001F0A3FB01E001F005FB002008BD10B57D
:1038400001214FF0C05000F082FE012001F095FBF5
:1038500001F036FB012000F0DDFD00BF412000F04B
:1038600043FD0028FAD04FF4807000F0ECFD0120F9
:1038700000F0EFFD01F0E6FA01F0DCFA0121084664
:1038800001F07CFA01F0D6FA47F6FF7001F0ACFACD
:1038900001F0D0FA10BD10B50446FF206071A07190
:1038A000E071E070A0702080324803F05BFE32A02F
:1038B00003F058FE03E01720FFF74AFD60716079BE
:1038C000FF28F8D0617932A003F04CFE32A003F05B
:1038D00049FE03E03B20FFF73BFDA071A079FF28E4
:1038E000F8D0A1792AA003F03DFE31A003F03AFE02
:1038F00003E03B20FFF72CFDE071E079FF28F8D0D2
:10390000E17923A003F02EFE2FA003F02BFE03E0AD
:103910001F20FFF71DFDE070E078FF28F8D0E17868
:103920001BA003F01FFE2DA003F01CFE03E00C20E3
:10393000FFF70EFDA070A078FF28F8D0A17814A0A2
:1039400003F010FE2BA003F00DFE05E06320FFF74F
:10395000FFFC00F5FA6020802088FF28F6D021883F
:103960000BA003F0FFFD10BDB47A000875250B0015
:1039700080510100C07A00080D0A2020506C65615A
:1039800073652053657420486F75727300000000E2
:103990003A202025640000000D0A2020506C65614B
:1039A000736520536574204D696E757465730000EE
:1039B0000D0A2020506C6561736520536574205397
:1039C00065636F6E647300000D0A2020506C6561A2
:1039D0007365205365742044617900000D0A20202E
:1039E000506C6561736520536574204D6F6E74680B
:1039F000000000000D0A2020506C656173652053A3
:103A0000657420596561720070B50F24032501218A
:103A100048F29C2000F08EFDBB4800F07EFBFF20AA
:103A2000B94908800020C870B84800F0EDFAB648DF
:103A300000F073FB0320B44908800020C870B4482C
:103A400000F0E2FAB04800F068FB3F20AE49088081
:103A50000020C870AF4800F0D7FAAB4800F05DFB1B
:103A60004FF4F860A84908800020C870AA4800F008
:103A7000CBFAAA4801F0D6FAA94801F023FB0020AE
:103A8000A7490860012C01DD012000E00020A449C5
:103A90000871012048714FF4602088600020C860E0
:103AA000084604749D4801F0EAFA07230622002123
:103AB0009A4801F07CFB07230D220121974801F071
:103AC00076FB072305220221944801F070FB0723AF
:103AD0000C220321914801F06AFB072304221146BE
:103AE0008E4801F064FB07230B2205218B4801F06F
:103AF0005EFB072303220621884801F058FB0723B9
:103B00000A221946854801F052FB072301220821A9
:103B1000824801F04CFB072308220A217F4801F06C
:103B200046FB07230F220B217C4801F040FB0723B3
:103B30001A460C21794801F03AFB07230E220D2189
:103B4000764801F034FB072302220E21734801F06E
:103B50002EFB072309220F21704801F028FB0121C9
:103B60006E4801F0B8FA01216C4801F0BFFA6B48C9
:103B700001F0D3FA00BF694801F0D4FA0028FAD165
:103B8000664801F0D9FA00BF644801F0DAFA00286B
:103B9000FAD1644801F046FA614801F093FA002036
:103BA0005F490860012D01DD012000E000205C4933
:103BB0000871012048714FF4602088600020C860BF
:103BC00008460574574801F05AFA072302220521D6
:103BD000544801F0ECFA072301221946514801F03C
:103BE000E6FA0723032208214E4801F0E0FA0121FA
:103BF0004C4801F070FA01214A4801F077FA49482F
:103C000001F08BFA00BF474801F08CFA0028FAD186
:103C1000444801F091FA00BF424801F092FA0028AE
:103C2000FAD170BD10B50121084600F076FC3E487F
:103C300000F086FF00203D498862202008620002D3
:103C40004862401188618000C8618020486100207E
:103C5000086188603C20C86030484C3008603448B7
:103C60004860314801F005F8012202212E4801F098
:103C700036F801212C4801F027F80121022000F03C
:103C80004CFC2C4800F05CFF002028498862202072
:103C9000086200024862401188618000C86180208B
:103CA00048610020086188600C20C8601D484C30C5
:103CB0000860214848601F4800F0DBFF0122022114
:103CC0001C4801F00CF801211A4800F0FDFF10BD5E
:103CD00070B504460D4640F6FF76072301222946BB
:103CE000204601F064FAA06840F48000A06004E07F
:103CF0003000A6F1010600D170BD206810F0020F5F
:103D0000F6D0E06C80B2F7E7CE0100200008014059
:103D1000000C014000100140001C01400024014043
:103D20009C150020003C014008000240B015002016
:103D3000DC15002058040240541600200EB5012165
:103D4000FC2000F0F7FB02A800F0E7F94FF4AA40CE
:103D5000ADF8080003208DF80A0010208DF80B0044
:103D600002A9384800F050F902A800F0D6F94CF248
:103D7000A820ADF8080003208DF80A0010208DF867
:103D80000B0002A9304800F03FF902A800F0C5F985
:103D90004FF4AA50ADF8080003208DF80A00102057
:103DA0008DF80B0002A9294800F02EF902A800F0B6
:103DB000B4F94AF6AA30ADF8080003208DF80A00DD
:103DC00010208DF80B0002A9214800F01DF902A86F
:103DD00000F0A3F90220ADF8080003208DF80A00D6
:103DE00048208DF80B0002A91A4800F00DF902A82E
:103DF00000F093F945F2A840ADF8080003208DF8D3
:103E00000A0010208DF80B0002A9134800F0FCF8FE
:103E10004FF400710C4800F0A4F94FF480710C4885
:103E200000F09FF90220009000208DF804000C2083
:103E30008DF8050001208DF80600684601F018FB9A
:103E40000EBD000000080140000C014000100140C0
:103E50000014014000180140002001403149014395
:103E6000314A1160704770B5002100230F22C478D9
:103E70000CB32D4C246804F4E064C4F5E064210A1A
:103E8000C1F10403CA40447804FA03F18478144071
:103E900021430901254C0678A155047804F01F053B
:103EA0000124AC4005786D114FF0E02606EB850546
:103EB000C5F8004109E0047804F01F050124AC4076
:103EC0001B4D0678761145F8264070BD194A0A4008
:103ED0000243154B1B1F1A60704739B1124A121D5D
:103EE00012680243104B1B1D1A6006E00E4A121D99
:103EF000126882430C4B1B1D1A607047042808D1BE
:103F00004FF0E021096941F004014FF0E022116116
:103F100007E04FF0E021096921F004014FF0E022B1
:103F2000116170470000FA050CED00E000E400E0CC
:103F300080E100E080FFFF1F10B50446C549601A0C
:103F40008C422FD009DCC448201810D0B0F5806F07
:103F500016D0B0F5006F4AD11BE0B0F5806F2AD0C3
:103F6000B0F5006F30D0B0F5406F40D135E00121A1
:103F7000042000F0F9FA0021042000F0F5FA37E0FF
:103F80000121082000F0F0FA0021082000F0ECFAEE
:103F90002EE00121102000F0E7FA0021102000F0AF
:103FA000E3FA25E00121202000F0DEFA00212020A4
:103FB00000F0DAFA1CE00121402000F0D5FA0021DF
:103FC000402000F0D1FA13E00121802000F0CCFA6B
:103FD0000021802000F0C8FA0AE00121080200F068
:103FE000C3FA00214FF4807000F0BEFA00E000BF79
:103FF00000BF10BD10B50121084600F0B5FA002140
:10400000012000F0B1FA10BD2DE9F0410246002573
:104010000026002000230024002791F803C00CF0A4
:104020000F0591F803C01CF0100F03D091F802C0E7
:104030004CEA050591F800C0BCF1000F31D01468BE
:1040400000202BE04FF0010C0CFA00F3B1F800C097
:104050000CEA03069E4220D183004FF00F0C0CFAAD
:1040600003F7BC4305FA03FC4CEA040491F803C0CF
:10407000BCF1280F06D14FF0010C0CFA00FCC2F87D
:1040800014C00AE091F803C0BCF1480F05D14FF00D
:10409000010C0CFA00FCC2F810C0401C0828D1D357
:1040A0001460B1F800C0BCF1FF0F34DD546800208B
:1040B0002EE000F1080C4FF0010808FA0CF3B1F8FB
:1040C00000C00CEA03069E4221D183004FF00F0C82
:1040D0000CFA03F7BC4305FA03FC4CEA040491F81C
:1040E00003C0BCF1280F05D100F1080C08FA0CF848
:1040F000C2F8148091F803C0BCF1480F07D100F159
:10410000080C4FF0010808FA0CF8C2F81080401CA7
:104110000828CED35460BDE8F0814FF6FF710180CE
:10412000022181700421C17070470246002093680B
:104130000B4201D0012000E0002070470146886852
:1041400080B2704702460020D3680B4201D00120A4
:1041500000E0002070470146C86880B270470161E6
:104160007047416170470AB1016100E041617047E9
:10417000C16070474FF480320A438261816182617D
:1041800082698269704702460020344B18684FF6F6
:104190008073184040EA02100843304B18607047A3
:1041A0002F49C8617047F0B50A460023002400215A
:1041B00000252A4E7168C0F3034583B200F440160F
:1041C000B6F5401F08D121F07061244E766826F0C4
:1041D0007066224F7E6012E000F48016B6F5801FF4
:1041E00006D1032606FA05F4A14341F0706106E00A
:1041F000460D360103FA06F6B14341F0706122B173
:10420000460D360103FA06F63143144E7160F0BDD7
:1042100030B500228B071C0F0F2303FA04F20F4B5B
:1042200008338C1053F8243093430C4C08348D1011
:1042300044F8253023468C1053F824308C07240F83
:1042400000FA04F42343054C08348D1044F825305B
:1042500030BD00000014014000F8FEBF0000014026
:1042600000002042DC48006840F00100DA490860A4
:1042700008464068D9490840D74948600846006860
:10428000D7490840D44908600846006820F48020D7
:1042900008600846406820F4FE00486000208860FE
:1042A0007047CD49096821F48031CB4A116011462D
:1042B000096821F480211160B0F5803F03D0B0F58A
:1042C000802F0ED106E0C449096841F48031C24A0A
:1042D000116007E0C049096841F4A021BE4A11609D
:1042E00000E000BF00BF704710B501460022002368
:1042F00000204A11012A02D1B74C236806E0022AA5
:1043000002D1B54C236A01E0B34C636A01F01F028D
:10431000012494401C4201D0012000E0002010BD87
:1043200038B5002000900024002500BF3120FFF7A1
:10433000DBFF05460098401C00901DB90098B0F5C1
:10434000A06FF3D13120FFF7CFFF08B1012400E0C7
:104350000024204638BD014600209F4A106820F006
:10436000F80040EAC100106070479E49086070473D
:1043700002460020984B586820F47C1042EA010362
:104380001843954B58607047964908667047014638
:104390000020914A506820F00300084350607047A5
:1043A0008D48406800F00C007047014600208A4AA2
:1043B000506820F0F000084350607047014600202C
:1043C000854A506820F4E060084350607047014619
:1043D0000020814A506820F4605040EAC1005060DB
:1043E000704729B17C4A527A02437B4B5A7204E0EF
:1043F000794A527A8243784B5A7270477A490860F8
:10440000704701460020744A506820F44040084339
:10441000506070470021754A11706F4A82F8201071
:10442000012802D0042808D103E001216F4A11704D
:1044300004E005216D4A117000E000BF00BF704725
:104440006B49086070476449096A0143624A116216
:104450007047674944390860704730B50021002231
:10446000002400235C4D6D6805F00C0121B1042986
:1044700005D0082923D105E05E4D056022E05D4DA1
:1044800005601FE0544D6D6805F47012022505EBC0
:104490009242514D6D6805F480341CB9564D554318
:1044A00005600BE04C4D6D6815F4003F03D0524D94
:1044B0005543056002E04F4D5543056002E04D4D08
:1044C000056000BF00BF444D6D6805F0F0010909AB
:1044D0004A4D6B5C0568DD4045603F4D6D6805F4F5
:1044E000E061090A454D6B5C4568DD4085603A4DE9
:1044F0006D6805F46051C90A404D6B5C4568DD404C
:10450000C560354D6D6805F44041890B3C4D6B5CD1
:10451000C568B5FBF3F5056130BD29B12E4A526976
:1045200002432D4B5A6104E02B4A526982432A4BC5
:104530005A61704729B1284A92690243264B9A6111
:1045400004E0254A92698243234B9A61704729B15E
:10455000214AD2690243204BDA6104E01E4AD26943
:1045600082431D4BDA61704729B11B4AD26802436E
:10457000194BDA6004E0184AD2688243164BDA60BD
:10458000704729B1144A12690243134B1A6104E0BF
:10459000114A12698243104B1A617047144940391D
:1045A000086070470F49C86470470B49C87170476D
:1045B0000948406A40F080700749486270470146E8
:1045C0000020054A92680A4201D0012000E0002044
:1045D0007047014988727047001002400000FFF8E0
:1045E000FFFFF6FE00004242D80042422010024087
:1045F0008004424200127A0000093D00D2010020EE
:10460000E201002010B50446D749601A8C422BD035
:1046100006DCD648201813D0B0F5806F38D119E0E9
:10462000B0F5806F2AD0B0F56C4F31D101218803ED
:10463000FFF79AFF00214FF48040FFF795FF28E035
:1046400001214804FFF79DFF00214FF40030FFF7E0
:1046500098FF1EE001218804FFF793FF00214FF42B
:104660008020FFF78EFF14E00121C804FFF789FFC7
:1046700000214FF40020FFF784FF0AE00121080524
:10468000FFF77FFF00214FF48010FFF77AFF00E073
:1046900000BF00BF10BD2DE9F04786B005460E46AD
:1046A0000024A24600BF00BF00272F462C8A4CF6EC
:1046B000FF700440F08804432C82AC894EF6F3105E
:1046C0000440B08831890843718908430443AC81B0
:1046D000AC8A4FF6FF400440B0890443AC8201A885
:1046E000FFF7BBFEA248874202D1DDF810A001E02F
:1046F000DDF80CA00AEBCA0000EB0A103168890053
:10470000B0FBF1F86420B8FBF0F00401200964214B
:1047100001FB1089322000EB0910B0FBF1F000F032
:104720000F0004432C8106B0BDE8F0874FF416510A
:10473000016000218180C18001810C214181002123
:104740008181704710B502460020108A4FF2FF03A6
:1047500018400B884C8823438C882343CC88234300
:104760001843108210BD0021018041808180C180EA
:10477000704721B1828942F40052828104E082892B
:104780004DF6FF731A4082817047F0B5034600244E
:104790000026002500201846C1F3421401F01F0630
:1047A000012707FA06F5012C01D10C3004E0022C98
:1047B00001D1103000E014301AB107682F430760B0
:1047C00002E00768AF430760F0BD1AB1838A0B436C
:1047D000838202E0838A8B4383827047028A4FF68A
:1047E000F0731A400282028A0A4302827047828969
:1047F0004FF2FF731A40828182890A438281704797
:1048000021B1828942F00202828104E082894FF65E
:10481000FD731A4082817047028A4FF6DF731A4097
:104820000282028A0A430282704721B1028A42F45C
:104830008042028204E0028A4BF6FF731A40028231
:104840007047C1F308028280704701468888C0F330
:1048500008007047818941F0010181817047028B16
:10486000D2B20283028B42EA012202837047028B9A
:1048700002F47F420283028B0A430283704721B114
:10488000828A42F02002828204E0828A4FF6DF733D
:104890001A408282704721B1828A42F010028282DD
:1048A00004E0828A4FF6EF731A408282704721B18A
:1048B000828A42F00802828204E0828A4FF6F7730D
:1048C0001A4082827047828A4FF6FB731A408282B6
:1048D000828A0A438282704721B1828A42F00202B0
:1048E000828204E0828A4FF6FD731A40828270470A
:1048F0000246002013880B4201D0012000E0002076
:104900007047CA430280704770B502460B460024C8
:10491000002100250020C3F3421503F01F010126EA
:1049200006FA01F1012D02D19689314006E0022DEF
:1049300002D1168A314001E0968A31401C120126CC
:1049400006FA04F41688344011B10CB1012000E0DD
:10495000002070BD10B5002200230A1201249440EB
:10496000A3B2DC43048010BD004C004000BCFFBF7C
:104970000038014000206949086048608860C860CC
:1049800048628862C862664888630020C8637047CE
:104990000021624A516847F6FF6291430278C3687A
:1049A0001A4383681A4303691A4343681A434369E5
:1049B0001A431143594A5160704700210170416008
:1049C0008160C1600161416170475649086070476C
:1049D0005249096821F00301504A116011460968E3
:1049E0000143116070474D48006800F003007047B4
:1049F00029B14A4AD26B0243484BDA6304E0474A82
:104A0000D26B8243454BDA63704747490860704771
:104A10000021424B02689A601A46D1686FF30A017E
:104A2000D0E901231A43C3681A4303691A431143A7
:104A30003A4AD16070470021016041608160C160E5
:104A40000161704735480069C0B27047014633487C
:104A50000844406970470021304B02685A6242683E
:104A60009A621A46D16A21F0F701D0E902231A436B
:104A700003691A4343691A431143284AD1627047B4
:104A80004FF0FF310160002141608160C160016130
:104A9000416170472148006B7047244800687047A7
:104AA0002249086070471D48806C70471E491431C8
:104AB000086070471C491831086070471A491C315A
:104AC000086070471849203108607047184908602D
:104AD000704718490860704701218143164A1160E8
:104AE0007047164908607047014600200B4A526B18
:104AF0000A4201D0012000E0002070470749886386
:104B0000704701460020054A526B0A4201D001203D
:104B100000E0002070470149886370470080014031
:104B2000FF07C000A00030428C0530428080014069
:104B3000AC013042B0013042B4013042B8013042E1
:104B4000016821F001010160002101604160816084
:104B5000C160864A811A90425BD012DC844AA0EB85
:104B6000020190423AD007DC824941181BD0142937
:104B700022D028297AD128E0142938D0282975D1C3
:104B80003EE0B1F56C7F5BD006DCB1F5627F49D0C9
:104B9000B1F5677F6AD14CE0B1F5717F57D0B1F5BF
:104BA000767F63D15BE072494439496841F00F0177
:104BB0006F4A443A51605AE06D494439496841F0BE
:104BC000F0016B4A443A516051E0694944394968FF
:104BD00041F47061664A443A516048E0644944399E
:104BE000496841F47041624A443A51603FE060498B
:104BF0004439496841F470215D4A443A516036E0D5
:104C00005B494439496841F47001594A443A51605A
:104C10002DE057494439496841F07061544A443A9B
:104C2000516024E05449096841F00F01524A116073
:104C30001DE05149096841F0F0014F4A116016E04A
:104C40004D49096841F470614B4A11600FE04A49CF
:104C5000096841F47041484A116008E006E046499D
:104C6000096841F47021444A116000E000BF00BFB0
:104C7000704710B50022026847F6F0739A430C6A39
:104C80008B6823430C6923434C6923438C6923437A
:104C9000CC6923434C6A23438C6A23431A43026042
:104CA000CB6843600B6883604B68C36010BD002114
:104CB000016041608160C160016141618161C161E8
:104CC000016241628162704721B1026842F00102D3
:104CD000026003E0026822F00102026070471AB12C
:104CE00003680B43036002E003688B430360704773
:104CF0000146486880B2704701460020002211F04A
:104D0000805F03D01C4B1B1F1A6802E0184B443B0A
:104D10001A680A4201D0012000E00020704710F01C
:104D2000805F02D01449086002E0114944394860AC
:104D3000704701460020002211F0805F03D00E4B27
:104D40001B1F1A6802E00A4B443B1A680A4201D052
:104D5000012000E00020704710F0805F02D006497B
:104D6000086002E002494439486070478000024010
:104D700044000240F8FFFDBF0404024029B14F4A3D
:104D8000128802434D4B1A8004E04C4A1288824339
:104D90004A4B1A8070474948001D008840F01000B7
:104DA0004649091D088070474448001D00884FF699
:104DB000EF7108404149091D0880704700213F48B4
:104DC0001C300188001F008841EA0040704700B590
:104DD0000246FFF7E0FF100C384918310880091D22
:104DE0000A80FFF7E1FF00BD00B50246FFF7D3FFE1
:104DF000C2F30340314908310880091D0A80FFF7DA
:104E0000D3FF00BD00B50246FFF7C5FF100C2B49CC
:104E100020310880091D0A80FFF7C6FF00BD002071
:104E20002649103109880907080B244914310988DB
:104E30000843704700BF2148001D008810F0200F74
:104E4000F9D070471D48001D00884FF6F7710840E3
:104E50001A49091D088000BF1848001D008810F07D
:104E6000080FF9D0704701460020144A121D12881D
:104E70000A4201D0012000E0002070470F49091DBF
:104E8000098881430D4A121D118070470146002098
:104E90000A4A121D12880A40D0B2084A12880A42F1
:104EA00002D008B1012000E0002070470349091D2D
:104EB00009888143014A121D118070470028004073
:104EC00010B50120FFF76AFB0020FFF767FB10BD5C
:104ED0002249086070472149091F086070471F492F
:104EE000843108607047014600201D4A10884FF643
:104EF0007F42104008431A4A108070470146002044
:104F0000174A10884FF6807210400843144A1080E8
:104F10007047134A2C3A81527047014610482C388A
:104F2000085A70470D489C300068C0B270470C4862
:104F30000830008840F001000949083108807047B6
:104F40000648A0300068C0B27047054808300088A5
:104F500040F00200024908310880704704860D4283
:104F60002C6C004010B501210807FFF70AFB002157
:104F70004FF08050FFF705FB10BD264908627047CF
:104F800024490861704701460020234A106820F038
:104F9000E00008431060704720490860704710B572
:104FA000024600201C4B186820F0030010431860D4
:104FB0001B4B1B6843F00403194C2360012901D1EA
:104FC00030BF00E020BF10BD1348006840F004006F
:104FD000114908600846006840F002000860104867
:104FE000006840F004000E49086000BF00BF30BFF9
:104FF000704701460020084A52680A4201D0012049
:1050000000E0002070470449096841EA8001024A33
:105010001160704700000E4200700040A0000E4278
:1050200010ED00E010B50446F748201806D0B0F5A2
:10503000806F0DD0B0F5C05F1ED113E00121480292
:10504000FFF792FA00214FF40070FFF78DFA14E099
:1050500001218802FFF788FA00214FF48060FFF7F2
:1050600083FA0AE00121C803FFF77EFA00214FF41A
:105070000040FFF779FA00E000BF00BF10BD30B577
:105080000246002000235068E04C20400D790C6857
:1050900044EA0524204350609068DD4C2040D1E96B
:1050A00002542C434D7944EA450420439060D06A71
:1050B00020F470000C7C641E1C43E3B240EA0350F1
:1050C000D06230BD00210160017141718160C16019
:1050D00001210174704721B1826842F001028260AF
:1050E00003E0826822F001028260704721B1826889
:1050F00042F48072826003E0826822F480728260EF
:10510000704710B50023CBB21AB144681C43446009
:1051100002E044689C43446010BD816841F008018E
:1051200081607047014600208A6812F0080F01D0A4
:10513000012000E000207047816841F00401816097
:105140007047014600208A6812F0040F01D0012048
:1051500000E00020704721B1826842F4A002826022
:1051600003E0826822F4A0028260704701460020BA
:105170008A6812F4800F01D0012000E000207047FF
:1051800010B50A4600210023416821F46041531EF6
:1051900041EA4331416010BD21B1426842F40062EE
:1051A000426003E0426822F4006242607047F0B55A
:1051B00004460D4600200021092D11DDE068A5F10F
:1051C0000A0606EB4607072606FA07F18843A5F10B
:1051D0000A0606EB460603FA06F10843E0600CE017
:1051E000206905EB4507072606FA07F1884305EB1A
:1051F000450603FA06F108432061072A0FDA606BBF
:10520000561E06EB86071F2606FA07F18843561E30
:1052100006EB860605FA06F10843606322E00D2AD4
:105220000FDA206BD61F06EB86071F2606FA07F15A
:105230008843D61F06EB860605FA06F1084320636D
:1052400010E0E06AA2F10D0606EB86071F2606FABB
:1052500007F18843A2F10D0606EB860605FA06F172
:105260000843E062F0BD21B1826842F4801282609E
:1052700003E0826822F48012826070470146C86CA5
:1052800080B2704763480068704721B1426842F4B9
:105290008062426003E0426822F4806242607047AC
:1052A00021B1426842F48052426003E0426822F435
:1052B0008052426070470A460021816821F4E04133
:1052C00011438160704721B1826842F400428260DC
:1052D00003E0826822F400428260704721B1826854
:1052E00042F40212826003E0826822F402128260B9
:1052F0007047014600208A6812F4001F01D0012087
:1053000000E000207047F0B504461546002000225A
:105310000026092911DDE068A1F10A0707EB470C17
:10532000072707FA0CF29043A1F10A0707EB47079A
:1053300003FA07F21043E0600CE0206901EB410C36
:10534000072707FA0CF2904301EB410703FA07F233
:1053500010432061A06BC0F30156EF1C06F1010C55
:10536000A7EB0C0707EB870C1F2707FA0CF29043FB
:10537000EF1C06F1010CA7EB0C0707EB870701FAFE
:1053800007F21043A063F0BD10B50A4600210023C8
:10539000816B21F44011531E41EA0351816310BD1A
:1053A0004250704702465018806A80B270470A46E1
:1053B00000214168184B1940114341607047416218
:1053C000826270470A460021416821F01F011143A3
:1053D0004160704740B10F494439096841F4000108
:1053E0000C4A443A116007E00A494439096821F43B
:1053F0000001084A443A11607047024600201368D1
:105400000B420BD001200AE000DCFEBFFFFEF0FFE4
:10541000FDF7F1FF4C240140FFFD3FFF00207047E6
:10542000CA430260704770B5024600200023002482
:105430000B125568CEB205EA060415681D4202D06B
:105440000CB1012000E0002070BD00220A12D343FD
:1054500003607047002046490860091D0860091D67
:105460000860091D086043484149143108607047CD
:10547000817900293ED03E490968026891433C4A3F
:105480001160111D096802689143394A121D1160AB
:105490000179121F8958026811430279344BD150A7
:1054A00033490831096802689143314A0832116072
:1054B000111D0968026891432D4A0C32116041792F
:1054C00010290ED1111F096802681143284A0832B9
:1054D0001160111D096802681143254A0C321160E0
:1054E00010E04179224A8958026811434279204BE1
:1054F000D15007E001791E4A895802689143027928
:105500001B4BD15070470021016001710C2141718A
:105510000021817170471649103109680143144A0E
:1055200010321160704701460020114A143212688F
:105530000A4201D0012000E0002070470C491431DC
:1055400008607047014600200022094B1B6803EAEF
:105550000102074B14331B680B4202D00AB1012031
:1055600000E00020704702491431086070470000D5
:1055700000040140FFFF07007047084880470849C2
:1055800081F3088807480047FEE7FEE7FEE7FEE7ED
:10559000FEE7FEE7FEE7FEE7FEE7FEE779550008D7
:1055A00070180020310100080CB500200190009017
:1055B0004748006840F480304549086000BF4448CF
:1055C000006800F4003000900198401C01900098A1
:1055D00018B90198B0F5A06FF1D13D48006810F4FA
:1055E000003F02D00120009001E0002000900098D0
:1055F000012843D13748006840F010003549086061
:105600000846006820F0030008600846006840F083
:10561000020008602E4840682D49486008464068EE
:1056200048600846406840F480604860084640682A
:1056300020F47C1048600846406840F4E810486058
:105640000846006840F08070086000BF204800688D
:1056500010F0007FFAD01E48406820F003001C497B
:1056600048600846406840F00200486000BF1848A3
:10567000406800F00C000828F9D101E000BFFEE707
:105680000CBD10B5FFF790FF10BD10B510480068B5
:1056900040F001000E490860084640680E49084085
:1056A0000B494860084600680C49084008490860F2
:1056B0000846006820F4802008600846406820F40E
:1056C000FE00486000208860FFF7DBFF10BD00008F
:1056D00000100240002002400000FFF8FFFFF6FE2D
:1056E00070B503460C4603E014F8015B03F8015B58
:1056F0001500A2F10102F7D170BD30B5034601E0FB
:1057000003F8011B1400A2F10102F9D130BDF0B57C
:1057100003461C460D46002000BF1600A2F1010200
:1057200007D014F8017B15F801CBA7EB0C0630006D
:10573000F3D0F0BD024600E0521C107810B1107892
:105740008842F9D1107870472DE9F04104460D46A2
:10575000E66AAE422FD0207908B360780123324642
:1057600004F1300101F068FE10B10120BDE8F081C4
:1057700000202071A169206A0844B0420FD9E7785F
:105780000AE0A069064460780123324604F1300142
:1057900001F052FE781EC7B2012FF2DC00BF55B1F6
:1057A000607801232A4604F1300101F02DFE08B192
:1057B0000120DBE7E5620020D8E770B50446002150
:1057C0002046FFF7C1FF0546002D59D12078032858
:1057D0004FD1A07A00284CD00020E0624FF4007234
:1057E000002104F13000FFF788FF552184F82E12C4
:1057F000AA2184F82F12522084F83000522131203F
:10580000015561213220015541213320015572217A
:1058100084F8141284F81512412184F816126121BB
:1058200084F81712217C84F81812208A010A84F85F
:1058300019122069010C84F81A122069010E84F8EB
:105840001B12217B84F81C12A089010A84F81D1206
:10585000E068010C84F81E12E068010E84F81F1243
:105860006078012304F13001626901F0E5FD002058
:10587000A07260780022114601F0F6FD00B101250A
:10588000284670BD2DE9F04105460C46022C02D396
:10589000E869A04202D80120BDE8F0812F6A28788B
:1058A000012804D002282AD0032870D140E02646DF
:1058B00006EB560607EB56212846FFF745FF00B1D9
:1058C00065E0C6F3080105F1300010F80180761C90
:1058D00007EB56212846FFF737FF00B157E0C6F324
:1058E000080105F13000405C48EA002814F0010F7F
:1058F00002D04FEA1810CFE7C8F30B00CCE707EB54
:1059000014212846FFF720FF00B140E040F2FF10CD
:1059100000EA440105F13000415C40F2FF1000EA6A
:10592000440205F130001044407841EA0020B3E71A
:1059300007EBD4112846FFF707FF00B127E040F23C
:10594000FF1000EA840105F130000844C078010628
:1059500040F2FF1000EA840205F130001044807824
:1059600041EA004140F2FF1000EA840205F13000F4
:105970001044407841EA002040F2FF1101EA84021D
:1059800005F13001895C084320F0704084E700BFD6
:105990004FF0FF3080E72DE9F04705460C461646EC
:1059A000022C02D3E869A04201D8022795E0D5F87D
:1059B00020A02878012804D0022843D003287DD1D4
:1059C00059E0A04608EB58080AEB58212846FFF793
:1059D000BBFE074607B17DE0C8F3080105F13000C2
:1059E00001EB000914F0010F05D0F1B299F80000A5
:1059F00061F31F1000E0304689F8000008F101084B
:105A0000012028710AEB58212846FFF79DFE074622
:105A100007B15FE0C8F3080105F1300001EB0009B0
:105A200014F0010F02D0C6F3071008E099F8000047
:105A300000F0F000C6F3072101F00F01084389F8D8
:105A4000000047E00AEB14212846FFF77DFE0746D9
:105A500007B13FE040F2FF1000EA440205F13000D8
:105A60008654310A40F2FF1000EA440205F130008A
:105A7000104441702EE00AEBD4112846FFF764FE73
:105A8000074607B126E040F2FF1000EA840205F164
:105A900030008654310A40F2FF1000EA840205F11A
:105AA000300010444170310C40F2FF1000EA8402D3
:105AB00005F1300010448170310E00E008E040F242
:105AC000FF1000EA840205F130001044C17001E0CB
:105AD000022700BF00BF012028713846BDE8F087CB
