:020000040800F2
:10000000000400201B5D00084501000847010008AE
:100010004B0100084F0100085301000800000000D8
:10002000000000000000000000000000590100086E
:1000300057010008000000005B0100085D01000896
:100040003B5D00083B5D00083B5D00087701000850
:100050003B5D00083B5D00083B5D0008CB010008EC
:100060003B5D00083B5D00083B5D0008A701000800
:100070003B5D00083B5D00083B5D00083B5D000800
:100080003B5D00083B5D00083B5D00083B5D0008F0
:100090003B5D00083B5D00083B5D00083B5D0008E0
:1000A0003B5D00083B5D00083B5D00083B5D0008D0
:1000B0003B5D00083B5D00083B5D00083B5D0008C0
:1000C0003B5D00083B5D00083B5D00083B5D0008B0
:1000D0003B5D00083B5D00083B5D00083B5D0008A0
:1000E0003B5D00083B5D00083B5D00083B5D000890
:1000F0003B5D00083B5D00083B5D00083B5D000880
:100100003B5D00086F0100083B5D00083B5D000897
:100110003B5D00083B5D00083B5D00083B5D00085F
:100120003B5D00083B5D00083B5D0008B90100082D
:10013000DFF80CD007F094FD00480047EF330008CB
:1001400058190020704700BFFEE700BFFEE700BF60
:10015000FEE700BFFEE7704770477047224800681F
:1001600020B121480068401E1F490860704710B543
:1001700002F009F810BD10B5012005F057FA88B15A
:10018000012005F063FA01201849086005F022FA01
:1001900005F0E4F91649884204D1002005F0E7F99A
:1001A00005F018FA10BD10B5022005F092F910B153
:1001B000012005F0A1F910BD10B50E4805F089F930
:1001C00010B10D4805F098F910BD10B5022005F0EA
:1001D00089FD38B14FF48071084804F092FB022089
:1001E0000749086010BD0000840100209401002030
:1001F00080510100000002100000011000140140B5
:100200001404014070B52A25FE48446B01E0FD4806
:10021000446B14F0450FFAD014F0040F05D00325F9
:10022000042005F03BF8284670BD14F0010F05D0FE
:100230000125012005F032F82846F5E740F2FF508D
:1002400005F02CF82846EFE72DE9F04106460F4669
:100250004FF02A08EB48456B01E0EA48456B15F082
:10026000450FFAD015F0040F07D04FF00308042013
:1002700005F014F84046BDE8F08115F0010F06D0F6
:100280004FF00108012005F009F84046F3E704F0BB
:10029000A9FFB04203D04FF010084046EBE740F210
:1002A000FF5004F0FBFF002004F0A0FF044614F40C
:1002B000604F03D1200C38804046DCE714F4005F27
:1002C00001D01320D7E714F4804F01D01020D2E7DB
:1002D00014F4004F01D00F20CDE74046CBE738B5EE
:1002E0002A240120009004F04EFF10B92524204656
:1002F00038BDC5480068042829D00020C3490860DB
:1003000002204860C02088600020C8604FF48060F0
:100310000861084604F04CFFFFF774FF04462A2CDE
:1003200001D02046E4E7002004F060FFB8490860EF
:10033000042004F05BFFB6494860082004F056FF33
:10034000B34988600C2004F051FFB149C860AE4841
:10035000006858B1AC480068012807D0AA48006876
:10036000062803D0A8480068022817D10020A74912
:10037000086003204860402088600020C8604FF477
:1003800080600861084604F013FF69460320FFF708
:100390005BFF04462A2C01D02046A9E79A48006852
:1003A00004282FD0BDF800009A490860BDF800006D
:1003B00000049649086009204860C0208860002039
:1003C000C8604FF480600861084604F0F1FEFFF752
:1003D00019FF04462A2C01D0204689E7002004F0AA
:1003E00005FF8D490860042004F000FF8A49486039
:1003F000082004F0FBFE884988600C2004F0F6FE1B
:100400008549C8602A24204672E770B52A257D48B0
:10041000446B01E07B48446B14F0450FFAD014F0B4
:10042000040F05D00325042004F038FF284670BDD2
:1004300040F2FF5004F032FF2846F8E72DE9F04182
:1004400006462A276F48456B01E06E48456B15F05C
:10045000450FFAD015F0040F06D00327042004F04E
:100460001DFF3846BDE8F08115F0010F05D00127CA
:10047000012004F013FF3846F4E704F0B3FEB04265
:1004800002D010273846EDE740F2FF5004F006FF97
:10049000002004F0ABFE04466048044201D1384617
:1004A000E0E714F0004F01D01C20DBE714F0804F90
:1004B00001D00920D6E714F0005F01D00A20D1E76F
:1004C00014F0805F01D00B20CCE714F0006F01D056
:1004D0000C20C7E714F0806F01D00D20C2E714F0A4
:1004E000807F01D00E20BDE714F4000F01D00F2053
:1004F000B8E714F4800F01D01020B3E714F4001F04
:1005000001D01120AEE714F4801F01D01220A9E71A
:1005100014F4002F01D01320A4E714F4802F01D08D
:1005200014209FE714F4003F01D015209AE714F43B
:10053000803F01D0162095E714F4004F01D017201A
:1005400090E714F4804F01D018208BE714F4005F7B
:1005500001D0192086E714F0080F01D01A2081E796
:1005600038467FE770B52A2642F210752548446B5D
:1005700002E06D1E2348446B14F0450F01D1002D9D
:10058000F7D115B114F0040F05D00326042004F0B0
:1005900085FE304670BD14F0400F05D02A2640205D
:1005A00004F07CFE3046F5E73046F3E770B52A25C7
:1005B00042F2107400E0641E24B1802004F064FE56
:1005C0000028F8D014B90325284670BD40F2FF502A
:1005D00004F064FE2846F8E72DE9F0412A240026BD
:1005E000002500274FF00008B2200D4908700020B8
:1005F00048608860C86008614861084604F098FD5A
:1006000003200FE00080014000000020FC010020DA
:10061000D401002004000020C401002008E0FFFDF8
:10062000E401002004F0A4FD012004F09EFD002060
:10063000FE49086048608860C8604FF480600861C7
:10064000084604F0B5FDFFF7B1FF04462A2C02D09E
:100650002046BDE8F0814FF4D570F44908600820C9
:100660004860402088600020C8604FF480600861C6
:10067000084604F09DFDFFF775FF04462A2C05D1BE
:100680000120EB4908604FF0804812E00020E74964
:10069000086037204860402088600020C8604FF420
:1006A00080600861084604F083FD3720FFF7C6FE2E
:1006B00004460020DD4908603720486040208860FB
:1006C0000020C8604FF480600861084604F070FDA7
:1006D0003720FFF7B3FE04462A2C4CD138E0002027
:1006E000D249086037204860402088600020C860F8
:1006F0004FF480600861084604F05AFD3720FFF788
:100700009DFE04462A2C01D02046A2E7C94848EAAB
:100710000000C64908602920486040208860002009
:10072000C8604FF480600861084604F041FDFFF79F
:100730006CFE04462A2C01D020468AE7002004F0F3
:1007400055FD0646012080EAD67080F001076D1C39
:100750001FB94FF6FF708542C1D34FF6FF70854237
:1007600002D31B24204674E706F08040060002D026
:100770000220AF49086020466BE708B50121302010
:1007800004F0A8FA4FF4F850ADF8000003208DF8FB
:10079000020018208DF803006946A74804F004F809
:1007A0000420ADF800006946A44803F0FDFF08BD31
:1007B00038B52A240121082004F08CFA2020ADF855
:1007C000000010208DF8030003208DF80200694618
:1007D0009B4803F0E9FF2021994804F092F8FFF7C5
:1007E000CCFF0121880204F068FA0121022004F004
:1007F00064FA04F08FFCFFF7EFFE04462A2C01D0C8
:10080000204638BDFFF76BFD04462A2C01D0204658
:10081000F7E701208B490870002048608860C860B5
:1008200008614861084604F083FC2046E9E710B5FA
:100830002A24002004F09CFC204610BD30B501465F
:100840002A2000227A4B1B7881F84E307E4B1B8881
:10085000A1F84C307D4B1B681A0E93090B70C2F344
:1008600083034B7002F003038B70784B1B68C3F358
:100870000742CA70754B1B88C3F307220A71734B7A
:100880001A784A715B681A0E1301CB806F4B5B6854
:10089000C3F30742CB8843EA1213CB8002F00F0365
:1008A0000B726A4B9B88C3F30722D3094B72C2F3C6
:1008B00080138B72C2F34013CB72C2F300130B731D
:1008C00000234B735A4B1B681BB1594B1B68012B00
:1008D0003CD193071B0D0B615C4B1A790B6943EA02
:1008E00082030B61594B9B681A0E0B6943EA921302
:1008F0000B61C2F3C2030B7502F007034B75534B38
:100900009B68C3F3074253098B75C2F38203CB750F
:1009100093075B0F0B764D4B1B89C3F307220B7EAE
:1009200043EAD2130B760B695B1C4B640C7E4B6C59
:10093000A41C0125A5406B434B640C7A0123A34002
:100940008B64D1E9113463434B6421E0384B1B685D
:10095000022B1DD13D4B1A7993069B0A0B613B4B31
:100960009B681A0E0B6943EA02230B61374B9B68A5
:10097000C3F307420B6913430B61344B1B89C3F369
:1009800007220B695B1CDB044B644FF400738B6420
:10099000C2F3801301F8193F93065B0E4B702B4B8B
:1009A0001A7A4B7843EAD2134B7002F07F038B70B4
:1009B000264BDB681A0ED309CB70C2F341130B71BF
:1009C000C2F382034B7193071B0F8B711F4BDB68C4
:1009D000C3F307428B7943EA92138B71C2F340133E
:1009E000CB7100230B7202F001034B72174B9B89F2
:1009F000C3F30722D3098B72C2F38013CB72C2F305
:100A000040130B73C2F300134B73C2F381038B7358
:100A100002F00303CB730D4B1A7B53080B740123B5
:100A20004B740B4B1B681A0ECA7413E0FC010020B8
:100A30000000002000001080001001400014014060
:100A4000000C0140E401002004000020C40100204B
:100A5000D4010020A1F11901FD4B1B68C3F307422B
:100A60004FEA0224CC85FA4B1B88C3F30722CB8DB7
:100A700043EA0203CB85F64B1A784FEA02640C6313
:100A80005B684FEA13620B6B43EA02440C63F04B62
:100A90005B68C3F307420B6B43EA02240C63EC4B25
:100AA0009B88C3F307220B6B43EA02030B63E84BFB
:100AB0001A794FF034035A54E54B9B684FEA13629E
:100AC0004FF035035A54E24B9B68C3F307424FEA99
:100AD00002648C63DE4B1B89C3F307228B6B43EAF2
:100AE00002448C63DA4B1A7A8B6B43EA02248C63E0
:100AF000D74BDB684FEA13628B6B43EA02038B63CD
:100B0000D34BDB68C3F307424FF03C035B5C43EA23
:100B100012144FF03C035C544FEA02734FEA135433
:100B2000CC87CB4B9B89C3F30722CB8F43EA0203CD
:100B3000CB87C74B1A7B4FEA52044FF040035C54FB
:100B40004FF001044FF041035C5430BD2DE9FC41EE
:100B500007460D4600262A24002000900190082018
:100B6000BC49086010204860402088600020C860B0
:100B70004FF480600861084604F01AFB1020FFF76C
:100B80005DFC04462A2C02D02046BDE8FC81B24818
:100B900000880004AF490860372048604020886022
:100BA0000020C8604FF480600861084604F000FB34
:100BB0003720FFF743FC04462A2C01D02046E4E707
:100BC000A648A749086008204860302088600220B5
:100BD000C8600020086101204861084604F00BFB52
:100BE00000209C4908603320486040208860002035
:100BF000C8604FF480600861084604F0D9FA3320D9
:100C0000FFF71CFC04462A2C01D02046BDE709E072
:100C10004FF4001004F038FB20B104F00EFB4DF847
:100C20002600761C8F48406B40F22A610842EFD0C4
:100C3000082004F029FB28B1082004F02FFB04242D
:100C40002046A2E7022004F01FFB28B1022004F096
:100C500025FB0224204698E7202004F015FB28B14C
:100C6000202004F01BFB062420468EE74FF4007082
:100C700004F00AFB30B14FF4007004F00FFB0724BE
:100C8000204682E740F2FF5004F008FB009800067F
:100C9000009901F47F4140EA0120009901F47F01AD
:100CA00040EA1120009940EA11606860019800064E
:100CB000019901F47F4140EA0120019901F47F018B
:100CC00040EA1120019940EA1160286020465CE763
:100CD0007CB505462A2400200090019004F086FA95
:100CE00010F0007F02D00E2420467CBD5A490988AE
:100CF00088B26946FFF72AFF04462A2C01D0204615
:100D0000F3E7012D37D1019810F4802F30D05248ED
:100D1000008800044F490860372048604020886000
:100D20000020C860A8020861084604F041FA372094
:100D3000FFF784FB04462A2C01D02046D5E7022089
:100D40004449086006204860402088600020C86050
:100D50004FF480600861084604F02AFA0620FFF785
:100D60006DFB04462A2C01D02046BEE72046BCE796
:100D700025242046B9E7019810F4803F31D0364849
:100D800000880004334908603720486040208860AC
:100D90000020C8604FF480600861084604F008FA3B
:100DA0003720FFF74BFB04462A2C01D020469CE756
:100DB0000020284908600620486040208860002004
:100DC000C8604FF480600861084604F0F1F906201D
:100DD000FFF734FB04462A2C01D0204685E7204645
:100DE00083E72524204680E770B504462A251E485F
:100DF0000068032802D12725284670BD1A480068DC
:100E000038B119480068012803D017480068022843
:100E100040D1B4F5805F02D127252846EDE7B4F52F
:100E2000006F25D10120FFF753FF05462A2D31D150
:100E300001200E490870002048608860C8604FF4A7
:100E40000060086100204861084604F071F921E063
:100E5000D4010020FC01002004000020FFFF0F004F
:100E6000100200200080014000000020E40100206A
:100E70000020FFF72DFF05462A2D0BD10120F74951
:100E80000870002048608860C860086148610846B2
:100E900004F04EF92846B0E701462A2019B101298D
:100EA00001D0022902D1EE4A116000E026207047ED
:100EB00070B504462A25EB4804600720E9494860DC
:100EC000402088600020C8604FF4806008610846B8
:100ED00004F06EF90720FFF7B1FA0546284670BD09
:100EE00030B58BB005460C46DF4804F0E8FA002127
:100EF000DE4804F0B9FADE48009001950020029027
:100F0000A0080390002004908020059080000690A7
:100F100080000790002008904FF4005009900020B6
:100F20000A906946D14804F074FA0121CF4804F0D0
:100F30009BFA0BB030BD0146002002E04910421C74
:100F4000D0B20129FAD170472DE9F04707460D4686
:100F500014464FF02A084FF000092E464FF0000AC1
:100F600025B94FF026084046BDE8F0872A20C14940
:100F700008700020C0490860C0490860C048C149E5
:100F80000860002048608860C860086148610846C1
:100F900004F031F9002004F008F9002004F026F9EB
:100FA00010F0007F03D04FF00E084046DCE7B64853
:100FB0000068022801D104027F0A002C21DDB4F56B
:100FC000006F1EDC601E20421BD12046FFF7B3FFDE
:100FD0008246A44804601020A249486040208860EE
:100FE0000020C8604FF480600861084604F0E0F813
:100FF0001020FFF723FA8046B8F12A0F05D04046AB
:10100000B2E74FF026084046AEE79D489D4908608C
:10101000084644604FEA0A1088600220C860002039
:10102000086101204861084604F0E5F8934804602F
:10103000002096490860964805608A48076011209C
:1010400088494860402088600020C8604FF4806074
:101050000861084604F0ACF81120FFF7EFF980466C
:10106000B8F12A0F01D040467EE77D48006802288B
:1010700057D111E04FF4004004F006F960B14FF091
:10108000000905E004F0D9F846F8290009F1010942
:10109000B9F1080FF6D3203675488038406B40F21E
:1010A0002A610842E6D0082004F0EEF830B10820AA
:1010B00004F0F4F84FF00408404655E7022004F02D
:1010C000E3F830B1022004F0E9F84FF0020840469E
:1010D0004AE7202004F0D8F830B1202004F0DEF8F0
:1010E0004FF0060840463FE74FF4007004F0CCF89C
:1010F00038B14FF4007004F0D1F84FF007084046C3
:1011000032E703E004F099F83060361D4FF4001028
:1011100004F0BAF80028F5D140F2FF5004F0BEF810
:101120002CE04F480068012813D1012148F22A30F1
:1011300004F02EF800BF5048006818B94D480078F8
:101140002A28F8D04B4800782A2817D04948007838
:101150000AE74348006888B9012140F22A3004F0C8
:1011600017F8012004F021F821462846FFF7B8FEC1
:1011700000BF484804F090F90028FAD04046F3E652
:101180002DE9F05F81460E4614461D464FF02A08B1
:101190004FF0000A37464FF0000B26B94FF02608F3
:1011A0004046BDE8F09F2A203249087000203249AD
:1011B00008603249086032483249086000204860BF
:1011C0008860C86008614861084604F014F800208F
:1011D00003F0EBFF002004F009F810F0007F03D0CB
:1011E0004FF00E084046DCE727480068022802D18D
:1011F00004024FEA5929002C21DDB4F5006F1EDCF2
:10120000601E20421BD12046FFF795FE83461548FD
:101210000460102013494860402088600020C860A6
:101220004FF480600861084603F0C2FF1020FFF70A
:1012300005F98046B8F12A0F05D04046B1E74FF0D6
:1012400026084046ADE7012D7DD905FB04F0B0F13D
:10125000007F21D34FF026084046A2E7E40100209A
:1012600008000020FC01002000F0001044040240AF
:101270008080014014000020180000200C00002095
:10128000FFFF0F00100200200000002010000020CF
:10129000240000200020001005FB04F0FE49086037
:1012A0000120FE490860FE480660FE48FE490860CD
:1012B00005FB04F048604FEA0B1088600220C8600C
:1012C0000020086101204861084603F094FFF748B8
:1012D000C0F800901220F549486040208860002046
:1012E000C8604FF480600861084603F061FF122077
:1012F000FFF7A4F88046B8F12A0F01D0404650E726
:10130000EB48006802287BD111E04FF4004003F065
:10131000BBFF60B14FF0000A05E003F08EFF47F815
:101320002A000AF1010ABAF1080FF6D32037E14882
:10133000406B40F22A310842E7D0082003F0A4FFB6
:1013400040B1082000E09EE003F0A8FF4FF0040841
:10135000404626E7022003F097FF30B1022003F059
:101360009DFF4FF0020840461BE7202003F08CFF52
:1013700030B1202003F092FF4FF00608404610E7FE
:101380004FF4007003F080FF38B14FF4007003F0A9
:1013900085FF4FF00708404603E703E003F04DFFE9
:1013A00038603F1D4FF4001003F06EFF0028F5D1A8
:1013B0004FF4807003F068FF18B3BF48006838B17D
:1013C000BD480068022803D0BB480068012818D136
:1013D0000020B64908600C2048604020886000204A
:1013E000C8604FF480600861084603F0E1FE0C20FD
:1013F000FFF724F88046B8F12A0F02D04046D0E625
:1014000004E040F2FF5003F049FF3CE0A8480068C8
:10141000012813D1012148F22A3003F0B9FE00BFA0
:10142000A648006818B9A64800782A28F8D0A44829
:1014300000782A2827D0A2480078B2E69C480068A5
:1014400008BB012140F22A3003F0A2FE012003F084
:10145000ACFE05FB04F13046FFF742FD00BF9948A2
:1014600004F01AF80028FAD000BF9448006818B9B0
:10147000934800782A28F8D0914800782A2802D08A
:101480008F4800788DE640468BE67CB504462A25D9
:101490000020019000908C48008800048349086077
:1014A0000D204860402088600020C8604FF48060B4
:1014B0000861084603F07CFE7E48406B009002E025
:1014C0007C48406B0090009810F0450FF8D00098D1
:1014D00010F0040F05D00325042003F0DFFE28469A
:1014E0007CBD009810F0010F05D00125012003F00C
:1014F000D5FE2846F4E703F075FE009000980D280D
:1015000002D010252846EBE740F2FF5003F0C6FE5C
:10151000002003F06BFE01900198C0F3432020707F
:101520006A490198084201D12846D9E7019810F08C
:10153000004F01D01C20D3E7019810F0804F01D05C
:101540000920CDE7019810F0005F01D00A20C7E71D
:10155000019810F0805F01D00B20C1E7019810F0D6
:10156000006F01D00C20BBE7019810F0806F01D014
:101570000D20B5E7019810F0807F01D00E20AFE775
:10158000019810F4000F01D00F20A9E7019810F482
:10159000800F01D01020A3E7019810F4001F01D0A4
:1015A00011209DE7019810F4801F01D0122097E7C9
:1015B000019810F4002F01D0132091E7019810F446
:1015C000802F01D014208BE7019810F4003F01D048
:1015D000152085E7019810F4803F01D016207FE7A1
:1015E000019810F4004F01D0172079E7019810F40A
:1015F000804F01D0182073E7019810F4005F01D0EC
:1016000019206DE7019810F0080F01D01A2067E744
:10161000284665E730B58BB005460C462C4803F0EC
:101620004EFF00212B4803F01FFF2248803000901E
:10163000019510200290A0080390002004908020C3
:1016400005908000069080000790002008904FF4DD
:101650000050099000200A9069461E4803F0D9FE08
:1016600001211C4803F000FF0BB030BD2DE9FF5FE6
:1016700082460F4614462A25002003900290834696
:101680000026019080460090B94627B926252846B5
:1016900004B0BDE8F09F1FE00C0000201000002007
:1016A00024000020FFFF0F0010020020FC0100209A
:1016B00008000020008001400000002018000020E9
:1016C00014000020002000100400002008E0FFFDAE
:1016D00000F00010440402402A20F849087000205D
:1016E000F7490860F7490860F748F84908600020A2
:1016F00048608860C86008614861084603F07BFD67
:10170000002003F052FD002003F070FD10F0007F78
:1017100004D00E25284604B0BDE8F09FEC480068D0
:10172000022802D104024FEA5A2A002C20DDB4F527
:10173000006F1DDC601E20421AD12046FFF7FBFB24
:101740000390E44804601020E2494860402088602B
:101750000020C8604FF480600861084603F028FD4F
:101760001020FEF76BFE05462A2D04D02846D2E74E
:1017700026252846CFE7D84800880004D5490860C8
:101780000D204860402088600020C8604FF48060D1
:101790000861084603F00CFD0D20FEF74FFE0546DC
:1017A0002A2D01D02846B6E7002003F01FFD019046
:1017B000DFF814B31EE0ABF1010BC748008800044A
:1017C000C44908600D204860402088600020C8603F
:1017D0004FF480600861084603F0EAFC0D20FEF734
:1017E0002DFE05462A2D01D0284694E7002003F05F
:1017F000FDFC0190019810F4807F02D1BBF1000F35
:10180000D9D1BBF1000F01D1292084E7B148C0F83C
:1018100000A01820AF494860402088600020C860C0
:101820004FF480600861084603F0C2FC1820FEF700
:1018300005FE05462A2D01D028466CE7A148046024
:101840000020A6490860A64807609F489F49086095
:10185000084644600398000188600020C860086161
:1018600001204861084603F0C6FC9E480068022833
:101870006AD139E04FF4804003F006FDA0B39148EF
:101880000068801B202820D28E480078801B10F032
:10189000030F04D18B480068801B800804E089484E
:1018A0000068801B8008401C00904FF0000808E092
:1018B000D9F8000003F0C4FC08F1010809F104099B
:1018C000361D009880450FD2F2E74FF0000805E082
:1018D00059F8280003F0B4FC08F10108B8F1080F2A
:1018E000F6D309F1200920367F48406B40F21A6197
:1018F0000842BFD0082003F0C7FC28B1082003F03D
:10190000CDFC0425284606E7022003F0BDFC28B1E3
:10191000022003F0C3FC02252846FCE6102003F059
:10192000B3FC28B1102003F0B9FC05252846F2E6E7
:101930004FF4007003F0A8FCF0B34FF4007003F014
:10194000ADFC07252846E6E666480068012813D165
:10195000012144F21A3003F01BFC00BF5848006814
:1019600018B9564800782A28F8D0544800782A2810
:1019700028D052480078CEE65A480068E0B90121E4
:1019800040F21A3003F004FC21463846FFF742FECD
:10199000012003F00AFC00BF544803F07DFD00283D
:1019A000FAD000BF4648006818B9444800782A2891
:1019B000F8D04248007800E004E02A2802D03F48EE
:1019C0000078A8E640F2FF5003F068FC02A8FFF799
:1019D0005CFD054603E002A8FFF757FD05462A2DEA
:1019E00007D19DF808000728F5D09DF808000628C3
:1019F000F1D028468FE62DE9FE4F834688461446EF
:101A00001E462A2500200290019000278146009062
:101A1000C246B8F1000F03D126252846BDE8FE8F47
:101A20002A202649087000202549086025490860B9
:101A3000254826490860002048608860C860086121
:101A40004861084603F0D7FB002003F0AEFB0020FE
:101A500003F0CCFB10F0007F02D00E252846DDE716
:101A60001B480068022802D104024FEA5B2B002CBD
:101A700020DDB4F5006F1DDC601E20421AD1204627
:101A8000FFF759FA0290134804601020114948608A
:101A9000402088600020C8604FF4806008610846DC
:101AA00003F086FB1020FEF7C9FC05462A2D1FD047
:101AB0002846B3E726252846B0E70000140000209A
:101AC000180000200C000020FFFF0F001002002073
:101AD00000000020FC010020040000201000002075
:101AE000200000200800002000800140002000109D
:101AF000FE4800880004FE4908600D204860402030
:101B000088600020C8604FF480600861084603F0D8
:101B10004FFB0D20FEF792FC05462A2D01D02846EA
:101B20007CE7012E7AD906FB04F0B0F1007F02D3E6
:101B30002625284672E7EF48006838B1ED4800686E
:101B4000012803D0EB48006802282FD1E74800881D
:101B50000004E74908603720486040208860002082
:101B6000C8604FF480600861084603F021FB37200D
:101B7000FEF764FC05462A2D01D028464EE7DC48D6
:101B800006601720DA494860402088600020C8605D
:101B90004FF480600861084603F00AFB1720FEF747
:101BA0004DFC05462A2D01D0284637E7D048C0F81D
:101BB00000B01920CE494860402088600020C860ED
:101BC0004FF480600861084603F0F2FA1920FEF72E
:101BD00035FC05462A2D01D028461FE706FB04F0F8
:101BE000C54908600120C5490860C548C0F80080A3
:101BF000C448C549086006FB04F04860029800012B
:101C000088600020C860086101204861084603F030
:101C1000F2FABE48006802287ED13AE0D0E04FF4E4
:101C2000804003F031FBA0B3B3480068C01B2028FC
:101C30000FD34FF0000905E05AF8290003F000FB2C
:101C400009F10109B9F1080FF6D30AF1200A20378A
:101C50001FE0A9480078C01B10F0030F04D1A6486C
:101C60000068C01B800804E0A3480068C01B80080F
:101C7000401C00904FF0000908E0DAF8000003F083
:101C8000DFFA09F101090AF1040A3F1D00988145B4
:101C9000F3D39F48406B40F21A310842BFD008206E
:101CA00003F0F2FA28B1082003F0F8FA04252846D8
:101CB000B4E6022003F0E8FA28B1022003F0EEFABD
:101CC00002252846AAE6102003F0DEFA28B11020EB
:101CD00003F0E4FA05252846A0E64FF4007003F06F
:101CE000D3FA30B14FF4007003F0D8FA0725284634
:101CF00094E64FF4807003F0C7FA002860D07D4866
:101D0000006838B17B480068012803D07948006832
:101D1000022855D1002000E015E0754908600C202C
:101D20004860402088600020C8604FF480600861EF
:101D3000084603F03DFA0C20FEF780FB05462A2DED
:101D40003ED028466AE671480068012813D1012177
:101D500044F21A3003F01CFA00BF6E48006818B94C
:101D60006D4800782A28F8D06B4800782A2827D0B8
:101D70006948007852E66548006808BB012140F2D6
:101D80001A3003F005FA012003F00FFA06FB04F104
:101D90004046FFF73FFC00BF604803F07DFB002892
:101DA000FAD000BF5B48006818B95B4800782A2861
:101DB000F8D0594800782A2802D0574800782DE6F4
:101DC00040F2FF5003F06AFA01A8FFF75EFB0546F8
:101DD00003E001A8FFF759FB05462A2D07D19DF81E
:101DE00004000728F5D09DF804000628F1D0284605
:101DF00014E64748406B10F4405F01D00120704763
:101E00000020FCE710B52A240020394908600C2086
:101E10004860402088600020C8604FF480600861FE
:101E2000084603F0C5F90C20FEF708FB04462046DF
:101E300010BD2DE9FC4105460E462A24002700204E
:101E40000190009036484068202111EA105F03D1CC
:101E500025242046BDE8FC812D484068C0B2801C86
:101E60003049B1FBF0F00190002003F0BFF910F011
:101E7000007F02D00E242046ECE71E4800680228AE
:101E800001D16D0A760A1B48006838B1194800680C
:101E9000012803D01748006802284CD11448056077
:101EA000202013494860402088600020C8604FF41B
:101EB00080600861084603F07BF92020FEF7BEFA37
:101EC00004462A2C01D02046C4E709480660212098
:101ED00007494860402088600020C8604FF4806057
:101EE0000861084603F064F921201DE00400002089
:101EF000FC010020000000200C0000201000002049
:101F000020000020FFFF0F0010020020080000202A
:101F10000080014018000020140000200020001064
:101F2000C401002040190100FEF788FA04462A2C5B
:101F300001D020468EE70020FE4908602620486038
:101F4000402088600020C8604FF480600861084627
:101F500003F02EF92620FEF771FA04462A2C01D050
:101F6000204677E7002700E07F1C01988742FBD3DB
:101F70006846FFF78AFA044603E06846FFF785FAE9
:101F800004462A2C07D19DF800000728F5D09DF8BB
:101F900000000628F1D020465CE770B504462A25EB
:101FA00014B92625284670BDE34800880004E1499D
:101FB00008600D204860402088600020C8604FF411
:101FC00080600861084603F0F3F80D20FEF736FA4A
:101FD00005462A2D01D02846E5E7002003F006F942
:101FE00020602846DFE770B504462A260025002039
:101FF00003F0FCF810F0007F02D00E26304670BDD2
:102000004020CC49086010204860402088600020B3
:10201000C8604FF480600861084603F0C9F81020DA
:10202000FEF70CFA06462A2E01D03046E7E7C248F2
:1020300000880004BF49086037204860402088605D
:102040000020C8604FF480600861084603F0B0F8D3
:102050003720FEF7F3F906462A2E01D03046CEE7A8
:10206000B648B74908604020486060208860022078
:10207000C8600020086101204861084603F0BBF8F1
:102080000020AC4908600D20486040208860002096
:10209000C8604FF480600861084603F089F80D209D
:1020A000FEF7CCF906462A2E01D03046A7E70EE00F
:1020B0004FF4004003F0E8F848B1002504E003F0D5
:1020C000BCF844F825006D1C082DF8D320349D4839
:1020D000406B40F22A610842EAD0082003F0D4F8AD
:1020E00028B1082003F0DAF80426304687E70220FA
:1020F00003F0CAF828B1022003F0D0F802263046D7
:102100007DE7202003F0C0F828B1202003F0C6F8B6
:102110000626304673E74FF4007003F0B5F830B18F
:102120004FF4007003F0BAF80726304667E703E083
:1021300003F083F82060241D4FF4001003F0A4F88E
:102140000028F5D140F2FF5003F0A8F8403C0025EC
:1021500015E014F82500000634F8251001F47F413D
:1021600040EA012054F8251001F47F0140EA1120D3
:1021700054F8251040EA116044F825006D1C102D1C
:10218000E7D330463BE770B5002400256E48006871
:10219000012867D1C00303F084F8A8B100BF06E0AE
:1021A00003F04BF86949096841F82400641C082CC5
:1021B000F6D36648006820306449086064480068C7
:1021C0002030634908604DE04FF4804003F069F827
:1021D000002847D05F4800685D490968401A2028F8
:1021E0002BD25C4800785A490968401A10F0030F56
:1021F00006D15848006856490968401A800806E028
:102200005448006852490968401A8008401C054635
:1022100000240FE050490968086803F011F8641CB5
:102220004D480068001D4C49086049480068001D81
:1022300047490860AC42EDD314E0002406E046496B
:10224000096851F8240002F0FBFF641C082CF6D347
:10225000414800682030404908603D48006820300F
:102260003B4908604FF4807003F01BF8D8B3364840
:102270000068D0B10EE002F0E0FF34490968086060
:1022800032480068001D3149086031480068001D6F
:102290002F4908604FF4001002F0F6FF28B12C48D7
:1022A00000682C4909688842E5D32C480068012859
:1022B00004D1FFF7A7FD2A49087002E02A20284927
:1022C00008704FF4807002F0F6FF00214CF23A30B3
:1022D00002F05EFF01202349086000201C490860CD
:1022E0001F48007870BDFFE7022002F0DAFF70B1EE
:1022F000022002F0E0FF00214CF23A3002F048FFE9
:10230000002013490860022015490870EAE70820F8
:1023100002F0C7FF40B3082002F0CDFF00214CF2CD
:102320003A3002F035FF00200949086004200C49CA
:102330000870D7E7FC01002004000020FFFF0F0019
:10234000100200200080014008000020240000202E
:102350001C0000200C0000202000002010000020A5
:102360001400002018000020FFE7202002F099FF51
:1023700070B1202002F09FFF00214CF23A3002F0B1
:1023800007FF002017490860062017490870A9E7D1
:10239000102002F086FF70B1102002F08CFF0021A7
:1023A0004CF23A3002F0F4FE00200E49086005209D
:1023B0000D49087096E74FF4007002F072FF78B193
:1023C0004FF4007002F077FF00214CF23A3002F037
:1023D000DFFE00200349086007200349087081E7F9
:1023E0002A207FE71C0000201400002001B5FE49D0
:1023F0000098086000BFFC4800680028FBD108BDB9
:10240000F948006820B1F8480068401EF6490860A5
:10241000704710B503F009FD10BD10B58021F348D9
:1024200002F06FFA2021F14802F06BFA0121F04826
:1024300003F061FA0A20FFF7D9FF0021EC4803F00E
:102440005AFAEC48808BEB49498F0844E949B1F8C6
:1024500058100844E749B1F876100844E549B1F846
:1024600094100844E349B1F8B2100844E149B1F8C6
:10247000D0100844DF49B1F8EE100844DD49B1F846
:102480000C110844DB49B1F82A1108440A2190FBD9
:10249000F1F0D94908840121D84803F02CFA0A2028
:1024A000FFF7A4FF0021D54803F025FAD44880881F
:1024B000D34949890844D249098A0844D049C98A7C
:1024C0000844CF49898B0844CD49498C0844CC49FC
:1024D000098D0844CA49C98D0844C949898E0844F0
:1024E000C749498F08440A2190FBF1F0C24948844A
:1024F0008021BE4802F005FA2021BC4802F0FFF915
:102500000121BB4803F0F7F90A20FFF76FFF002114
:10251000B74803F0F0F9B748808BB649498F0844B3
:10252000B449B1F858100844B249B1F876100844DB
:10253000B049B1F894100844AE49B1F8B21008445B
:10254000AC49B1F8D0100844AA49B1F8EE100844DB
:10255000A849B1F80C110844A649B1F82A11084459
:102560000A2190FBF1F0A44988840121A34803F0DB
:10257000C2F90A20FFF73AFF0021A04803F0BBF997
:102580009F4880889E49498908449D49098A084492
:102590009B49C98A08449A49898B08449849498CBF
:1025A00008449749098D08449549C98D08449449C0
:1025B000898E08449249498F08440A2190FBF1F022
:1025C0008D49C8848021894802F099F920218748E3
:1025D00002F097F90121864803F08DF90A20FFF7F0
:1025E00005FF0021824803F086F98248808B8149EB
:1025F000498F08447F49B1F8581008447D49B1F823
:10260000761008447B49B1F8941008447949B1F830
:10261000B21008447749B1F8D01008447549B1F8B0
:10262000EE1008447349B1F80C1108447149B1F82F
:102630002A1108440A2190FBF1F06F490885012115
:102640006E4803F058F90A20FFF7D0FE00216B48CE
:1026500003F051F96A488088694949890844684902
:10266000098A08446649C98A08446549898B08442F
:102670006349498C08446249098D08446049C98D01
:1026800008445F49898E08445D49498F08440A21FE
:1026900090FBF1F0584948858021544802F02FF909
:1026A0002021524802F02BF90121514803F023F96F
:1026B0000A20FFF79BFE00214D4803F01CF94D480E
:1026C00000884C49C98B08444A49898F08444949C4
:1026D000B1F85A1008444749B1F878100844454900
:1026E000B1F8961008444349B1F8B4100844414980
:1026F000B1F8D21008443F49B1F8F01008443D4900
:10270000B1F80E1108440A2190FBF1F03A49088013
:10271000384840883749098C08443649C98F0844ED
:102720003449B1F85C1008443249B1F87A100844D1
:102730003049B1F8981008442E49B1F8B610084451
:102740002C49B1F8D41008442A49B1F8F2100844D1
:102750002849B1F8101108440A2190FBF1F02649EC
:102760004880244880882349498C08442149B1F88D
:10277000401008441F49B1F85E1008441D49B1F8E3
:102780007C1008441B49B1F89A1008441949B1F863
:10279000B81008441749B1F8D61008441549B1F8E3
:1027A000F41008441349B1F8121108440A2190FBAF
:1027B000F1F0114988800F48C0880E49898C08447F
:1027C0000C49B1F8421008440A49B1F860100844B5
:1027D0000849B1F87E1008440649B1F89C10084435
:1027E0000449B1F8BA100DE084010020000C01404A
:1027F00000240140F0150020A8020020003C014008
:102800001C1700200844FE49B1F8D8100844FC49C0
:10281000B1F8F6100844FA49B1F8141108440A2135
:1028200090FBF1F0F749C880F5480089F449C98C5C
:102830000844F349B1F844100844F149B1F8621072
:102840000844EF49B1F880100844ED49B1F89E10F2
:102850000844EB49B1F8BC100844E949B1F8DA1072
:102860000844E749B1F8F8100844E549B1F81611F1
:1028700008440A2190FBF1F0E2490881E0484089D0
:10288000DF49098D0844DE49B1F846100844DC49A7
:10289000B1F864100844DA49B1F882100844D84904
:1028A000B1F8A0100844D649B1F8BE100844D44984
:1028B000B1F8DC100844D249B1F8FA100844D04904
:1028C000B1F8181108440A2190FBF1F0CD49488174
:1028D000CB488089CA49498D0844C949B1F8481094
:1028E0000844C749B1F866100844C549B1F88410D6
:1028F0000844C349B1F8A2100844C149B1F8C01056
:102900000844BF49B1F8DE100844BD49B1F8FC10D5
:102910000844BB49B1F81A1108440A2190FBF1F0B0
:10292000B8498881B648C089B549898D0844B449F9
:10293000B1F84A100844B249B1F868100844B049E7
:10294000B1F886100844AE49B1F8A4100844AC4967
:10295000B1F8C2100844AA49B1F8E0100844A849E7
:10296000B1F8FE100844A649B1F81C1108440A2128
:1029700090FBF1F0A349C881A148008AA049C98D04
:1029800008449F49B1F84C1008449D49B1F86A10B9
:1029900008449B49B1F8881008449949B1F8A61039
:1029A00008449749B1F8C41008449549B1F8E210B9
:1029B00008449349B1F8001108449149B1F81E1137
:1029C00008440A2190FBF1F08E4988828C48408AA5
:1029D0008B49098E08448A49B1F84E100844884949
:1029E000B1F86C1008448649B1F88A10084484494B
:1029F000B1F8A81008448249B1F8C61008448049CB
:102A0000B1F8E41008447E49B1F8021108447C4949
:102A1000B1F8201108440A2190FBF1F07949C882ED
:102A20007748808A7649498E08447549B1F8501034
:102A300008447349B1F86E1008447149B1F88C101C
:102A400008446F49B1F8AA1008446D49B1F8C8109C
:102A500008446B49B1F8E61008446949B1F804111B
:102A600008446749B1F8221108440A2190FBF1F0AB
:102A7000644908836248C08A6149898E0844604974
:102A8000B1F8521008445E49B1F8701008445C492E
:102A9000B1F88E1008445A49B1F8AC1008445849AE
:102AA000B1F8CA1008445649B1F8E810084454492E
:102AB000B1F8061108445249B1F8241108440A211A
:102AC00090FBF1F04F4948834D48008B4C49C98E2B
:102AD00008444B49B1F8541008444949B1F8721000
:102AE00008444749B1F8901008444549B1F8AE1080
:102AF00008444349B1F8CC1008444149B1F8EA1000
:102B000008443F49B1F8081108443D49B1F826117D
:102B100008440A2190FBF1F03A4988833848408BF9
:102B20003749098F08443649B1F8561008443449EA
:102B3000B1F8741008443249B1F892100844304991
:102B4000B1F8B01008442E49B1F8CE1008442C4911
:102B5000B1F8EC1008442A49B1F80A110844284990
:102B6000B1F8281108440A2190FBF1F02549C883E7
:102B70002348808B2249498F08442149B1F85810D5
:102B800008441F49B1F8761008441D49B1F8941063
:102B900008441B49B1F8B21008441949B1F8D010E3
:102BA00008441749B1F8EE1008441549B1F80C1162
:102BB00008441349B1F82A1108440A2190FBF1F0A6
:102BC000104988850121104802F095FE0A20FFF780
:102BD0000DFC00210C4802F08EFE0C4800880B49C9
:102BE000C98808440949098808440849498A0844A9
:102BF0000649098B08440549C98B0844034907E085
:102C0000F0150020A8020020003C01401C17002005
:102C1000898C0844FE49498D0844FD49098E0844C1
:102C2000FB49C98E08440A2190FBF1F0F94908825A
:102C3000F7484088F64909890844F5490989084454
:102C4000F349898A0844F249498B0844F049098CC0
:102C50000844EF49C98C0844ED49898D0844EC4982
:102C6000498E0844EA49098F08440A2190FBF1F093
:102C7000E8494882E6488088E54949890844E449AA
:102C8000098A0844E249C98A0844E149898B084411
:102C9000DF49498C0844DE49098D0844DC49C98D67
:102CA0000844DB49898E0844D949498F08440A21E0
:102CB00090FBF1F0D749C88510BD00202FE000EB54
:102CC0004001D54A52F8211000EB4002D24B03EBF1
:102CD000820252681144CF4A32F810204FF4A57393
:102CE0005A43514300EB4002CB4B03EB8202526844
:102CF0001203B1FBF2F1C74A22F81010114631F865
:102D000010106422514300EB400203EB82029268F0
:102D1000B1FBF2F1BF4A22F81010411CC8B21828CA
:102D2000CDDB7047BB48008800B2BA490886084628
:102D300040880988401A01B2B64841868088B54962
:102D40004988401A01B2B3488186C088B149898850
:102D5000401A01B2AF48C1860089AE49C988401AFD
:102D600001B2AC4801874089AA490989401A01B2D9
:102D7000A84841878089A7494989401A01B2A548D6
:102D80008187C089A3498989401A01B2A148C187B6
:102D9000008AA049C989401A01B29E48A0F8401093
:102DA000408A9C49098A401A01B29A48A0F8421008
:102DB000808A9849498A401A01B29648A0F844107E
:102DC000C08A9449898A401A01B29248A0F84610F4
:102DD000008B9049C98A401A01B28E48A0F8481069
:102DE000408B8C49098B401A01B28A48A0F84A10DE
:102DF000808B8849498B401A01B28648A0F84C1054
:102E0000C08B8449898B401A01B28248A0F84E10C9
:102E1000008C8049C98B401A01B27E48A0F850103E
:102E2000408C7C49098C401A01B27A48A0F85210B3
:102E3000808C7849498C401A01B27648A0F8541029
:102E4000C08C7449898C401A01B27248A0F856109F
:102E5000008D7049C98C401A01B26E48A0F8581014
:102E6000408D6C49098D401A01B26A48A0F85A1089
:102E7000808D6849498D401A01B26648A0F85C10FF
:102E8000C08D6449898D401A01B26248A0F85E1075
:102E9000704710B504465F48303030F914005F4980
:102EA00031F91410884209DA4FF480715C4801F05E
:102EB00026FD01205B4901F8140003E00020594978
:102EC00001F8140010BD10B50446564810F814005F
:102ED00018B1204601F04FFA02E0204601F0E6FA70
:102EE00010BD70B5B4B004460D461646204600F03D
:102EF000BBFEE878E17888421FD002224AA14C4804
:102F000003F0F6FEC8B901204A4908604A4901A801
:102F100004F0F6FE4648C16804F00BFA4749087011
:102F2000444BC92201A9424804F096F8434908706D
:102F30003F4804F0F3F941490870A6B1E079E97916
:102F400088420ED060796871A079A871E079E87143
:102F500020882880A078A870E078E870012034B03C
:102F600070BD0020FBE70020F9E72DE9F0438DB0AC
:102F700004462146684604F0BCFA06002ED12046DD
:102F800004F047FEC5B21EE09DF8240010F0100FBB
:102F900013D009F101001FFA80F92F206055611943
:102FA000481C0DF1250104F03BFE2046FFF7DDFF34
:102FB00006460020605536B10FE008F101001FFA07
:102FC00080F80798074407A9684604F0C6FA060087
:102FD00003D19DF825000028D6D100BF30460DB0A2
:102FE000BDE8F08310B5CAB0002004F0D7FD144945
:102FF000002003F06AFE0B2000F06DFC3B2000F087
:103000006AFC122000F067FC122000F064FC19E05A
:103010001C170020A80200205C0000209C800008F3
:1030200000140140280200206C6F672E7478740031
:103030008C11002090010020CC8000088901002024
:103040005C0F0020072000F046FC0622AFF22801AA
:10305000F94803F04DFE002868D10120F7490860C7
:1030600047A800F001FEF6A136A804F049FEF34B94
:103070001E2236A9F04803F0EFFF0446EE4804F0A4
:10308000F2F80446F6A136A804F03AFEEA48C16810
:1030900004F04FF90446E94B1E2236A9E64803F036
:1030A000DBFF0446E44804F0DEF804469DF8230103
:1030B0009DF822119DF821219DF81F31CDE90032A4
:1030C000CDE902109DF81E31BDF81C21ECA13EA8EF
:1030D00004F016FED848C16804F02BF90446D74B1B
:1030E00024223EA9D44803F0B7FF0446D24804F096
:1030F000BAF80446EE4904A804F002FECE48C168BE
:1031000004F017F90446CD4BC82204A9CA4803F0BD
:10311000A3FF0446C84804F0A6F80446C64804F0D5
:10312000FDF80446E3A004F0DBFD02E0E6A004F0B5
:10313000D7FD0B2000F0C3FB3B2000F0C0FB1220AA
:1031400000F0BDFB122000F0BAFB072000F0B7FB37
:103150004AB010BD30B591B0002004F01FFDDF492A
:10316000002003F0B2FD0B2000F0B5FB3B2000F087
:10317000B2FB122000F0AFFB122000F0ACFB0720E6
:1031800000F0A9FB1222AFF26011AB4803F0B0FDD2
:1031900000287DD10120A94908600EA800F064FD37
:1031A0009DF83F009DF83E109DF83D209DF83B3076
:1031B000CDE90032CDE902109DF83A30BDF8382053
:1031C000C7A107A804F09CFD9B48C16804F0B1F8B2
:1031D00005469A4B1B2207A9974803F03DFF054679
:1031E000954804F040F80546002418E09248C1686C
:1031F00004F09FF80546C44830F91420C3A105A87F
:1032000004F07EFD8D4B072205A98B4803F024FFB7
:103210000546894804F027F80546601CC4B2182CFE
:10322000E4DBBCA107A804F06BFD8348C16804F08F
:1032300080F80546814B1B2207A97F4803F00CFF4D
:1032400005467D4804F00FF8054600241EE07A4844
:10325000C16804F06EF80546B54810F8140020B1B6
:10326000B4A105A804F04CFD03E0AFA105A804F04B
:1032700047FD724B072205A96F4803F0EDFE054696
:103280006D4803F0F0FF0546601CC4B2182C00E046
:1032900003E0DCDB684804F041F80B2000F00FFB92
:1032A0003B2000F00CFB122000F009FB122000F084
:1032B00006FB072000F003FB11B030BD00B585B060
:1032C000012144F2040001F005FD00214FF480408B
:1032D00001F01AFD4FF40070ADF8100003208DF8D6
:1032E000120018208DF8130004A9944801F05CFA2C
:1032F0004FF48060ADF8100004208DF8130004A98D
:103300008E4801F051FA4FF4E13000900020ADF802
:103310000400ADF80600ADF80800ADF80C000C2074
:10332000ADF80A006946864801F085FD012240F2A9
:103330002771834801F0F9FD012240F225518048B0
:1033400001F0F3FD01217E4801F0E3FD05B000BD71
:1033500008B54FF4C06001F051F931208DF800003C
:1033600000208DF801008DF8020001208DF8030087
:10337000684601F048F903208DF8000000208DF820
:10338000010001208DF802008DF80300684601F06D
:103390003AF90B208DF8000001208DF80100002083
:1033A0008DF8020001208DF80300684601F02BF92A
:1033B0003B208DF8000001208DF8010000208DF8E1
:1033C000020001208DF80300684601F01CF9072077
:1033D0008DF8000002208DF8010000208DF8020019
:1033E00001208DF80300684601F00DF908BD0EB507
:1033F00000240026FFF70DF8524800684FF47A7257
:10340000B0FBF2F1B1F1807F00D3ABE021F07F405F
:10341000401E4FF0E022506150170F22002809DAB9
:1034200013074FEA136C484B00F00F073F1F03F8D8
:1034300007C08FE08AE000008C110020900100207E
:1034400042415454455259204D4F4E49544F5249D0
:103450004E47204C4F472046494C45200D0A00005E
:103460004D4144452042593A202020202020202050
:103470002020202020202020202020200D0A0000B5
:10348000435245415445442054494D453A20253442
:10349000642D2532642D2532642025302E32643A85
:1034A00025302E32643A25302E3264200A0D000079
:1034B000988100080A0D46696C6520637265617425
:1034C000656420210A0D00000A0D46696C652065BF
:1034D00078697374656420210A0D00005C0F002078
:1034E0000D0A54696D653A202534642D2532642D0A
:1034F0002532642025302E32643A25302E32643A4B
:1035000025302E3264200000D802002020202535EE
:10351000640000000D0A5741524E494E4720535453
:103520004154453A20202020202020202020200027
:103530002802002020205741524E2100000801405F
:10354000003801407C83000818ED00E013071F0ECF
:10355000E54B1F5400BF00204FF0E0229061072090
:10356000106100BFFFF7F4FEFFF7A8FE042002F091
:10357000A4F8A0F52541A53913D0DCA004F0B0FBD8
:1035800000F0F1FBE1A004F0ABFBE64800F017FC13
:10359000E44800F086FB4AF2A551042002F089F8C5
:1035A0001DE07B2001F070FA18B1DFA004F098FB59
:1035B00006E07A2001F068FA10B1E3A004F090FB75
:1035C000E9A004F08DFB02F00DF80121084601F09E
:1035D000A5FF01F0FFFFAFF27C1004F081FB00F0CB
:1035E00041FE00F0A5FC00F0B1FDFDF7E1F8E64971
:1035F0000870084600782A2804D1E448FDF71EF92F
:10360000E1490870E04800782A2807D1DF49B1F87D
:103610004C100804FDF74CFCDB490870DA480078D0
:103620002A2807D10120FDF737FCD7490870D8A018
:1036300004F056FB01F08CFBFFF7D4FC0121D848C5
:1036400001F012FF0121D74801F00EFFB54800F04C
:103650000BFBD54800F008FBD4A004F041FB40F27E
:10366000E730FEF7C3FE0A250FE02946D6A004F096
:1036700037FBFEF7D2FEFFF720FBFFF753FB40F2CC
:10368000E730FEF7B3FE681EC5B2002DEDDCAFF2E9
:10369000342004F025FBA348C37882780188CCA0AD
:1036A00004F01EFBCF4804F01BFB93E03246BE49FA
:1036B0009C48FFF716FC20B1CB480088401CCA4943
:1036C0000880C94800881E2825D0C74800883C28A3
:1036D00021D0C54800885A281DD0C34800887828C2
:1036E00019D0C1480088962815D0BF480088B42852
:1036F00011D0BD480088D2280DD0BB480088F028E2
:1037000009D0B9480088B0F5877F04D0B648008852
:10371000B0F5967F11D1FEF780FEFFF7CEFAFFF7E6
:1037200001FB002407E02046FFF7B3FB2046FFF72C
:10373000CAFB601CC4B2182CF5DBAB480088B0F59E
:10374000967F46D1FFF706FD7648C079754989799D
:10375000744A5279CDE9002102907248C378827888
:103760000188AFF2842004F0BBFA002408E09F48EF
:1037700030F81410AFF26C2004F0B2FA601CC4B23E
:10378000182CF4DB6748C07966498979654A527913
:10379000CDE9002102906348C37882780188AFF2B6
:1037A000C02004F09DFA00240EE0914810F81400A7
:1037B00020B1AFF2802004F093FA03E0AFF298203A
:1037C00004F08EFA601CC4B2182CEEDB002086498F
:1037D000088001266AE710B50446E1B2854801F089
:1037E00000FC00BF8348008810F0800FFAD020460C
:1037F00010BD10B500BF7F48008810F0200FFAD030
:103800007C4801F0F2FB10BD70B5054600240CE0C9
:1038100000BF2021774801F03BFC0028F9D0754813
:1038200001F0E3FB2855601C84B2042CF0D370BD7A
:1038300070B504460D46E1B26E4801F0D2FB00BF00
:1038400040216C4801F024FC0028F9D0204670BDCE
:103850007CB5054600240020009001901BE000BFCD
:103860002021644801F014FC0028F9D0614801F0DF
:10387000BCFB2146641C4DF82100601E5DF8200051
:10388000302804D3601E5DF82000392803D95AA0DF
:1038900004F026FA641E022CE1D301983038009916
:1038A000303901EB810100EB4104AC4205D92946D6
:1038B0005DA004F015FAFF207CBDE0B2FCE700F04B
:1038C0001F020121914042094FF0E02303EB8202E5
:1038D000C2F80011704700F01F02012191405E4ABA
:1038E000430942F82310704700E400E00D0A0A2063
:1038F000525443206E6F742079657420636F6E6636
:103900006967757265642E2E2E2E00000D0A2052F6
:10391000544320636F6E666967757265642E2E2E40
:103920002E000000580200200D0A0A20506F776513
:1039300072204F6E205265736574206F63637572D9
:103940007265642E2E2E2E000D0A0A2045787465AD
:10395000726E616C205265736574206F636375725B
:103960007265642E2E2E2E000D0A204E6F206E657D
:10397000656420746F20636F6E6669677572652079
:103980005254432E2E2E2E007F0100200C030020C7
:103990000D0A0D54455354204F4B210D0A0D0000C4
:1039A000080002405804024062020020496E697417
:1039B00069616C697A652C20506C6561736520774C
:1039C0006169743A2000000025642E2E200000005A
:1039D000253032642D253032642D253032640A0DB5
:1039E000000000006082000880010020A802002082
:1039F00028020020003801400A0D0D506C656173EB
:103A00006520656E7465722076616C6964206E75E0
:103A10006D626572206265747765656E2030206125
:103A20006E642039000000000A0D0D506C65617352
:103A30006520656E7465722076616C6964206E75B0
:103A40006D626572206265747765656E20302061F5
:103A50006E6420256400000080E100E001468A7861
:103A6000032A01DB0A2A01DD002070470B79C878A0
:103A7000C01A192807DB13B94879022803DB0A2A80
:103A800005D10020F1E7032A01D10020EDE7012054
:103A9000EBE72DE9F041044694F80580E5782679B6
:103AA000A7782046FFF7DAFF08B30120207208F15B
:103AB000010000F0FF08B8F1180F10D14FF0000816
:103AC000701CC6B2072E00D10026781EF049085C93
:103AD000A84202D10025781CC7B2681CC5B2A770E5
:103AE00084F80580E57026710120BDE8F081002092
:103AF000207200BFF9E72DE9F04102463C27B2FBF6
:103B0000F7FC07FB1C27CF713C27B2FBF7F2B2FB97
:103B1000F7FC07FB1C278F713C27B2FBF7F2182735
:103B2000B2FBF7FC07FB1C274F711827B2FBF7F716
:103B3000B8B2871D4FF0070C97FBFCF80CFB187709
:103B40000F710023012600BF40F26D1513F0030F23
:103B50000BD16D1C1BB1642B01D0C82B05D1771E76
:103B6000FFB23E0001D040F26D15A84200DA04E039
:103B7000471BB8B25F1CFBB2E6E700BF03F5FA676C
:103B80000F8015F0010F03D03A2801DD471CB8B2B1
:103B9000012408E0671EDFF8F8C21CF80770C71B95
:103BA000B8B2671CFCB2671EDFF8E4C21CF80770ED
:103BB0008742EFDD8C70471CCF70BDE8F081F0B517
:103BC000024600BF118840F26D1401FB04F0148816
:103BD000012C0FDBCC1CE61704EB967600EBA6005D
:103BE0004C1E642694FBF6F4001B4C1EB60094FB9E
:103BF000F6F42044A74C001B9478641EA5B2002361
:103C000004E0A34CE45C20445C1CE3B2AB42F8DB70
:103C10004FF4C87691FBF6F706FB171686B1CE1760
:103C200001EB9676B610B1EB860605D1642691FBC2
:103C3000F6F706FB17161EB99478022C00DD401E1D
:103C4000D4782044441E944E74435679C6EB4617EC
:103C5000C7EB062604EB06149679C6EB061604EBB2
:103C60008604D679A019F0BD70B5044600BF01F0F6
:103C700075FC054601F072FC8542F8D121462846C4
:103C8000FFF739FF2046FFF704FF012070BD10B594
:103C9000044601F09FFC204601F069FC01F09AFC0B
:103CA00010BD3EB505462846FFF789FF0446694624
:103CB0002046FFF720FF6846FFF7D0FE08B1A4F5C5
:103CC00061642046FFF7E3FF01203EBD08B50121F6
:103CD0004FF0C05001F00BF80020009004E0BDF858
:103CE0000000401C80B20090BDF8000041F2883115
:103CF0008842F4DB042001F0E0FCA0F52541A53961
:103D00002DD0012001F009FD01F0AAFC012000F0F6
:103D100051FF00BF412000F0B7FE0028FAD04FF459
:103D2000807000F060FF012000F063FF01F05AFC9A
:103D300001F050FC47F6FF7001F026FC01F04AFC50
:103D40004AF2947001F013FC01F044FC4AF2A551D0
:103D5000042001F0AEFC002001F0DFFC01E001F0E6
:103D600041FC002008BD10B501214FF0C05000F00B
:103D7000BEFF012001F0D1FC01F072FC012000F037
:103D800019FF00BF412000F07FFE0028FAD04FF459
:103D9000807000F028FF012000F02BFF01F022FCD2
:103DA00001F018FC0121084601F0B8FB01F012FCFB
:103DB00047F6FF7001F0E8FB01F00CFC10BD10B5F8
:103DC0000446FF206071A071E071E070A070208057
:103DD000324803F085FF32A003F082FF03E0172092
:103DE000FFF736FD60716079FF28F8D0617932A065
:103DF00003F076FF32A003F073FF03E03B20FFF7F0
:103E000027FDA071A079FF28F8D0A1792AA003F09E
:103E100067FF31A003F064FF03E03B20FFF718FDCC
:103E2000E071E079FF28F8D0E17923A003F058FF92
:103E30002FA003F055FF03E01F20FFF709FDE070FE
:103E4000E078FF28F8D0E1781BA003F049FF2DA00F
:103E500003F046FF03E00C20FFF7FAFCA070A07807
:103E6000FF28F8D0A17814A003F03AFF2BA003F0AC
:103E700037FF05E06320FFF7EBFC00F5FA602080D8
:103E80002088FF28F6D021880BA003F029FF10BD61
:103E90002883000875250B00805101003483000839
:103EA0000D0A2020506C65617365205365742048AD
:103EB0006F757273000000003A2020256400000036
:103EC0000D0A2020506C6561736520536574204D88
:103ED000696E7574657300000D0A2020506C656171
:103EE000736520536574205365636F6E64730000BF
:103EF0000D0A2020506C6561736520536574204461
:103F0000617900000D0A2020506C656173652053B3
:103F10006574204D6F6E7468000000000D0A20204B
:103F2000506C65617365205365742059656172003A
:103F300070B50F240325012148F29C2000F0CAFE31
:103F4000BB4800F0BAFCFF20B94908800020C870C7
:103F5000B84800F029FCB64800F0AFFC0320B44993
:103F600008800020C870B44800F01EFCB04800F083
:103F7000A4FC3F20AE4908800020C870AF4800F084
:103F800013FCAB4800F099FC4FF4F860A849088096
:103F90000020C870AA4800F007FCAA4801F012FCF3
:103FA000A94801F05FFC0020A7490860012C01DD51
:103FB000012000E00020A4490871012048714FF45D
:103FC000602088600020C860084604749D4801F0A5
:103FD00026FC0723062200219A4801F0B8FC07239B
:103FE0000D220121974801F0B2FC0723052202218E
:103FF000944801F0ACFC07230C220321914801F006
:10400000A6FC0723042211468E4801F0A0FC0723DA
:104010000B2205218B4801F09AFC0723032206217D
:10402000884801F094FC07230A221946854801F0CC
:104030008EFC072301220821824801F088FC072317
:1040400008220A217F4801F082FC07230F220B215E
:104050007C4801F07CFC07231A460C21794801F0CA
:1040600076FC07230E220D21764801F070FC072311
:1040700002220E21734801F06AFC072309220F2156
:10408000704801F064FC01216E4801F0F4FB01214D
:104090006C4801F0FBFB6B4801F00FFC00BF694866
:1040A00001F010FC0028FAD1664801F015FC00BFB1
:1040B000644801F016FC0028FAD1644801F082FB44
:1040C000614801F0CFFB00205F490860012D01DD50
:1040D000012000E000205C490871012048714FF484
:1040E000602088600020C86008460574574801F0C9
:1040F00096FB072302220521544801F028FC0723E0
:1041000001221946514801F022FC0723032208210D
:104110004E4801F01CFC01214C4801F0ACFB012190
:104120004A4801F0B3FB494801F0C7FB00BF4748CC
:1041300001F0C8FB0028FAD1444801F0CDFB00BFD4
:10414000424801F0CEFB0028FAD170BD10B5012124
:10415000084600F0B2FD3E4801F0C2F800203D499B
:104160008862202008620002486240118861800055
:10417000C861802048610020086188609620C8607E
:1041800030484C30086034484860314801F041F90B
:10419000012202212E4801F072F901212C4801F080
:1041A00063F90121022000F088FD2C4801F098F805
:1041B00000202849886220200862000248624011DD
:1041C00088618000C86180204861002008618860A3
:1041D0001E20C8601D484C300860214848601F48B8
:1041E00001F017F9012202211C4801F048F90121D0
:1041F0001A4801F039F910BD70B504460D4640F675
:10420000FF76072301222946204601F0A0FBA06883
:1042100040F48000A06004E03000A6F1010600D167
:1042200070BD206810F0020FF6D0E06C80B2F7E7A6
:104230009E01002000080140000C014000100140D8
:10424000001C014000240140B0150020003C01404A
:1042500008000240C4150020F01500205804024058
:104260001C1700200EB501214FF4FE7000F032FD46
:1042700002A800F022FB4FF4AA40ADF8080003208A
:104280008DF80A0010208DF80B0002A9D54800F027
:104290008BFA02A800F011FB4CF2A820ADF8080040
:1042A00003208DF80A0010208DF80B0002A9CE48DB
:1042B00000F07AFA02A800F000FB4FF4AA50ADF823
:1042C000080003208DF80A0010208DF80B0002A9C9
:1042D000C64800F069FA02A800F0EFFA4AF6AA30E0
:1042E000ADF8080003208DF80A0010208DF80B00AF
:1042F00002A9BF4800F058FA02A800F0DEFA022036
:10430000ADF8080003208DF80A0048208DF80B0056
:1043100002A9B84800F048FA02A800F0CEFA4DF21F
:10432000FC50ADF8080003208DF80A0010208DF82D
:104330000B0002A9B04800F037FA4FF48041AA48B8
:1043400000F0DDFA4FF40071A74800F0DAFA4FF4FC
:104350008071A74800F0D5FA0220009000208DF867
:1043600004000C208DF8050001208DF80600684639
:1043700001F04EFC0EBD10B50446182C71D2DFE8DA
:1043800004F00C12181E23282E34393E43494F5591
:104390005B60656A71777D82878D4FF4004192483A
:1043A00000F0ADFA80E04FF40061914800F0A7FA08
:1043B0007AE04FF400418E4800F0A1FA74E0202129
:1043C0008D4800F09CFA6FE04021884800F097FA91
:1043D0006AE04FF48071834800F091FA64E04FF492
:1043E0008051804800F08BFA5EE04021824800F066
:1043F00086FA59E002217E4800F081FA54E020213B
:104400007B4800F07CFA4FE04FF480617A4800F07E
:1044100076FA49E04FF48041774800F070FA43E0C3
:104420004FF40071724800F06AFA3DE04FF4005119
:104430006F4800F064FA37E008216F4800F05FFA37
:1044400032E080216C4800F05AFA2DE004216A48DD
:1044500000F055FA28E04FF48061624800F04FFA0E
:1044600022E020E04FF40041634800F048FA1BE0EE
:104470004FF48071604800F042FA15E008215C4872
:1044800000F03DFA10E08021594800F038FA0BE0C6
:104490004FF48051584800F032FA05E01021564898
:1044A00000F02DFA00E000BF00BF10BD10B50446BB
:1044B000182C71D2DFE804F00C12181E23282E34B9
:1044C000393E43494F555B60656A71777D82878DC0
:1044D0004FF40041444800F014FA80E04FF40061CA
:1044E000434800F00EFA7AE04FF40041404800F0F3
:1044F00008FA74E02021404800F003FA6FE0402100
:104500003A4800F0FEF96AE04FF48071354800F057
:10451000F8F964E04FF48051324800F0F2F95EE0BF
:104520004021354800F0EDF959E00221304800F013
:10453000E8F954E020212E4800F0E3F94FE04FF471
:1045400080612D4800F0DDF949E04FF480412A48B0
:1045500000F0D7F943E04FF40071254800F0D1F99D
:104560003DE04FF40051224800F0CBF937E008213C
:10457000214800F0C6F932E080211F4800F0C1F95F
:104580002DE004211C4800F0BCF928E04FF48061C4
:10459000144800F0B6F922E020E04FF4004116483C
:1045A00000F0AFF91BE04FF48071134800F0A9F957
:1045B00015E008210E4800F0A4F910E080210C4815
:1045C00000F09FF90BE04FF480510B4800F099F98F
:1045D00005E01021084800F094F900E000BF00BF9A
:1045E00010BD000000080140000C01400010014017
:1045F00000140140001801400020014031490143EE
:10460000314A1160704770B5002100230F22C47831
:104610000CB32D4C246804F4E064C4F5E064210A72
:10462000C1F10403CA40447804FA03F184781440C9
:1046300021430901254C0678A155047804F01F0593
:104640000124AC4005786D114FF0E02606EB85059E
:10465000C5F8004109E0047804F01F050124AC40CE
:104660001B4D0678761145F8264070BD194A0A4060
:104670000243154B1B1F1A60704739B1124A121DB5
:1046800012680243104B1B1D1A6006E00E4A121DF1
:10469000126882430C4B1B1D1A607047042808D116
:1046A0004FF0E021096941F004014FF0E02211616F
:1046B00007E04FF0E021096921F004014FF0E0220A
:1046C000116170470000FA050CED00E000E400E025
:1046D00080E100E080FFFF1F10B50446C549601A65
:1046E0008C422FD009DCC448201810D0B0F5806F60
:1046F00016D0B0F5006F4AD11BE0B0F5806F2AD01C
:10470000B0F5006F30D0B0F5406F40D135E00121F9
:10471000042000F0F9FA0021042000F0F5FA37E057
:104720000121082000F0F0FA0021082000F0ECFA46
:104730002EE00121102000F0E7FA0021102000F007
:10474000E3FA25E00121202000F0DEFA00212020FC
:1047500000F0DAFA1CE00121402000F0D5FA002137
:10476000402000F0D1FA13E00121802000F0CCFAC3
:104770000021802000F0C8FA0AE00121080200F0C0
:10478000C3FA00214FF4807000F0BEFA00E000BFD1
:1047900000BF10BD10B50121084600F0B5FA002198
:1047A000012000F0B1FA10BD2DE9F04102460025CC
:1047B0000026002000230024002791F803C00CF0FD
:1047C0000F0591F803C01CF0100F03D091F802C040
:1047D0004CEA050591F800C0BCF1000F31D0146817
:1047E00000202BE04FF0010C0CFA00F3B1F800C0F0
:1047F0000CEA03069E4220D183004FF00F0C0CFA06
:1048000003F7BC4305FA03FC4CEA040491F803C027
:10481000BCF1280F06D14FF0010C0CFA00FCC2F8D5
:1048200014C00AE091F803C0BCF1480F05D14FF065
:10483000010C0CFA00FCC2F810C0401C0828D1D3AF
:104840001460B1F800C0BCF1FF0F34DD54680020E3
:104850002EE000F1080C4FF0010808FA0CF3B1F853
:1048600000C00CEA03069E4221D183004FF00F0CDA
:104870000CFA03F7BC4305FA03FC4CEA040491F874
:1048800003C0BCF1280F05D100F1080C08FA0CF8A0
:10489000C2F8148091F803C0BCF1480F07D100F1B1
:1048A000080C4FF0010808FA0CF8C2F81080401C00
:1048B0000828CED35460BDE8F0814FF6FF71018027
:1048C000022181700421C170704702460020936864
:1048D0000B4201D0012000E00020704701468868AB
:1048E00080B2704702460020D3680B4201D00120FD
:1048F00000E0002070470146C86880B2704701613F
:104900007047416170470AB1016100E04161704741
:10491000C16070474FF480320A43826181618261D5
:1049200082698269704702460020344B18684FF64E
:104930008073184040EA02100843304B18607047FB
:104940002F49C8617047F0B50A46002300240021B2
:1049500000252A4E7168C0F3034583B200F4401667
:10496000B6F5401F08D121F07061244E766826F01C
:104970007066224F7E6012E000F48016B6F5801F4C
:1049800006D1032606FA05F4A14341F0706106E062
:10499000460D360103FA06F6B14341F0706122B1CB
:1049A000460D360103FA06F63143144E7160F0BD30
:1049B00030B500228B071C0F0F2303FA04F20F4BB4
:1049C00008338C1053F8243093430C4C08348D106A
:1049D00044F8253023468C1053F824308C07240FDC
:1049E00000FA04F42343054C08348D1044F82530B4
:1049F00030BD00000014014000F8FEBF000001407F
:104A000000002042DC48006840F00100DA490860FC
:104A100008464068D9490840D749486008460068B8
:104A2000D7490840D44908600846006820F480202F
:104A300008600846406820F4FE0048600020886056
:104A40007047CD49096821F48031CB4A1160114685
:104A5000096821F480211160B0F5803F03D0B0F5E2
:104A6000802F0ED106E0C449096841F48031C24A62
:104A7000116007E0C049096841F4A021BE4A1160F5
:104A800000E000BF00BF704710B5014600220023C0
:104A900000204A11012A02D1B74C236806E0022AFD
:104AA00002D1B54C236A01E0B34C636A01F01F02E6
:104AB000012494401C4201D0012000E0002010BDE0
:104AC00038B5002000900024002500BF3120FFF7FA
:104AD000DBFF05460098401C00901DB90098B0F51A
:104AE000A06FF3D13120FFF7CFFF08B1012400E020
:104AF0000024204638BD014600209F4A106820F05F
:104B0000F80040EAC100106070479E490860704795
:104B100002460020984B586820F47C1042EA0103BA
:104B20001843954B58607047964908667047014690
:104B30000020914A506820F00300084350607047FD
:104B40008D48406800F00C007047014600208A4AFA
:104B5000506820F0F0000843506070470146002084
:104B6000854A506820F4E060084350607047014671
:104B70000020814A506820F4605040EAC100506033
:104B8000704729B17C4A527A02437B4B5A7204E047
:104B9000794A527A8243784B5A7270477A49086050
:104BA000704701460020744A506820F44040084392
:104BB000506070470021754A11706F4A82F82010CA
:104BC000012802D0042808D103E001216F4A1170A6
:104BD00004E005216D4A117000E000BF00BF70477E
:104BE0006B49086070476449096A0143624A11626F
:104BF0007047674944390860704730B5002100228A
:104C0000002400235C4D6D6805F00C0121B10429DE
:104C100005D0082923D105E05E4D056022E05D4DF9
:104C200005601FE0544D6D6805F47012022505EB18
:104C30009242514D6D6805F480341CB9564D554370
:104C400005600BE04C4D6D6815F4003F03D0524DEC
:104C50005543056002E04F4D5543056002E04D4D60
:104C6000056000BF00BF444D6D6805F0F001090903
:104C70004A4D6B5C0568DD4045603F4D6D6805F44D
:104C8000E061090A454D6B5C4568DD4085603A4D41
:104C90006D6805F46051C90A404D6B5C4568DD40A4
:104CA000C560354D6D6805F44041890B3C4D6B5C2A
:104CB000C568B5FBF3F5056130BD29B12E4A5269CF
:104CC00002432D4B5A6104E02B4A526982432A4B1E
:104CD0005A61704729B1284A92690243264B9A616A
:104CE00004E0254A92698243234B9A61704729B1B7
:104CF000214AD2690243204BDA6104E01E4AD2699C
:104D000082431D4BDA61704729B11B4AD2680243C6
:104D1000194BDA6004E0184AD2688243164BDA6015
:104D2000704729B1144A12690243134B1A6104E017
:104D3000114A12698243104B1A6170471449403975
:104D4000086070470F49C86470470B49C8717047C5
:104D50000948406A40F08070074948627047014640
:104D60000020054A92680A4201D0012000E000209C
:104D70007047014988727047001002400000FFF838
:104D8000FFFFF6FE00004242D800424220100240DF
:104D90008004424200127A0000093D00A201002076
:104DA000B201002010B50446D749601A8C422BD0BE
:104DB00006DCD648201813D0B0F5806F38D119E042
:104DC000B0F5806F2AD0B0F56C4F31D10121880346
:104DD000FFF79AFF00214FF48040FFF795FF28E08E
:104DE00001214804FFF79DFF00214FF40030FFF739
:104DF00098FF1EE001218804FFF793FF00214FF484
:104E00008020FFF78EFF14E00121C804FFF789FF1F
:104E100000214FF40020FFF784FF0AE0012108057C
:104E2000FFF77FFF00214FF48010FFF77AFF00E0CB
:104E300000BF00BF10BD2DE9F04786B005460E4605
:104E40000024A24600BF00BF00272F462C8A4CF644
:104E5000FF700440F08804432C82AC894EF6F310B6
:104E60000440B08831890843718908430443AC8108
:104E7000AC8A4FF6FF400440B0890443AC8201A8DD
:104E8000FFF7BBFEA248874202D1DDF810A001E087
:104E9000DDF80CA00AEBCA0000EB0A1031688900AB
:104EA000B0FBF1F86420B8FBF0F0040120096421A4
:104EB00001FB1089322000EB0910B0FBF1F000F08B
:104EC0000F0004432C8106B0BDE8F0874FF4165163
:104ED000016000218180C18001810C21418100217C
:104EE0008181704710B502460020108A4FF2FF03FF
:104EF00018400B884C8823438C882343CC88234359
:104F00001843108210BD0021018041808180C18042
:104F1000704721B1828942F40052828104E0828983
:104F20004DF6FF731A4082817047F0B503460024A6
:104F30000026002500201846C1F3421401F01F0688
:104F4000012707FA06F5012C01D10C3004E0022CF0
:104F500001D1103000E014301AB107682F43076008
:104F600002E00768AF430760F0BD1AB1838A0B43C4
:104F7000838202E0838A8B4383827047028A4FF6E2
:104F8000F0731A400282028A0A43028270478289C1
:104F90004FF2FF731A40828182890A4382817047EF
:104FA00021B1828942F00202828104E082894FF6B7
:104FB000FD731A4082817047028A4FF6DF731A40F0
:104FC0000282028A0A430282704721B1028A42F4B5
:104FD0008042028204E0028A4BF6FF731A4002828A
:104FE0007047C1F308028280704701468888C0F389
:104FF00008007047818941F0010181817047028B6F
:10500000D2B20283028B42EA012202837047028BF2
:1050100002F47F420283028B0A430283704721B16C
:10502000828A42F02002828204E0828A4FF6DF7395
:105030001A408282704721B1828A42F01002828235
:1050400004E0828A4FF6EF731A408282704721B1E2
:10505000828A42F00802828204E0828A4FF6F77365
:105060001A4082827047828A4FF6FB731A4082820E
:10507000828A0A438282704721B1828A42F0020208
:10508000828204E0828A4FF6FD731A408282704762
:105090000246002013880B4201D0012000E00020CE
:1050A0007047CA430280704770B502460B46002421
:1050B000002100250020C3F3421503F01F01012643
:1050C00006FA01F1012D02D19689314006E0022D48
:1050D00002D1168A314001E0968A31401C12012625
:1050E00006FA04F41688344011B10CB1012000E036
:1050F000002070BD10B5002200230A120124944044
:10510000A3B2DC43048010BD004C004000BCFFBFD4
:105110000038014000206949086048608860C86024
:1051200048628862C862664888630020C863704726
:105130000021624A516847F6FF6291430278C368D2
:105140001A4383681A4303691A4343681A4343693D
:105150001A431143594A5160704700210170416060
:105160008160C160016141617047564908607047C4
:105170005249096821F00301504A1160114609683B
:105180000143116070474D48006800F0030070470C
:1051900029B14A4AD26B0243484BDA6304E0474ADA
:1051A000D26B8243454BDA637047474908607047CA
:1051B0000021424B02689A601A46D1686FF30A01D7
:1051C000D0E901231A43C3681A4303691A43114300
:1051D0003A4AD16070470021016041608160C1603E
:1051E0000161704735480069C0B2704701463348D5
:1051F0000844406970470021304B02685A62426897
:105200009A621A46D16A21F0F701D0E902231A43C3
:1052100003691A4343691A431143284AD16270470C
:105220004FF0FF310160002141608160C160016188
:10523000416170472148006B7047244800687047FF
:105240002249086070471D48806C70471E49143120
:10525000086070471C491831086070471A491C31B2
:105260000860704718492031086070471849086085
:10527000704718490860704701218143164A116040
:105280007047164908607047014600200B4A526B70
:105290000A4201D0012000E00020704707498863DE
:1052A000704701460020054A526B0A4201D0012096
:1052B00000E000207047014988637047008001408A
:1052C000FF07C000A00030428C05304280800140C2
:1052D000AC013042B0013042B4013042B80130423A
:1052E000016821F0010101600021016041608160DD
:1052F000C160864A811A90425BD012DC844AA0EBDE
:10530000020190423AD007DC824941181BD014298F
:1053100022D028297AD128E0142938D0282975D11B
:105320003EE0B1F56C7F5BD006DCB1F5627F49D021
:10533000B1F5677F6AD14CE0B1F5717F57D0B1F517
:10534000767F63D15BE072494439496841F00F01CF
:105350006F4A443A51605AE06D494439496841F016
:10536000F0016B4A443A516051E069494439496857
:1053700041F47061664A443A516048E064494439F6
:10538000496841F47041624A443A51603FE06049E3
:105390004439496841F470215D4A443A516036E02D
:1053A0005B494439496841F47001594A443A5160B3
:1053B0002DE057494439496841F07061544A443AF4
:1053C000516024E05449096841F00F01524A1160CC
:1053D0001DE05149096841F0F0014F4A116016E0A3
:1053E0004D49096841F470614B4A11600FE04A4928
:1053F000096841F47041484A116008E006E04649F6
:10540000096841F47021444A116000E000BF00BF08
:10541000704710B50022026847F6F0739A430C6A91
:105420008B6823430C6923434C6923438C692343D2
:10543000CC6923434C6A23438C6A23431A4302609A
:10544000CB6843600B6883604B68C36010BD00216C
:10545000016041608160C160016141618161C16140
:10546000016241628162704721B1026842F001022B
:10547000026003E0026822F00102026070471AB184
:1054800003680B43036002E003688B4303607047CB
:105490000146486880B2704701460020002211F0A2
:1054A000805F03D01C4B1B1F1A6802E0184B443B63
:1054B0001A680A4201D0012000E00020704710F075
:1054C000805F02D01449086002E011494439486005
:1054D000704701460020002211F0805F03D00E4B80
:1054E0001B1F1A6802E00A4B443B1A680A4201D0AB
:1054F000012000E00020704710F0805F02D00649D4
:10550000086002E002494439486070478000024068
:1055100044000240F8FFFDBF0404024029B14F4A95
:10552000128802434D4B1A8004E04C4A1288824391
:105530004A4B1A8070474948001D008840F010000F
:105540004649091D088070474448001D00884FF6F1
:10555000EF7108404149091D0880704700213F480C
:105560001C300188001F008841EA0040704700B5E8
:105570000246FFF7E0FF100C384918310880091D7A
:105580000A80FFF7E1FF00BD00B50246FFF7D3FF39
:10559000C2F30340314908310880091D0A80FFF732
:1055A000D3FF00BD00B50246FFF7C5FF100C2B4925
:1055B00020310880091D0A80FFF7C6FF00BD0020CA
:1055C0002649103109880907080B24491431098834
:1055D0000843704700BF2148001D008810F0200FCD
:1055E000F9D070471D48001D00884FF6F77108403C
:1055F0001A49091D088000BF1848001D008810F0D6
:10560000080FF9D0704701460020144A121D128875
:105610000A4201D0012000E0002070470F49091D17
:10562000098881430D4A121D1180704701460020F0
:105630000A4A121D12880A40D0B2084A12880A4249
:1056400002D008B1012000E0002070470349091D85
:1056500009888143014A121D1180704700280040CB
:1056600010B50120FFF76AFB0020FFF767FB10BDB4
:105670002249086070472149091F086070471F4987
:10568000843108607047014600201D4A10884FF69B
:105690007F42104008431A4A10807047014600209C
:1056A000174A10884FF6807210400843144A108041
:1056B0007047134A2C3A81527047014610482C38E3
:1056C000085A70470D489C300068C0B270470C48BB
:1056D0000830008840F0010009490831088070470F
:1056E0000648A0300068C0B27047054808300088FE
:1056F00040F00200024908310880704704860D42DC
:105700002C6C004010B501210807FFF70AFB0021AF
:105710004FF08050FFF705FB10BD26490862704727
:1057200024490861704701460020234A106820F090
:10573000E00008431060704720490860704710B5CA
:10574000024600201C4B186820F00300104318602C
:105750001B4B1B6843F00403194C2360012901D142
:1057600030BF00E020BF10BD1348006840F00400C7
:10577000114908600846006840F0020008601048BF
:10578000006840F004000E49086000BF00BF30BF51
:10579000704701460020084A52680A4201D00120A1
:1057A00000E0002070470449096841EA8001024A8C
:1057B0001160704700000E4200700040A0000E42D1
:1057C00010ED00E010B50446F748201806D0B0F5FB
:1057D000806F0DD0B0F5C05F1ED113E001214802EB
:1057E000FFF792FA00214FF40070FFF78DFA14E0F2
:1057F00001218802FFF788FA00214FF48060FFF74B
:1058000083FA0AE00121C803FFF77EFA00214FF472
:105810000040FFF779FA00E000BF00BF10BD30B5CF
:105820000246002000235068E04C20400D790C68AF
:1058300044EA0524204350609068DD4C2040D1E9C3
:1058400002542C434D7944EA450420439060D06AC9
:1058500020F470000C7C641E1C43E3B240EA035049
:10586000D06230BD00210160017141718160C16071
:1058700001210174704721B1826842F00102826007
:1058800003E0826822F001028260704721B18268E1
:1058900042F48072826003E0826822F48072826047
:1058A000704710B50023CBB21AB144681C43446062
:1058B00002E044689C43446010BD816841F00801E7
:1058C00081607047014600208A6812F0080F01D0FD
:1058D000012000E000207047816841F004018160F0
:1058E0007047014600208A6812F0040F01D00120A1
:1058F00000E00020704721B1826842F4A00282607B
:1059000003E0826822F4A002826070470146002012
:105910008A6812F4800F01D0012000E00020704757
:1059200010B50A4600210023416821F46041531E4E
:1059300041EA4331416010BD21B1426842F4006246
:10594000426003E0426822F4006242607047F0B5B2
:1059500004460D4600200021092D11DDE068A5F167
:105960000A0606EB4607072606FA07F18843A5F163
:105970000A0606EB460603FA06F10843E0600CE06F
:10598000206905EB4507072606FA07F1884305EB72
:10599000450603FA06F108432061072A0FDA606B17
:1059A000561E06EB86071F2606FA07F18843561E89
:1059B00006EB860605FA06F10843606322E00D2A2D
:1059C0000FDA206BD61F06EB86071F2606FA07F1B3
:1059D0008843D61F06EB860605FA06F108432063C6
:1059E00010E0E06AA2F10D0606EB86071F2606FA14
:1059F00007F18843A2F10D0606EB860605FA06F1CB
:105A00000843E062F0BD21B1826842F480128260F6
:105A100003E0826822F48012826070470146C86CFD
:105A200080B2704763480068704721B1426842F411
:105A30008062426003E0426822F480624260704704
:105A400021B1426842F48052426003E0426822F48D
:105A50008052426070470A460021816821F4E0418B
:105A600011438160704721B1826842F40042826034
:105A700003E0826822F400428260704721B18268AC
:105A800042F40212826003E0826822F40212826011
:105A90007047014600208A6812F4001F01D00120DF
:105AA00000E000207047F0B50446154600200022B3
:105AB0000026092911DDE068A1F10A0707EB470C70
:105AC000072707FA0CF29043A1F10A0707EB4707F3
:105AD00003FA07F21043E0600CE0206901EB410C8F
